2667260016670000000DAVAO DOCTORS - CONTRACTUAL             366716887300000000065844090000510142020
2667260016670000000DAVAO DOCTORS - CONTRACTUAL             366716919500000000063950090000510142020
2667260016670000000DAVAO DOCTORS - CONTRACTUAL             366717152100000000057363790000510142020
2667260016670000000DAVAO DOCTORS - CONTRACTUAL             366716910100000000065212790000510142020
2667260016670000000DAVAO DOCTORS - CONTRACTUAL             366717259500000000065641190000510142020
2667260016670000000DAVAO DOCTORS - CONTRACTUAL             366717329000000000069217890000510142020
2667260016670000000DAVAO DOCTORS - CONTRACTUAL             366716915200000000065046090000510142020
2667260016670000000DAVAO DOCTORS - CONTRACTUAL             366717221800000000061159390000510142020
