2667260016670000000DAVAO DOCTORS - CONTRACTUAL             36671033640000000001983789000050327201349
2667260016670000000DAVAO DOCTORS - CONTRACTUAL             36671039500000000003801239000050327201345
2667260016670000000DAVAO DOCTORS - CONTRACTUAL             36671069320000000001512649000050327201346
2667260016670000000DAVAO DOCTORS - CONTRACTUAL             36671066140000000002176459000050327201352
2667260016670000000DAVAO DOCTORS - CONTRACTUAL             36671067110000000002145559000050327201347
2667260016670000000DAVAO DOCTORS - CONTRACTUAL             36671079040000000002278429000050327201355
2667260016670000000DAVAO DOCTORS - CONTRACTUAL             36671079120000000002677309000050327201353
2667260016670000000DAVAO DOCTORS - CONTRACTUAL             36671061000000000002118229000050327201337
2667260016670000000DAVAO DOCTORS - CONTRACTUAL             36671063120000000002021699000050327201342
2667260016670000000DAVAO DOCTORS - CONTRACTUAL             36671041150000000002811219000050327201342
2667260016670000000DAVAO DOCTORS - CONTRACTUAL             36671063550000000001904339000050327201342
2667260016670000000DAVAO DOCTORS - CONTRACTUAL             36671067380000000003518169000050327201352
2667260016670000000DAVAO DOCTORS - CONTRACTUAL             36671071220000000003997669000050327201348
2667260016670000000DAVAO DOCTORS - CONTRACTUAL             36671042200000000001632159000050327201339
2667260016670000000DAVAO DOCTORS - CONTRACTUAL             36671058710000000002044799000050327201348
2667260016670000000DAVAO DOCTORS - CONTRACTUAL             36671073940000000004099299000050327201353
2667260016670000000DAVAO DOCTORS - CONTRACTUAL             36671041740000000003535609000050327201344
2667260016670000000DAVAO DOCTORS - CONTRACTUAL             36671073780000000003541449000050327201351
2667260016670000000DAVAO DOCTORS - CONTRACTUAL             36671067460000000002683449000050327201356
2667260016670000000DAVAO DOCTORS - CONTRACTUAL             36671041070000000002208979000050327201343
2667260016670000000DAVAO DOCTORS - CONTRACTUAL             36671067540000000001618069000050327201346
2667260016670000000DAVAO DOCTORS - CONTRACTUAL             36671078070000000003949139000050327201355
2667260016670000000DAVAO DOCTORS - CONTRACTUAL             36671061180000000003778829000050327201352
2667260016670000000DAVAO DOCTORS - CONTRACTUAL             36671059870000000001294209000050327201359
000024000000006333253
