2667260016670000000DAVAO DOCTORS - CONTRACTUAL             36671083900000000004671239000050515201347
2667260016670000000DAVAO DOCTORS - CONTRACTUAL             36671033640000000004563089000050515201350
2667260016670000000DAVAO DOCTORS - CONTRACTUAL             36671082420000000004308439000050515201341
2667260016670000000DAVAO DOCTORS - CONTRACTUAL             36671069320000000003311009000050515201348
2667260016670000000DAVAO DOCTORS - CONTRACTUAL             36671086090000000005206929000050515201353
2667260016670000000DAVAO DOCTORS - CONTRACTUAL             36671066140000000003686769000050515201354
2667260016670000000DAVAO DOCTORS - CONTRACTUAL             36671067110000000003605459000050515201344
2667260016670000000DAVAO DOCTORS - CONTRACTUAL             36671079040000000003418259000050515201350
2667260016670000000DAVAO DOCTORS - CONTRACTUAL             36671079120000000004062849000050515201354
2667260016670000000DAVAO DOCTORS - CONTRACTUAL             36671063120000000002962319000050515201346
2667260016670000000DAVAO DOCTORS - CONTRACTUAL             36671085950000000002409009000050515201345
2667260016670000000DAVAO DOCTORS - CONTRACTUAL             36671067380000000004781989000050515201360
2667260016670000000DAVAO DOCTORS - CONTRACTUAL             36671071220000000004777929000050515201347
2667260016670000000DAVAO DOCTORS - CONTRACTUAL             36671042200000000003566249000050515201344
2667260016670000000DAVAO DOCTORS - CONTRACTUAL             36671058710000000003205199000050515201345
2667260016670000000DAVAO DOCTORS - CONTRACTUAL             36671073940000000002989719000050515201350
2667260016670000000DAVAO DOCTORS - CONTRACTUAL             36671073780000000004086889000050515201356
2667260016670000000DAVAO DOCTORS - CONTRACTUAL             36671067460000000003984509000050515201357
2667260016670000000DAVAO DOCTORS - CONTRACTUAL             36671067540000000003521289000050515201349
2667260016670000000DAVAO DOCTORS - CONTRACTUAL             36671081370000000004296789000050515201354
2667260016670000000DAVAO DOCTORS - CONTRACTUAL             36671086840000000002756329000050515201350
000021000000008017207
