2667260016670000000DAVAO DOCTORS - CONTRACTUAL             366716887300000000066110890000506112020
2667260016670000000DAVAO DOCTORS - CONTRACTUAL             366716909800000000069505790000506112020
2667260016670000000DAVAO DOCTORS - CONTRACTUAL             366716919500000000043230390000506112020
2667260016670000000DAVAO DOCTORS - CONTRACTUAL             366716800800000000079607190000506112020
2667260016670000000DAVAO DOCTORS - CONTRACTUAL             366716910100000000066413890000506112020
2667260016670000000DAVAO DOCTORS - CONTRACTUAL             366716915200000000061060190000506112020
2667260016670000000DAVAO DOCTORS - CONTRACTUAL             366716889000000000069505790000506112020
