2667260016670000000DAVAO DOCTORS - OFFICERS                36670511430000000005834379000030314201344
2667260016670000000DAVAO DOCTORS - OFFICERS                36670995450000000005779189000030314201354
2667260016670000000DAVAO DOCTORS - OFFICERS                36670455500000000008224079000030314201347
2667260016670000000DAVAO DOCTORS - OFFICERS                36670915600000000003845699000030314201344
2667260016670000000DAVAO DOCTORS - OFFICERS                36670959730000000004752799000030314201353
2667260016670000000DAVAO DOCTORS - OFFICERS                36670232800000000011801569000030314201336
2667260016670000000DAVAO DOCTORS - OFFICERS                36670660940000000008465879000030314201350
2667260016670000000DAVAO DOCTORS - OFFICERS                36670090070000000004890909000030314201352
2667260016670000000DAVAO DOCTORS - OFFICERS                36670820140000000009730809000030314201348
2667260016670000000DAVAO DOCTORS - OFFICERS                36670246260000000009191719000030314201362
2667260016670000000DAVAO DOCTORS - OFFICERS                36670146710000000005357799000030314201349
2667260016670000000DAVAO DOCTORS - OFFICERS                36670487200000000005710259000030314201345
2667260016670000000DAVAO DOCTORS - OFFICERS                36670238590000000014510659000030314201355
2667260016670000000DAVAO DOCTORS - OFFICERS                36670206120000000005593599000030314201354
2667260016670000000DAVAO DOCTORS - OFFICERS                36671002760000000005971359000030314201353
2667260016670000000DAVAO DOCTORS - OFFICERS                36671013960000000004944769000030314201350
2667260016670000000DAVAO DOCTORS - OFFICERS                36670111410000000004869079000030314201344
2667260016670000000DAVAO DOCTORS - OFFICERS                36671030620000000004511359000030314201340
2667260016670000000DAVAO DOCTORS - OFFICERS                36670995610000000008739289000030314201349
2667260016670000000DAVAO DOCTORS - OFFICERS                36670891590000000006219439000030314201349
2667260016670000000DAVAO DOCTORS - OFFICERS                36671019060000000016713789000030314201356
2667260016670000000DAVAO DOCTORS - OFFICERS                36670112730000000004015409000030314201342
2667260016670000000DAVAO DOCTORS - OFFICERS                36670959650000000004845579000030314201354
2667260016670000000DAVAO DOCTORS - OFFICERS                36670776650000000004905459000030314201347
2667260016670000000DAVAO DOCTORS - OFFICERS                36670234410000000009669129000030314201352
2667260016670000000DAVAO DOCTORS - OFFICERS                36671077180000000001567719000030314201355
2667260016670000000DAVAO DOCTORS - OFFICERS                36670633970000000006370479000030314201355
2667260016670000000DAVAO DOCTORS - OFFICERS                36670101020000000007152579000030314201347
2667260016670000000DAVAO DOCTORS - OFFICERS                36671013880000000003865089000030314201353
2667260016670000000DAVAO DOCTORS - OFFICERS                36671040770000000004014149000030314201345
2667260016670000000DAVAO DOCTORS - OFFICERS                36671033720000000005105839000030314201343
2667260016670000000DAVAO DOCTORS - OFFICERS                36671030460000000005046509000030314201348
2667260016670000000DAVAO DOCTORS - OFFICERS                36670885510000000005853649000030314201348
2667260016670000000DAVAO DOCTORS - OFFICERS                36671031860000000004881399000030314201352
2667260016670000000DAVAO DOCTORS - OFFICERS                36670105950000000009947669000030314201355
2667260016670000000DAVAO DOCTORS - OFFICERS                36671016630000000004899019000030314201355
2667260016670000000DAVAO DOCTORS - OFFICERS                36670238320000000004460789000030314201352
2667260016670000000DAVAO DOCTORS - OFFICERS                36670237350000000010202179000030314201345
2667260016670000000DAVAO DOCTORS - OFFICERS                36671022870000000005862119000030314201353
2667260016670000000DAVAO DOCTORS - OFFICERS                36670519410000000009149719000030314201355
2667260016670000000DAVAO DOCTORS - OFFICERS                36670872450000000015316679000030314201346
2667260016670000000DAVAO DOCTORS - OFFICERS                36671044090000000004615909000030314201351
2667260016670000000DAVAO DOCTORS - OFFICERS                36671059010000000006978509000030314201356
2667260016670000000DAVAO DOCTORS - OFFICERS                36670773980000000005215089000030314201349
2667260016670000000DAVAO DOCTORS - OFFICERS                36670085740000000010702249000030314201342
2667260016670000000DAVAO DOCTORS - OFFICERS                36671030540000000003888389000030314201348
2667260016670000000DAVAO DOCTORS - OFFICERS                36670875470000000004210029000030314201349
2667260016670000000DAVAO DOCTORS - OFFICERS                36670456070000000008532759000030314201356
2667260016670000000DAVAO DOCTORS - OFFICERS                36671033800000000005921469000030314201343
2667260016670000000DAVAO DOCTORS - OFFICERS                36671047190000000004743969000030314201357
2667260016670000000DAVAO DOCTORS - OFFICERS                36670148760000000008930099000030314201357
2667260016670000000DAVAO DOCTORS - OFFICERS                36670093410000000005421799000030314201343
2667260016670000000DAVAO DOCTORS - OFFICERS                36670454100000000006445039000030314201346
2667260016670000000DAVAO DOCTORS - OFFICERS                36670868420000000011952049000030314201349
2667260016670000000DAVAO DOCTORS - OFFICERS                36670110100000000003859719000030314201340
2667260016670000000DAVAO DOCTORS - OFFICERS                36671021980000000009228529000030314201353
2667260016670000000DAVAO DOCTORS - OFFICERS                36670101880000000004685889000030314201353
2667260016670000000DAVAO DOCTORS - OFFICERS                36670110600000000009951149000030314201346
2667260016670000000DAVAO DOCTORS - OFFICERS                36670234250000000014710949000030314201347
2667260016670000000DAVAO DOCTORS - OFFICERS                36670242270000000005625659000030314201348
2667260016670000000DAVAO DOCTORS - OFFICERS                36670907260000000008472799000030314201360
2667260016670000000DAVAO DOCTORS - OFFICERS                36670504220000000007569159000030314201351
2667260016670000000DAVAO DOCTORS - OFFICERS                36670985650000000006780149000030314201356
2667260016670000000DAVAO DOCTORS - OFFICERS                36670950270000000003380839000030314201350
2667260016670000000DAVAO DOCTORS - OFFICERS                36671058980000000015830779000030314201358
2667260016670000000DAVAO DOCTORS - OFFICERS                36670103900000000004179849000030314201346
2667260016670000000DAVAO DOCTORS - OFFICERS                36671076960000000001567719000030314201352
2667260016670000000DAVAO DOCTORS - OFFICERS                36671004620000000006561579000030314201351
2667260016670000000DAVAO DOCTORS - OFFICERS                36670241700000000005485049000030314201346
2667260016670000000DAVAO DOCTORS - OFFICERS                36670094140000000012711479000030314201344
2667260016670000000DAVAO DOCTORS - OFFICERS                36670946320000000005223709000030314201347
2667260016670000000DAVAO DOCTORS - OFFICERS                36670394700000000009366529000030314201351
2667260016670000000DAVAO DOCTORS - OFFICERS                36670990650000000005845839000030314201346
2667260016670000000DAVAO DOCTORS - OFFICERS                36670769870000000012872639000030314201358
2667260016670000000DAVAO DOCTORS - OFFICERS                36670944460000000007786229000030314201357
2667260016670000000DAVAO DOCTORS - OFFICERS                36670113620000000009685489000030314201354
2667260016670000000DAVAO DOCTORS - OFFICERS                36670833980000000018708099000030314201352
2667260016670000000DAVAO DOCTORS - OFFICERS                36670086470000000004797309000030314201358
2667260016670000000DAVAO DOCTORS - OFFICERS                36671077000000000001266719000030314201347
2667260016670000000DAVAO DOCTORS - OFFICERS                36670996500000000005463069000030314201349
2667260016670000000DAVAO DOCTORS - OFFICERS                36670838600000000004814929000030314201345
2667260016670000000DAVAO DOCTORS - OFFICERS                36670946400000000006030339000030314201347
2667260016670000000DAVAO DOCTORS - OFFICERS                36670092010000000005538659000030314201343
2667260016670000000DAVAO DOCTORS - OFFICERS                36670927450000000005620409000030314201351
2667260016670000000DAVAO DOCTORS - OFFICERS                36670907420000000005051389000030314201351
2667260016670000000DAVAO DOCTORS - OFFICERS                36670022740000000014754039000030314201348
2667260016670000000DAVAO DOCTORS - OFFICERS                36670884030000000014025999000030314201346
2667260016670000000DAVAO DOCTORS - OFFICERS                36670241460000000007314169000030314201347
2667260016670000000DAVAO DOCTORS - OFFICERS                36670232980000000011673509000030314201351
2667260016670000000DAVAO DOCTORS - OFFICERS                36670671630000000005115319000030314201342
2667260016670000000DAVAO DOCTORS - OFFICERS                36670309950000000009766699000030314201361
2667260016670000000DAVAO DOCTORS - OFFICERS                36670617180000000005347749000030314201356
2667260016670000000DAVAO DOCTORS - OFFICERS                36670981740000000006296629000030314201352
2667260016670000000DAVAO DOCTORS - OFFICERS                36670107140000000004443019000030314201351
2667260016670000000DAVAO DOCTORS - OFFICERS                36670663960000000006258249000030314201352
2667260016670000000DAVAO DOCTORS - OFFICERS                36670861920000000004950479000030314201344
2667260016670000000DAVAO DOCTORS - OFFICERS                36670885780000000006753219000030314201356
2667260016670000000DAVAO DOCTORS - OFFICERS                36670241540000000003906929000030314201340
2667260016670000000DAVAO DOCTORS - OFFICERS                36670502440000000003709519000030314201341
2667260016670000000DAVAO DOCTORS - OFFICERS                36670094900000000004608309000030314201340
2667260016670000000DAVAO DOCTORS - OFFICERS                36671031940000000004227319000030314201344
2667260016670000000DAVAO DOCTORS - OFFICERS                36670172390000000004476799000030314201354
2667260016670000000DAVAO DOCTORS - OFFICERS                36670967400000000006289449000030314201353
2667260016670000000DAVAO DOCTORS - OFFICERS                36670237600000000016237289000030314201349
2667260016670000000DAVAO DOCTORS - OFFICERS                36671006160000000005429149000030314201352
2667260016670000000DAVAO DOCTORS - OFFICERS                36670707920000000007174679000030314201355
2667260016670000000DAVAO DOCTORS - OFFICERS                36670707680000000011593069000030314201358
2667260016670000000DAVAO DOCTORS - OFFICERS                36671013700000000005938019000030314201344
2667260016670000000DAVAO DOCTORS - OFFICERS                36670899810000000005016099000030314201348
2667260016670000000DAVAO DOCTORS - OFFICERS                36670247070000000004277589000030314201357
000110000000077860190
