2667260016670000000DAVAO DOCTORS - CONTRACTUAL             366717448200000000141677890000502262021
2667260016670000000DAVAO DOCTORS - CONTRACTUAL             366717364800000000058179890000502262021
2667260016670000000DAVAO DOCTORS - CONTRACTUAL             366717397400000000060663090000502262021
2667260016670000000DAVAO DOCTORS - CONTRACTUAL             366717350800000000050404590000502262021
2667260016670000000DAVAO DOCTORS - CONTRACTUAL             366717479200000000053206290000502262021
2667260016670000000DAVAO DOCTORS - CONTRACTUAL             366717353200000000058491190000502262021
2667260016670000000DAVAO DOCTORS - CONTRACTUAL             366717352400000000057963190000502262021
2667260016670000000DAVAO DOCTORS - CONTRACTUAL             366717351600000000045323590000502262021
