2667260016670000000DAVAO DOCTORS - CONTRACTUAL             366716887300000000069152190000508142020
2667260016670000000DAVAO DOCTORS - CONTRACTUAL             366716919500000000070490690000508142020
2667260016670000000DAVAO DOCTORS - CONTRACTUAL             366717152100000000069000690000508142020
2667260016670000000DAVAO DOCTORS - CONTRACTUAL             366716910100000000066007990000508142020
2667260016670000000DAVAO DOCTORS - CONTRACTUAL             366714696900000000068697690000508142020
2667260016670000000DAVAO DOCTORS - CONTRACTUAL             366714675600000000065010690000508142020
2667260016670000000DAVAO DOCTORS - CONTRACTUAL             366716915200000000069692490000508142020
2667260016670000000DAVAO DOCTORS - CONTRACTUAL             366716889000000000061034690000508142020
