2667260016670000000DAVAO DOCTORS - RANK AND FILE           36671026190000000005285169000040515201361
2667260016670000000DAVAO DOCTORS - RANK AND FILE           36671008880000000004433049000040515201356
2667260016670000000DAVAO DOCTORS - RANK AND FILE           36670674570000000005697259000040515201357
2667260016670000000DAVAO DOCTORS - RANK AND FILE           36671046890000000004199339000040515201361
2667260016670000000DAVAO DOCTORS - RANK AND FILE           36670806580000000005674289000040515201358
2667260016670000000DAVAO DOCTORS - RANK AND FILE           36670151630000000007226539000040515201345
2667260016670000000DAVAO DOCTORS - RANK AND FILE           36670866050000000003321099000040515201348
2667260016670000000DAVAO DOCTORS - RANK AND FILE           36670844590000000005633469000040515201353
2667260016670000000DAVAO DOCTORS - RANK AND FILE           36670104550000000008184199000040515201357
2667260016670000000DAVAO DOCTORS - RANK AND FILE           36671008530000000005113459000040515201350
2667260016670000000DAVAO DOCTORS - RANK AND FILE           36670956040000000002011509000040515201345
2667260016670000000DAVAO DOCTORS - RANK AND FILE           36670086980000000004289789000040515201358
2667260016670000000DAVAO DOCTORS - RANK AND FILE           36671000200000000004754979000040515201342
2667260016670000000DAVAO DOCTORS - RANK AND FILE           36670096270000000003589049000040515201356
2667260016670000000DAVAO DOCTORS - RANK AND FILE           36671045060000000004463939000040515201354
2667260016670000000DAVAO DOCTORS - RANK AND FILE           36670892050000000005288869000040515201352
2667260016670000000DAVAO DOCTORS - RANK AND FILE           36671008610000000005038659000040515201350
2667260016670000000DAVAO DOCTORS - RANK AND FILE           36670981660000000005132879000040515201347
2667260016670000000DAVAO DOCTORS - RANK AND FILE           36671008700000000004793259000040515201354
2667260016670000000DAVAO DOCTORS - RANK AND FILE           36670333820000000004038049000040515201344
2667260016670000000DAVAO DOCTORS - RANK AND FILE           36671036740000000004680049000040515201355
2667260016670000000DAVAO DOCTORS - RANK AND FILE           36670613270000000004627859000040515201348
2667260016670000000DAVAO DOCTORS - RANK AND FILE           36671048750000000003666119000040515201355
2667260016670000000DAVAO DOCTORS - RANK AND FILE           36670776730000000004304559000040515201345
2667260016670000000DAVAO DOCTORS - RANK AND FILE           36670090660000000003730399000040515201344
2667260016670000000DAVAO DOCTORS - RANK AND FILE           36671026430000000005620439000040515201349
2667260016670000000DAVAO DOCTORS - RANK AND FILE           36670245610000000003074199000040515201348
2667260016670000000DAVAO DOCTORS - RANK AND FILE           36670328400000000004335629000040515201347
2667260016670000000DAVAO DOCTORS - RANK AND FILE           36670244640000000002429259000040515201344
2667260016670000000DAVAO DOCTORS - RANK AND FILE           36670416010000000002216559000040515201342
2667260016670000000DAVAO DOCTORS - RANK AND FILE           36670205900000000004676199000040515201348
2667260016670000000DAVAO DOCTORS - RANK AND FILE           36670100130000000004637429000040515201342
2667260016670000000DAVAO DOCTORS - RANK AND FILE           36670424970000000006643729000040515201353
2667260016670000000DAVAO DOCTORS - RANK AND FILE           36670902200000000004837639000040515201341
2667260016670000000DAVAO DOCTORS - RANK AND FILE           36670511510000000003429209000040515201339
2667260016670000000DAVAO DOCTORS - RANK AND FILE           36670613000000000003559579000040515201343
2667260016670000000DAVAO DOCTORS - RANK AND FILE           36671066060000000004416419000040515201350
2667260016670000000DAVAO DOCTORS - RANK AND FILE           36670248800000000004868709000040515201350
2667260016670000000DAVAO DOCTORS - RANK AND FILE           36670883900000000006040889000040515201345
2667260016670000000DAVAO DOCTORS - RANK AND FILE           36670772660000000006475379000040515201353
2667260016670000000DAVAO DOCTORS - RANK AND FILE           36670243320000000003232899000040515201343
2667260016670000000DAVAO DOCTORS - RANK AND FILE           36671037200000000004873019000040515201351
2667260016670000000DAVAO DOCTORS - RANK AND FILE           36670923380000000005023039000040515201350
2667260016670000000DAVAO DOCTORS - RANK AND FILE           36670979760000000004747789000040515201355
2667260016670000000DAVAO DOCTORS - RANK AND FILE           36670542150000000006957899000040515201350
2667260016670000000DAVAO DOCTORS - RANK AND FILE           36670891750000000002726119000040515201342
2667260016670000000DAVAO DOCTORS - RANK AND FILE           36671009500000000005094899000040515201356
2667260016670000000DAVAO DOCTORS - RANK AND FILE           36671084040000000004526579000040515201347
2667260016670000000DAVAO DOCTORS - RANK AND FILE           36670951320000000004995379000040515201348
2667260016670000000DAVAO DOCTORS - RANK AND FILE           36670777460000000006631719000040515201354
2667260016670000000DAVAO DOCTORS - RANK AND FILE           36670929820000000004911339000040515201348
2667260016670000000DAVAO DOCTORS - RANK AND FILE           36670095620000000003263089000040515201348
2667260016670000000DAVAO DOCTORS - RANK AND FILE           36670846290000000004383989000040515201359
2667260016670000000DAVAO DOCTORS - RANK AND FILE           36671041900000000004299249000040515201347
2667260016670000000DAVAO DOCTORS - RANK AND FILE           36670981820000000004723959000040515201341
2667260016670000000DAVAO DOCTORS - RANK AND FILE           36671000630000000004778559000040515201347
2667260016670000000DAVAO DOCTORS - RANK AND FILE           36670778780000000003701519000040515201351
2667260016670000000DAVAO DOCTORS - RANK AND FILE           36671069240000000004686769000040515201358
2667260016670000000DAVAO DOCTORS - RANK AND FILE           36671063040000000004432709000040515201347
2667260016670000000DAVAO DOCTORS - RANK AND FILE           36671027590000000004821299000040515201355
2667260016670000000DAVAO DOCTORS - RANK AND FILE           36670859600000000005423759000040515201348
2667260016670000000DAVAO DOCTORS - RANK AND FILE           36670145820000000003845179000040515201346
2667260016670000000DAVAO DOCTORS - RANK AND FILE           36670103070000000004790229000040515201355
2667260016670000000DAVAO DOCTORS - RANK AND FILE           36671025620000000004834969000040515201347
2667260016670000000DAVAO DOCTORS - RANK AND FILE           36670925400000000005671149000040515201349
2667260016670000000DAVAO DOCTORS - RANK AND FILE           36671005270000000005497709000040515201359
2667260016670000000DAVAO DOCTORS - RANK AND FILE           36670948370000000004637079000040515201354
2667260016670000000DAVAO DOCTORS - RANK AND FILE           36671073350000000004641669000040515201349
2667260016670000000DAVAO DOCTORS - RANK AND FILE           36671085100000000004289649000040515201350
2667260016670000000DAVAO DOCTORS - RANK AND FILE           36670777200000000002260329000040515201347
2667260016670000000DAVAO DOCTORS - RANK AND FILE           36670957010000000005137379000040515201348
2667260016670000000DAVAO DOCTORS - RANK AND FILE           36670958840000000004855529000040515201353
2667260016670000000DAVAO DOCTORS - RANK AND FILE           36670102180000000006629829000040515201350
2667260016670000000DAVAO DOCTORS - RANK AND FILE           36670703420000000003889759000040515201348
2667260016670000000DAVAO DOCTORS - RANK AND FILE           36671043790000000004512119000040515201350
2667260016670000000DAVAO DOCTORS - RANK AND FILE           36670109860000000005226139000040515201354
2667260016670000000DAVAO DOCTORS - RANK AND FILE           36670900760000000005426269000040515201345
2667260016670000000DAVAO DOCTORS - RANK AND FILE           36670891400000000003601949000040515201336
2667260016670000000DAVAO DOCTORS - RANK AND FILE           36670104200000000003494219000040515201348
2667260016670000000DAVAO DOCTORS - RANK AND FILE           36670961980000000004822759000040515201347
2667260016670000000DAVAO DOCTORS - RANK AND FILE           36670488270000000006713719000040515201354
2667260016670000000DAVAO DOCTORS - RANK AND FILE           36670931720000000004809009000040515201339
2667260016670000000DAVAO DOCTORS - RANK AND FILE           36670846530000000005491639000040515201355
2667260016670000000DAVAO DOCTORS - RANK AND FILE           36670970970000000005391499000040515201353
2667260016670000000DAVAO DOCTORS - RANK AND FILE           36670826690000000006249679000040515201357
2667260016670000000DAVAO DOCTORS - RANK AND FILE           36670958250000000005026239000040515201352
2667260016670000000DAVAO DOCTORS - RANK AND FILE           36670945780000000004883049000040515201357
2667260016670000000DAVAO DOCTORS - RANK AND FILE           36671086920000000004231839000040515201348
2667260016670000000DAVAO DOCTORS - RANK AND FILE           36670804100000000004196969000040515201349
2667260016670000000DAVAO DOCTORS - RANK AND FILE           36670487620000000007266309000040515201354
2667260016670000000DAVAO DOCTORS - RANK AND FILE           36670742590000000004555959000040515201352
2667260016670000000DAVAO DOCTORS - RANK AND FILE           36670971350000000004668609000040515201348
2667260016670000000DAVAO DOCTORS - RANK AND FILE           36671031000000000004797629000040515201347
2667260016670000000DAVAO DOCTORS - RANK AND FILE           36670944110000000003165629000040515201346
2667260016670000000DAVAO DOCTORS - RANK AND FILE           36671018840000000004761989000040515201355
2667260016670000000DAVAO DOCTORS - RANK AND FILE           36671085280000000004441409000040515201354
2667260016670000000DAVAO DOCTORS - RANK AND FILE           36670872530000000004098589000040515201350
2667260016670000000DAVAO DOCTORS - RANK AND FILE           36671046970000000004679229000040515201357
2667260016670000000DAVAO DOCTORS - RANK AND FILE           36670153410000000003462119000040515201345
2667260016670000000DAVAO DOCTORS - RANK AND FILE           36670856250000000005229249000040515201350
2667260016670000000DAVAO DOCTORS - RANK AND FILE           36670678800000000004210089000040515201345
2667260016670000000DAVAO DOCTORS - RANK AND FILE           36670949930000000005368559000040515201355
2667260016670000000DAVAO DOCTORS - RANK AND FILE           36670206390000000002400209000040515201349
2667260016670000000DAVAO DOCTORS - RANK AND FILE           36671047000000000004496969000040515201353
2667260016670000000DAVAO DOCTORS - RANK AND FILE           36670736000000000005381739000040515201351
2667260016670000000DAVAO DOCTORS - RANK AND FILE           36670242940000000003689889000040515201349
2667260016670000000DAVAO DOCTORS - RANK AND FILE           36670859780000000005620759000040515201356
2667260016670000000DAVAO DOCTORS - RANK AND FILE           36670667790000000004850329000040515201357
2667260016670000000DAVAO DOCTORS - RANK AND FILE           36670989480000000005179409000040515201361
2667260016670000000DAVAO DOCTORS - RANK AND FILE           36670685850000000006611229000040515201349
2667260016670000000DAVAO DOCTORS - RANK AND FILE           36670272930000000003730209000040515201343
2667260016670000000DAVAO DOCTORS - RANK AND FILE           36670122100000000002413619000040515201337
2667260016670000000DAVAO DOCTORS - RANK AND FILE           36670264320000000002581419000040515201348
2667260016670000000DAVAO DOCTORS - RANK AND FILE           36670105520000000006309869000040515201345
2667260016670000000DAVAO DOCTORS - RANK AND FILE           36671000550000000004768929000040515201348
2667260016670000000DAVAO DOCTORS - RANK AND FILE           36670103580000000003816429000040515201347
2667260016670000000DAVAO DOCTORS - RANK AND FILE           36670858700000000006342519000040515201350
2667260016670000000DAVAO DOCTORS - RANK AND FILE           36670960400000000004937229000040515201339
2667260016670000000DAVAO DOCTORS - RANK AND FILE           36670720270000000002639419000040515201344
2667260016670000000DAVAO DOCTORS - RANK AND FILE           36671039170000000004405799000040515201353
2667260016670000000DAVAO DOCTORS - RANK AND FILE           36670242860000000004452939000040515201349
2667260016670000000DAVAO DOCTORS - RANK AND FILE           36670923890000000005941439000040515201353
2667260016670000000DAVAO DOCTORS - RANK AND FILE           36670840170000000005762219000040515201350
2667260016670000000DAVAO DOCTORS - RANK AND FILE           36670718290000000005733239000040515201357
2667260016670000000DAVAO DOCTORS - RANK AND FILE           36670995370000000005122239000040515201351
2667260016670000000DAVAO DOCTORS - RANK AND FILE           36671011750000000005452239000040515201349
2667260016670000000DAVAO DOCTORS - RANK AND FILE           36671039680000000004686739000040515201362
2667260016670000000DAVAO DOCTORS - RANK AND FILE           36670927020000000005724839000040515201348
2667260016670000000DAVAO DOCTORS - RANK AND FILE           36670845210000000004260769000040515201348
2667260016670000000DAVAO DOCTORS - RANK AND FILE           36671079390000000004603669000040515201355
2667260016670000000DAVAO DOCTORS - RANK AND FILE           36670094730000000004807179000040515201343
2667260016670000000DAVAO DOCTORS - RANK AND FILE           36670206040000000004610459000040515201347
2667260016670000000DAVAO DOCTORS - RANK AND FILE           36670896040000000004650819000040515201351
2667260016670000000DAVAO DOCTORS - RANK AND FILE           36671001100000000005033719000040515201342
2667260016670000000DAVAO DOCTORS - RANK AND FILE           36671000470000000004984739000040515201352
2667260016670000000DAVAO DOCTORS - RANK AND FILE           36671035690000000005053659000040515201357
2667260016670000000DAVAO DOCTORS - RANK AND FILE           36670248550000000002866149000040515201353
2667260016670000000DAVAO DOCTORS - RANK AND FILE           36671082930000000004712079000040515201343
2667260016670000000DAVAO DOCTORS - RANK AND FILE           36671020310000000004802879000040515201338
2667260016670000000DAVAO DOCTORS - RANK AND FILE           36670944380000000004260669000040515201354
2667260016670000000DAVAO DOCTORS - RANK AND FILE           36670796920000000004350539000040515201349
2667260016670000000DAVAO DOCTORS - RANK AND FILE           36670103310000000003934939000040515201342
2667260016670000000DAVAO DOCTORS - RANK AND FILE           36671007990000000005139299000040515201357
2667260016670000000DAVAO DOCTORS - RANK AND FILE           36671028480000000002984289000040515201359
2667260016670000000DAVAO DOCTORS - RANK AND FILE           36671042120000000004689809000040515201349
2667260016670000000DAVAO DOCTORS - RANK AND FILE           36671028990000000005864319000040515201361
2667260016670000000DAVAO DOCTORS - RANK AND FILE           36670447400000000006250679000040515201350
2667260016670000000DAVAO DOCTORS - RANK AND FILE           36670107060000000003409409000040515201348
2667260016670000000DAVAO DOCTORS - RANK AND FILE           36670848660000000002109099000040515201348
2667260016670000000DAVAO DOCTORS - RANK AND FILE           36671025540000000005057209000040515201352
2667260016670000000DAVAO DOCTORS - RANK AND FILE           36670112810000000009210869000040515201345
2667260016670000000DAVAO DOCTORS - RANK AND FILE           36670931300000000004995629000040515201346
2667260016670000000DAVAO DOCTORS - RANK AND FILE           36670855520000000005076759000040515201351
2667260016670000000DAVAO DOCTORS - RANK AND FILE           36670835840000000002832939000040515201346
2667260016670000000DAVAO DOCTORS - RANK AND FILE           36670606650000000003710249000040515201347
2667260016670000000DAVAO DOCTORS - RANK AND FILE           36670743640000000005918279000040515201345
2667260016670000000DAVAO DOCTORS - RANK AND FILE           36671079980000000004688299000040515201362
2667260016670000000DAVAO DOCTORS - RANK AND FILE           36671005190000000005099149000040515201361
2667260016670000000DAVAO DOCTORS - RANK AND FILE           36670987860000000005107039000040515201350
2667260016670000000DAVAO DOCTORS - RANK AND FILE           36670109270000000005260399000040515201359
2667260016670000000DAVAO DOCTORS - RANK AND FILE           36670930240000000003201159000040515201339
2667260016670000000DAVAO DOCTORS - RANK AND FILE           36670703340000000003224889000040515201344
2667260016670000000DAVAO DOCTORS - RANK AND FILE           36670724770000000006362099000040515201355
2667260016670000000DAVAO DOCTORS - RANK AND FILE           36670779830000000005426169000040515201351
2667260016670000000DAVAO DOCTORS - RANK AND FILE           36670866800000000006166269000040515201350
2667260016670000000DAVAO DOCTORS - RANK AND FILE           36670955820000000004401319000040515201343
2667260016670000000DAVAO DOCTORS - RANK AND FILE           36671029450000000005156259000040515201357
2667260016670000000DAVAO DOCTORS - RANK AND FILE           36670899060000000005364909000040515201358
2667260016670000000DAVAO DOCTORS - RANK AND FILE           36670146630000000003586899000040515201352
2667260016670000000DAVAO DOCTORS - RANK AND FILE           36670923970000000006889619000040515201356
2667260016670000000DAVAO DOCTORS - RANK AND FILE           36671060700000000004430139000040515201340
2667260016670000000DAVAO DOCTORS - RANK AND FILE           36670892560000000005757159000040515201350
2667260016670000000DAVAO DOCTORS - RANK AND FILE           36670717130000000003254599000040515201350
2667260016670000000DAVAO DOCTORS - RANK AND FILE           36670828710000000008836499000040515201352
2667260016670000000DAVAO DOCTORS - RANK AND FILE           36671020070000000004468709000040515201350
2667260016670000000DAVAO DOCTORS - RANK AND FILE           36670206470000000006613019000040515201352
2667260016670000000DAVAO DOCTORS - RANK AND FILE           36670206200000000003168729000040515201347
2667260016670000000DAVAO DOCTORS - RANK AND FILE           36670946670000000002497349000040515201356
2667260016670000000DAVAO DOCTORS - RANK AND FILE           36670962440000000003240519000040515201345
2667260016670000000DAVAO DOCTORS - RANK AND FILE           36670264080000000008430939000040515201355
2667260016670000000DAVAO DOCTORS - RANK AND FILE           36670110790000000003261249000040515201350
2667260016670000000DAVAO DOCTORS - RANK AND FILE           36671038100000000004674799000040515201352
2667260016670000000DAVAO DOCTORS - RANK AND FILE           36670978010000000005087339000040515201354
2667260016670000000DAVAO DOCTORS - RANK AND FILE           36670976660000000005307039000040515201349
2667260016670000000DAVAO DOCTORS - RANK AND FILE           36671073510000000005035299000040515201345
2667260016670000000DAVAO DOCTORS - RANK AND FILE           36670388640000000005525759000040515201351
2667260016670000000DAVAO DOCTORS - RANK AND FILE           36670105870000000003011609000040515201348
2667260016670000000DAVAO DOCTORS - RANK AND FILE           36671073860000000005675089000040515201354
2667260016670000000DAVAO DOCTORS - RANK AND FILE           36671009000000000005159129000040515201352
2667260016670000000DAVAO DOCTORS - RANK AND FILE           36671038600000000003903259000040515201344
2667260016670000000DAVAO DOCTORS - RANK AND FILE           36671020150000000005386909000040515201351
2667260016670000000DAVAO DOCTORS - RANK AND FILE           36671016980000000005974289000040515201359
2667260016670000000DAVAO DOCTORS - RANK AND FILE           36670778940000000005540849000040515201353
2667260016670000000DAVAO DOCTORS - RANK AND FILE           36670089140000000005705059000040515201350
2667260016670000000DAVAO DOCTORS - RANK AND FILE           36670902540000000006004379000040515201344
2667260016670000000DAVAO DOCTORS - RANK AND FILE           36670991620000000005298599000040515201349
2667260016670000000DAVAO DOCTORS - RANK AND FILE           36670094650000000000978979000040515201348
2667260016670000000DAVAO DOCTORS - RANK AND FILE           36670993830000000004755869000040515201347
2667260016670000000DAVAO DOCTORS - RANK AND FILE           36671076880000000004859279000040515201356
2667260016670000000DAVAO DOCTORS - RANK AND FILE           36670259320000000003743769000040515201350
2667260016670000000DAVAO DOCTORS - RANK AND FILE           36670807120000000005545839000040515201350
2667260016670000000DAVAO DOCTORS - RANK AND FILE           36670207440000000003806659000040515201346
2667260016670000000DAVAO DOCTORS - RANK AND FILE           36671073600000000004689829000040515201348
2667260016670000000DAVAO DOCTORS - RANK AND FILE           36670097830000000006315729000040515201349
2667260016670000000DAVAO DOCTORS - RANK AND FILE           36670986540000000005009339000040515201347
2667260016670000000DAVAO DOCTORS - RANK AND FILE           36670525220000000007314659000040515201347
2667260016670000000DAVAO DOCTORS - RANK AND FILE           36670867530000000006440689000040515201352
2667260016670000000DAVAO DOCTORS - RANK AND FILE           36670097910000000003346789000040515201347
2667260016670000000DAVAO DOCTORS - RANK AND FILE           36670828470000000008490359000040515201364
2667260016670000000DAVAO DOCTORS - RANK AND FILE           36671083230000000004409279000040515201343
2667260016670000000DAVAO DOCTORS - RANK AND FILE           36670088680000000006706059000040515201354
2667260016670000000DAVAO DOCTORS - RANK AND FILE           36670257110000000002965199000040515201348
2667260016670000000DAVAO DOCTORS - RANK AND FILE           36670976400000000005395759000040515201352
2667260016670000000DAVAO DOCTORS - RANK AND FILE           36671028720000000005714939000040515201349
2667260016670000000DAVAO DOCTORS - RANK AND FILE           36671085360000000004441689000040515201352
2667260016670000000DAVAO DOCTORS - RANK AND FILE           36670724930000000003967859000040515201348
2667260016670000000DAVAO DOCTORS - RANK AND FILE           36670923540000000003683619000040515201350
2667260016670000000DAVAO DOCTORS - RANK AND FILE           36670247230000000002981489000040515201352
2667260016670000000DAVAO DOCTORS - RANK AND FILE           36670875390000000005631599000040515201354
2667260016670000000DAVAO DOCTORS - RANK AND FILE           36670703180000000004309249000040515201347
2667260016670000000DAVAO DOCTORS - RANK AND FILE           36670492700000000006585209000040515201348
2667260016670000000DAVAO DOCTORS - RANK AND FILE           36670701990000000007069859000040515201355
2667260016670000000DAVAO DOCTORS - RANK AND FILE           36670247310000000003867589000040515201349
2667260016670000000DAVAO DOCTORS - RANK AND FILE           36670853740000000003375599000040515201349
2667260016670000000DAVAO DOCTORS - RANK AND FILE           36670975180000000004055029000040515201354
2667260016670000000DAVAO DOCTORS - RANK AND FILE           36671000390000000005257209000040515201352
2667260016670000000DAVAO DOCTORS - RANK AND FILE           36670393560000000008279799000040515201356
2667260016670000000DAVAO DOCTORS - RANK AND FILE           36670893700000000005439039000040515201343
2667260016670000000DAVAO DOCTORS - RANK AND FILE           36670125200000000007208599000040515201344
2667260016670000000DAVAO DOCTORS - RANK AND FILE           36670650980000000005132809000040515201348
2667260016670000000DAVAO DOCTORS - RANK AND FILE           36671079470000000004152479000040515201358
2667260016670000000DAVAO DOCTORS - RANK AND FILE           36670401090000000002830489000040515201347
2667260016670000000DAVAO DOCTORS - RANK AND FILE           36670107490000000002228519000040515201352
2667260016670000000DAVAO DOCTORS - RANK AND FILE           36670173790000000003101209000040515201347
2667260016670000000DAVAO DOCTORS - RANK AND FILE           36670944030000000004768629000040515201349
2667260016670000000DAVAO DOCTORS - RANK AND FILE           36670102340000000004804559000040515201342
2667260016670000000DAVAO DOCTORS - RANK AND FILE           36671073430000000005102619000040515201344
2667260016670000000DAVAO DOCTORS - RANK AND FILE           36670974290000000004793259000040515201358
2667260016670000000DAVAO DOCTORS - RANK AND FILE           36670240140000000002373289000040515201345
2667260016670000000DAVAO DOCTORS - RANK AND FILE           36670985730000000005352329000040515201350
2667260016670000000DAVAO DOCTORS - RANK AND FILE           36671025380000000005137159000040515201354
2667260016670000000DAVAO DOCTORS - RANK AND FILE           36670844400000000004714709000040515201341
2667260016670000000DAVAO DOCTORS - RANK AND FILE           36670102690000000003600529000040515201346
2667260016670000000DAVAO DOCTORS - RANK AND FILE           36671045140000000004461259000040515201352
2667260016670000000DAVAO DOCTORS - RANK AND FILE           36670900840000000003542539000040515201343
2667260016670000000DAVAO DOCTORS - RANK AND FILE           36670155540000000007608119000040515201348
2667260016670000000DAVAO DOCTORS - RANK AND FILE           36671038790000000005277839000040515201362
2667260016670000000DAVAO DOCTORS - RANK AND FILE           36670779080000000006296369000040515201364
2667260016670000000DAVAO DOCTORS - RANK AND FILE           36670219700000000003160899000040515201350
2667260016670000000DAVAO DOCTORS - RANK AND FILE           36670979680000000003519029000040515201353
2667260016670000000DAVAO DOCTORS - RANK AND FILE           36670116210000000008558529000040515201352
2667260016670000000DAVAO DOCTORS - RANK AND FILE           36670976740000000004203559000040515201346
2667260016670000000DAVAO DOCTORS - RANK AND FILE           36670114600000000005837149000040515201344
2667260016670000000DAVAO DOCTORS - RANK AND FILE           36670917730000000005294239000040515201356
2667260016670000000DAVAO DOCTORS - RANK AND FILE           36671063630000000003209079000040515201342
2667260016670000000DAVAO DOCTORS - RANK AND FILE           36671027400000000004360179000040515201350
2667260016670000000DAVAO DOCTORS - RANK AND FILE           36670108460000000005399609000040515201360
2667260016670000000DAVAO DOCTORS - RANK AND FILE           36670636800000000002892409000040515201349
2667260016670000000DAVAO DOCTORS - RANK AND FILE           36671045220000000004456289000040515201349
2667260016670000000DAVAO DOCTORS - RANK AND FILE           36671081290000000004485109000040515201355
2667260016670000000DAVAO DOCTORS - RANK AND FILE           36670105280000000007680399000040515201360
2667260016670000000DAVAO DOCTORS - RANK AND FILE           36671028800000000005457609000040515201351
2667260016670000000DAVAO DOCTORS - RANK AND FILE           36671047510000000004113459000040515201346
2667260016670000000DAVAO DOCTORS - RANK AND FILE           36670156350000000004186319000040515201355
2667260016670000000DAVAO DOCTORS - RANK AND FILE           36671001790000000004841379000040515201351
2667260016670000000DAVAO DOCTORS - RANK AND FILE           36670968130000000006345329000040515201353
2667260016670000000DAVAO DOCTORS - RANK AND FILE           36671024060000000005056609000040515201353
2667260016670000000DAVAO DOCTORS - RANK AND FILE           36671018760000000004691259000040515201360
2667260016670000000DAVAO DOCTORS - RANK AND FILE           36670259400000000003496099000040515201353
2667260016670000000DAVAO DOCTORS - RANK AND FILE           36670388480000000007670809000040515201362
2667260016670000000DAVAO DOCTORS - RANK AND FILE           36670438330000000005374179000040515201355
2667260016670000000DAVAO DOCTORS - RANK AND FILE           36670978950000000005542889000040515201354
2667260016670000000DAVAO DOCTORS - RANK AND FILE           36670675110000000007272079000040515201352
2667260016670000000DAVAO DOCTORS - RANK AND FILE           36670975850000000004704619000040515201346
2667260016670000000DAVAO DOCTORS - RANK AND FILE           36670885600000000005363839000040515201348
2667260016670000000DAVAO DOCTORS - RANK AND FILE           36670966860000000005436599000040515201352
2667260016670000000DAVAO DOCTORS - RANK AND FILE           36670468320000000004261119000040515201352
2667260016670000000DAVAO DOCTORS - RANK AND FILE           36670925240000000005001259000040515201346
2667260016670000000DAVAO DOCTORS - RANK AND FILE           36670943900000000003110339000040515201339
2667260016670000000DAVAO DOCTORS - RANK AND FILE           36670827310000000001203379000040515201341
2667260016670000000DAVAO DOCTORS - RANK AND FILE           36671079200000000004776049000040515201353
2667260016670000000DAVAO DOCTORS - RANK AND FILE           36670907180000000005573469000040515201359
2667260016670000000DAVAO DOCTORS - RANK AND FILE           36670106090000000005881739000040515201360
2667260016670000000DAVAO DOCTORS - RANK AND FILE           36670915790000000006559919000040515201357
2667260016670000000DAVAO DOCTORS - RANK AND FILE           36671079550000000004747259000040515201355
2667260016670000000DAVAO DOCTORS - RANK AND FILE           36670986110000000004821619000040515201345
2667260016670000000DAVAO DOCTORS - RANK AND FILE           36670861500000000005353999000040515201343
2667260016670000000DAVAO DOCTORS - RANK AND FILE           36670102260000000005479369000040515201352
2667260016670000000DAVAO DOCTORS - RANK AND FILE           36670971270000000005159839000040515201350
2667260016670000000DAVAO DOCTORS - RANK AND FILE           36670699210000000000933789000040515201345
2667260016670000000DAVAO DOCTORS - RANK AND FILE           36670982630000000004067699000040515201347
2667260016670000000DAVAO DOCTORS - RANK AND FILE           36671039920000000004851099000040515201353
2667260016670000000DAVAO DOCTORS - RANK AND FILE           36670240060000000004733579000040515201345
2667260016670000000DAVAO DOCTORS - RANK AND FILE           36670247400000000002685739000040515201349
2667260016670000000DAVAO DOCTORS - RANK AND FILE           36671039250000000004392749000040515201360
2667260016670000000DAVAO DOCTORS - RANK AND FILE           36670736430000000006346539000040515201351
2667260016670000000DAVAO DOCTORS - RANK AND FILE           36670921410000000005625499000040515201341
2667260016670000000DAVAO DOCTORS - RANK AND FILE           36670169500000000003312369000040515201345
2667260016670000000DAVAO DOCTORS - RANK AND FILE           36671039330000000004674539000040515201356
2667260016670000000DAVAO DOCTORS - RANK AND FILE           36671087060000000005135529000040515201354
2667260016670000000DAVAO DOCTORS - RANK AND FILE           36670524500000000005395209000040515201350
2667260016670000000DAVAO DOCTORS - RANK AND FILE           36670783350000000004903279000040515201344
2667260016670000000DAVAO DOCTORS - RANK AND FILE           36670509610000000006328739000040515201350
2667260016670000000DAVAO DOCTORS - RANK AND FILE           36671002840000000004878029000040515201350
2667260016670000000DAVAO DOCTORS - RANK AND FILE           36670627650000000006449989000040515201354
2667260016670000000DAVAO DOCTORS - RANK AND FILE           36670979170000000004946199000040515201356
2667260016670000000DAVAO DOCTORS - RANK AND FILE           36670319830000000002807789000040515201346
2667260016670000000DAVAO DOCTORS - RANK AND FILE           36670943810000000004948629000040515201344
2667260016670000000DAVAO DOCTORS - RANK AND FILE           36671008100000000005250159000040515201351
2667260016670000000DAVAO DOCTORS - RANK AND FILE           36670634190000000004821219000040515201351
2667260016670000000DAVAO DOCTORS - RANK AND FILE           36670086630000000003319789000040515201345
2667260016670000000DAVAO DOCTORS - RANK AND FILE           36670111500000000007293809000040515201349
2667260016670000000DAVAO DOCTORS - RANK AND FILE           36670632300000000006052459000040515201345
2667260016670000000DAVAO DOCTORS - RANK AND FILE           36670437360000000005030079000040515201353
2667260016670000000DAVAO DOCTORS - RANK AND FILE           36670103660000000005741219000040515201350
2667260016670000000DAVAO DOCTORS - RANK AND FILE           36670839590000000003974569000040515201360
2667260016670000000DAVAO DOCTORS - RANK AND FILE           36670846700000000005529409000040515201345
2667260016670000000DAVAO DOCTORS - RANK AND FILE           36670246500000000007224229000040515201347
2667260016670000000DAVAO DOCTORS - RANK AND FILE           36670668920000000006660349000040515201354
2667260016670000000DAVAO DOCTORS - RANK AND FILE           36670674810000000002745399000040515201343
2667260016670000000DAVAO DOCTORS - RANK AND FILE           36670586440000000005635209000040515201350
2667260016670000000DAVAO DOCTORS - RANK AND FILE           36670248200000000002877659000040515201349
2667260016670000000DAVAO DOCTORS - RANK AND FILE           36671025460000000004879959000040515201355
2667260016670000000DAVAO DOCTORS - RANK AND FILE           36671023330000000005097179000040515201353
2667260016670000000DAVAO DOCTORS - RANK AND FILE           36670736270000000003679269000040515201355
2667260016670000000DAVAO DOCTORS - RANK AND FILE           36670516150000000002698029000040515201354
2667260016670000000DAVAO DOCTORS - RANK AND FILE           36670125800000000006704789000040515201343
2667260016670000000DAVAO DOCTORS - RANK AND FILE           36671083150000000004928209000040515201347
2667260016670000000DAVAO DOCTORS - RANK AND FILE           36670844320000000003613099000040515201342
2667260016670000000DAVAO DOCTORS - RANK AND FILE           36671010940000000002726259000040515201341
2667260016670000000DAVAO DOCTORS - RANK AND FILE           36670881600000000005305579000040515201338
2667260016670000000DAVAO DOCTORS - RANK AND FILE           36670105790000000003865769000040515201355
2667260016670000000DAVAO DOCTORS - RANK AND FILE           36670105010000000003803399000040515201341
2667260016670000000DAVAO DOCTORS - RANK AND FILE           36671036820000000004602369000040515201345
2667260016670000000DAVAO DOCTORS - RANK AND FILE           36671037390000000003913049000040515201353
2667260016670000000DAVAO DOCTORS - RANK AND FILE           36670979250000000003694219000040515201358
2667260016670000000DAVAO DOCTORS - RANK AND FILE           36670099700000000004251309000040515201350
2667260016670000000DAVAO DOCTORS - RANK AND FILE           36670219960000000003122639000040515201352
2667260016670000000DAVAO DOCTORS - RANK AND FILE           36670255250000000007157029000040515201354
2667260016670000000DAVAO DOCTORS - RANK AND FILE           36670881790000000005567489000040515201353
2667260016670000000DAVAO DOCTORS - RANK AND FILE           36671070330000000005610629000040515201342
2667260016670000000DAVAO DOCTORS - RANK AND FILE           36670852180000000003248159000040515201349
2667260016670000000DAVAO DOCTORS - RANK AND FILE           36670107650000000003153529000040515201352
2667260016670000000DAVAO DOCTORS - RANK AND FILE           36670393300000000008237789000040515201346
2667260016670000000DAVAO DOCTORS - RANK AND FILE           36670684880000000006794309000040515201359
2667260016670000000DAVAO DOCTORS - RANK AND FILE           36670734570000000004898249000040515201356
2667260016670000000DAVAO DOCTORS - RANK AND FILE           36670972590000000005160899000040515201354
2667260016670000000DAVAO DOCTORS - RANK AND FILE           36670222910000000003926089000040515201340
2667260016670000000DAVAO DOCTORS - RANK AND FILE           36671064100000000005467149000040515201348
2667260016670000000DAVAO DOCTORS - RANK AND FILE           36670090740000000004277389000040515201347
2667260016670000000DAVAO DOCTORS - RANK AND FILE           36670958330000000003610949000040515201347
2667260016670000000DAVAO DOCTORS - RANK AND FILE           36670934070000000005177199000040515201355
2667260016670000000DAVAO DOCTORS - RANK AND FILE           36670096860000000003502239000040515201347
2667260016670000000DAVAO DOCTORS - RANK AND FILE           36670891830000000005605949000040515201341
2667260016670000000DAVAO DOCTORS - RANK AND FILE           36671040690000000004767279000040515201352
2667260016670000000DAVAO DOCTORS - RANK AND FILE           36671038280000000004531139000040515201356
2667260016670000000DAVAO DOCTORS - RANK AND FILE           36671060610000000004280199000040515201346
2667260016670000000DAVAO DOCTORS - RANK AND FILE           36670957100000000006558779000040515201350
2667260016670000000DAVAO DOCTORS - RANK AND FILE           36670883810000000004276489000040515201347
2667260016670000000DAVAO DOCTORS - RANK AND FILE           36670321650000000007721119000040515201347
2667260016670000000DAVAO DOCTORS - RANK AND FILE           36670979840000000004539319000040515201352
2667260016670000000DAVAO DOCTORS - RANK AND FILE           36670967750000000005726569000040515201351
2667260016670000000DAVAO DOCTORS - RANK AND FILE           36670197200000000003171769000040515201349
2667260016670000000DAVAO DOCTORS - RANK AND FILE           36671063710000000004385809000040515201349
2667260016670000000DAVAO DOCTORS - RANK AND FILE           36671064010000000004507999000040515201342
2667260016670000000DAVAO DOCTORS - RANK AND FILE           36671018920000000005552099000040515201353
2667260016670000000DAVAO DOCTORS - RANK AND FILE           36670149140000000007815139000040515201353
2667260016670000000DAVAO DOCTORS - RANK AND FILE           36671025890000000004031629000040515201354
2667260016670000000DAVAO DOCTORS - RANK AND FILE           36670945940000000005244219000040515201350
2667260016670000000DAVAO DOCTORS - RANK AND FILE           36670807470000000005091219000040515201360
2667260016670000000DAVAO DOCTORS - RANK AND FILE           36671008450000000005622679000040515201353
2667260016670000000DAVAO DOCTORS - RANK AND FILE           36671010350000000003970879000040515201348
2667260016670000000DAVAO DOCTORS - RANK AND FILE           36671001600000000003755779000040515201342
2667260016670000000DAVAO DOCTORS - RANK AND FILE           36671082260000000004452689000040515201350
2667260016670000000DAVAO DOCTORS - RANK AND FILE           36671001010000000004467409000040515201345
2667260016670000000DAVAO DOCTORS - RANK AND FILE           36670089900000000003348929000040515201348
2667260016670000000DAVAO DOCTORS - RANK AND FILE           36671087140000000004686769000040515201356
2667260016670000000DAVAO DOCTORS - RANK AND FILE           36670807040000000004799319000040515201356
2667260016670000000DAVAO DOCTORS - RANK AND FILE           36670861680000000003800249000040515201344
2667260016670000000DAVAO DOCTORS - RANK AND FILE           36670846370000000004983629000040515201357
2667260016670000000DAVAO DOCTORS - RANK AND FILE           36671058800000000004345569000040515201349
2667260016670000000DAVAO DOCTORS - RANK AND FILE           36670848310000000003658859000040515201349
2667260016670000000DAVAO DOCTORS - RANK AND FILE           36670926990000000004748979000040515201355
2667260016670000000DAVAO DOCTORS - RANK AND FILE           36670558660000000004058239000040515201355
2667260016670000000DAVAO DOCTORS - RANK AND FILE           36670975770000000004919819000040515201349
2667260016670000000DAVAO DOCTORS - RANK AND FILE           36670855010000000006704229000040515201344
2667260016670000000DAVAO DOCTORS - RANK AND FILE           36670240730000000002887589000040515201345
2667260016670000000DAVAO DOCTORS - RANK AND FILE           36670900920000000005402399000040515201339
2667260016670000000DAVAO DOCTORS - RANK AND FILE           36670955900000000005454179000040515201347
2667260016670000000DAVAO DOCTORS - RANK AND FILE           36670249010000000005681969000040515201355
2667260016670000000DAVAO DOCTORS - RANK AND FILE           36670566500000000002621909000040515201342
2667260016670000000DAVAO DOCTORS - RANK AND FILE           36671084470000000004786899000040515201356
2667260016670000000DAVAO DOCTORS - RANK AND FILE           36670670900000000003926999000040515201337
2667260016670000000DAVAO DOCTORS - RANK AND FILE           36670116300000000005062969000040515201349
2667260016670000000DAVAO DOCTORS - RANK AND FILE           36671070170000000005511529000040515201346
2667260016670000000DAVAO DOCTORS - RANK AND FILE           36670293690000000002931319000040515201349
2667260016670000000DAVAO DOCTORS - RANK AND FILE           36671060960000000004607729000040515201343
2667260016670000000DAVAO DOCTORS - RANK AND FILE           36671039410000000004879529000040515201354
2667260016670000000DAVAO DOCTORS - RANK AND FILE           36670110360000000004345089000040515201346
2667260016670000000DAVAO DOCTORS - RANK AND FILE           36670249870000000003207689000040515201351
2667260016670000000DAVAO DOCTORS - RANK AND FILE           36670845050000000005259869000040515201352
2667260016670000000DAVAO DOCTORS - RANK AND FILE           36671047270000000004644689000040515201355
2667260016670000000DAVAO DOCTORS - RANK AND FILE           36670943570000000003791089000040515201354
2667260016670000000DAVAO DOCTORS - RANK AND FILE           36670776300000000005503759000040515201343
2667260016670000000DAVAO DOCTORS - RANK AND FILE           36670111760000000009131609000040515201351
2667260016670000000DAVAO DOCTORS - RANK AND FILE           36670093170000000007113269000040515201350
2667260016670000000DAVAO DOCTORS - RANK AND FILE           36670408690000000002901729000040515201351
2667260016670000000DAVAO DOCTORS - RANK AND FILE           36670984250000000004593909000040515201354
2667260016670000000DAVAO DOCTORS - RANK AND FILE           36671048830000000004866599000040515201354
2667260016670000000DAVAO DOCTORS - RANK AND FILE           36670917810000000006027569000040515201348
2667260016670000000DAVAO DOCTORS - RANK AND FILE           36670617340000000004462059000040515201353
2667260016670000000DAVAO DOCTORS - RANK AND FILE           36670950350000000004693579000040515201350
2667260016670000000DAVAO DOCTORS - RANK AND FILE           36670854200000000002785699000040515201346
2667260016670000000DAVAO DOCTORS - RANK AND FILE           36671009260000000005692039000040515201362
2667260016670000000DAVAO DOCTORS - RANK AND FILE           36670239480000000002353129000040515201356
2667260016670000000DAVAO DOCTORS - RANK AND FILE           36670959300000000005503749000040515201346
2667260016670000000DAVAO DOCTORS - RANK AND FILE           36671063980000000004666609000040515201354
2667260016670000000DAVAO DOCTORS - RANK AND FILE           36670879970000000005568199000040515201359
2667260016670000000DAVAO DOCTORS - RANK AND FILE           36670590710000000003372819000040515201343
2667260016670000000DAVAO DOCTORS - RANK AND FILE           36671029610000000004347019000040515201351
2667260016670000000DAVAO DOCTORS - RANK AND FILE           36670145580000000003274719000040515201355
2667260016670000000DAVAO DOCTORS - RANK AND FILE           36671037040000000004068279000040515201354
2667260016670000000DAVAO DOCTORS - RANK AND FILE           36671058550000000005584589000040515201359
2667260016670000000DAVAO DOCTORS - RANK AND FILE           36670640670000000001805089000040515201340
2667260016670000000DAVAO DOCTORS - RANK AND FILE           36671043870000000003409889000040515201346
2667260016670000000DAVAO DOCTORS - RANK AND FILE           36670943650000000004997119000040515201353
2667260016670000000DAVAO DOCTORS - RANK AND FILE           36670120080000000007587249000040515201355
2667260016670000000DAVAO DOCTORS - RANK AND FILE           36670822780000000003351969000040515201350
2667260016670000000DAVAO DOCTORS - RANK AND FILE           36670103820000000006897989000040515201352
2667260016670000000DAVAO DOCTORS - RANK AND FILE           36670619800000000006739479000040515201350
2667260016670000000DAVAO DOCTORS - RANK AND FILE           36670904910000000005161779000040515201348
2667260016670000000DAVAO DOCTORS - RANK AND FILE           36670981310000000004515399000040515201339
2667260016670000000DAVAO DOCTORS - RANK AND FILE           36670402220000000006339819000040515201345
2667260016670000000DAVAO DOCTORS - RANK AND FILE           36670283380000000003178729000040515201353
2667260016670000000DAVAO DOCTORS - RANK AND FILE           36670929740000000003245339000040515201352
2667260016670000000DAVAO DOCTORS - RANK AND FILE           36671040850000000004675409000040515201349
2667260016670000000DAVAO DOCTORS - RANK AND FILE           36670902700000000005604099000040515201339
2667260016670000000DAVAO DOCTORS - RANK AND FILE           36670940800000000005453819000040515201342
2667260016670000000DAVAO DOCTORS - RANK AND FILE           36670535960000000002670449000040515201352
2667260016670000000DAVAO DOCTORS - RANK AND FILE           36670880040000000003982709000040515201347
2667260016670000000DAVAO DOCTORS - RANK AND FILE           36670519680000000004375649000040515201360
2667260016670000000DAVAO DOCTORS - RANK AND FILE           36670987000000000004312879000040515201344
2667260016670000000DAVAO DOCTORS - RANK AND FILE           36671001520000000004859299000040515201345
2667260016670000000DAVAO DOCTORS - RANK AND FILE           36670945860000000006410949000040515201350
2667260016670000000DAVAO DOCTORS - RANK AND FILE           36670775090000000007077049000040515201360
2667260016670000000DAVAO DOCTORS - RANK AND FILE           36671083070000000004695409000040515201356
2667260016670000000DAVAO DOCTORS - RANK AND FILE           36671047350000000005523209000040515201352
2667260016670000000DAVAO DOCTORS - RANK AND FILE           36670783270000000002886059000040515201352
2667260016670000000DAVAO DOCTORS - RANK AND FILE           36671084200000000005513449000040515201343
2667260016670000000DAVAO DOCTORS - RANK AND FILE           36670845130000000006583479000040515201354
2667260016670000000DAVAO DOCTORS - RANK AND FILE           36670239560000000005284729000040515201360
2667260016670000000DAVAO DOCTORS - RANK AND FILE           36670967590000000005306399000040515201353
2667260016670000000DAVAO DOCTORS - RANK AND FILE           36670105100000000002982479000040515201347
2667260016670000000DAVAO DOCTORS - RANK AND FILE           36671026000000000005045709000040515201348
2667260016670000000DAVAO DOCTORS - RANK AND FILE           36670524680000000002191919000040515201355
2667260016670000000DAVAO DOCTORS - RANK AND FILE           36670106330000000007164089000040515201354
2667260016670000000DAVAO DOCTORS - RANK AND FILE           36671044410000000004675409000040515201349
2667260016670000000DAVAO DOCTORS - RANK AND FILE           36670979090000000004795939000040515201363
2667260016670000000DAVAO DOCTORS - RANK AND FILE           36670866130000000005367309000040515201352
2667260016670000000DAVAO DOCTORS - RANK AND FILE           36671042040000000005146109000040515201348
2667260016670000000DAVAO DOCTORS - RANK AND FILE           36670944200000000004202169000040515201340
2667260016670000000DAVAO DOCTORS - RANK AND FILE           36670852000000000003494559000040515201346
2667260016670000000DAVAO DOCTORS - RANK AND FILE           36671011830000000004995759000040515201350
2667260016670000000DAVAO DOCTORS - RANK AND FILE           36671058630000000005078379000040515201356
2667260016670000000DAVAO DOCTORS - RANK AND FILE           36671063800000000004753019000040515201345
2667260016670000000DAVAO DOCTORS - RANK AND FILE           36670986460000000005100789000040515201349
2667260016670000000DAVAO DOCTORS - RANK AND FILE           36671047780000000004421979000040515201354
2667260016670000000DAVAO DOCTORS - RANK AND FILE           36670983360000000005045749000040515201350
2667260016670000000DAVAO DOCTORS - RANK AND FILE           36670338890000000006162469000040515201361
2667260016670000000DAVAO DOCTORS - RANK AND FILE           36671060530000000004950469000040515201345
2667260016670000000DAVAO DOCTORS - RANK AND FILE           36670931210000000003902019000040515201337
2667260016670000000DAVAO DOCTORS - RANK AND FILE           36671000980000000004783099000040515201353
2667260016670000000DAVAO DOCTORS - RANK AND FILE           36670471970000000006449479000040515201350
2667260016670000000DAVAO DOCTORS - RANK AND FILE           36671085440000000004281009000040515201354
2667260016670000000DAVAO DOCTORS - RANK AND FILE           36670907340000000003829649000040515201348
2667260016670000000DAVAO DOCTORS - RANK AND FILE           36670292100000000002371789000040515201343
2667260016670000000DAVAO DOCTORS - RANK AND FILE           36670793310000000007459019000040515201348
2667260016670000000DAVAO DOCTORS - RANK AND FILE           36670981900000000005139299000040515201341
2667260016670000000DAVAO DOCTORS - RANK AND FILE           36670865910000000004825119000040515201344
2667260016670000000DAVAO DOCTORS - RANK AND FILE           36670846450000000003677919000040515201353
2667260016670000000DAVAO DOCTORS - RANK AND FILE           36670921330000000004466899000040515201346
2667260016670000000DAVAO DOCTORS - RANK AND FILE           36671047860000000004575949000040515201357
2667260016670000000DAVAO DOCTORS - RANK AND FILE           36671001440000000006638939000040515201347
2667260016670000000DAVAO DOCTORS - RANK AND FILE           36671008020000000004771619000040515201354
2667260016670000000DAVAO DOCTORS - RANK AND FILE           36670845990000000003483599000040515201357
2667260016670000000DAVAO DOCTORS - RANK AND FILE           36671022520000000005024739000040515201344
2667260016670000000DAVAO DOCTORS - RANK AND FILE           36671025970000000003006269000040515201348
2667260016670000000DAVAO DOCTORS - RANK AND FILE           36670927290000000006173269000040515201361
2667260016670000000DAVAO DOCTORS - RANK AND FILE           36671036900000000003695759000040515201351
2667260016670000000DAVAO DOCTORS - RANK AND FILE           36670973300000000003750769000040515201343
2667260016670000000DAVAO DOCTORS - RANK AND FILE           36671009340000000006176299000040515201359
2667260016670000000DAVAO DOCTORS - RANK AND FILE           36670956980000000003860849000040515201355
2667260016670000000DAVAO DOCTORS - RANK AND FILE           36670107810000000003794359000040515201352
2667260016670000000DAVAO DOCTORS - RANK AND FILE           36670733170000000004959329000040515201351
2667260016670000000DAVAO DOCTORS - RANK AND FILE           36671038440000000004307749000040515201349
2667260016670000000DAVAO DOCTORS - RANK AND FILE           36671040180000000004543509000040515201349
2667260016670000000DAVAO DOCTORS - RANK AND FILE           36671020230000000004770789000040515201347
2667260016670000000DAVAO DOCTORS - RANK AND FILE           36670877410000000002131419000040515201345
2667260016670000000DAVAO DOCTORS - RANK AND FILE           36670823160000000005266319000040515201352
2667260016670000000DAVAO DOCTORS - RANK AND FILE           36670557260000000003704669000040515201348
2667260016670000000DAVAO DOCTORS - RANK AND FILE           36670250370000000005045209000040515201348
2667260016670000000DAVAO DOCTORS - RANK AND FILE           36670710200000000004109109000040515201336
2667260016670000000DAVAO DOCTORS - RANK AND FILE           36670109600000000004193399000040515201354
2667260016670000000DAVAO DOCTORS - RANK AND FILE           36670913230000000005370019000040515201350
2667260016670000000DAVAO DOCTORS - RANK AND FILE           36671043950000000004160649000040515201351
2667260016670000000DAVAO DOCTORS - RANK AND FILE           36671041660000000004070449000040515201351
2667260016670000000DAVAO DOCTORS - RANK AND FILE           36670673170000000005176539000040515201354
2667260016670000000DAVAO DOCTORS - RANK AND FILE           36671078070000000004721289000040515201354
2667260016670000000DAVAO DOCTORS - RANK AND FILE           36670906370000000005219969000040515201351
2667260016670000000DAVAO DOCTORS - RANK AND FILE           36671005350000000002612509000040515201346
2667260016670000000DAVAO DOCTORS - RANK AND FILE           36670946240000000005186419000040515201355
2667260016670000000DAVAO DOCTORS - RANK AND FILE           36670894000000000006008629000040515201342
2667260016670000000DAVAO DOCTORS - RANK AND FILE           36670087950000000004601649000040515201348
2667260016670000000DAVAO DOCTORS - RANK AND FILE           36670092600000000006312819000040515201341
2667260016670000000DAVAO DOCTORS - RANK AND FILE           36670686150000000007568629000040515201356
2667260016670000000DAVAO DOCTORS - RANK AND FILE           36670958410000000004923689000040515201347
2667260016670000000DAVAO DOCTORS - RANK AND FILE           36670905050000000005315589000040515201348
2667260016670000000DAVAO DOCTORS - RANK AND FILE           36670776140000000004419359000040515201347
2667260016670000000DAVAO DOCTORS - RANK AND FILE           36670468080000000008092139000040515201365
2667260016670000000DAVAO DOCTORS - RANK AND FILE           36670983100000000004916869000040515201340
2667260016670000000DAVAO DOCTORS - RANK AND FILE           36670676780000000003906639000040515201349
2667260016670000000DAVAO DOCTORS - RANK AND FILE           36670109940000000009258479000040515201359
2667260016670000000DAVAO DOCTORS - RANK AND FILE           36670928000000000006795779000040515201355
2667260016670000000DAVAO DOCTORS - RANK AND FILE           36670848400000000003559329000040515201348
2667260016670000000DAVAO DOCTORS - RANK AND FILE           36671040000000000004364959000040515201343
2667260016670000000DAVAO DOCTORS - RANK AND FILE           36670113110000000004888969000040515201348
2667260016670000000DAVAO DOCTORS - RANK AND FILE           36671073270000000004394999000040515201356
2667260016670000000DAVAO DOCTORS - RANK AND FILE           36670871050000000004871239000040515201349
000528000000253310658
