2667260016670000000DAVAO DOCTORS - CONTRACTUAL             366717448200000000139041490000503292021
2667260016670000000DAVAO DOCTORS - CONTRACTUAL             366717364800000000054919890000503292021
2667260016670000000DAVAO DOCTORS - CONTRACTUAL             366717397400000000054704290000503292021
2667260016670000000DAVAO DOCTORS - CONTRACTUAL             366717350800000000054810790000503292021
2667260016670000000DAVAO DOCTORS - CONTRACTUAL             366717353200000000063494490000503292021
2667260016670000000DAVAO DOCTORS - CONTRACTUAL             366717352400000000057430590000503292021
2667260016670000000DAVAO DOCTORS - CONTRACTUAL             366717351600000000050228790000503292021
