2667260016670000000DAVAO DOCTORS - CONTRACTUAL             36671033640000000004037869000050314201347
2667260016670000000DAVAO DOCTORS - CONTRACTUAL             36671039500000000004391119000050314201355
2667260016670000000DAVAO DOCTORS - CONTRACTUAL             36671069320000000003587549000050314201355
2667260016670000000DAVAO DOCTORS - CONTRACTUAL             36671066140000000003907499000050314201346
2667260016670000000DAVAO DOCTORS - CONTRACTUAL             36671067110000000004375279000050314201352
2667260016670000000DAVAO DOCTORS - CONTRACTUAL             36671061000000000003010009000050314201338
2667260016670000000DAVAO DOCTORS - CONTRACTUAL             36671063120000000003302359000050314201341
2667260016670000000DAVAO DOCTORS - CONTRACTUAL             36671041150000000005081439000050314201352
2667260016670000000DAVAO DOCTORS - CONTRACTUAL             36671063550000000003099389000050314201353
2667260016670000000DAVAO DOCTORS - CONTRACTUAL             36671067380000000003514789000050314201352
2667260016670000000DAVAO DOCTORS - CONTRACTUAL             36671071220000000004663529000050314201346
2667260016670000000DAVAO DOCTORS - CONTRACTUAL             36671042200000000003461209000050314201344
2667260016670000000DAVAO DOCTORS - CONTRACTUAL             36671041820000000003092239000050314201348
2667260016670000000DAVAO DOCTORS - CONTRACTUAL             36671058710000000003746069000050314201349
2667260016670000000DAVAO DOCTORS - CONTRACTUAL             36671073940000000004355849000050314201349
2667260016670000000DAVAO DOCTORS - CONTRACTUAL             36671041740000000004805399000050314201342
2667260016670000000DAVAO DOCTORS - CONTRACTUAL             36671073780000000004709119000050314201348
2667260016670000000DAVAO DOCTORS - CONTRACTUAL             36671067460000000004569209000050314201356
2667260016670000000DAVAO DOCTORS - CONTRACTUAL             36671041070000000004490049000050314201354
2667260016670000000DAVAO DOCTORS - CONTRACTUAL             36671067540000000004318779000050314201349
2667260016670000000DAVAO DOCTORS - CONTRACTUAL             36671040930000000003915889000050314201340
2667260016670000000DAVAO DOCTORS - CONTRACTUAL             36671061180000000003010009000050314201346
2667260016670000000DAVAO DOCTORS - CONTRACTUAL             36671059870000000003370659000050314201359
000023000000009081510
