2667260016670000000DAVAO DOCTORS - CONTRACTUAL             366717448200000000141572390000501292021
2667260016670000000DAVAO DOCTORS - CONTRACTUAL             366717364800000000049501690000501292021
2667260016670000000DAVAO DOCTORS - CONTRACTUAL             366717397400000000058030590000501292021
2667260016670000000DAVAO DOCTORS - CONTRACTUAL             366717350800000000061025690000501292021
2667260016670000000DAVAO DOCTORS - CONTRACTUAL             366717479200000000024388290000501292021
2667260016670000000DAVAO DOCTORS - CONTRACTUAL             366717353200000000068142290000501292021
2667260016670000000DAVAO DOCTORS - CONTRACTUAL             366717352400000000061755690000501292021
2667260016670000000DAVAO DOCTORS - CONTRACTUAL             366717351600000000057940190000501292021
