2667260016670000000DAVAO DOCTORS - CONTRACTUAL             366716887300000000065728890000507142020
2667260016670000000DAVAO DOCTORS - CONTRACTUAL             366716919500000000062662190000507142020
2667260016670000000DAVAO DOCTORS - CONTRACTUAL             366716800800000000069702790000507142020
2667260016670000000DAVAO DOCTORS - CONTRACTUAL             366716910100000000061916990000507142020
2667260016670000000DAVAO DOCTORS - CONTRACTUAL             366716915200000000066263290000507142020
2667260016670000000DAVAO DOCTORS - CONTRACTUAL             366716889000000000065515790000507142020
