2667260016670000000DAVAO DOCTORS - CONTRACTUAL             366716887300000000069610090000504292020
2667260016670000000DAVAO DOCTORS - CONTRACTUAL             366716909800000000069618090000504292020
2667260016670000000DAVAO DOCTORS - CONTRACTUAL             366716919500000000059618290000504292020
2667260016670000000DAVAO DOCTORS - CONTRACTUAL             366716800800000000064925290000504292020
2667260016670000000DAVAO DOCTORS - CONTRACTUAL             366716910100000000062704090000504292020
2667260016670000000DAVAO DOCTORS - CONTRACTUAL             366716898900000000041738290000504292020
2667260016670000000DAVAO DOCTORS - CONTRACTUAL             366716915200000000068438290000504292020
2667260016670000000DAVAO DOCTORS - CONTRACTUAL             366716889000000000070056590000504292020
