2667260016670000000DAVAO DOCTORS - CONTRACTUAL             366717448200000000152693090000504142021
2667260016670000000DAVAO DOCTORS - CONTRACTUAL             366717364800000000060726090000504142021
2667260016670000000DAVAO DOCTORS - CONTRACTUAL             366716874100000000025195590000504142021
2667260016670000000DAVAO DOCTORS - CONTRACTUAL             366714660800000000044688690000504142021
2667260016670000000DAVAO DOCTORS - CONTRACTUAL             366716873300000000031977090000504142021
