2667260016670000000DAVAO DOCTORS - CONTRACTUAL             366717448200000000013109690000501142021
2667260016670000000DAVAO DOCTORS - CONTRACTUAL             366717364800000000067031390000501142021
2667260016670000000DAVAO DOCTORS - CONTRACTUAL             366717397400000000084824490000501142021
2667260016670000000DAVAO DOCTORS - CONTRACTUAL             366717350800000000081749890000501142021
2667260016670000000DAVAO DOCTORS - CONTRACTUAL             366717353200000000072141690000501142021
2667260016670000000DAVAO DOCTORS - CONTRACTUAL             366717352400000000080147090000501142021
2667260016670000000DAVAO DOCTORS - CONTRACTUAL             366717351600000000067868890000501142021
