2667260016670000000DAVAO DOCTORS - CONTRACTUAL             366716887300000000066273390000505142020
2667260016670000000DAVAO DOCTORS - CONTRACTUAL             366716909800000000068232990000505142020
2667260016670000000DAVAO DOCTORS - CONTRACTUAL             366716919500000000055375790000505142020
2667260016670000000DAVAO DOCTORS - CONTRACTUAL             366716800800000000069707790000505142020
2667260016670000000DAVAO DOCTORS - CONTRACTUAL             366716910100000000070616990000505142020
2667260016670000000DAVAO DOCTORS - CONTRACTUAL             366716915200000000069000690000505142020
2667260016670000000DAVAO DOCTORS - CONTRACTUAL             366716889000000000073224390000505142020
