2667260016670000000DAVAO DOCTORS - CONTRACTUAL             366716887300000000058029890000505292020
2667260016670000000DAVAO DOCTORS - CONTRACTUAL             366716909800000000056817790000505292020
2667260016670000000DAVAO DOCTORS - CONTRACTUAL             366716919500000000075709290000505292020
2667260016670000000DAVAO DOCTORS - CONTRACTUAL             366716800800000000044956490000505292020
2667260016670000000DAVAO DOCTORS - CONTRACTUAL             366716910100000000053824990000505292020
2667260016670000000DAVAO DOCTORS - CONTRACTUAL             366716915200000000057767290000505292020
2667260016670000000DAVAO DOCTORS - CONTRACTUAL             366716889000000000056769290000505292020
