2667260016670000000DAVAO DOCTORS - CONTRACTUAL             366717364800000000062196390000512142020
2667260016670000000DAVAO DOCTORS - CONTRACTUAL             366717397400000000070364390000512142020
2667260016670000000DAVAO DOCTORS - CONTRACTUAL             366717350800000000076197890000512142020
2667260016670000000DAVAO DOCTORS - CONTRACTUAL             366717353200000000075023590000512142020
2667260016670000000DAVAO DOCTORS - CONTRACTUAL             366717352400000000077182690000512142020
2667260016670000000DAVAO DOCTORS - CONTRACTUAL             366717351600000000060792290000512142020
