2667260016670000000DAVAO DOCTORS - CONTRACTUAL             36671033640000000004165109000050412201350
2667260016670000000DAVAO DOCTORS - CONTRACTUAL             36671069320000000003612009000050412201348
2667260016670000000DAVAO DOCTORS - CONTRACTUAL             36671066140000000005278719000050412201355
2667260016670000000DAVAO DOCTORS - CONTRACTUAL             36671067110000000005058409000050412201351
2667260016670000000DAVAO DOCTORS - CONTRACTUAL             36671079040000000004873109000050412201357
2667260016670000000DAVAO DOCTORS - CONTRACTUAL             36671079120000000004305559000050412201348
2667260016670000000DAVAO DOCTORS - CONTRACTUAL             36671061000000000003211009000050412201338
2667260016670000000DAVAO DOCTORS - CONTRACTUAL             36671063120000000003810379000050412201342
2667260016670000000DAVAO DOCTORS - CONTRACTUAL             36671041150000000004710289000050412201344
2667260016670000000DAVAO DOCTORS - CONTRACTUAL             36671067380000000004120019000050412201354
2667260016670000000DAVAO DOCTORS - CONTRACTUAL             36671071220000000003535439000050412201342
2667260016670000000DAVAO DOCTORS - CONTRACTUAL             36671042200000000003829139000050412201340
2667260016670000000DAVAO DOCTORS - CONTRACTUAL             36671058710000000003690759000050412201354
2667260016670000000DAVAO DOCTORS - CONTRACTUAL             36671073940000000004637059000050412201347
2667260016670000000DAVAO DOCTORS - CONTRACTUAL             36671073780000000004645839000050412201352
2667260016670000000DAVAO DOCTORS - CONTRACTUAL             36671067460000000004038139000050412201353
2667260016670000000DAVAO DOCTORS - CONTRACTUAL             36671041070000000003963399000050412201350
2667260016670000000DAVAO DOCTORS - CONTRACTUAL             36671067540000000005005829000050412201349
2667260016670000000DAVAO DOCTORS - CONTRACTUAL             36671081370000000005344189000050412201350
2667260016670000000DAVAO DOCTORS - CONTRACTUAL             36671078070000000004359779000050412201357
2667260016670000000DAVAO DOCTORS - CONTRACTUAL             36671061180000000004760699000050412201352
2667260016670000000DAVAO DOCTORS - CONTRACTUAL             36671059870000000004374719000050412201360
000022000000009532940
