2667260016670000000DAVAO DOCTORS - RANK AND FILE           36671026190000000006036549000040327201357
2667260016670000000DAVAO DOCTORS - RANK AND FILE           36671008880000000004806179000040327201353
2667260016670000000DAVAO DOCTORS - RANK AND FILE           36670674570000000005049419000040327201352
2667260016670000000DAVAO DOCTORS - RANK AND FILE           36671046890000000003841729000040327201355
2667260016670000000DAVAO DOCTORS - RANK AND FILE           36670806580000000004729419000040327201352
2667260016670000000DAVAO DOCTORS - RANK AND FILE           36670151630000000007291489000040327201352
2667260016670000000DAVAO DOCTORS - RANK AND FILE           36670866050000000003079219000040327201353
2667260016670000000DAVAO DOCTORS - RANK AND FILE           36670844590000000005567589000040327201356
2667260016670000000DAVAO DOCTORS - RANK AND FILE           36670104550000000008307139000040327201349
2667260016670000000DAVAO DOCTORS - RANK AND FILE           36671008530000000004449429000040327201352
2667260016670000000DAVAO DOCTORS - RANK AND FILE           36670956040000000003160199000040327201351
2667260016670000000DAVAO DOCTORS - RANK AND FILE           36670086980000000003227929000040327201351
2667260016670000000DAVAO DOCTORS - RANK AND FILE           36671000200000000004570029000040327201344
2667260016670000000DAVAO DOCTORS - RANK AND FILE           36670096270000000003698339000040327201357
2667260016670000000DAVAO DOCTORS - RANK AND FILE           36671045060000000004704839000040327201348
2667260016670000000DAVAO DOCTORS - RANK AND FILE           36670892050000000004665859000040327201349
2667260016670000000DAVAO DOCTORS - RANK AND FILE           36671008610000000004355739000040327201351
2667260016670000000DAVAO DOCTORS - RANK AND FILE           36670981660000000004076009000040327201350
2667260016670000000DAVAO DOCTORS - RANK AND FILE           36671008700000000004729429000040327201347
2667260016670000000DAVAO DOCTORS - RANK AND FILE           36670333820000000004168459000040327201347
2667260016670000000DAVAO DOCTORS - RANK AND FILE           36671036740000000003726949000040327201348
2667260016670000000DAVAO DOCTORS - RANK AND FILE           36670613270000000004141509000040327201350
2667260016670000000DAVAO DOCTORS - RANK AND FILE           36671048750000000003877999000040327201356
2667260016670000000DAVAO DOCTORS - RANK AND FILE           36670776730000000004226579000040327201347
2667260016670000000DAVAO DOCTORS - RANK AND FILE           36670090660000000004445549000040327201346
2667260016670000000DAVAO DOCTORS - RANK AND FILE           36671026430000000004579799000040327201353
2667260016670000000DAVAO DOCTORS - RANK AND FILE           36670245610000000002243409000040327201344
2667260016670000000DAVAO DOCTORS - RANK AND FILE           36670328400000000002953269000040327201347
2667260016670000000DAVAO DOCTORS - RANK AND FILE           36670244640000000002867979000040327201348
2667260016670000000DAVAO DOCTORS - RANK AND FILE           36670416010000000001789929000040327201348
2667260016670000000DAVAO DOCTORS - RANK AND FILE           36670205900000000002762039000040327201345
2667260016670000000DAVAO DOCTORS - RANK AND FILE           36670100130000000003387859000040327201346
2667260016670000000DAVAO DOCTORS - RANK AND FILE           36670424970000000006089009000040327201357
2667260016670000000DAVAO DOCTORS - RANK AND FILE           36670902200000000004834889000040327201341
2667260016670000000DAVAO DOCTORS - RANK AND FILE           36670511510000000006448499000040327201344
2667260016670000000DAVAO DOCTORS - RANK AND FILE           36670613000000000003074829000040327201345
2667260016670000000DAVAO DOCTORS - RANK AND FILE           36671066060000000003812499000040327201349
2667260016670000000DAVAO DOCTORS - RANK AND FILE           36670248800000000004116489000040327201345
2667260016670000000DAVAO DOCTORS - RANK AND FILE           36670875200000000005128099000040327201344
2667260016670000000DAVAO DOCTORS - RANK AND FILE           36670883900000000005153829000040327201345
2667260016670000000DAVAO DOCTORS - RANK AND FILE           36670772660000000007047439000040327201351
2667260016670000000DAVAO DOCTORS - RANK AND FILE           36670243320000000002625049000040327201341
2667260016670000000DAVAO DOCTORS - RANK AND FILE           36671037200000000003890749000040327201352
2667260016670000000DAVAO DOCTORS - RANK AND FILE           36670923380000000004058279000040327201352
2667260016670000000DAVAO DOCTORS - RANK AND FILE           36670979760000000004629339000040327201353
2667260016670000000DAVAO DOCTORS - RANK AND FILE           36670542150000000007235679000040327201349
2667260016670000000DAVAO DOCTORS - RANK AND FILE           36670891750000000002572539000040327201347
2667260016670000000DAVAO DOCTORS - RANK AND FILE           36671009500000000004456729000040327201351
2667260016670000000DAVAO DOCTORS - RANK AND FILE           36670951320000000004665929000040327201345
2667260016670000000DAVAO DOCTORS - RANK AND FILE           36670777460000000005757599000040327201355
2667260016670000000DAVAO DOCTORS - RANK AND FILE           36670929820000000004736399000040327201350
2667260016670000000DAVAO DOCTORS - RANK AND FILE           36670095620000000003368509000040327201348
2667260016670000000DAVAO DOCTORS - RANK AND FILE           36670846290000000003046649000040327201354
2667260016670000000DAVAO DOCTORS - RANK AND FILE           36671041900000000003260949000040327201343
2667260016670000000DAVAO DOCTORS - RANK AND FILE           36670981820000000004679989000040327201346
2667260016670000000DAVAO DOCTORS - RANK AND FILE           36671000630000000004573229000040327201347
2667260016670000000DAVAO DOCTORS - RANK AND FILE           36670778780000000002230739000040327201353
2667260016670000000DAVAO DOCTORS - RANK AND FILE           36671069240000000004127379000040327201352
2667260016670000000DAVAO DOCTORS - RANK AND FILE           36671063040000000003995799000040327201352
2667260016670000000DAVAO DOCTORS - RANK AND FILE           36671027590000000004355579000040327201358
2667260016670000000DAVAO DOCTORS - RANK AND FILE           36670859600000000004352829000040327201350
2667260016670000000DAVAO DOCTORS - RANK AND FILE           36670145820000000002623979000040327201343
2667260016670000000DAVAO DOCTORS - RANK AND FILE           36670103070000000003720269000040327201347
2667260016670000000DAVAO DOCTORS - RANK AND FILE           36671025620000000004422629000040327201346
2667260016670000000DAVAO DOCTORS - RANK AND FILE           36670925400000000005054569000040327201347
2667260016670000000DAVAO DOCTORS - RANK AND FILE           36671005270000000005340929000040327201354
2667260016670000000DAVAO DOCTORS - RANK AND FILE           36670948370000000003739309000040327201353
2667260016670000000DAVAO DOCTORS - RANK AND FILE           36671073350000000004134369000040327201348
2667260016670000000DAVAO DOCTORS - RANK AND FILE           36670777200000000002523879000040327201343
2667260016670000000DAVAO DOCTORS - RANK AND FILE           36670957010000000004599259000040327201353
2667260016670000000DAVAO DOCTORS - RANK AND FILE           36670958840000000004883539000040327201356
2667260016670000000DAVAO DOCTORS - RANK AND FILE           36670102180000000005417479000040327201348
2667260016670000000DAVAO DOCTORS - RANK AND FILE           36670703420000000003231819000040327201343
2667260016670000000DAVAO DOCTORS - RANK AND FILE           36671043790000000003846869000040327201352
2667260016670000000DAVAO DOCTORS - RANK AND FILE           36670109860000000003070789000040327201357
2667260016670000000DAVAO DOCTORS - RANK AND FILE           36670900760000000004768069000040327201348
2667260016670000000DAVAO DOCTORS - RANK AND FILE           36670891400000000003944909000040327201340
2667260016670000000DAVAO DOCTORS - RANK AND FILE           36670104200000000003172629000040327201346
2667260016670000000DAVAO DOCTORS - RANK AND FILE           36670961980000000004825819000040327201347
2667260016670000000DAVAO DOCTORS - RANK AND FILE           36670488270000000007210189000040327201355
2667260016670000000DAVAO DOCTORS - RANK AND FILE           36670931720000000001011389000040327201337
2667260016670000000DAVAO DOCTORS - RANK AND FILE           36671026350000000004287949000040327201356
2667260016670000000DAVAO DOCTORS - RANK AND FILE           36670846610000000004270209000040327201350
2667260016670000000DAVAO DOCTORS - RANK AND FILE           36670846530000000004970529000040327201352
2667260016670000000DAVAO DOCTORS - RANK AND FILE           36670970970000000004498149000040327201352
2667260016670000000DAVAO DOCTORS - RANK AND FILE           36670826690000000004922849000040327201353
2667260016670000000DAVAO DOCTORS - RANK AND FILE           36670958250000000004863529000040327201355
2667260016670000000DAVAO DOCTORS - RANK AND FILE           36670945780000000004487789000040327201357
2667260016670000000DAVAO DOCTORS - RANK AND FILE           36670804100000000003792699000040327201348
2667260016670000000DAVAO DOCTORS - RANK AND FILE           36670487620000000004765999000040327201351
2667260016670000000DAVAO DOCTORS - RANK AND FILE           36670742590000000003961309000040327201352
2667260016670000000DAVAO DOCTORS - RANK AND FILE           36670971350000000003950269000040327201346
2667260016670000000DAVAO DOCTORS - RANK AND FILE           36671031000000000004180869000040327201346
2667260016670000000DAVAO DOCTORS - RANK AND FILE           36670944110000000002544859000040327201343
2667260016670000000DAVAO DOCTORS - RANK AND FILE           36671018840000000004674089000040327201356
2667260016670000000DAVAO DOCTORS - RANK AND FILE           36670872530000000004480039000040327201349
2667260016670000000DAVAO DOCTORS - RANK AND FILE           36671046970000000003918289000040327201350
2667260016670000000DAVAO DOCTORS - RANK AND FILE           36670153410000000002896979000040327201347
2667260016670000000DAVAO DOCTORS - RANK AND FILE           36670856250000000004602449000040327201347
2667260016670000000DAVAO DOCTORS - RANK AND FILE           36670678800000000003765879000040327201349
2667260016670000000DAVAO DOCTORS - RANK AND FILE           36670949930000000005257829000040327201354
2667260016670000000DAVAO DOCTORS - RANK AND FILE           36670206390000000002395409000040327201358
2667260016670000000DAVAO DOCTORS - RANK AND FILE           36671047000000000004308119000040327201344
2667260016670000000DAVAO DOCTORS - RANK AND FILE           36670736000000000005960159000040327201349
2667260016670000000DAVAO DOCTORS - RANK AND FILE           36670242940000000003985439000040327201349
2667260016670000000DAVAO DOCTORS - RANK AND FILE           36670859780000000004711039000040327201354
2667260016670000000DAVAO DOCTORS - RANK AND FILE           36670667790000000004323279000040327201354
2667260016670000000DAVAO DOCTORS - RANK AND FILE           36670989480000000004405579000040327201353
2667260016670000000DAVAO DOCTORS - RANK AND FILE           36670685850000000006391169000040327201357
2667260016670000000DAVAO DOCTORS - RANK AND FILE           36670272930000000002610689000040327201340
2667260016670000000DAVAO DOCTORS - RANK AND FILE           36670122100000000003148369000040327201341
2667260016670000000DAVAO DOCTORS - RANK AND FILE           36670264320000000003452179000040327201346
2667260016670000000DAVAO DOCTORS - RANK AND FILE           36670105520000000004429279000040327201345
2667260016670000000DAVAO DOCTORS - RANK AND FILE           36671000550000000004060069000040327201348
2667260016670000000DAVAO DOCTORS - RANK AND FILE           36670103580000000003639789000040327201349
2667260016670000000DAVAO DOCTORS - RANK AND FILE           36670858700000000005828789000040327201347
2667260016670000000DAVAO DOCTORS - RANK AND FILE           36670720270000000002002139000040327201341
2667260016670000000DAVAO DOCTORS - RANK AND FILE           36671039170000000003971499000040327201359
2667260016670000000DAVAO DOCTORS - RANK AND FILE           36670121720000000007356499000040327201347
2667260016670000000DAVAO DOCTORS - RANK AND FILE           36670242860000000003367559000040327201349
2667260016670000000DAVAO DOCTORS - RANK AND FILE           36670923890000000005455239000040327201354
2667260016670000000DAVAO DOCTORS - RANK AND FILE           36670840170000000004750779000040327201348
2667260016670000000DAVAO DOCTORS - RANK AND FILE           36670718290000000005687239000040327201362
2667260016670000000DAVAO DOCTORS - RANK AND FILE           36670995370000000004596039000040327201357
2667260016670000000DAVAO DOCTORS - RANK AND FILE           36671011750000000004779279000040327201350
2667260016670000000DAVAO DOCTORS - RANK AND FILE           36671039680000000004127569000040327201356
2667260016670000000DAVAO DOCTORS - RANK AND FILE           36670927020000000004875879000040327201352
2667260016670000000DAVAO DOCTORS - RANK AND FILE           36670845210000000005223499000040327201345
2667260016670000000DAVAO DOCTORS - RANK AND FILE           36671079390000000002288789000040327201361
2667260016670000000DAVAO DOCTORS - RANK AND FILE           36670094730000000004158399000040327201348
2667260016670000000DAVAO DOCTORS - RANK AND FILE           36670206040000000005144549000040327201351
2667260016670000000DAVAO DOCTORS - RANK AND FILE           36670896040000000004986819000040327201354
2667260016670000000DAVAO DOCTORS - RANK AND FILE           36671001100000000004538319000040327201341
2667260016670000000DAVAO DOCTORS - RANK AND FILE           36671000470000000004258409000040327201349
2667260016670000000DAVAO DOCTORS - RANK AND FILE           36670248550000000002806869000040327201347
2667260016670000000DAVAO DOCTORS - RANK AND FILE           36671020310000000004038479000040327201341
2667260016670000000DAVAO DOCTORS - RANK AND FILE           36670944380000000004096639000040327201357
2667260016670000000DAVAO DOCTORS - RANK AND FILE           36670796920000000004150609000040327201349
2667260016670000000DAVAO DOCTORS - RANK AND FILE           36670103310000000003297089000040327201348
2667260016670000000DAVAO DOCTORS - RANK AND FILE           36671007990000000004514219000040327201354
2667260016670000000DAVAO DOCTORS - RANK AND FILE           36671028480000000002367129000040327201357
2667260016670000000DAVAO DOCTORS - RANK AND FILE           36671042120000000003927469000040327201342
2667260016670000000DAVAO DOCTORS - RANK AND FILE           36671028990000000005028419000040327201357
2667260016670000000DAVAO DOCTORS - RANK AND FILE           36670447400000000006149939000040327201349
2667260016670000000DAVAO DOCTORS - RANK AND FILE           36670107060000000003248299000040327201352
2667260016670000000DAVAO DOCTORS - RANK AND FILE           36670848660000000005698999000040327201360
2667260016670000000DAVAO DOCTORS - RANK AND FILE           36671025540000000004370519000040327201353
2667260016670000000DAVAO DOCTORS - RANK AND FILE           36670112810000000007387629000040327201350
2667260016670000000DAVAO DOCTORS - RANK AND FILE           36670931300000000005241799000040327201342
2667260016670000000DAVAO DOCTORS - RANK AND FILE           36670855520000000004235789000040327201346
2667260016670000000DAVAO DOCTORS - RANK AND FILE           36670835840000000002459169000040327201348
2667260016670000000DAVAO DOCTORS - RANK AND FILE           36670606650000000002931489000040327201348
2667260016670000000DAVAO DOCTORS - RANK AND FILE           36670743640000000005411069000040327201345
2667260016670000000DAVAO DOCTORS - RANK AND FILE           36671079980000000003777069000040327201360
2667260016670000000DAVAO DOCTORS - RANK AND FILE           36671005190000000004736389000040327201354
2667260016670000000DAVAO DOCTORS - RANK AND FILE           36670987860000000004448679000040327201353
2667260016670000000DAVAO DOCTORS - RANK AND FILE           36670109270000000004178399000040327201359
2667260016670000000DAVAO DOCTORS - RANK AND FILE           36670930240000000003072929000040327201346
2667260016670000000DAVAO DOCTORS - RANK AND FILE           36670703340000000002842119000040327201345
2667260016670000000DAVAO DOCTORS - RANK AND FILE           36670724770000000005362239000040327201354
2667260016670000000DAVAO DOCTORS - RANK AND FILE           36670779830000000004967269000040327201354
2667260016670000000DAVAO DOCTORS - RANK AND FILE           36670866800000000005300519000040327201343
2667260016670000000DAVAO DOCTORS - RANK AND FILE           36670955820000000004547559000040327201347
2667260016670000000DAVAO DOCTORS - RANK AND FILE           36671029450000000003992409000040327201359
2667260016670000000DAVAO DOCTORS - RANK AND FILE           36670899060000000004740089000040327201355
2667260016670000000DAVAO DOCTORS - RANK AND FILE           36670146630000000002979599000040327201350
2667260016670000000DAVAO DOCTORS - RANK AND FILE           36670923970000000005561529000040327201353
2667260016670000000DAVAO DOCTORS - RANK AND FILE           36671060700000000004125899000040327201339
2667260016670000000DAVAO DOCTORS - RANK AND FILE           36670892560000000005252279000040327201350
2667260016670000000DAVAO DOCTORS - RANK AND FILE           36670717130000000004395109000040327201355
2667260016670000000DAVAO DOCTORS - RANK AND FILE           36670828710000000005170609000040327201353
2667260016670000000DAVAO DOCTORS - RANK AND FILE           36671020070000000003905579000040327201343
2667260016670000000DAVAO DOCTORS - RANK AND FILE           36670206470000000002627669000040327201349
2667260016670000000DAVAO DOCTORS - RANK AND FILE           36670206200000000002538449000040327201343
2667260016670000000DAVAO DOCTORS - RANK AND FILE           36670946670000000002004389000040327201347
2667260016670000000DAVAO DOCTORS - RANK AND FILE           36670962440000000002955659000040327201345
2667260016670000000DAVAO DOCTORS - RANK AND FILE           36670264080000000007445159000040327201355
2667260016670000000DAVAO DOCTORS - RANK AND FILE           36670110790000000003528079000040327201346
2667260016670000000DAVAO DOCTORS - RANK AND FILE           36671038100000000004095869000040327201354
2667260016670000000DAVAO DOCTORS - RANK AND FILE           36670978010000000004464659000040327201351
2667260016670000000DAVAO DOCTORS - RANK AND FILE           36670976660000000004617609000040327201349
2667260016670000000DAVAO DOCTORS - RANK AND FILE           36671073510000000004048959000040327201345
2667260016670000000DAVAO DOCTORS - RANK AND FILE           36670105870000000003158729000040327201352
2667260016670000000DAVAO DOCTORS - RANK AND FILE           36671073860000000004751559000040327201351
2667260016670000000DAVAO DOCTORS - RANK AND FILE           36671009000000000003945019000040327201349
2667260016670000000DAVAO DOCTORS - RANK AND FILE           36671038600000000003966559000040327201350
2667260016670000000DAVAO DOCTORS - RANK AND FILE           36671020150000000004631719000040327201345
2667260016670000000DAVAO DOCTORS - RANK AND FILE           36671016980000000005167339000040327201358
2667260016670000000DAVAO DOCTORS - RANK AND FILE           36670778940000000004621159000040327201350
2667260016670000000DAVAO DOCTORS - RANK AND FILE           36670089140000000004369719000040327201355
2667260016670000000DAVAO DOCTORS - RANK AND FILE           36670902540000000005366899000040327201349
2667260016670000000DAVAO DOCTORS - RANK AND FILE           36670991620000000004574509000040327201346
2667260016670000000DAVAO DOCTORS - RANK AND FILE           36670094650000000004867959000040327201351
2667260016670000000DAVAO DOCTORS - RANK AND FILE           36670993830000000003899429000040327201350
2667260016670000000DAVAO DOCTORS - RANK AND FILE           36671076880000000004224229000040327201353
2667260016670000000DAVAO DOCTORS - RANK AND FILE           36670259320000000002562939000040327201351
2667260016670000000DAVAO DOCTORS - RANK AND FILE           36670807120000000004922159000040327201347
2667260016670000000DAVAO DOCTORS - RANK AND FILE           36670776570000000005952859000040327201355
2667260016670000000DAVAO DOCTORS - RANK AND FILE           36670207440000000003652559000040327201351
2667260016670000000DAVAO DOCTORS - RANK AND FILE           36671073600000000003712759000040327201340
2667260016670000000DAVAO DOCTORS - RANK AND FILE           36670097830000000006195249000040327201357
2667260016670000000DAVAO DOCTORS - RANK AND FILE           36670986540000000004701629000040327201346
2667260016670000000DAVAO DOCTORS - RANK AND FILE           36670525220000000006763799000040327201351
2667260016670000000DAVAO DOCTORS - RANK AND FILE           36670867530000000005458419000040327201352
2667260016670000000DAVAO DOCTORS - RANK AND FILE           36670097910000000005234909000040327201348
2667260016670000000DAVAO DOCTORS - RANK AND FILE           36670828470000000004053179000040327201356
2667260016670000000DAVAO DOCTORS - RANK AND FILE           36670088680000000007402739000040327201355
2667260016670000000DAVAO DOCTORS - RANK AND FILE           36670257110000000002503829000040327201342
2667260016670000000DAVAO DOCTORS - RANK AND FILE           36670976400000000004327159000040327201344
2667260016670000000DAVAO DOCTORS - RANK AND FILE           36671028720000000005325169000040327201350
2667260016670000000DAVAO DOCTORS - RANK AND FILE           36670724930000000003010739000040327201343
2667260016670000000DAVAO DOCTORS - RANK AND FILE           36670923540000000003817859000040327201343
2667260016670000000DAVAO DOCTORS - RANK AND FILE           36670247230000000002289519000040327201352
2667260016670000000DAVAO DOCTORS - RANK AND FILE           36670875390000000004593109000040327201359
2667260016670000000DAVAO DOCTORS - RANK AND FILE           36670703180000000003860849000040327201352
2667260016670000000DAVAO DOCTORS - RANK AND FILE           36670492700000000005873309000040327201346
2667260016670000000DAVAO DOCTORS - RANK AND FILE           36670701990000000006208719000040327201348
2667260016670000000DAVAO DOCTORS - RANK AND FILE           36670247310000000003466839000040327201349
2667260016670000000DAVAO DOCTORS - RANK AND FILE           36670853740000000004935989000040327201346
2667260016670000000DAVAO DOCTORS - RANK AND FILE           36670975180000000004989879000040327201357
2667260016670000000DAVAO DOCTORS - RANK AND FILE           36671000390000000004627079000040327201348
2667260016670000000DAVAO DOCTORS - RANK AND FILE           36670393560000000007722049000040327201350
2667260016670000000DAVAO DOCTORS - RANK AND FILE           36670893700000000004817789000040327201340
2667260016670000000DAVAO DOCTORS - RANK AND FILE           36670650980000000005978889000040327201352
2667260016670000000DAVAO DOCTORS - RANK AND FILE           36671079470000000003817729000040327201353
2667260016670000000DAVAO DOCTORS - RANK AND FILE           36670401090000000003147639000040327201349
2667260016670000000DAVAO DOCTORS - RANK AND FILE           36670107490000000003694949000040327201360
2667260016670000000DAVAO DOCTORS - RANK AND FILE           36670173790000000002632829000040327201349
2667260016670000000DAVAO DOCTORS - RANK AND FILE           36670944030000000004415759000040327201344
2667260016670000000DAVAO DOCTORS - RANK AND FILE           36670102340000000003767039000040327201347
2667260016670000000DAVAO DOCTORS - RANK AND FILE           36671073430000000005143939000040327201348
2667260016670000000DAVAO DOCTORS - RANK AND FILE           36670974290000000004111829000040327201350
2667260016670000000DAVAO DOCTORS - RANK AND FILE           36670240140000000002056909000040327201343
2667260016670000000DAVAO DOCTORS - RANK AND FILE           36670985730000000004571279000040327201351
2667260016670000000DAVAO DOCTORS - RANK AND FILE           36671025380000000004810109000040327201351
2667260016670000000DAVAO DOCTORS - RANK AND FILE           36670844400000000004084749000040327201348
2667260016670000000DAVAO DOCTORS - RANK AND FILE           36670102690000000004291199000040327201356
2667260016670000000DAVAO DOCTORS - RANK AND FILE           36671045140000000004475789000040327201353
2667260016670000000DAVAO DOCTORS - RANK AND FILE           36670900840000000005753559000040327201346
2667260016670000000DAVAO DOCTORS - RANK AND FILE           36670155540000000007695509000040327201357
2667260016670000000DAVAO DOCTORS - RANK AND FILE           36671038790000000003697449000040327201362
2667260016670000000DAVAO DOCTORS - RANK AND FILE           36670219700000000003110119000040327201345
2667260016670000000DAVAO DOCTORS - RANK AND FILE           36670979680000000004650059000040327201358
2667260016670000000DAVAO DOCTORS - RANK AND FILE           36670116210000000007521769000040327201348
2667260016670000000DAVAO DOCTORS - RANK AND FILE           36670114600000000005000409000040327201341
2667260016670000000DAVAO DOCTORS - RANK AND FILE           36670917730000000004758399000040327201351
2667260016670000000DAVAO DOCTORS - RANK AND FILE           36671063630000000002623579000040327201343
2667260016670000000DAVAO DOCTORS - RANK AND FILE           36671027400000000004083939000040327201352
2667260016670000000DAVAO DOCTORS - RANK AND FILE           36670108460000000003904799000040327201349
2667260016670000000DAVAO DOCTORS - RANK AND FILE           36670636800000000003396169000040327201350
2667260016670000000DAVAO DOCTORS - RANK AND FILE           36671045220000000004429069000040327201346
2667260016670000000DAVAO DOCTORS - RANK AND FILE           36670105280000000007252719000040327201357
2667260016670000000DAVAO DOCTORS - RANK AND FILE           36671028800000000004914549000040327201346
2667260016670000000DAVAO DOCTORS - RANK AND FILE           36670251000000000003627369000040327201338
2667260016670000000DAVAO DOCTORS - RANK AND FILE           36671047510000000004174999000040327201352
2667260016670000000DAVAO DOCTORS - RANK AND FILE           36670156350000000003811819000040327201347
2667260016670000000DAVAO DOCTORS - RANK AND FILE           36671001790000000004500579000040327201347
2667260016670000000DAVAO DOCTORS - RANK AND FILE           36670968130000000004568879000040327201353
2667260016670000000DAVAO DOCTORS - RANK AND FILE           36671024060000000004560119000040327201353
2667260016670000000DAVAO DOCTORS - RANK AND FILE           36671018760000000004000679000040327201351
2667260016670000000DAVAO DOCTORS - RANK AND FILE           36670259400000000002063109000040327201349
2667260016670000000DAVAO DOCTORS - RANK AND FILE           36670388480000000007073409000040327201362
2667260016670000000DAVAO DOCTORS - RANK AND FILE           36670438330000000002815569000040327201346
2667260016670000000DAVAO DOCTORS - RANK AND FILE           36670978950000000004001579000040327201349
2667260016670000000DAVAO DOCTORS - RANK AND FILE           36670675110000000002415089000040327201341
2667260016670000000DAVAO DOCTORS - RANK AND FILE           36670975850000000004163789000040327201352
2667260016670000000DAVAO DOCTORS - RANK AND FILE           36670885600000000005033649000040327201345
2667260016670000000DAVAO DOCTORS - RANK AND FILE           36670966860000000004578849000040327201355
2667260016670000000DAVAO DOCTORS - RANK AND FILE           36670468320000000003810219000040327201346
2667260016670000000DAVAO DOCTORS - RANK AND FILE           36670925240000000003300739000040327201344
2667260016670000000DAVAO DOCTORS - RANK AND FILE           36670943900000000002984009000040327201345
2667260016670000000DAVAO DOCTORS - RANK AND FILE           36670827310000000002516359000040327201343
2667260016670000000DAVAO DOCTORS - RANK AND FILE           36671079200000000002527359000040327201346
2667260016670000000DAVAO DOCTORS - RANK AND FILE           36670907180000000004837359000040327201354
2667260016670000000DAVAO DOCTORS - RANK AND FILE           36670106090000000003943269000040327201354
2667260016670000000DAVAO DOCTORS - RANK AND FILE           36670915790000000006983519000040327201360
2667260016670000000DAVAO DOCTORS - RANK AND FILE           36671079550000000002543559000040327201353
2667260016670000000DAVAO DOCTORS - RANK AND FILE           36670986110000000004122329000040327201345
2667260016670000000DAVAO DOCTORS - RANK AND FILE           36670861500000000004759109000040327201342
2667260016670000000DAVAO DOCTORS - RANK AND FILE           36670102260000000008170669000040327201355
2667260016670000000DAVAO DOCTORS - RANK AND FILE           36670971270000000005476139000040327201352
2667260016670000000DAVAO DOCTORS - RANK AND FILE           36670699210000000006662479000040327201354
2667260016670000000DAVAO DOCTORS - RANK AND FILE           36670982630000000003934799000040327201343
2667260016670000000DAVAO DOCTORS - RANK AND FILE           36671039920000000003985609000040327201355
2667260016670000000DAVAO DOCTORS - RANK AND FILE           36670240060000000005055549000040327201348
2667260016670000000DAVAO DOCTORS - RANK AND FILE           36670247400000000003038799000040327201345
2667260016670000000DAVAO DOCTORS - RANK AND FILE           36671039250000000004167809000040327201357
2667260016670000000DAVAO DOCTORS - RANK AND FILE           36670736430000000006166049000040327201353
2667260016670000000DAVAO DOCTORS - RANK AND FILE           36670921410000000004640849000040327201342
2667260016670000000DAVAO DOCTORS - RANK AND FILE           36670169500000000004046839000040327201349
2667260016670000000DAVAO DOCTORS - RANK AND FILE           36671039330000000003775409000040327201355
2667260016670000000DAVAO DOCTORS - RANK AND FILE           36670524500000000006383799000040327201350
2667260016670000000DAVAO DOCTORS - RANK AND FILE           36670804880000000006728589000040327201352
2667260016670000000DAVAO DOCTORS - RANK AND FILE           36670783350000000003598489000040327201352
2667260016670000000DAVAO DOCTORS - RANK AND FILE           36670509610000000005895979000040327201356
2667260016670000000DAVAO DOCTORS - RANK AND FILE           36671002840000000003994619000040327201351
2667260016670000000DAVAO DOCTORS - RANK AND FILE           36670627650000000003854219000040327201352
2667260016670000000DAVAO DOCTORS - RANK AND FILE           36670979170000000004786149000040327201360
2667260016670000000DAVAO DOCTORS - RANK AND FILE           36670319830000000002987589000040327201354
2667260016670000000DAVAO DOCTORS - RANK AND FILE           36670943810000000003494849000040327201348
2667260016670000000DAVAO DOCTORS - RANK AND FILE           36671008100000000003877719000040327201351
2667260016670000000DAVAO DOCTORS - RANK AND FILE           36670634190000000005437819000040327201353
2667260016670000000DAVAO DOCTORS - RANK AND FILE           36670086630000000005067279000040327201352
2667260016670000000DAVAO DOCTORS - RANK AND FILE           36670111500000000007635859000040327201343
2667260016670000000DAVAO DOCTORS - RANK AND FILE           36670632300000000006750579000040327201345
2667260016670000000DAVAO DOCTORS - RANK AND FILE           36670437360000000004203859000040327201349
2667260016670000000DAVAO DOCTORS - RANK AND FILE           36670103660000000003424199000040327201346
2667260016670000000DAVAO DOCTORS - RANK AND FILE           36670839590000000003267799000040327201359
2667260016670000000DAVAO DOCTORS - RANK AND FILE           36670846700000000005259249000040327201348
2667260016670000000DAVAO DOCTORS - RANK AND FILE           36670246500000000005571589000040327201350
2667260016670000000DAVAO DOCTORS - RANK AND FILE           36670668920000000005892519000040327201356
2667260016670000000DAVAO DOCTORS - RANK AND FILE           36670674810000000002669439000040327201345
2667260016670000000DAVAO DOCTORS - RANK AND FILE           36670586440000000006484329000040327201356
2667260016670000000DAVAO DOCTORS - RANK AND FILE           36670248200000000002708089000040327201342
2667260016670000000DAVAO DOCTORS - RANK AND FILE           36671025460000000004377199000040327201355
2667260016670000000DAVAO DOCTORS - RANK AND FILE           36671023330000000004038469000040327201346
2667260016670000000DAVAO DOCTORS - RANK AND FILE           36670736270000000004634289000040327201352
2667260016670000000DAVAO DOCTORS - RANK AND FILE           36670516150000000002174799000040327201352
2667260016670000000DAVAO DOCTORS - RANK AND FILE           36670125800000000004898279000040327201350
2667260016670000000DAVAO DOCTORS - RANK AND FILE           36670844320000000002689079000040327201348
2667260016670000000DAVAO DOCTORS - RANK AND FILE           36671010940000000002344189000040327201343
2667260016670000000DAVAO DOCTORS - RANK AND FILE           36670881600000000004601619000040327201337
2667260016670000000DAVAO DOCTORS - RANK AND FILE           36670105790000000003425879000040327201351
2667260016670000000DAVAO DOCTORS - RANK AND FILE           36670105010000000003451089000040327201346
2667260016670000000DAVAO DOCTORS - RANK AND FILE           36671036820000000003887829000040327201352
2667260016670000000DAVAO DOCTORS - RANK AND FILE           36671037390000000003927009000040327201354
2667260016670000000DAVAO DOCTORS - RANK AND FILE           36670979250000000003055999000040327201354
2667260016670000000DAVAO DOCTORS - RANK AND FILE           36670099700000000005208289000040327201346
2667260016670000000DAVAO DOCTORS - RANK AND FILE           36670219960000000002920509000040327201351
2667260016670000000DAVAO DOCTORS - RANK AND FILE           36670255250000000005586629000040327201355
2667260016670000000DAVAO DOCTORS - RANK AND FILE           36670881790000000005414039000040327201348
2667260016670000000DAVAO DOCTORS - RANK AND FILE           36671070330000000004830289000040327201343
2667260016670000000DAVAO DOCTORS - RANK AND FILE           36670852180000000002331459000040327201347
2667260016670000000DAVAO DOCTORS - RANK AND FILE           36670107650000000003788389000040327201355
2667260016670000000DAVAO DOCTORS - RANK AND FILE           36670393300000000007354319000040327201347
2667260016670000000DAVAO DOCTORS - RANK AND FILE           36670684880000000005249069000040327201353
2667260016670000000DAVAO DOCTORS - RANK AND FILE           36670734570000000004526289000040327201349
2667260016670000000DAVAO DOCTORS - RANK AND FILE           36670972590000000005061859000040327201354
2667260016670000000DAVAO DOCTORS - RANK AND FILE           36670222910000000003347529000040327201342
2667260016670000000DAVAO DOCTORS - RANK AND FILE           36671064100000000004533329000040327201344
2667260016670000000DAVAO DOCTORS - RANK AND FILE           36670090740000000003882079000040327201347
2667260016670000000DAVAO DOCTORS - RANK AND FILE           36670958330000000003957049000040327201351
2667260016670000000DAVAO DOCTORS - RANK AND FILE           36670934070000000004401769000040327201347
2667260016670000000DAVAO DOCTORS - RANK AND FILE           36670096860000000004566669000040327201354
2667260016670000000DAVAO DOCTORS - RANK AND FILE           36670891830000000004832249000040327201343
2667260016670000000DAVAO DOCTORS - RANK AND FILE           36671040690000000004121189000040327201348
2667260016670000000DAVAO DOCTORS - RANK AND FILE           36671038280000000003936649000040327201355
2667260016670000000DAVAO DOCTORS - RANK AND FILE           36671060610000000004191019000040327201347
2667260016670000000DAVAO DOCTORS - RANK AND FILE           36670957100000000004283219000040327201351
2667260016670000000DAVAO DOCTORS - RANK AND FILE           36670883810000000003872429000040327201346
2667260016670000000DAVAO DOCTORS - RANK AND FILE           36670321650000000006382819000040327201352
2667260016670000000DAVAO DOCTORS - RANK AND FILE           36670979840000000004381709000040327201357
2667260016670000000DAVAO DOCTORS - RANK AND FILE           36670967750000000004801769000040327201348
2667260016670000000DAVAO DOCTORS - RANK AND FILE           36670197200000000003937149000040327201345
2667260016670000000DAVAO DOCTORS - RANK AND FILE           36671063710000000003991729000040327201349
2667260016670000000DAVAO DOCTORS - RANK AND FILE           36671064010000000003962689000040327201347
2667260016670000000DAVAO DOCTORS - RANK AND FILE           36671018920000000004704389000040327201347
2667260016670000000DAVAO DOCTORS - RANK AND FILE           36670149140000000006625349000040327201353
2667260016670000000DAVAO DOCTORS - RANK AND FILE           36671025890000000004607339000040327201351
2667260016670000000DAVAO DOCTORS - RANK AND FILE           36670945940000000004843209000040327201349
2667260016670000000DAVAO DOCTORS - RANK AND FILE           36670807470000000004335099000040327201353
2667260016670000000DAVAO DOCTORS - RANK AND FILE           36671008450000000004356589000040327201355
2667260016670000000DAVAO DOCTORS - RANK AND FILE           36671010350000000004429449000040327201344
2667260016670000000DAVAO DOCTORS - RANK AND FILE           36671001600000000003942509000040327201341
2667260016670000000DAVAO DOCTORS - RANK AND FILE           36671001010000000004011599000040327201340
2667260016670000000DAVAO DOCTORS - RANK AND FILE           36670089900000000004987629000040327201353
2667260016670000000DAVAO DOCTORS - RANK AND FILE           36670807040000000005187049000040327201356
2667260016670000000DAVAO DOCTORS - RANK AND FILE           36670861680000000003088899000040327201352
2667260016670000000DAVAO DOCTORS - RANK AND FILE           36670846370000000002770489000040327201354
2667260016670000000DAVAO DOCTORS - RANK AND FILE           36671058800000000003438289000040327201347
2667260016670000000DAVAO DOCTORS - RANK AND FILE           36670848310000000002766159000040327201349
2667260016670000000DAVAO DOCTORS - RANK AND FILE           36670926990000000003058929000040327201355
2667260016670000000DAVAO DOCTORS - RANK AND FILE           36670558660000000003733569000040327201352
2667260016670000000DAVAO DOCTORS - RANK AND FILE           36670975770000000004038539000040327201351
2667260016670000000DAVAO DOCTORS - RANK AND FILE           36670855010000000005710699000040327201344
2667260016670000000DAVAO DOCTORS - RANK AND FILE           36670240730000000003214429000040327201339
2667260016670000000DAVAO DOCTORS - RANK AND FILE           36670900920000000004988159000040327201346
2667260016670000000DAVAO DOCTORS - RANK AND FILE           36670955900000000004579759000040327201348
2667260016670000000DAVAO DOCTORS - RANK AND FILE           36670249010000000005243419000040327201351
2667260016670000000DAVAO DOCTORS - RANK AND FILE           36670566500000000002329469000040327201342
2667260016670000000DAVAO DOCTORS - RANK AND FILE           36670670900000000002645459000040327201338
2667260016670000000DAVAO DOCTORS - RANK AND FILE           36670116300000000003705849000040327201341
2667260016670000000DAVAO DOCTORS - RANK AND FILE           36671070170000000004816579000040327201345
2667260016670000000DAVAO DOCTORS - RANK AND FILE           36670293690000000002469869000040327201352
2667260016670000000DAVAO DOCTORS - RANK AND FILE           36671060960000000004083379000040327201351
2667260016670000000DAVAO DOCTORS - RANK AND FILE           36671039410000000004537549000040327201350
2667260016670000000DAVAO DOCTORS - RANK AND FILE           36670110360000000003357529000040327201346
2667260016670000000DAVAO DOCTORS - RANK AND FILE           36670249870000000002493309000040327201359
2667260016670000000DAVAO DOCTORS - RANK AND FILE           36671017010000000003679129000040327201351
2667260016670000000DAVAO DOCTORS - RANK AND FILE           36671069670000000004067599000040327201359
2667260016670000000DAVAO DOCTORS - RANK AND FILE           36670845050000000005142329000040327201351
2667260016670000000DAVAO DOCTORS - RANK AND FILE           36671047270000000004599309000040327201360
2667260016670000000DAVAO DOCTORS - RANK AND FILE           36670943570000000004005689000040327201346
2667260016670000000DAVAO DOCTORS - RANK AND FILE           36670776300000000005381939000040327201351
2667260016670000000DAVAO DOCTORS - RANK AND FILE           36670111760000000004991259000040327201352
2667260016670000000DAVAO DOCTORS - RANK AND FILE           36670093170000000003496079000040327201354
2667260016670000000DAVAO DOCTORS - RANK AND FILE           36670408690000000002517619000040327201352
2667260016670000000DAVAO DOCTORS - RANK AND FILE           36670984250000000004429449000040327201347
2667260016670000000DAVAO DOCTORS - RANK AND FILE           36670893960000000001160889000040327201348
2667260016670000000DAVAO DOCTORS - RANK AND FILE           36671048830000000004261019000040327201354
2667260016670000000DAVAO DOCTORS - RANK AND FILE           36670917810000000005156469000040327201350
2667260016670000000DAVAO DOCTORS - RANK AND FILE           36670617340000000003521239000040327201348
2667260016670000000DAVAO DOCTORS - RANK AND FILE           36670950350000000003835609000040327201343
2667260016670000000DAVAO DOCTORS - RANK AND FILE           36670854200000000002853899000040327201343
2667260016670000000DAVAO DOCTORS - RANK AND FILE           36671009260000000004545999000040327201356
2667260016670000000DAVAO DOCTORS - RANK AND FILE           36670239480000000004348899000040327201357
2667260016670000000DAVAO DOCTORS - RANK AND FILE           36670959300000000004651199000040327201350
2667260016670000000DAVAO DOCTORS - RANK AND FILE           36671063980000000004040689000040327201352
2667260016670000000DAVAO DOCTORS - RANK AND FILE           36670879970000000004490609000040327201361
2667260016670000000DAVAO DOCTORS - RANK AND FILE           36670590710000000002357969000040327201340
2667260016670000000DAVAO DOCTORS - RANK AND FILE           36671029610000000004009999000040327201347
2667260016670000000DAVAO DOCTORS - RANK AND FILE           36670145580000000003428509000040327201350
2667260016670000000DAVAO DOCTORS - RANK AND FILE           36671037040000000002962709000040327201352
2667260016670000000DAVAO DOCTORS - RANK AND FILE           36671058550000000004507559000040327201350
2667260016670000000DAVAO DOCTORS - RANK AND FILE           36670640670000000002890219000040327201350
2667260016670000000DAVAO DOCTORS - RANK AND FILE           36671043870000000002334359000040327201348
2667260016670000000DAVAO DOCTORS - RANK AND FILE           36670943650000000004800439000040327201344
2667260016670000000DAVAO DOCTORS - RANK AND FILE           36670120080000000006671329000040327201353
2667260016670000000DAVAO DOCTORS - RANK AND FILE           36670822780000000003184059000040327201353
2667260016670000000DAVAO DOCTORS - RANK AND FILE           36670103820000000008146949000040327201349
2667260016670000000DAVAO DOCTORS - RANK AND FILE           36670619800000000005262909000040327201352
2667260016670000000DAVAO DOCTORS - RANK AND FILE           36670904910000000004958189000040327201346
2667260016670000000DAVAO DOCTORS - RANK AND FILE           36670981310000000006102499000040327201340
2667260016670000000DAVAO DOCTORS - RANK AND FILE           36670402220000000005205809000040327201341
2667260016670000000DAVAO DOCTORS - RANK AND FILE           36670283380000000003040859000040327201350
2667260016670000000DAVAO DOCTORS - RANK AND FILE           36670929740000000003000499000040327201348
2667260016670000000DAVAO DOCTORS - RANK AND FILE           36671040850000000004461829000040327201348
2667260016670000000DAVAO DOCTORS - RANK AND FILE           36670902700000000004379289000040327201345
2667260016670000000DAVAO DOCTORS - RANK AND FILE           36670940800000000004574249000040327201343
2667260016670000000DAVAO DOCTORS - RANK AND FILE           36670535960000000004560089000040327201353
2667260016670000000DAVAO DOCTORS - RANK AND FILE           36670880040000000004269109000040327201346
2667260016670000000DAVAO DOCTORS - RANK AND FILE           36670519680000000004464289000040327201359
2667260016670000000DAVAO DOCTORS - RANK AND FILE           36670987000000000003558639000040327201347
2667260016670000000DAVAO DOCTORS - RANK AND FILE           36671001520000000004256709000040327201345
2667260016670000000DAVAO DOCTORS - RANK AND FILE           36670945860000000005127069000040327201350
2667260016670000000DAVAO DOCTORS - RANK AND FILE           36670775090000000005518989000040327201352
2667260016670000000DAVAO DOCTORS - RANK AND FILE           36671047350000000004846329000040327201353
2667260016670000000DAVAO DOCTORS - RANK AND FILE           36670783270000000004207189000040327201346
2667260016670000000DAVAO DOCTORS - RANK AND FILE           36670845130000000005628339000040327201347
2667260016670000000DAVAO DOCTORS - RANK AND FILE           36670239560000000003994569000040327201359
2667260016670000000DAVAO DOCTORS - RANK AND FILE           36670967590000000004790799000040327201361
2667260016670000000DAVAO DOCTORS - RANK AND FILE           36670105100000000003553579000040327201345
2667260016670000000DAVAO DOCTORS - RANK AND FILE           36671026000000000005027629000040327201346
2667260016670000000DAVAO DOCTORS - RANK AND FILE           36670524680000000002274739000040327201353
2667260016670000000DAVAO DOCTORS - RANK AND FILE           36670106330000000006044969000040327201351
2667260016670000000DAVAO DOCTORS - RANK AND FILE           36670955230000000003581559000040327201351
2667260016670000000DAVAO DOCTORS - RANK AND FILE           36671044410000000003971499000040327201348
2667260016670000000DAVAO DOCTORS - RANK AND FILE           36670979090000000004448859000040327201358
2667260016670000000DAVAO DOCTORS - RANK AND FILE           36670866130000000002787619000040327201351
2667260016670000000DAVAO DOCTORS - RANK AND FILE           36671042040000000003917379000040327201343
2667260016670000000DAVAO DOCTORS - RANK AND FILE           36670944200000000003697719000040327201348
2667260016670000000DAVAO DOCTORS - RANK AND FILE           36670852000000000003412979000040327201338
2667260016670000000DAVAO DOCTORS - RANK AND FILE           36671011830000000004460889000040327201347
2667260016670000000DAVAO DOCTORS - RANK AND FILE           36671058630000000003868809000040327201353
2667260016670000000DAVAO DOCTORS - RANK AND FILE           36671063800000000003979489000040327201346
2667260016670000000DAVAO DOCTORS - RANK AND FILE           36670986460000000004276019000040327201355
2667260016670000000DAVAO DOCTORS - RANK AND FILE           36671047780000000003979339000040327201358
2667260016670000000DAVAO DOCTORS - RANK AND FILE           36670983360000000004671549000040327201352
2667260016670000000DAVAO DOCTORS - RANK AND FILE           36670338890000000005247929000040327201358
2667260016670000000DAVAO DOCTORS - RANK AND FILE           36671060530000000004100019000040327201340
2667260016670000000DAVAO DOCTORS - RANK AND FILE           36670931210000000004378349000040327201345
2667260016670000000DAVAO DOCTORS - RANK AND FILE           36671000980000000004305029000040327201345
2667260016670000000DAVAO DOCTORS - RANK AND FILE           36670471970000000006435229000040327201349
2667260016670000000DAVAO DOCTORS - RANK AND FILE           36670907340000000003831759000040327201349
2667260016670000000DAVAO DOCTORS - RANK AND FILE           36670292100000000002826999000040327201338
2667260016670000000DAVAO DOCTORS - RANK AND FILE           36670793310000000005765569000040327201347
2667260016670000000DAVAO DOCTORS - RANK AND FILE           36670981900000000004429449000040327201339
2667260016670000000DAVAO DOCTORS - RANK AND FILE           36670865910000000004055579000040327201347
2667260016670000000DAVAO DOCTORS - RANK AND FILE           36670846450000000003360029000040327201352
2667260016670000000DAVAO DOCTORS - RANK AND FILE           36670921330000000004350829000040327201345
2667260016670000000DAVAO DOCTORS - RANK AND FILE           36671047860000000003991729000040327201358
2667260016670000000DAVAO DOCTORS - RANK AND FILE           36671001440000000005254199000040327201348
2667260016670000000DAVAO DOCTORS - RANK AND FILE           36671008020000000004978419000040327201354
2667260016670000000DAVAO DOCTORS - RANK AND FILE           36670845990000000002889479000040327201356
2667260016670000000DAVAO DOCTORS - RANK AND FILE           36671022520000000004836479000040327201344
2667260016670000000DAVAO DOCTORS - RANK AND FILE           36671025970000000002971399000040327201354
2667260016670000000DAVAO DOCTORS - RANK AND FILE           36670927290000000004996309000040327201361
2667260016670000000DAVAO DOCTORS - RANK AND FILE           36671036900000000003994789000040327201351
2667260016670000000DAVAO DOCTORS - RANK AND FILE           36670973300000000002328199000040327201339
2667260016670000000DAVAO DOCTORS - RANK AND FILE           36671009340000000004366249000040327201356
2667260016670000000DAVAO DOCTORS - RANK AND FILE           36670956980000000004136639000040327201353
2667260016670000000DAVAO DOCTORS - RANK AND FILE           36670107810000000004098369000040327201353
2667260016670000000DAVAO DOCTORS - RANK AND FILE           36670733170000000005238899000040327201350
2667260016670000000DAVAO DOCTORS - RANK AND FILE           36671038440000000004370239000040327201356
2667260016670000000DAVAO DOCTORS - RANK AND FILE           36671040180000000003991729000040327201353
2667260016670000000DAVAO DOCTORS - RANK AND FILE           36671020230000000004391469000040327201349
2667260016670000000DAVAO DOCTORS - RANK AND FILE           36670877410000000002847929000040327201346
2667260016670000000DAVAO DOCTORS - RANK AND FILE           36670823160000000005533459000040327201349
2667260016670000000DAVAO DOCTORS - RANK AND FILE           36670557260000000003266819000040327201354
2667260016670000000DAVAO DOCTORS - RANK AND FILE           36670250370000000005942399000040327201348
2667260016670000000DAVAO DOCTORS - RANK AND FILE           36670710200000000004649169000040327201340
2667260016670000000DAVAO DOCTORS - RANK AND FILE           36670109600000000003393679000040327201353
2667260016670000000DAVAO DOCTORS - RANK AND FILE           36670913230000000005084709000040327201351
2667260016670000000DAVAO DOCTORS - RANK AND FILE           36671043950000000003843879000040327201348
2667260016670000000DAVAO DOCTORS - RANK AND FILE           36671041660000000003904439000040327201343
2667260016670000000DAVAO DOCTORS - RANK AND FILE           36670673170000000003680839000040327201353
2667260016670000000DAVAO DOCTORS - RANK AND FILE           36670906370000000004761379000040327201355
2667260016670000000DAVAO DOCTORS - RANK AND FILE           36671005350000000004617649000040327201348
2667260016670000000DAVAO DOCTORS - RANK AND FILE           36670946240000000002327479000040327201346
2667260016670000000DAVAO DOCTORS - RANK AND FILE           36670894000000000005291139000040327201350
2667260016670000000DAVAO DOCTORS - RANK AND FILE           36670087950000000005362039000040327201355
2667260016670000000DAVAO DOCTORS - RANK AND FILE           36670092600000000003197339000040327201346
2667260016670000000DAVAO DOCTORS - RANK AND FILE           36670945510000000005551199000040327201348
2667260016670000000DAVAO DOCTORS - RANK AND FILE           36670686150000000007061679000040327201356
2667260016670000000DAVAO DOCTORS - RANK AND FILE           36670958410000000005230509000040327201349
2667260016670000000DAVAO DOCTORS - RANK AND FILE           36670905050000000005524749000040327201349
2667260016670000000DAVAO DOCTORS - RANK AND FILE           36670776140000000003720209000040327201347
2667260016670000000DAVAO DOCTORS - RANK AND FILE           36670468080000000007543969000040327201359
2667260016670000000DAVAO DOCTORS - RANK AND FILE           36670983100000000004772469000040327201346
2667260016670000000DAVAO DOCTORS - RANK AND FILE           36670676780000000002731109000040327201351
2667260016670000000DAVAO DOCTORS - RANK AND FILE           36670109940000000008181789000040327201361
2667260016670000000DAVAO DOCTORS - RANK AND FILE           36670928000000000005504689000040327201345
2667260016670000000DAVAO DOCTORS - RANK AND FILE           36670848400000000004199389000040327201353
2667260016670000000DAVAO DOCTORS - RANK AND FILE           36671040000000000003816329000040327201337
2667260016670000000DAVAO DOCTORS - RANK AND FILE           36670113110000000006010399000040327201343
2667260016670000000DAVAO DOCTORS - RANK AND FILE           36671073270000000004121449000040327201349
2667260016670000000DAVAO DOCTORS - RANK AND FILE           36670871050000000004605009000040327201342
000517000000224296477
