2667260016670000000DAVAO DOCTORS - CONTRACTUAL             366717624800000000047765790000504292021
2667260016670000000DAVAO DOCTORS - CONTRACTUAL             366717448200000000139074090000504292021
2667260016670000000DAVAO DOCTORS - CONTRACTUAL             366717364800000000071977890000504292021
2667260016670000000DAVAO DOCTORS - CONTRACTUAL             366716874100000000029697690000504292021
2667260016670000000DAVAO DOCTORS - CONTRACTUAL             366717586100000000046241790000504292021
2667260016670000000DAVAO DOCTORS - CONTRACTUAL             366714660800000000039138590000504292021
2667260016670000000DAVAO DOCTORS - CONTRACTUAL             366716873300000000041825990000504292021
2667260016670000000DAVAO DOCTORS - CONTRACTUAL             366717578000000000008548290000504292021
