2667260016670000000DAVAO DOCTORS - CONTRACTUAL             36671083900000000001649409000050429201341
2667260016670000000DAVAO DOCTORS - CONTRACTUAL             36671033640000000004540579000050429201348
2667260016670000000DAVAO DOCTORS - CONTRACTUAL             36671082420000000003276779000050429201347
2667260016670000000DAVAO DOCTORS - CONTRACTUAL             36671082340000000004925919000050429201345
2667260016670000000DAVAO DOCTORS - CONTRACTUAL             36671069320000000002849869000050429201350
2667260016670000000DAVAO DOCTORS - CONTRACTUAL             36671086090000000004832589000050429201355
2667260016670000000DAVAO DOCTORS - CONTRACTUAL             36671066140000000003273129000050429201353
2667260016670000000DAVAO DOCTORS - CONTRACTUAL             36671067110000000002660799000050429201349
2667260016670000000DAVAO DOCTORS - CONTRACTUAL             36671079040000000003695639000050429201358
2667260016670000000DAVAO DOCTORS - CONTRACTUAL             36671079120000000003453289000050429201352
2667260016670000000DAVAO DOCTORS - CONTRACTUAL             36671061000000000002579389000050429201343
2667260016670000000DAVAO DOCTORS - CONTRACTUAL             36671063120000000001696099000050429201348
2667260016670000000DAVAO DOCTORS - CONTRACTUAL             36671085950000000000502469000050429201343
2667260016670000000DAVAO DOCTORS - CONTRACTUAL             36671067380000000003213979000050429201352
2667260016670000000DAVAO DOCTORS - CONTRACTUAL             36671071220000000005122479000050429201343
2667260016670000000DAVAO DOCTORS - CONTRACTUAL             36671042200000000002682439000050429201345
2667260016670000000DAVAO DOCTORS - CONTRACTUAL             36671058710000000002941129000050429201348
2667260016670000000DAVAO DOCTORS - CONTRACTUAL             36671073940000000002417689000050429201343
2667260016670000000DAVAO DOCTORS - CONTRACTUAL             36671073780000000003818089000050429201348
2667260016670000000DAVAO DOCTORS - CONTRACTUAL             36671067460000000003755429000050429201354
2667260016670000000DAVAO DOCTORS - CONTRACTUAL             36671041070000000002900019000050429201343
2667260016670000000DAVAO DOCTORS - CONTRACTUAL             36671067540000000003655609000050429201352
2667260016670000000DAVAO DOCTORS - CONTRACTUAL             36671081370000000003754009000050429201349
2667260016670000000DAVAO DOCTORS - CONTRACTUAL             36671078070000000004233919000050429201355
2667260016670000000DAVAO DOCTORS - CONTRACTUAL             36671061180000000003060149000050429201351
2667260016670000000DAVAO DOCTORS - CONTRACTUAL             36671059870000000002271169000050429201358
000026000000008376183
