2667260016670000000DAVAO DOCTORS - CONTRACTUAL             366717364800000000054650090000511272020
2667260016670000000DAVAO DOCTORS - CONTRACTUAL             366717397400000000065049090000511272020
2667260016670000000DAVAO DOCTORS - CONTRACTUAL             366717350800000000057625290000511272020
2667260016670000000DAVAO DOCTORS - CONTRACTUAL             366716919500000000055906590000511272020
2667260016670000000DAVAO DOCTORS - CONTRACTUAL             366717353200000000064620890000511272020
2667260016670000000DAVAO DOCTORS - CONTRACTUAL             366717352400000000059340890000511272020
2667260016670000000DAVAO DOCTORS - CONTRACTUAL             366717351600000000059088390000511272020
