2667260016670000000DAVAO DOCTORS - RANK AND FILE           36670777460000000006368759000040415201357
2667260016670000000DAVAO DOCTORS - RANK AND FILE           36671000630000000004880219000040415201348
2667260016670000000DAVAO DOCTORS - RANK AND FILE           36671025620000000004880219000040415201352
2667260016670000000DAVAO DOCTORS - RANK AND FILE           36670634190000000006718339000040415201352
2667260016670000000DAVAO DOCTORS - RANK AND FILE           36670807040000000006368759000040415201355
2667260016670000000DAVAO DOCTORS - RANK AND FILE           36670929740000000005380219000040415201358
2667260016670000000DAVAO DOCTORS - RANK AND FILE           36671001520000000004880219000040415201348
2667260016670000000DAVAO DOCTORS - RANK AND FILE           36670846450000000005912509000040415201349
2667260016670000000DAVAO DOCTORS - RANK AND FILE           36671007990000000004880219000040415201361
2667260016670000000DAVAO DOCTORS - RANK AND FILE           36670779080000000006368759000040415201361
2667260016670000000DAVAO DOCTORS - RANK AND FILE           36670839590000000005912509000040415201356
2667260016670000000DAVAO DOCTORS - RANK AND FILE           36670249010000000007630839000040415201352
2667260016670000000DAVAO DOCTORS - RANK AND FILE           36670338890000000007326659000040415201358
2667260016670000000DAVAO DOCTORS - RANK AND FILE           36670087950000000011016059000040415201347
2667260016670000000DAVAO DOCTORS - RANK AND FILE           36670956040000000005380219000040415201355
2667260016670000000DAVAO DOCTORS - RANK AND FILE           36670902200000000004880219000040415201346
2667260016670000000DAVAO DOCTORS - RANK AND FILE           36671009500000000004880219000040415201354
2667260016670000000DAVAO DOCTORS - RANK AND FILE           36671000550000000004880219000040415201350
2667260016670000000DAVAO DOCTORS - RANK AND FILE           36671000470000000004880219000040415201352
2667260016670000000DAVAO DOCTORS - RANK AND FILE           36671025540000000004880219000040415201354
2667260016670000000DAVAO DOCTORS - RANK AND FILE           36670701990000000006718339000040415201349
2667260016670000000DAVAO DOCTORS - RANK AND FILE           36671027400000000004880219000040415201352
2667260016670000000DAVAO DOCTORS - RANK AND FILE           36670111500000000010809049000040415201334
2667260016670000000DAVAO DOCTORS - RANK AND FILE           36670975770000000004880219000040415201356
2667260016670000000DAVAO DOCTORS - RANK AND FILE           36671026000000000004880219000040415201351
2667260016670000000DAVAO DOCTORS - RANK AND FILE           36670958410000000005380219000040415201354
2667260016670000000DAVAO DOCTORS - RANK AND FILE           36670333820000000007022509000040415201346
2667260016670000000DAVAO DOCTORS - RANK AND FILE           36670891400000000005836469000040415201341
2667260016670000000DAVAO DOCTORS - RANK AND FILE           36670717130000000005912509000040415201348
2667260016670000000DAVAO DOCTORS - RANK AND FILE           36670807120000000005912509000040415201347
2667260016670000000DAVAO DOCTORS - RANK AND FILE           36670875390000000005836469000040415201354
2667260016670000000DAVAO DOCTORS - RANK AND FILE           36670986110000000004880219000040415201351
2667260016670000000DAVAO DOCTORS - RANK AND FILE           36670984250000000004880219000040415201353
2667260016670000000DAVAO DOCTORS - RANK AND FILE           36670904910000000005836469000040415201345
2667260016670000000DAVAO DOCTORS - RANK AND FILE           36670983360000000005380219000040415201354
2667260016670000000DAVAO DOCTORS - RANK AND FILE           36670718290000000006612089000040415201356
2667260016670000000DAVAO DOCTORS - RANK AND FILE           36670896040000000005836469000040415201350
2667260016670000000DAVAO DOCTORS - RANK AND FILE           36670974290000000005380219000040415201358
2667260016670000000DAVAO DOCTORS - RANK AND FILE           36670979840000000004880219000040415201357
2667260016670000000DAVAO DOCTORS - RANK AND FILE           36671010350000000004880219000040415201350
2667260016670000000DAVAO DOCTORS - RANK AND FILE           36671025970000000003308749000040415201348
2667260016670000000DAVAO DOCTORS - RANK AND FILE           36670245610000000007562399000040415201351
2667260016670000000DAVAO DOCTORS - RANK AND FILE           36670979760000000005380219000040415201360
2667260016670000000DAVAO DOCTORS - RANK AND FILE           36670542150000000007022509000040415201348
2667260016670000000DAVAO DOCTORS - RANK AND FILE           36670865910000000005836469000040415201346
2667260016670000000DAVAO DOCTORS - RANK AND FILE           36670883900000000005912509000040415201341
2667260016670000000DAVAO DOCTORS - RANK AND FILE           36670958840000000005380219000040415201357
2667260016670000000DAVAO DOCTORS - RANK AND FILE           36670826690000000005912509000040415201353
2667260016670000000DAVAO DOCTORS - RANK AND FILE           36670401090000000007258219000040415201354
2667260016670000000DAVAO DOCTORS - RANK AND FILE           36670907180000000005912509000040415201353
2667260016670000000DAVAO DOCTORS - RANK AND FILE           36671025890000000004880219000040415201359
2667260016670000000DAVAO DOCTORS - RANK AND FILE           36671000980000000004880219000040415201353
2667260016670000000DAVAO DOCTORS - RANK AND FILE           36671020230000000004880219000040415201348
2667260016670000000DAVAO DOCTORS - RANK AND FILE           36670468080000000007326659000040415201357
2667260016670000000DAVAO DOCTORS - RANK AND FILE           36670961980000000005380219000040415201354
2667260016670000000DAVAO DOCTORS - RANK AND FILE           36670989480000000004880219000040415201361
2667260016670000000DAVAO DOCTORS - RANK AND FILE           36670259320000000007258239000040415201355
2667260016670000000DAVAO DOCTORS - RANK AND FILE           36670246500000000007630839000040415201348
2667260016670000000DAVAO DOCTORS - RANK AND FILE           36670881790000000005836469000040415201350
2667260016670000000DAVAO DOCTORS - RANK AND FILE           36670846370000000005912509000040415201351
2667260016670000000DAVAO DOCTORS - RANK AND FILE           36670519680000000007022509000040415201358
2667260016670000000DAVAO DOCTORS - RANK AND FILE           36671005350000000004880219000040415201355
2667260016670000000DAVAO DOCTORS - RANK AND FILE           36670970970000000005380219000040415201352
2667260016670000000DAVAO DOCTORS - RANK AND FILE           36670958250000000005380219000040415201358
2667260016670000000DAVAO DOCTORS - RANK AND FILE           36670995370000000004880219000040415201356
2667260016670000000DAVAO DOCTORS - RANK AND FILE           36670987860000000004880219000040415201357
2667260016670000000DAVAO DOCTORS - RANK AND FILE           36670993830000000004880219000040415201350
2667260016670000000DAVAO DOCTORS - RANK AND FILE           36670893700000000005836469000040415201343
2667260016670000000DAVAO DOCTORS - RANK AND FILE           36670846700000000005912509000040415201344
2667260016670000000DAVAO DOCTORS - RANK AND FILE           36671018920000000004880219000040415201355
2667260016670000000DAVAO DOCTORS - RANK AND FILE           36670093170000000010976549000040415201350
2667260016670000000DAVAO DOCTORS - RANK AND FILE           36670955230000000005380219000040415201353
2667260016670000000DAVAO DOCTORS - RANK AND FILE           36670981660000000004880219000040415201351
2667260016670000000DAVAO DOCTORS - RANK AND FILE           36670845210000000005912509000040415201344
2667260016670000000DAVAO DOCTORS - RANK AND FILE           36671001100000000004880219000040415201346
2667260016670000000DAVAO DOCTORS - RANK AND FILE           36671001790000000004880219000040415201355
2667260016670000000DAVAO DOCTORS - RANK AND FILE           36670902700000000005836469000040415201342
2667260016670000000DAVAO DOCTORS - RANK AND FILE           36671008020000000004880219000040415201355
2667260016670000000DAVAO DOCTORS - RANK AND FILE           36670846530000000005912509000040415201347
2667260016670000000DAVAO DOCTORS - RANK AND FILE           36671020070000000004880219000040415201352
2667260016670000000DAVAO DOCTORS - RANK AND FILE           36670986540000000004880219000040415201354
2667260016670000000DAVAO DOCTORS - RANK AND FILE           36670885600000000005836469000040415201345
2667260016670000000DAVAO DOCTORS - RANK AND FILE           36670966860000000005380219000040415201357
2667260016670000000DAVAO DOCTORS - RANK AND FILE           36670861500000000005912509000040415201339
2667260016670000000DAVAO DOCTORS - RANK AND FILE           36670632300000000006718339000040415201341
2667260016670000000DAVAO DOCTORS - RANK AND FILE           36670099700000000010809059000040415201342
2667260016670000000DAVAO DOCTORS - RANK AND FILE           36670891830000000005836469000040415201344
2667260016670000000DAVAO DOCTORS - RANK AND FILE           36670986460000000004880219000040415201356
2667260016670000000DAVAO DOCTORS - RANK AND FILE           36670981900000000004880219000040415201345
2667260016670000000DAVAO DOCTORS - RANK AND FILE           36671008530000000004880219000040415201356
2667260016670000000DAVAO DOCTORS - RANK AND FILE           36670667790000000004880219000040415201360
2667260016670000000DAVAO DOCTORS - RANK AND FILE           36670976400000000004880219000040415201350
2667260016670000000DAVAO DOCTORS - RANK AND FILE           36670979680000000005380219000040415201362
2667260016670000000DAVAO DOCTORS - RANK AND FILE           36671023330000000004880219000040415201351
2667260016670000000DAVAO DOCTORS - RANK AND FILE           36670640670000000005380219000040415201352
2667260016670000000DAVAO DOCTORS - RANK AND FILE           36670979090000000004880219000040415201362
2667260016670000000DAVAO DOCTORS - RANK AND FILE           36670973300000000005380219000040415201348
2667260016670000000DAVAO DOCTORS - RANK AND FILE           36671008880000000004880219000040415201361
2667260016670000000DAVAO DOCTORS - RANK AND FILE           36670866050000000005836469000040415201351
2667260016670000000DAVAO DOCTORS - RANK AND FILE           36670772660000000006612089000040415201347
2667260016670000000DAVAO DOCTORS - RANK AND FILE           36671027590000000004880219000040415201361
2667260016670000000DAVAO DOCTORS - RANK AND FILE           36671018840000000004880219000040415201357
2667260016670000000DAVAO DOCTORS - RANK AND FILE           36670972590000000005380219000040415201356
2667260016670000000DAVAO DOCTORS - RANK AND FILE           36671001600000000004880219000040415201346
2667260016670000000DAVAO DOCTORS - RANK AND FILE           36670292100000000007562399000040415201347
2667260016670000000DAVAO DOCTORS - RANK AND FILE           36670913230000000005836469000040415201346
2667260016670000000DAVAO DOCTORS - RANK AND FILE           36671008700000000004880219000040415201353
2667260016670000000DAVAO DOCTORS - RANK AND FILE           36671020310000000004880219000040415201346
2667260016670000000DAVAO DOCTORS - RANK AND FILE           36670950350000000005380219000040415201350
2667260016670000000DAVAO DOCTORS - RANK AND FILE           36670940800000000005380219000040415201345
2667260016670000000DAVAO DOCTORS - RANK AND FILE           36670613270000000006642299000040415201352
2667260016670000000DAVAO DOCTORS - RANK AND FILE           36670111760000000011049549000040415201345
2667260016670000000DAVAO DOCTORS - RANK AND FILE           36670109600000000010822549000040415201344
2667260016670000000DAVAO DOCTORS - RANK AND FILE           36670102180000000010976549000040415201350
2667260016670000000DAVAO DOCTORS - RANK AND FILE           36670240060000000007562399000040415201351
2667260016670000000DAVAO DOCTORS - RANK AND FILE           36670107060000000010803069000040415201346
2667260016670000000DAVAO DOCTORS - RANK AND FILE           36670197200000000007930689000040415201349
2667260016670000000DAVAO DOCTORS - RANK AND FILE           36670095620000000005297789000040415201353
2667260016670000000DAVAO DOCTORS - RANK AND FILE           36670109860000000009765359000040415201362
2667260016670000000DAVAO DOCTORS - RANK AND FILE           36670206200000000007927389000040415201347
2667260016670000000DAVAO DOCTORS - RANK AND FILE           36670094650000000009247319000040415201354
2667260016670000000DAVAO DOCTORS - RANK AND FILE           36670240140000000007265839000040415201349
2667260016670000000DAVAO DOCTORS - RANK AND FILE           36670219700000000007927389000040415201350
2667260016670000000DAVAO DOCTORS - RANK AND FILE           36670125800000000008322789000040415201347
2667260016670000000DAVAO DOCTORS - RANK AND FILE           36670107650000000010990039000040415201354
2667260016670000000DAVAO DOCTORS - RANK AND FILE           36671017010000000004849589000040415201349
2667260016670000000DAVAO DOCTORS - RANK AND FILE           36670145580000000004161399000040415201355
2667260016670000000DAVAO DOCTORS - RANK AND FILE           36670092600000000004990339000040415201347
2667260016670000000DAVAO DOCTORS - RANK AND FILE           36670109940000000010215359000040415201347
2667260016670000000DAVAO DOCTORS - RANK AND FILE           36670416010000000005577709000040415201351
2667260016670000000DAVAO DOCTORS - RANK AND FILE           36670945780000000005380219000040415201358
2667260016670000000DAVAO DOCTORS - RANK AND FILE           36670926990000000006956259000040415201358
2667260016670000000DAVAO DOCTORS - RANK AND FILE           36670945860000000006500009000040415201349
2667260016670000000DAVAO DOCTORS - RANK AND FILE           36670949930000000005380219000040415201357
2667260016670000000DAVAO DOCTORS - RANK AND FILE           36670930240000000005380219000040415201349
2667260016670000000DAVAO DOCTORS - RANK AND FILE           36670571920000000005912509000040415201341
2667260016670000000DAVAO DOCTORS - RANK AND FILE           36670255250000000007630839000040415201352
2667260016670000000DAVAO DOCTORS - RANK AND FILE           36670959300000000005380219000040415201354
2667260016670000000DAVAO DOCTORS - RANK AND FILE           36670100130000000010582059000040415201344
2667260016670000000DAVAO DOCTORS - RANK AND FILE           36670558660000000006961669000040415201358
2667260016670000000DAVAO DOCTORS - RANK AND FILE           36670676780000000006657509000040415201357
2667260016670000000DAVAO DOCTORS - RANK AND FILE           36670606650000000006657509000040415201354
2667260016670000000DAVAO DOCTORS - RANK AND FILE           36670097910000000010803069000040415201341
2667260016670000000DAVAO DOCTORS - RANK AND FILE           36670107490000000005469549000040415201359
2667260016670000000DAVAO DOCTORS - RANK AND FILE           36670114600000000011051039000040415201343
2667260016670000000DAVAO DOCTORS - RANK AND FILE           36670105790000000011015059000040415201349
2667260016670000000DAVAO DOCTORS - RANK AND FILE           36670240730000000006961669000040415201347
2667260016670000000DAVAO DOCTORS - RANK AND FILE           36670673170000000006657509000040415201353
2667260016670000000DAVAO DOCTORS - RANK AND FILE           36670892050000000005836469000040415201347
2667260016670000000DAVAO DOCTORS - RANK AND FILE           36671036740000000004380219000040415201355
2667260016670000000DAVAO DOCTORS - RANK AND FILE           36670804100000000006368759000040415201348
2667260016670000000DAVAO DOCTORS - RANK AND FILE           36670264080000000007630839000040415201354
2667260016670000000DAVAO DOCTORS - RANK AND FILE           36670976660000000004880219000040415201356
2667260016670000000DAVAO DOCTORS - RANK AND FILE           36670247230000000007562389000040415201355
2667260016670000000DAVAO DOCTORS - RANK AND FILE           36670247310000000007630839000040415201350
2667260016670000000DAVAO DOCTORS - RANK AND FILE           36670975180000000005836469000040415201353
2667260016670000000DAVAO DOCTORS - RANK AND FILE           36671000390000000004880219000040415201354
2667260016670000000DAVAO DOCTORS - RANK AND FILE           36670125200000000008326099000040415201347
2667260016670000000DAVAO DOCTORS - RANK AND FILE           36670976740000000004880219000040415201354
2667260016670000000DAVAO DOCTORS - RANK AND FILE           36671024060000000004880219000040415201355
2667260016670000000DAVAO DOCTORS - RANK AND FILE           36670319830000000007630839000040415201354
2667260016670000000DAVAO DOCTORS - RANK AND FILE           36670807470000000005912509000040415201352
2667260016670000000DAVAO DOCTORS - RANK AND FILE           36670775090000000006368759000040415201358
2667260016670000000DAVAO DOCTORS - RANK AND FILE           36670823160000000005912509000040415201347
2667260016670000000DAVAO DOCTORS - RANK AND FILE           36670906370000000005836469000040415201353
2667260016670000000DAVAO DOCTORS - RANK AND FILE           36670925240000000005836469000040415201349
2667260016670000000DAVAO DOCTORS - RANK AND FILE           36670149140000000009707259000040415201354
2667260016670000000DAVAO DOCTORS - RANK AND FILE           36671026430000000004880219000040415201354
2667260016670000000DAVAO DOCTORS - RANK AND FILE           36670328400000000007258239000040415201352
2667260016670000000DAVAO DOCTORS - RANK AND FILE           36670206470000000007866569000040415201358
2667260016670000000DAVAO DOCTORS - RANK AND FILE           36670978010000000004880219000040415201353
2667260016670000000DAVAO DOCTORS - RANK AND FILE           36671020150000000004880219000040415201350
2667260016670000000DAVAO DOCTORS - RANK AND FILE           36670169500000000007927389000040415201350
2667260016670000000DAVAO DOCTORS - RANK AND FILE           36670670900000000006718339000040415201339
2667260016670000000DAVAO DOCTORS - RANK AND FILE           36671009260000000004880219000040415201360
2667260016670000000DAVAO DOCTORS - RANK AND FILE           36670283380000000007562399000040415201356
2667260016670000000DAVAO DOCTORS - RANK AND FILE           36670967590000000005380219000040415201361
2667260016670000000DAVAO DOCTORS - RANK AND FILE           36670871050000000005912509000040415201344
2667260016670000000DAVAO DOCTORS - RANK AND FILE           36670855520000000005577709000040415201351
2667260016670000000DAVAO DOCTORS - RANK AND FILE           36670917730000000005836469000040415201350
2667260016670000000DAVAO DOCTORS - RANK AND FILE           36670105520000000009976849000040415201355
2667260016670000000DAVAO DOCTORS - RANK AND FILE           36670103660000000011015059000040415201344
2667260016670000000DAVAO DOCTORS - RANK AND FILE           36670116300000000008710619000040415201347
2667260016670000000DAVAO DOCTORS - RANK AND FILE           36670103820000000009983339000040415201354
2667260016670000000DAVAO DOCTORS - RANK AND FILE           36670511510000000007326659000040415201343
2667260016670000000DAVAO DOCTORS - RANK AND FILE           36670872530000000005836469000040415201345
2667260016670000000DAVAO DOCTORS - RANK AND FILE           36670248550000000007554799000040415201357
2667260016670000000DAVAO DOCTORS - RANK AND FILE           36671028480000000003261089000040415201358
2667260016670000000DAVAO DOCTORS - RANK AND FILE           36670492700000000007250629000040415201346
2667260016670000000DAVAO DOCTORS - RANK AND FILE           36670736430000000006612089000040415201348
2667260016670000000DAVAO DOCTORS - RANK AND FILE           36670090740000000008938739000040415201347
2667260016670000000DAVAO DOCTORS - RANK AND FILE           36670566500000000006946459000040415201348
2667260016670000000DAVAO DOCTORS - RANK AND FILE           36670880040000000005836469000040415201344
2667260016670000000DAVAO DOCTORS - RANK AND FILE           36670907340000000005836469000040415201351
2667260016670000000DAVAO DOCTORS - RANK AND FILE           36670105280000000010942549000040415201350
2667260016670000000DAVAO DOCTORS - RANK AND FILE           36670468320000000007326659000040415201351
2667260016670000000DAVAO DOCTORS - RANK AND FILE           36670853740000000005912509000040415201345
2667260016670000000DAVAO DOCTORS - RANK AND FILE           36670881600000000005836469000040415201341
2667260016670000000DAVAO DOCTORS - RANK AND FILE           36670733170000000006612089000040415201349
2667260016670000000DAVAO DOCTORS - RANK AND FILE           36670806580000000005912509000040415201352
2667260016670000000DAVAO DOCTORS - RANK AND FILE           36670925400000000005836469000040415201345
2667260016670000000DAVAO DOCTORS - RANK AND FILE           36670900760000000005836469000040415201346
2667260016670000000DAVAO DOCTORS - RANK AND FILE           36670685850000000006718339000040415201349
2667260016670000000DAVAO DOCTORS - RANK AND FILE           36670447400000000007326659000040415201348
2667260016670000000DAVAO DOCTORS - RANK AND FILE           36670866800000000005912509000040415201344
2667260016670000000DAVAO DOCTORS - RANK AND FILE           36670525220000000007022509000040415201348
2667260016670000000DAVAO DOCTORS - RANK AND FILE           36670867530000000005912509000040415201348
2667260016670000000DAVAO DOCTORS - RANK AND FILE           36670636800000000006718339000040415201345
2667260016670000000DAVAO DOCTORS - RANK AND FILE           36670827310000000005912509000040415201346
2667260016670000000DAVAO DOCTORS - RANK AND FILE           36670437360000000007326659000040415201354
2667260016670000000DAVAO DOCTORS - RANK AND FILE           36670734570000000006612089000040415201350
2667260016670000000DAVAO DOCTORS - RANK AND FILE           36670958330000000005380219000040415201356
2667260016670000000DAVAO DOCTORS - RANK AND FILE           36670222910000000007866569000040415201348
2667260016670000000DAVAO DOCTORS - RANK AND FILE           36670321650000000007326659000040415201347
2667260016670000000DAVAO DOCTORS - RANK AND FILE           36670776300000000006612089000040415201345
2667260016670000000DAVAO DOCTORS - RANK AND FILE           36670471970000000007326659000040415201349
2667260016670000000DAVAO DOCTORS - RANK AND FILE           36671022520000000004880219000040415201349
2667260016670000000DAVAO DOCTORS - RANK AND FILE           36670905050000000005836469000040415201350
2667260016670000000DAVAO DOCTORS - RANK AND FILE           36670086980000000010885259000040415201355
2667260016670000000DAVAO DOCTORS - RANK AND FILE           36670096270000000008860119000040415201359
2667260016670000000DAVAO DOCTORS - RANK AND FILE           36670090660000000012460259000040415201347
2667260016670000000DAVAO DOCTORS - RANK AND FILE           36670244640000000009262259000040415201355
2667260016670000000DAVAO DOCTORS - RANK AND FILE           36670891750000000006956259000040415201349
2667260016670000000DAVAO DOCTORS - RANK AND FILE           36671005270000000006000009000040415201351
2667260016670000000DAVAO DOCTORS - RANK AND FILE           36670487620000000007265819000040415201354
2667260016670000000DAVAO DOCTORS - RANK AND FILE           36670121720000000010352759000040415201341
2667260016670000000DAVAO DOCTORS - RANK AND FILE           36670923890000000006956259000040415201355
2667260016670000000DAVAO DOCTORS - RANK AND FILE           36671011750000000006000009000040415201345
2667260016670000000DAVAO DOCTORS - RANK AND FILE           36670796920000000007456259000040415201352
2667260016670000000DAVAO DOCTORS - RANK AND FILE           36670112810000000012520259000040415201340
2667260016670000000DAVAO DOCTORS - RANK AND FILE           36670703340000000007456259000040415201351
2667260016670000000DAVAO DOCTORS - RANK AND FILE           36670779830000000006170839000040415201357
2667260016670000000DAVAO DOCTORS - RANK AND FILE           36670923970000000006956259000040415201353
2667260016670000000DAVAO DOCTORS - RANK AND FILE           36671016980000000006000009000040415201353
2667260016670000000DAVAO DOCTORS - RANK AND FILE           36670089140000000012667259000040415201354
2667260016670000000DAVAO DOCTORS - RANK AND FILE           36670902540000000006956259000040415201349
2667260016670000000DAVAO DOCTORS - RANK AND FILE           36670900840000000006956259000040415201347
2667260016670000000DAVAO DOCTORS - RANK AND FILE           36670108460000000012672259000040415201356
2667260016670000000DAVAO DOCTORS - RANK AND FILE           36670783350000000007456259000040415201352
2667260016670000000DAVAO DOCTORS - RANK AND FILE           36670086630000000010803069000040415201342
2667260016670000000DAVAO DOCTORS - RANK AND FILE           36670668920000000008258259000040415201355
2667260016670000000DAVAO DOCTORS - RANK AND FILE           36670393300000000008958259000040415201348
2667260016670000000DAVAO DOCTORS - RANK AND FILE           36670684880000000008023759000040415201354
2667260016670000000DAVAO DOCTORS - RANK AND FILE           36670934070000000006000009000040415201349
2667260016670000000DAVAO DOCTORS - RANK AND FILE           36670883810000000005577709000040415201348
2667260016670000000DAVAO DOCTORS - RANK AND FILE           36670945940000000006500009000040415201347
2667260016670000000DAVAO DOCTORS - RANK AND FILE           36670710200000000007456259000040415201344
2667260016670000000DAVAO DOCTORS - RANK AND FILE           36670894000000000006956259000040415201347
2667260016670000000DAVAO DOCTORS - RANK AND FILE           36670928000000000006956259000040415201351
2667260016670000000DAVAO DOCTORS - RANK AND FILE           36670948370000000005349639000040415201356
2667260016670000000DAVAO DOCTORS - RANK AND FILE           36670944110000000005349639000040415201346
2667260016670000000DAVAO DOCTORS - RANK AND FILE           36670944380000000005349639000040415201353
2667260016670000000DAVAO DOCTORS - RANK AND FILE           36670944030000000005349639000040415201348
2667260016670000000DAVAO DOCTORS - RANK AND FILE           36670943900000000005349639000040415201344
2667260016670000000DAVAO DOCTORS - RANK AND FILE           36670524500000000006946459000040415201346
2667260016670000000DAVAO DOCTORS - RANK AND FILE           36670943810000000005349639000040415201345
2667260016670000000DAVAO DOCTORS - RANK AND FILE           36670943570000000005349639000040415201351
2667260016670000000DAVAO DOCTORS - RANK AND FILE           36670943650000000005349639000040415201349
2667260016670000000DAVAO DOCTORS - RANK AND FILE           36670944200000000005349639000040415201345
2667260016670000000DAVAO DOCTORS - RANK AND FILE           36670145820000000008315199000040415201348
2667260016670000000DAVAO DOCTORS - RANK AND FILE           36670096860000000008710619000040415201353
2667260016670000000DAVAO DOCTORS - RANK AND FILE           36670627650000000006718339000040415201351
2667260016670000000DAVAO DOCTORS - RANK AND FILE           36670239480000000007562389000040415201362
2667260016670000000DAVAO DOCTORS - RANK AND FILE           36670106330000000008873619000040415201356
2667260016670000000DAVAO DOCTORS - RANK AND FILE           36670104200000000010248259000040415201341
2667260016670000000DAVAO DOCTORS - RANK AND FILE           36670438330000000008708259000040415201351
2667260016670000000DAVAO DOCTORS - RANK AND FILE           36670613000000000006657499000040415201346
2667260016670000000DAVAO DOCTORS - RANK AND FILE           36670777200000000006170839000040415201352
2667260016670000000DAVAO DOCTORS - RANK AND FILE           36670153410000000008322789000040415201346
2667260016670000000DAVAO DOCTORS - RANK AND FILE           36670242860000000007554799000040415201352
2667260016670000000DAVAO DOCTORS - RANK AND FILE           36670105100000000009580839000040415201354
2667260016670000000DAVAO DOCTORS - RANK AND FILE           36670845990000000005714589000040415201352
2667260016670000000DAVAO DOCTORS - RANK AND FILE           36670206390000000007569989000040415201360
2667260016670000000DAVAO DOCTORS - RANK AND FILE           36670122100000000008718239000040415201343
2667260016670000000DAVAO DOCTORS - RANK AND FILE           36670835840000000006657509000040415201352
2667260016670000000DAVAO DOCTORS - RANK AND FILE           36670962440000000005349589000040415201347
2667260016670000000DAVAO DOCTORS - RANK AND FILE           36670923540000000005577709000040415201351
2667260016670000000DAVAO DOCTORS - RANK AND FILE           36670219960000000007874169000040415201361
2667260016670000000DAVAO DOCTORS - RANK AND FILE           36670742590000000006170839000040415201356
2667260016670000000DAVAO DOCTORS - RANK AND FILE           36670109270000000005411279000040415201354
2667260016670000000DAVAO DOCTORS - RANK AND FILE           36670207440000000007927389000040415201352
2667260016670000000DAVAO DOCTORS - RANK AND FILE           36670516150000000006969279000040415201355
2667260016670000000DAVAO DOCTORS - RANK AND FILE           36670110360000000010215359000040415201340
2667260016670000000DAVAO DOCTORS - RANK AND FILE           36670120080000000008718239000040415201349
2667260016670000000DAVAO DOCTORS - RANK AND FILE           36670981820000000004880219000040415201347
2667260016670000000DAVAO DOCTORS - RANK AND FILE           36670848660000000005912509000040415201352
2667260016670000000DAVAO DOCTORS - RANK AND FILE           36671005190000000004880219000040415201359
2667260016670000000DAVAO DOCTORS - RANK AND FILE           36670393560000000007630839000040415201351
2667260016670000000DAVAO DOCTORS - RANK AND FILE           36670985730000000004880219000040415201352
2667260016670000000DAVAO DOCTORS - RANK AND FILE           36671008100000000004880219000040415201353
2667260016670000000DAVAO DOCTORS - RANK AND FILE           36671008450000000004880219000040415201358
2667260016670000000DAVAO DOCTORS - RANK AND FILE           36670855010000000005912509000040415201344
2667260016670000000DAVAO DOCTORS - RANK AND FILE           36670845050000000005912509000040415201348
2667260016670000000DAVAO DOCTORS - RANK AND FILE           36670239560000000005836469000040415201355
2667260016670000000DAVAO DOCTORS - RANK AND FILE           36670931210000000005456259000040415201344
2667260016670000000DAVAO DOCTORS - RANK AND FILE           36670793310000000006368759000040415201348
2667260016670000000DAVAO DOCTORS - RANK AND FILE           36670921330000000005836469000040415201344
2667260016670000000DAVAO DOCTORS - RANK AND FILE           36670915790000000006956259000040415201357
2667260016670000000DAVAO DOCTORS - RANK AND FILE           36670981310000000006000009000040415201340
2667260016670000000DAVAO DOCTORS - RANK AND FILE           36670674570000000006642299000040415201353
2667260016670000000DAVAO DOCTORS - RANK AND FILE           36670250370000000007866569000040415201352
2667260016670000000DAVAO DOCTORS - RANK AND FILE           36670915600000000005567049000040415201348
2667260016670000000DAVAO DOCTORS - RANK AND FILE           36670206040000000007927389000040415201351
2667260016670000000DAVAO DOCTORS - RANK AND FILE           36670699210000000008023759000040415201352
2667260016670000000DAVAO DOCTORS - RANK AND FILE           36670979170000000006000009000040415201354
2667260016670000000DAVAO DOCTORS - RANK AND FILE           36670979250000000004880219000040415201358
2667260016670000000DAVAO DOCTORS - RANK AND FILE           36670293690000000007562399000040415201357
2667260016670000000DAVAO DOCTORS - RANK AND FILE           36671026190000000004880219000040415201360
2667260016670000000DAVAO DOCTORS - RANK AND FILE           36670844590000000005912509000040415201351
2667260016670000000DAVAO DOCTORS - RANK AND FILE           36670929820000000005380219000040415201356
2667260016670000000DAVAO DOCTORS - RANK AND FILE           36670703420000000006612089000040415201344
2667260016670000000DAVAO DOCTORS - RANK AND FILE           36670931720000000005380219000040415201348
2667260016670000000DAVAO DOCTORS - RANK AND FILE           36670264320000000007554799000040415201350
2667260016670000000DAVAO DOCTORS - RANK AND FILE           36670094730000000009567289000040415201354
2667260016670000000DAVAO DOCTORS - RANK AND FILE           36670931300000000005380219000040415201346
2667260016670000000DAVAO DOCTORS - RANK AND FILE           36671029450000000004880219000040415201359
2667260016670000000DAVAO DOCTORS - RANK AND FILE           36670088680000000009976849000040415201364
2667260016670000000DAVAO DOCTORS - RANK AND FILE           36671028720000000006000009000040415201349
2667260016670000000DAVAO DOCTORS - RANK AND FILE           36670173790000000007919799000040415201352
2667260016670000000DAVAO DOCTORS - RANK AND FILE           36670982630000000004880219000040415201349
2667260016670000000DAVAO DOCTORS - RANK AND FILE           36670861680000000005912509000040415201347
2667260016670000000DAVAO DOCTORS - RANK AND FILE           36670848310000000005912509000040415201347
2667260016670000000DAVAO DOCTORS - RANK AND FILE           36670854200000000005912509000040415201342
2667260016670000000DAVAO DOCTORS - RANK AND FILE           36670879970000000005836469000040415201356
2667260016670000000DAVAO DOCTORS - RANK AND FILE           36670822780000000005912509000040415201348
2667260016670000000DAVAO DOCTORS - RANK AND FILE           36670402220000000007250629000040415201348
2667260016670000000DAVAO DOCTORS - RANK AND FILE           36670524680000000006946459000040415201354
2667260016670000000DAVAO DOCTORS - RANK AND FILE           36671009340000000004880219000040415201358
2667260016670000000DAVAO DOCTORS - RANK AND FILE           36670557260000000006946459000040415201355
2667260016670000000DAVAO DOCTORS - RANK AND FILE           36670946240000000005380219000040415201355
2667260016670000000DAVAO DOCTORS - RANK AND FILE           36670983100000000004880219000040415201347
2667260016670000000DAVAO DOCTORS - RANK AND FILE           36670848400000000005912509000040415201346
2667260016670000000DAVAO DOCTORS - RANK AND FILE           36670243320000000007858969000040415201349
2667260016670000000DAVAO DOCTORS - RANK AND FILE           36670923380000000005349579000040415201352
2667260016670000000DAVAO DOCTORS - RANK AND FILE           36670778780000000006170839000040415201361
2667260016670000000DAVAO DOCTORS - RANK AND FILE           36670856250000000005577609000040415201355
2667260016670000000DAVAO DOCTORS - RANK AND FILE           36670272930000000007554799000040415201349
2667260016670000000DAVAO DOCTORS - RANK AND FILE           36670103310000000010575569000040415201344
2667260016670000000DAVAO DOCTORS - RANK AND FILE           36670743640000000006170839000040415201352
2667260016670000000DAVAO DOCTORS - RANK AND FILE           36670097830000000010923059000040415201345
2667260016670000000DAVAO DOCTORS - RANK AND FILE           36670724930000000006170839000040415201352
2667260016670000000DAVAO DOCTORS - RANK AND FILE           36670102340000000009318949000040415201348
2667260016670000000DAVAO DOCTORS - RANK AND FILE           36670102690000000010803069000040415201344
2667260016670000000DAVAO DOCTORS - RANK AND FILE           36670259400000000007554799000040415201353
2667260016670000000DAVAO DOCTORS - RANK AND FILE           36670106090000000008718239000040415201356
2667260016670000000DAVAO DOCTORS - RANK AND FILE           36670248200000000007554799000040415201352
2667260016670000000DAVAO DOCTORS - RANK AND FILE           36670736270000000006170839000040415201358
2667260016670000000DAVAO DOCTORS - RANK AND FILE           36670249870000000007554799000040415201360
2667260016670000000DAVAO DOCTORS - RANK AND FILE           36670617340000000006946459000040415201353
2667260016670000000DAVAO DOCTORS - RANK AND FILE           36670590710000000006946459000040415201343
2667260016670000000DAVAO DOCTORS - RANK AND FILE           36670619800000000006642299000040415201351
2667260016670000000DAVAO DOCTORS - RANK AND FILE           36671000200000000004880219000040415201345
2667260016670000000DAVAO DOCTORS - RANK AND FILE           36670776730000000006612089000040415201348
2667260016670000000DAVAO DOCTORS - RANK AND FILE           36670248800000000007562389000040415201353
2667260016670000000DAVAO DOCTORS - RANK AND FILE           36670859600000000005912509000040415201347
2667260016670000000DAVAO DOCTORS - RANK AND FILE           36670957010000000005380219000040415201353
2667260016670000000DAVAO DOCTORS - RANK AND FILE           36670720270000000006186049000040415201353
2667260016670000000DAVAO DOCTORS - RANK AND FILE           36671009000000000004880219000040415201354
2667260016670000000DAVAO DOCTORS - RANK AND FILE           36670991620000000004880219000040415201347
2667260016670000000DAVAO DOCTORS - RANK AND FILE           36670257110000000007562389000040415201353
2667260016670000000DAVAO DOCTORS - RANK AND FILE           36670703180000000006612089000040415201350
2667260016670000000DAVAO DOCTORS - RANK AND FILE           36671025380000000004880219000040415201358
2667260016670000000DAVAO DOCTORS - RANK AND FILE           36670975850000000004880219000040415201354
2667260016670000000DAVAO DOCTORS - RANK AND FILE           36670971270000000005380219000040415201353
2667260016670000000DAVAO DOCTORS - RANK AND FILE           36670674810000000006718339000040415201344
2667260016670000000DAVAO DOCTORS - RANK AND FILE           36671025460000000004880219000040415201356
2667260016670000000DAVAO DOCTORS - RANK AND FILE           36671001010000000004880219000040415201347
2667260016670000000DAVAO DOCTORS - RANK AND FILE           36670089900000000010582059000040415201350
2667260016670000000DAVAO DOCTORS - RANK AND FILE           36670535960000000007022509000040415201352
2667260016670000000DAVAO DOCTORS - RANK AND FILE           36670866130000000005836469000040415201349
2667260016670000000DAVAO DOCTORS - RANK AND FILE           36670686150000000006718339000040415201350
2667260016670000000DAVAO DOCTORS - RANK AND FILE           36670776140000000006368759000040415201354
2667260016670000000DAVAO DOCTORS - RANK AND FILE           36670736000000000006612089000040415201345
2667260016670000000DAVAO DOCTORS - RANK AND FILE           36670858700000000005912509000040415201346
2667260016670000000DAVAO DOCTORS - RANK AND FILE           36670927020000000005836469000040415201349
2667260016670000000DAVAO DOCTORS - RANK AND FILE           36670892560000000005836469000040415201348
2667260016670000000DAVAO DOCTORS - RANK AND FILE           36670388640000000007630839000040415201354
2667260016670000000DAVAO DOCTORS - RANK AND FILE           36670844400000000005912509000040415201342
2667260016670000000DAVAO DOCTORS - RANK AND FILE           36670155540000000008326099000040415201351
2667260016670000000DAVAO DOCTORS - RANK AND FILE           36670388480000000007630839000040415201358
2667260016670000000DAVAO DOCTORS - RANK AND FILE           36670675110000000006718339000040415201345
2667260016670000000DAVAO DOCTORS - RANK AND FILE           36670509610000000007326659000040415201351
2667260016670000000DAVAO DOCTORS - RANK AND FILE           36670900920000000005836469000040415201342
2667260016670000000DAVAO DOCTORS - RANK AND FILE           36670951320000000005750009000040415201345
2667260016670000000DAVAO DOCTORS - RANK AND FILE           36670955820000000005349639000040415201348
2667260016670000000DAVAO DOCTORS - RANK AND FILE           36670946670000000006250009000040415201356
2667260016670000000DAVAO DOCTORS - RANK AND FILE           36670116210000000008721519000040415201349
2667260016670000000DAVAO DOCTORS - RANK AND FILE           36670968130000000005750009000040415201353
2667260016670000000DAVAO DOCTORS - RANK AND FILE           36670955900000000006250009000040415201348
2667260016670000000DAVAO DOCTORS - RANK AND FILE           36670917810000000007250009000040415201352
2667260016670000000DAVAO DOCTORS - RANK AND FILE           36670927290000000006250009000040415201359
2667260016670000000DAVAO DOCTORS - RANK AND FILE           36670956980000000005349639000040415201355
2667260016670000000DAVAO DOCTORS - RANK AND FILE           36670945510000000007250009000040415201350
2667260016670000000DAVAO DOCTORS - RANK AND FILE           36670488270000000007326659000040415201356
2667260016670000000DAVAO DOCTORS - RANK AND FILE           36670899060000000005836469000040415201355
2667260016670000000DAVAO DOCTORS - RANK AND FILE           36670778940000000006368759000040415201356
2667260016670000000DAVAO DOCTORS - RANK AND FILE           36670921410000000005380219000040415201347
2667260016670000000DAVAO DOCTORS - RANK AND FILE           36670783270000000006368759000040415201354
2667260016670000000DAVAO DOCTORS - RANK AND FILE           36670877410000000005836469000040415201348
2667260016670000000DAVAO DOCTORS - RANK AND FILE           36670151630000000008493399000040415201353
2667260016670000000DAVAO DOCTORS - RANK AND FILE           36671008610000000004849589000040415201350
2667260016670000000DAVAO DOCTORS - RANK AND FILE           36671031000000000004349589000040415201342
2667260016670000000DAVAO DOCTORS - RANK AND FILE           36670859780000000005349589000040415201358
2667260016670000000DAVAO DOCTORS - RANK AND FILE           36670840170000000005912509000040415201345
2667260016670000000DAVAO DOCTORS - RANK AND FILE           36670724770000000006956259000040415201354
2667260016670000000DAVAO DOCTORS - RANK AND FILE           36670247400000000007866569000040415201352
2667260016670000000DAVAO DOCTORS - RANK AND FILE           36670844320000000005912509000040415201344
2667260016670000000DAVAO DOCTORS - RANK AND FILE           36670852000000000005912509000040415201340
2667260016670000000DAVAO DOCTORS - RANK AND FILE           36671001440000000006000009000040415201344
2667260016670000000DAVAO DOCTORS - RANK AND FILE           36670107810000000009751859000040415201354
2667260016670000000DAVAO DOCTORS - RANK AND FILE           36670242940000000007569989000040415201351
2667260016670000000DAVAO DOCTORS - RANK AND FILE           36670105870000000008953949000040415201357
2667260016670000000DAVAO DOCTORS - RANK AND FILE           36670113110000000009253829000040415201350
2667260016670000000DAVAO DOCTORS - RANK AND FILE           36670205900000000007927389000040415201346
2667260016670000000DAVAO DOCTORS - RANK AND FILE           36670424970000000006961669000040415201355
2667260016670000000DAVAO DOCTORS - RANK AND FILE           36670103070000000010990039000040415201352
2667260016670000000DAVAO DOCTORS - RANK AND FILE           36670110790000000008718239000040415201350
2667260016670000000DAVAO DOCTORS - RANK AND FILE           36670978950000000004849589000040415201353
2667260016670000000DAVAO DOCTORS - RANK AND FILE           36670852180000000005714589000040415201348
2667260016670000000DAVAO DOCTORS - RANK AND FILE           36670957100000000004849589000040415201347
2667260016670000000DAVAO DOCTORS - RANK AND FILE           36670408690000000007319049000040415201357
2667260016670000000DAVAO DOCTORS - RANK AND FILE           36670104550000000012371259000040415201351
2667260016670000000DAVAO DOCTORS - RANK AND FILE           36670846290000000006956259000040415201358
2667260016670000000DAVAO DOCTORS - RANK AND FILE           36670678800000000006642299000040415201350
2667260016670000000DAVAO DOCTORS - RANK AND FILE           36670103580000000010942549000040415201348
2667260016670000000DAVAO DOCTORS - RANK AND FILE           36671028990000000006000009000040415201356
2667260016670000000DAVAO DOCTORS - RANK AND FILE           36670146630000000009707259000040415201350
2667260016670000000DAVAO DOCTORS - RANK AND FILE           36670828710000000007456259000040415201353
2667260016670000000DAVAO DOCTORS - RANK AND FILE           36670828470000000007456259000040415201359
2667260016670000000DAVAO DOCTORS - RANK AND FILE           36670650980000000006642299000040415201350
2667260016670000000DAVAO DOCTORS - RANK AND FILE           36671028800000000006000009000040415201347
2667260016670000000DAVAO DOCTORS - RANK AND FILE           36670156350000000009312259000040415201353
2667260016670000000DAVAO DOCTORS - RANK AND FILE           36670102260000000010102759000040415201341
2667260016670000000DAVAO DOCTORS - RANK AND FILE           36670586440000000008403759000040415201350
2667260016670000000DAVAO DOCTORS - RANK AND FILE           36670105010000000010882559000040415201347
2667260016670000000DAVAO DOCTORS - RANK AND FILE           36670967750000000006000009000040415201350
2667260016670000000DAVAO DOCTORS - RANK AND FILE           36670845130000000006956259000040415201351
000437000000292028934
