2667260016670000000DAVAO DOCTORS - CONTRACTUAL             366717448200000000166102090000503122021
2667260016670000000DAVAO DOCTORS - CONTRACTUAL             366717364800000000064036390000503122021
2667260016670000000DAVAO DOCTORS - CONTRACTUAL             366717397400000000071663590000503122021
2667260016670000000DAVAO DOCTORS - CONTRACTUAL             366717350800000000067881590000503122021
2667260016670000000DAVAO DOCTORS - CONTRACTUAL             366717479200000000065391690000503122021
2667260016670000000DAVAO DOCTORS - CONTRACTUAL             366717353200000000070457790000503122021
2667260016670000000DAVAO DOCTORS - CONTRACTUAL             366717352400000000069538690000503122021
2667260016670000000DAVAO DOCTORS - CONTRACTUAL             366717351600000000065950090000503122021
