2667260016670000000DAVAO DOCTORS - CONTRACTUAL            366710060800000000139186390000410122012
2667260016670000000DAVAO DOCTORS - CONTRACTUAL            366710187600000000081338790000410122012
2667260016670000000DAVAO DOCTORS - CONTRACTUAL            366710028400000000032164890000410122012
2667260016670000000DAVAO DOCTORS - CONTRACTUAL            366710109400000000032172990000410122012
2667260016670000000DAVAO DOCTORS - CONTRACTUAL            366710089600000000014279390000410122012
2667260016670000000DAVAO DOCTORS - CONTRACTUAL            366710118300000000003857290000410122012
2667260016670000000DAVAO DOCTORS - CONTRACTUAL            366710165500000000039556390000410122012
