2667260016670000000DAVAO DOCTORS - CONTRACTUAL             366701030700000000050446190000505142019
2667260016670000000DAVAO DOCTORS - CONTRACTUAL             366715827400000000068207590000505142019
2667260016670000000DAVAO DOCTORS - CONTRACTUAL             366715826600000000065811090000505142019
2667260016670000000DAVAO DOCTORS - CONTRACTUAL             366716059700000000051053690000505142019
2667260016670000000DAVAO DOCTORS - CONTRACTUAL             366716061900000000065794590000505142019
2667260016670000000DAVAO DOCTORS - CONTRACTUAL             366716018000000000062889990000505142019
2667260016670000000DAVAO DOCTORS - CONTRACTUAL             366716060000000000063230190000505142019
2667260016670000000DAVAO DOCTORS - CONTRACTUAL             366715473200000000048510090000505142019
