2667260016670000000DAVAO DOCTORS - CONTRACTUAL             366716887300000000057524790000508272020
2667260016670000000DAVAO DOCTORS - CONTRACTUAL             366716919500000000055706590000508272020
2667260016670000000DAVAO DOCTORS - CONTRACTUAL             366717152100000000052812890000508272020
2667260016670000000DAVAO DOCTORS - CONTRACTUAL             366716910100000000058431890000508272020
2667260016670000000DAVAO DOCTORS - CONTRACTUAL             366717153000000000057842990000508272020
2667260016670000000DAVAO DOCTORS - CONTRACTUAL             366714675600000000057219790000508272020
2667260016670000000DAVAO DOCTORS - CONTRACTUAL             366716915200000000056413690000508272020
2667260016670000000DAVAO DOCTORS - CONTRACTUAL             366716889000000000053237690000508272020
