2667260016670000000DAVAO DOCTORS - CONTRACTUAL             366716396000000000060225090000502142020
2667260016670000000DAVAO DOCTORS - CONTRACTUAL             366716716800000000060581490000502142020
2667260016670000000DAVAO DOCTORS - CONTRACTUAL             366714700000000000060918090000502142020
2667260016670000000DAVAO DOCTORS - CONTRACTUAL             366716807500000000069970490000502142020
2667260016670000000DAVAO DOCTORS - CONTRACTUAL             366716646300000000060225090000502142020
2667260016670000000DAVAO DOCTORS - CONTRACTUAL             366716800800000000074205490000502142020
2667260016670000000DAVAO DOCTORS - CONTRACTUAL             366716898900000000048345090000502142020
2667260016670000000DAVAO DOCTORS - CONTRACTUAL             366716606400000000089948290000502142020
2667260016670000000DAVAO DOCTORS - CONTRACTUAL             366716645500000000100000090000502142020
