2667260016670000000DAVAO DOCTORS - CONTRACTUAL             366716887300000000068743190000504162020
2667260016670000000DAVAO DOCTORS - CONTRACTUAL             366716909800000000062375290000504162020
2667260016670000000DAVAO DOCTORS - CONTRACTUAL             366716919500000000063950090000504162020
2667260016670000000DAVAO DOCTORS - CONTRACTUAL             366716800800000000069000690000504162020
2667260016670000000DAVAO DOCTORS - CONTRACTUAL             366716910100000000061586390000504162020
2667260016670000000DAVAO DOCTORS - CONTRACTUAL             366716898900000000044385090000504162020
2667260016670000000DAVAO DOCTORS - CONTRACTUAL             366716915200000000069830290000504162020
2667260016670000000DAVAO DOCTORS - CONTRACTUAL             366716889000000000073142390000504162020
