2667260016670000000DAVAO DOCTORS - CONTRACTUAL             366716887300000000057957190000507292020
2667260016670000000DAVAO DOCTORS - CONTRACTUAL             366716919500000000056712690000507292020
2667260016670000000DAVAO DOCTORS - CONTRACTUAL             366716800800000000057625890000507292020
2667260016670000000DAVAO DOCTORS - CONTRACTUAL             366716910100000000057318790000507292020
2667260016670000000DAVAO DOCTORS - CONTRACTUAL             366716110000000000014266290000507292020
2667260016670000000DAVAO DOCTORS - CONTRACTUAL             366716915200000000058017790000507292020
2667260016670000000DAVAO DOCTORS - CONTRACTUAL             366716889000000000057032890000507292020
