2667260016670000000DAVAO DOCTORS - OFFICERS                36670511430000000004863619000030515201346
2667260016670000000DAVAO DOCTORS - OFFICERS                36670995450000000005974989000030515201354
2667260016670000000DAVAO DOCTORS - OFFICERS                36670455500000000006023399000030515201345
2667260016670000000DAVAO DOCTORS - OFFICERS                36670915600000000002734939000030515201342
2667260016670000000DAVAO DOCTORS - OFFICERS                36670959730000000003691569000030515201356
2667260016670000000DAVAO DOCTORS - OFFICERS                36671038360000000005758349000030515201357
2667260016670000000DAVAO DOCTORS - OFFICERS                36670875200000000006156139000030515201348
2667260016670000000DAVAO DOCTORS - OFFICERS                36670232800000000012476719000030515201344
2667260016670000000DAVAO DOCTORS - OFFICERS                36670660940000000007648319000030515201347
2667260016670000000DAVAO DOCTORS - OFFICERS                36670090070000000007445709000030515201350
2667260016670000000DAVAO DOCTORS - OFFICERS                36670820140000000009987059000030515201353
2667260016670000000DAVAO DOCTORS - OFFICERS                36670246260000000007116279000030515201352
2667260016670000000DAVAO DOCTORS - OFFICERS                36670146710000000004326409000030515201345
2667260016670000000DAVAO DOCTORS - OFFICERS                36670487200000000005133179000030515201347
2667260016670000000DAVAO DOCTORS - OFFICERS                36670238590000000014142249000030515201358
2667260016670000000DAVAO DOCTORS - OFFICERS                36670206120000000005593819000030515201354
2667260016670000000DAVAO DOCTORS - OFFICERS                36671002760000000005457599000030515201351
2667260016670000000DAVAO DOCTORS - OFFICERS                36671013960000000004508469000030515201346
2667260016670000000DAVAO DOCTORS - OFFICERS                36670111410000000004865589000030515201344
2667260016670000000DAVAO DOCTORS - OFFICERS                36671030620000000004922339000030515201341
2667260016670000000DAVAO DOCTORS - OFFICERS                36670995610000000007800919000030515201345
2667260016670000000DAVAO DOCTORS - OFFICERS                36670891590000000005307389000030515201347
2667260016670000000DAVAO DOCTORS - OFFICERS                36671019060000000016291029000030515201364
2667260016670000000DAVAO DOCTORS - OFFICERS                36670112730000000004904519000030515201341
2667260016670000000DAVAO DOCTORS - OFFICERS                36670959650000000004845579000030515201354
2667260016670000000DAVAO DOCTORS - OFFICERS                36670776650000000004605089000030515201347
2667260016670000000DAVAO DOCTORS - OFFICERS                36670234410000000007761539000030515201350
2667260016670000000DAVAO DOCTORS - OFFICERS                36671077180000000004286849000030515201360
2667260016670000000DAVAO DOCTORS - OFFICERS                36671087220000000005138119000030515201350
2667260016670000000DAVAO DOCTORS - OFFICERS                36670633970000000006374519000030515201355
2667260016670000000DAVAO DOCTORS - OFFICERS                36670101020000000007346149000030515201346
2667260016670000000DAVAO DOCTORS - OFFICERS                36671013880000000002810129000030515201347
2667260016670000000DAVAO DOCTORS - OFFICERS                36671041150000000005955029000030515201349
2667260016670000000DAVAO DOCTORS - OFFICERS                36671040770000000005148639000030515201349
2667260016670000000DAVAO DOCTORS - OFFICERS                36671033720000000005105839000030515201343
2667260016670000000DAVAO DOCTORS - OFFICERS                36670885510000000006044019000030515201348
2667260016670000000DAVAO DOCTORS - OFFICERS                36671031860000000003929339000030515201345
2667260016670000000DAVAO DOCTORS - OFFICERS                36670105950000000010368169000030515201349
2667260016670000000DAVAO DOCTORS - OFFICERS                36670776570000000006941729000030515201355
2667260016670000000DAVAO DOCTORS - OFFICERS                36671016630000000005034109000030515201350
2667260016670000000DAVAO DOCTORS - OFFICERS                36670238320000000003425919000030515201347
2667260016670000000DAVAO DOCTORS - OFFICERS                36670237350000000007603379000030515201351
2667260016670000000DAVAO DOCTORS - OFFICERS                36671022870000000005458979000030515201352
2667260016670000000DAVAO DOCTORS - OFFICERS                36670519410000000008613869000030515201351
2667260016670000000DAVAO DOCTORS - OFFICERS                36670872450000000015220849000030515201347
2667260016670000000DAVAO DOCTORS - OFFICERS                36671044090000000004539139000030515201353
2667260016670000000DAVAO DOCTORS - OFFICERS                36670773980000000007108009000030515201350
2667260016670000000DAVAO DOCTORS - OFFICERS                36670085740000000011178369000030515201350
2667260016670000000DAVAO DOCTORS - OFFICERS                36671030540000000004545079000030515201345
2667260016670000000DAVAO DOCTORS - OFFICERS                36670875470000000003834239000030515201350
2667260016670000000DAVAO DOCTORS - OFFICERS                36670456070000000008855009000030515201358
2667260016670000000DAVAO DOCTORS - OFFICERS                36671033800000000005765669000030515201347
2667260016670000000DAVAO DOCTORS - OFFICERS                36671047190000000005290839000030515201363
2667260016670000000DAVAO DOCTORS - OFFICERS                36670251000000000003532989000030515201339
2667260016670000000DAVAO DOCTORS - OFFICERS                36670148760000000007983089000030515201361
2667260016670000000DAVAO DOCTORS - OFFICERS                36670093410000000005727839000030515201343
2667260016670000000DAVAO DOCTORS - OFFICERS                36670454100000000006385839000030515201350
2667260016670000000DAVAO DOCTORS - OFFICERS                36670868420000000010608839000030515201343
2667260016670000000DAVAO DOCTORS - OFFICERS                36670110100000000005394099000030515201346
2667260016670000000DAVAO DOCTORS - OFFICERS                36671021980000000009137689000030515201354
2667260016670000000DAVAO DOCTORS - OFFICERS                36670101880000000005247679000030515201350
2667260016670000000DAVAO DOCTORS - OFFICERS                36670110600000000010201489000030515201333
2667260016670000000DAVAO DOCTORS - OFFICERS                36670234250000000013769929000030515201351
2667260016670000000DAVAO DOCTORS - OFFICERS                36670242270000000006881659000030515201355
2667260016670000000DAVAO DOCTORS - OFFICERS                36670907260000000008527599000030515201355
2667260016670000000DAVAO DOCTORS - OFFICERS                36671084120000000005492389000030515201353
2667260016670000000DAVAO DOCTORS - OFFICERS                36670504220000000007101079000030515201345
2667260016670000000DAVAO DOCTORS - OFFICERS                36670985650000000007835699000030515201352
2667260016670000000DAVAO DOCTORS - OFFICERS                36670950270000000005845429000030515201348
2667260016670000000DAVAO DOCTORS - OFFICERS                36671058980000000015751379000030515201360
2667260016670000000DAVAO DOCTORS - OFFICERS                36670103900000000004179849000030515201346
2667260016670000000DAVAO DOCTORS - OFFICERS                36671076960000000004286849000030515201357
2667260016670000000DAVAO DOCTORS - OFFICERS                36671041070000000001868719000030515201348
2667260016670000000DAVAO DOCTORS - OFFICERS                36671004620000000006459299000030515201350
2667260016670000000DAVAO DOCTORS - OFFICERS                36670241700000000004899249000030515201346
2667260016670000000DAVAO DOCTORS - OFFICERS                36670094140000000011202209000030515201342
2667260016670000000DAVAO DOCTORS - OFFICERS                36670946320000000005124969000030515201347
2667260016670000000DAVAO DOCTORS - OFFICERS                36670394700000000006301939000030515201342
2667260016670000000DAVAO DOCTORS - OFFICERS                36670990650000000005750009000030515201347
2667260016670000000DAVAO DOCTORS - OFFICERS                36670769870000000013431409000030515201355
2667260016670000000DAVAO DOCTORS - OFFICERS                36670944460000000007569419000030515201355
2667260016670000000DAVAO DOCTORS - OFFICERS                36670113620000000007728929000030515201346
2667260016670000000DAVAO DOCTORS - OFFICERS                36670833980000000018001529000030515201352
2667260016670000000DAVAO DOCTORS - OFFICERS                36670086470000000006147049000030515201355
2667260016670000000DAVAO DOCTORS - OFFICERS                36671077000000000004316599000030515201345
2667260016670000000DAVAO DOCTORS - OFFICERS                36670996500000000005575039000030515201350
2667260016670000000DAVAO DOCTORS - OFFICERS                36670838600000000004519099000030515201345
2667260016670000000DAVAO DOCTORS - OFFICERS                36670946400000000005118299000030515201344
2667260016670000000DAVAO DOCTORS - OFFICERS                36670092010000000006023399000030515201343
2667260016670000000DAVAO DOCTORS - OFFICERS                36671084390000000006483729000030515201360
2667260016670000000DAVAO DOCTORS - OFFICERS                36670927450000000004801019000030515201348
2667260016670000000DAVAO DOCTORS - OFFICERS                36670907420000000005190929000030515201355
2667260016670000000DAVAO DOCTORS - OFFICERS                36670022740000000014127999000030515201345
2667260016670000000DAVAO DOCTORS - OFFICERS                36670884030000000005439679000030515201347
2667260016670000000DAVAO DOCTORS - OFFICERS                36671017010000000006160169000030515201353
2667260016670000000DAVAO DOCTORS - OFFICERS                36670241460000000006993309000030515201354
2667260016670000000DAVAO DOCTORS - OFFICERS                36670232980000000009845879000030515201355
2667260016670000000DAVAO DOCTORS - OFFICERS                36670671630000000004078459000030515201347
2667260016670000000DAVAO DOCTORS - OFFICERS                36670309950000000009490369000030515201364
2667260016670000000DAVAO DOCTORS - OFFICERS                36670893960000000005530209000030515201349
2667260016670000000DAVAO DOCTORS - OFFICERS                36670981740000000006188469000030515201351
2667260016670000000DAVAO DOCTORS - OFFICERS                36670107140000000003577779000030515201353
2667260016670000000DAVAO DOCTORS - OFFICERS                36670663960000000004763649000030515201351
2667260016670000000DAVAO DOCTORS - OFFICERS                36670861920000000005435869000030515201343
2667260016670000000DAVAO DOCTORS - OFFICERS                36670885780000000006657389000030515201356
2667260016670000000DAVAO DOCTORS - OFFICERS                36670241540000000004865509000030515201347
2667260016670000000DAVAO DOCTORS - OFFICERS                36670502440000000005114209000030515201344
2667260016670000000DAVAO DOCTORS - OFFICERS                36670094900000000004309919000030515201340
2667260016670000000DAVAO DOCTORS - OFFICERS                36671087300000000006625029000030515201348
2667260016670000000DAVAO DOCTORS - OFFICERS                36671031940000000004825489000030515201344
2667260016670000000DAVAO DOCTORS - OFFICERS                36670172390000000004059629000030515201352
2667260016670000000DAVAO DOCTORS - OFFICERS                36670967400000000004919159000030515201344
2667260016670000000DAVAO DOCTORS - OFFICERS                36670237600000000013817769000030515201344
2667260016670000000DAVAO DOCTORS - OFFICERS                36671006160000000005169649000030515201356
2667260016670000000DAVAO DOCTORS - OFFICERS                36670707920000000006450729000030515201352
2667260016670000000DAVAO DOCTORS - OFFICERS                36670707680000000010343679000030515201352
2667260016670000000DAVAO DOCTORS - OFFICERS                36671013700000000004950989000030515201345
2667260016670000000DAVAO DOCTORS - OFFICERS                36670899810000000005031359000030515201350
2667260016670000000DAVAO DOCTORS - OFFICERS                36670247070000000002727399000030515201350
000119000000079816771
