2667260016670000000DAVAO DOCTORS - RANK AND FILE           36671026190000000004535879000040412201355
2667260016670000000DAVAO DOCTORS - RANK AND FILE           36671008880000000005459439000040412201359
2667260016670000000DAVAO DOCTORS - RANK AND FILE           36670674570000000006012959000040412201350
2667260016670000000DAVAO DOCTORS - RANK AND FILE           36671046890000000004120189000040412201354
2667260016670000000DAVAO DOCTORS - RANK AND FILE           36670806580000000006230679000040412201355
2667260016670000000DAVAO DOCTORS - RANK AND FILE           36670151630000000007513199000040412201344
2667260016670000000DAVAO DOCTORS - RANK AND FILE           36670866050000000002453329000040412201350
2667260016670000000DAVAO DOCTORS - RANK AND FILE           36670844590000000005233209000040412201353
2667260016670000000DAVAO DOCTORS - RANK AND FILE           36670104550000000010632109000040412201345
2667260016670000000DAVAO DOCTORS - RANK AND FILE           36671008530000000004974649000040412201355
2667260016670000000DAVAO DOCTORS - RANK AND FILE           36670956040000000003594469000040412201354
2667260016670000000DAVAO DOCTORS - RANK AND FILE           36670086980000000003829299000040412201351
2667260016670000000DAVAO DOCTORS - RANK AND FILE           36671000200000000005465939000040412201344
2667260016670000000DAVAO DOCTORS - RANK AND FILE           36670096270000000005255029000040412201355
2667260016670000000DAVAO DOCTORS - RANK AND FILE           36671045060000000004191639000040412201357
2667260016670000000DAVAO DOCTORS - RANK AND FILE           36670892050000000005819299000040412201345
2667260016670000000DAVAO DOCTORS - RANK AND FILE           36671008610000000005025879000040412201349
2667260016670000000DAVAO DOCTORS - RANK AND FILE           36670981660000000005703839000040412201344
2667260016670000000DAVAO DOCTORS - RANK AND FILE           36671008700000000004965269000040412201351
2667260016670000000DAVAO DOCTORS - RANK AND FILE           36670915600000000003758919000040412201345
2667260016670000000DAVAO DOCTORS - RANK AND FILE           36670333820000000004725109000040412201343
2667260016670000000DAVAO DOCTORS - RANK AND FILE           36671036740000000004680869000040412201355
2667260016670000000DAVAO DOCTORS - RANK AND FILE           36670613270000000004620929000040412201348
2667260016670000000DAVAO DOCTORS - RANK AND FILE           36671048750000000005016389000040412201352
2667260016670000000DAVAO DOCTORS - RANK AND FILE           36670776730000000005305469000040412201346
2667260016670000000DAVAO DOCTORS - RANK AND FILE           36670090660000000003962979000040412201347
2667260016670000000DAVAO DOCTORS - RANK AND FILE           36671026430000000005283549000040412201355
2667260016670000000DAVAO DOCTORS - RANK AND FILE           36670245610000000002502309000040412201340
2667260016670000000DAVAO DOCTORS - RANK AND FILE           36670328400000000004509259000040412201344
2667260016670000000DAVAO DOCTORS - RANK AND FILE           36670244640000000002166619000040412201348
2667260016670000000DAVAO DOCTORS - RANK AND FILE           36670416010000000001862389000040412201346
2667260016670000000DAVAO DOCTORS - RANK AND FILE           36670205900000000004039179000040412201344
2667260016670000000DAVAO DOCTORS - RANK AND FILE           36670100130000000005030239000040412201343
2667260016670000000DAVAO DOCTORS - RANK AND FILE           36670424970000000007854689000040412201355
2667260016670000000DAVAO DOCTORS - RANK AND FILE           36670902200000000005352399000040412201344
2667260016670000000DAVAO DOCTORS - RANK AND FILE           36670511510000000006531059000040412201343
2667260016670000000DAVAO DOCTORS - RANK AND FILE           36670613000000000003799269000040412201347
2667260016670000000DAVAO DOCTORS - RANK AND FILE           36671066060000000004680439000040412201357
2667260016670000000DAVAO DOCTORS - RANK AND FILE           36670248800000000005876279000040412201352
2667260016670000000DAVAO DOCTORS - RANK AND FILE           36670883900000000006133799000040412201344
2667260016670000000DAVAO DOCTORS - RANK AND FILE           36670772660000000006472769000040412201353
2667260016670000000DAVAO DOCTORS - RANK AND FILE           36670243320000000003957629000040412201345
2667260016670000000DAVAO DOCTORS - RANK AND FILE           36671037200000000004555099000040412201349
2667260016670000000DAVAO DOCTORS - RANK AND FILE           36670923380000000005545949000040412201352
2667260016670000000DAVAO DOCTORS - RANK AND FILE           36670979760000000005781489000040412201360
2667260016670000000DAVAO DOCTORS - RANK AND FILE           36670542150000000006534809000040412201348
2667260016670000000DAVAO DOCTORS - RANK AND FILE           36670891750000000003250149000040412201346
2667260016670000000DAVAO DOCTORS - RANK AND FILE           36671009500000000005354019000040412201352
2667260016670000000DAVAO DOCTORS - RANK AND FILE           36670951320000000005432839000040412201343
2667260016670000000DAVAO DOCTORS - RANK AND FILE           36670777460000000007245539000040412201356
2667260016670000000DAVAO DOCTORS - RANK AND FILE           36670929820000000005349789000040412201352
2667260016670000000DAVAO DOCTORS - RANK AND FILE           36670095620000000003854469000040412201347
2667260016670000000DAVAO DOCTORS - RANK AND FILE           36670846290000000004903659000040412201351
2667260016670000000DAVAO DOCTORS - RANK AND FILE           36671041900000000002423649000040412201338
2667260016670000000DAVAO DOCTORS - RANK AND FILE           36670981820000000005248399000040412201344
2667260016670000000DAVAO DOCTORS - RANK AND FILE           36671000630000000005053249000040412201346
2667260016670000000DAVAO DOCTORS - RANK AND FILE           36670778780000000002156329000040412201355
2667260016670000000DAVAO DOCTORS - RANK AND FILE           36671069240000000004977229000040412201357
2667260016670000000DAVAO DOCTORS - RANK AND FILE           36671063040000000004650519000040412201349
2667260016670000000DAVAO DOCTORS - RANK AND FILE           36671027590000000005579519000040412201361
2667260016670000000DAVAO DOCTORS - RANK AND FILE           36670859600000000005642889000040412201350
2667260016670000000DAVAO DOCTORS - RANK AND FILE           36670145820000000002578979000040412201348
2667260016670000000DAVAO DOCTORS - RANK AND FILE           36670103070000000003381429000040412201353
2667260016670000000DAVAO DOCTORS - RANK AND FILE           36671025620000000004932509000040412201347
2667260016670000000DAVAO DOCTORS - RANK AND FILE           36670925400000000005965459000040412201348
2667260016670000000DAVAO DOCTORS - RANK AND FILE           36671005270000000005354679000040412201355
2667260016670000000DAVAO DOCTORS - RANK AND FILE           36670948370000000003438079000040412201353
2667260016670000000DAVAO DOCTORS - RANK AND FILE           36671073350000000004818249000040412201346
2667260016670000000DAVAO DOCTORS - RANK AND FILE           36670777200000000004128029000040412201345
2667260016670000000DAVAO DOCTORS - RANK AND FILE           36670957010000000006031699000040412201349
2667260016670000000DAVAO DOCTORS - RANK AND FILE           36670958840000000005585149000040412201357
2667260016670000000DAVAO DOCTORS - RANK AND FILE           36670102180000000007372439000040412201356
2667260016670000000DAVAO DOCTORS - RANK AND FILE           36670703420000000003773209000040412201347
2667260016670000000DAVAO DOCTORS - RANK AND FILE           36671043790000000004219169000040412201350
2667260016670000000DAVAO DOCTORS - RANK AND FILE           36670109860000000004229149000040412201353
2667260016670000000DAVAO DOCTORS - RANK AND FILE           36670900760000000005727859000040412201345
2667260016670000000DAVAO DOCTORS - RANK AND FILE           36670891400000000006022989000040412201341
2667260016670000000DAVAO DOCTORS - RANK AND FILE           36670104200000000003237729000040412201342
2667260016670000000DAVAO DOCTORS - RANK AND FILE           36670961980000000006044349000040412201351
2667260016670000000DAVAO DOCTORS - RANK AND FILE           36670488270000000007067359000040412201360
2667260016670000000DAVAO DOCTORS - RANK AND FILE           36670931720000000002720529000040412201339
2667260016670000000DAVAO DOCTORS - RANK AND FILE           36670846530000000005649319000040412201350
2667260016670000000DAVAO DOCTORS - RANK AND FILE           36670970970000000005175869000040412201351
2667260016670000000DAVAO DOCTORS - RANK AND FILE           36670826690000000005099829000040412201361
2667260016670000000DAVAO DOCTORS - RANK AND FILE           36670958250000000005686559000040412201358
2667260016670000000DAVAO DOCTORS - RANK AND FILE           36670945780000000005271019000040412201357
2667260016670000000DAVAO DOCTORS - RANK AND FILE           36670804100000000005173389000040412201348
2667260016670000000DAVAO DOCTORS - RANK AND FILE           36670487620000000005771589000040412201353
2667260016670000000DAVAO DOCTORS - RANK AND FILE           36670742590000000005067779000040412201354
2667260016670000000DAVAO DOCTORS - RANK AND FILE           36670971350000000004865579000040412201348
2667260016670000000DAVAO DOCTORS - RANK AND FILE           36671031000000000004453799000040412201343
2667260016670000000DAVAO DOCTORS - RANK AND FILE           36670944110000000003032589000040412201343
2667260016670000000DAVAO DOCTORS - RANK AND FILE           36671018840000000005217419000040412201351
2667260016670000000DAVAO DOCTORS - RANK AND FILE           36670872530000000006002799000040412201343
2667260016670000000DAVAO DOCTORS - RANK AND FILE           36671046970000000004271719000040412201357
2667260016670000000DAVAO DOCTORS - RANK AND FILE           36670153410000000003160969000040412201345
2667260016670000000DAVAO DOCTORS - RANK AND FILE           36670856250000000005511509000040412201349
2667260016670000000DAVAO DOCTORS - RANK AND FILE           36670678800000000003530839000040412201346
2667260016670000000DAVAO DOCTORS - RANK AND FILE           36670949930000000005450849000040412201354
2667260016670000000DAVAO DOCTORS - RANK AND FILE           36670206390000000002355409000040412201354
2667260016670000000DAVAO DOCTORS - RANK AND FILE           36671047000000000005050949000040412201350
2667260016670000000DAVAO DOCTORS - RANK AND FILE           36670736000000000005568569000040412201349
2667260016670000000DAVAO DOCTORS - RANK AND FILE           36670242940000000006495669000040412201353
2667260016670000000DAVAO DOCTORS - RANK AND FILE           36670859780000000005488479000040412201362
2667260016670000000DAVAO DOCTORS - RANK AND FILE           36670667790000000005110189000040412201354
2667260016670000000DAVAO DOCTORS - RANK AND FILE           36670989480000000005635939000040412201357
2667260016670000000DAVAO DOCTORS - RANK AND FILE           36670685850000000007155049000040412201354
2667260016670000000DAVAO DOCTORS - RANK AND FILE           36670272930000000002709509000040412201339
2667260016670000000DAVAO DOCTORS - RANK AND FILE           36670122100000000004477859000040412201345
2667260016670000000DAVAO DOCTORS - RANK AND FILE           36670264320000000002666949000040412201346
2667260016670000000DAVAO DOCTORS - RANK AND FILE           36670105520000000006494439000040412201354
2667260016670000000DAVAO DOCTORS - RANK AND FILE           36671000550000000005441529000040412201347
2667260016670000000DAVAO DOCTORS - RANK AND FILE           36670103580000000004288339000040412201355
2667260016670000000DAVAO DOCTORS - RANK AND FILE           36670858700000000006899939000040412201355
2667260016670000000DAVAO DOCTORS - RANK AND FILE           36670720270000000002182369000040412201349
2667260016670000000DAVAO DOCTORS - RANK AND FILE           36671039170000000004909819000040412201353
2667260016670000000DAVAO DOCTORS - RANK AND FILE           36670121720000000002671099000040412201344
2667260016670000000DAVAO DOCTORS - RANK AND FILE           36670242860000000005107299000040412201345
2667260016670000000DAVAO DOCTORS - RANK AND FILE           36670923890000000006682669000040412201358
2667260016670000000DAVAO DOCTORS - RANK AND FILE           36670840170000000005876479000040412201351
2667260016670000000DAVAO DOCTORS - RANK AND FILE           36670718290000000006026139000040412201357
2667260016670000000DAVAO DOCTORS - RANK AND FILE           36670995370000000005222839000040412201351
2667260016670000000DAVAO DOCTORS - RANK AND FILE           36671011750000000005381289000040412201352
2667260016670000000DAVAO DOCTORS - RANK AND FILE           36671039680000000004351789000040412201359
2667260016670000000DAVAO DOCTORS - RANK AND FILE           36670927020000000006742309000040412201351
2667260016670000000DAVAO DOCTORS - RANK AND FILE           36670845210000000006476669000040412201351
2667260016670000000DAVAO DOCTORS - RANK AND FILE           36671079390000000004315309000040412201356
2667260016670000000DAVAO DOCTORS - RANK AND FILE           36670094730000000004596129000040412201352
2667260016670000000DAVAO DOCTORS - RANK AND FILE           36670206040000000004892699000040412201355
2667260016670000000DAVAO DOCTORS - RANK AND FILE           36670896040000000005465259000040412201353
2667260016670000000DAVAO DOCTORS - RANK AND FILE           36671001100000000005497949000040412201348
2667260016670000000DAVAO DOCTORS - RANK AND FILE           36671000470000000005566869000040412201351
2667260016670000000DAVAO DOCTORS - RANK AND FILE           36670248550000000003763059000040412201354
2667260016670000000DAVAO DOCTORS - RANK AND FILE           36671020310000000005552819000040412201344
2667260016670000000DAVAO DOCTORS - RANK AND FILE           36670944380000000005289559000040412201357
2667260016670000000DAVAO DOCTORS - RANK AND FILE           36670796920000000004318259000040412201345
2667260016670000000DAVAO DOCTORS - RANK AND FILE           36670103310000000003843809000040412201343
2667260016670000000DAVAO DOCTORS - RANK AND FILE           36671007990000000005354069000040412201359
2667260016670000000DAVAO DOCTORS - RANK AND FILE           36671028480000000005057609000040412201359
2667260016670000000DAVAO DOCTORS - RANK AND FILE           36671042120000000005316869000040412201343
2667260016670000000DAVAO DOCTORS - RANK AND FILE           36671028990000000005891319000040412201364
2667260016670000000DAVAO DOCTORS - RANK AND FILE           36670447400000000006469469000040412201351
2667260016670000000DAVAO DOCTORS - RANK AND FILE           36670107060000000004232829000040412201352
2667260016670000000DAVAO DOCTORS - RANK AND FILE           36671025540000000005207279000040412201347
2667260016670000000DAVAO DOCTORS - RANK AND FILE           36670112810000000008393799000040412201352
2667260016670000000DAVAO DOCTORS - RANK AND FILE           36670931300000000005420959000040412201340
2667260016670000000DAVAO DOCTORS - RANK AND FILE           36670855520000000005355909000040412201349
2667260016670000000DAVAO DOCTORS - RANK AND FILE           36670835840000000002860869000040412201349
2667260016670000000DAVAO DOCTORS - RANK AND FILE           36670606650000000004028849000040412201349
2667260016670000000DAVAO DOCTORS - RANK AND FILE           36670743640000000006368229000040412201351
2667260016670000000DAVAO DOCTORS - RANK AND FILE           36671079980000000005262869000040412201361
2667260016670000000DAVAO DOCTORS - RANK AND FILE           36671005190000000005599019000040412201361
2667260016670000000DAVAO DOCTORS - RANK AND FILE           36670987860000000004872209000040412201356
2667260016670000000DAVAO DOCTORS - RANK AND FILE           36670109270000000004703289000040412201352
2667260016670000000DAVAO DOCTORS - RANK AND FILE           36670930240000000003559739000040412201344
2667260016670000000DAVAO DOCTORS - RANK AND FILE           36670703340000000003434589000040412201345
2667260016670000000DAVAO DOCTORS - RANK AND FILE           36670724770000000006336749000040412201352
2667260016670000000DAVAO DOCTORS - RANK AND FILE           36670779830000000006281479000040412201358
2667260016670000000DAVAO DOCTORS - RANK AND FILE           36670866800000000006271849000040412201351
2667260016670000000DAVAO DOCTORS - RANK AND FILE           36670955820000000005636069000040412201347
2667260016670000000DAVAO DOCTORS - RANK AND FILE           36671029450000000004865179000040412201357
2667260016670000000DAVAO DOCTORS - RANK AND FILE           36670899060000000005452349000040412201357
2667260016670000000DAVAO DOCTORS - RANK AND FILE           36670146630000000003026829000040412201346
2667260016670000000DAVAO DOCTORS - RANK AND FILE           36670923970000000006619359000040412201349
2667260016670000000DAVAO DOCTORS - RANK AND FILE           36671060700000000004656099000040412201342
2667260016670000000DAVAO DOCTORS - RANK AND FILE           36670892560000000006237479000040412201349
2667260016670000000DAVAO DOCTORS - RANK AND FILE           36670717130000000005975199000040412201354
2667260016670000000DAVAO DOCTORS - RANK AND FILE           36670828710000000009364829000040412201356
2667260016670000000DAVAO DOCTORS - RANK AND FILE           36671020070000000004655109000040412201349
2667260016670000000DAVAO DOCTORS - RANK AND FILE           36670206470000000002627419000040412201349
2667260016670000000DAVAO DOCTORS - RANK AND FILE           36670206200000000002658339000040412201345
2667260016670000000DAVAO DOCTORS - RANK AND FILE           36670946670000000003355439000040412201353
2667260016670000000DAVAO DOCTORS - RANK AND FILE           36670962440000000003361349000040412201347
2667260016670000000DAVAO DOCTORS - RANK AND FILE           36670264080000000009345949000040412201357
2667260016670000000DAVAO DOCTORS - RANK AND FILE           36670110790000000003517049000040412201345
2667260016670000000DAVAO DOCTORS - RANK AND FILE           36671038100000000004079289000040412201352
2667260016670000000DAVAO DOCTORS - RANK AND FILE           36670978010000000005970719000040412201353
2667260016670000000DAVAO DOCTORS - RANK AND FILE           36670976660000000005636979000040412201352
2667260016670000000DAVAO DOCTORS - RANK AND FILE           36671073510000000005103829000040412201342
2667260016670000000DAVAO DOCTORS - RANK AND FILE           36670105870000000005062449000040412201355
2667260016670000000DAVAO DOCTORS - RANK AND FILE           36671073860000000005585439000040412201355
2667260016670000000DAVAO DOCTORS - RANK AND FILE           36671009000000000006273629000040412201355
2667260016670000000DAVAO DOCTORS - RANK AND FILE           36671038600000000004605719000040412201345
2667260016670000000DAVAO DOCTORS - RANK AND FILE           36671020150000000005618179000040412201344
2667260016670000000DAVAO DOCTORS - RANK AND FILE           36671016980000000005698299000040412201361
2667260016670000000DAVAO DOCTORS - RANK AND FILE           36670778940000000005204179000040412201349
2667260016670000000DAVAO DOCTORS - RANK AND FILE           36670089140000000005876309000040412201357
2667260016670000000DAVAO DOCTORS - RANK AND FILE           36670902540000000005691109000040412201352
2667260016670000000DAVAO DOCTORS - RANK AND FILE           36670991620000000005175639000040412201347
2667260016670000000DAVAO DOCTORS - RANK AND FILE           36670094650000000004636369000040412201348
2667260016670000000DAVAO DOCTORS - RANK AND FILE           36670993830000000003374319000040412201348
2667260016670000000DAVAO DOCTORS - RANK AND FILE           36671076880000000004783339000040412201359
2667260016670000000DAVAO DOCTORS - RANK AND FILE           36670259320000000003898399000040412201355
2667260016670000000DAVAO DOCTORS - RANK AND FILE           36670807120000000005940499000040412201350
2667260016670000000DAVAO DOCTORS - RANK AND FILE           36670207440000000004698519000040412201356
2667260016670000000DAVAO DOCTORS - RANK AND FILE           36671073600000000004819249000040412201341
2667260016670000000DAVAO DOCTORS - RANK AND FILE           36670097830000000007568899000040412201355
2667260016670000000DAVAO DOCTORS - RANK AND FILE           36670986540000000005173849000040412201354
2667260016670000000DAVAO DOCTORS - RANK AND FILE           36670525220000000007679379000040412201353
2667260016670000000DAVAO DOCTORS - RANK AND FILE           36670867530000000006581779000040412201356
2667260016670000000DAVAO DOCTORS - RANK AND FILE           36670097910000000003975649000040412201350
2667260016670000000DAVAO DOCTORS - RANK AND FILE           36670828470000000006586429000040412201361
2667260016670000000DAVAO DOCTORS - RANK AND FILE           36670088680000000007715749000040412201356
2667260016670000000DAVAO DOCTORS - RANK AND FILE           36670257110000000003612609000040412201344
2667260016670000000DAVAO DOCTORS - RANK AND FILE           36670976400000000004807359000040412201342
2667260016670000000DAVAO DOCTORS - RANK AND FILE           36671028720000000005562379000040412201354
2667260016670000000DAVAO DOCTORS - RANK AND FILE           36670724930000000004267879000040412201349
2667260016670000000DAVAO DOCTORS - RANK AND FILE           36670923540000000004304209000040412201343
2667260016670000000DAVAO DOCTORS - RANK AND FILE           36670247230000000003404669000040412201345
2667260016670000000DAVAO DOCTORS - RANK AND FILE           36670875390000000005760129000040412201357
2667260016670000000DAVAO DOCTORS - RANK AND FILE           36670703180000000004830809000040412201350
2667260016670000000DAVAO DOCTORS - RANK AND FILE           36670492700000000008344209000040412201346
2667260016670000000DAVAO DOCTORS - RANK AND FILE           36670701990000000007560969000040412201355
2667260016670000000DAVAO DOCTORS - RANK AND FILE           36670247310000000004279669000040412201351
2667260016670000000DAVAO DOCTORS - RANK AND FILE           36670853740000000005402279000040412201344
2667260016670000000DAVAO DOCTORS - RANK AND FILE           36670975180000000005221879000040412201352
2667260016670000000DAVAO DOCTORS - RANK AND FILE           36671000390000000005696079000040412201356
2667260016670000000DAVAO DOCTORS - RANK AND FILE           36670393560000000009263309000040412201356
2667260016670000000DAVAO DOCTORS - RANK AND FILE           36670893700000000005558819000040412201345
2667260016670000000DAVAO DOCTORS - RANK AND FILE           36670650980000000005611049000040412201346
2667260016670000000DAVAO DOCTORS - RANK AND FILE           36671079470000000004371719000040412201360
2667260016670000000DAVAO DOCTORS - RANK AND FILE           36670401090000000002405059000040412201344
2667260016670000000DAVAO DOCTORS - RANK AND FILE           36670107490000000004574539000040412201359
2667260016670000000DAVAO DOCTORS - RANK AND FILE           36670173790000000002565989000040412201352
2667260016670000000DAVAO DOCTORS - RANK AND FILE           36670944030000000005453619000040412201349
2667260016670000000DAVAO DOCTORS - RANK AND FILE           36670102340000000004882069000040412201350
2667260016670000000DAVAO DOCTORS - RANK AND FILE           36671073430000000005652309000040412201349
2667260016670000000DAVAO DOCTORS - RANK AND FILE           36670974290000000004815339000040412201350
2667260016670000000DAVAO DOCTORS - RANK AND FILE           36670240140000000002532339000040412201341
2667260016670000000DAVAO DOCTORS - RANK AND FILE           36670985730000000005611679000040412201346
2667260016670000000DAVAO DOCTORS - RANK AND FILE           36671025380000000006206229000040412201352
2667260016670000000DAVAO DOCTORS - RANK AND FILE           36670844400000000005841229000040412201345
2667260016670000000DAVAO DOCTORS - RANK AND FILE           36670102690000000005032869000040412201351
2667260016670000000DAVAO DOCTORS - RANK AND FILE           36671045140000000004095449000040412201355
2667260016670000000DAVAO DOCTORS - RANK AND FILE           36670900840000000004183899000040412201348
2667260016670000000DAVAO DOCTORS - RANK AND FILE           36670155540000000008002769000040412201349
2667260016670000000DAVAO DOCTORS - RANK AND FILE           36671038790000000004889659000040412201362
2667260016670000000DAVAO DOCTORS - RANK AND FILE           36670219700000000004082369000040412201353
2667260016670000000DAVAO DOCTORS - RANK AND FILE           36670979680000000005784509000040412201362
2667260016670000000DAVAO DOCTORS - RANK AND FILE           36670116210000000008595069000040412201356
2667260016670000000DAVAO DOCTORS - RANK AND FILE           36670976740000000004669069000040412201352
2667260016670000000DAVAO DOCTORS - RANK AND FILE           36670114600000000006216269000040412201343
2667260016670000000DAVAO DOCTORS - RANK AND FILE           36670917730000000005122349000040412201349
2667260016670000000DAVAO DOCTORS - RANK AND FILE           36671063630000000004073539000040412201350
2667260016670000000DAVAO DOCTORS - RANK AND FILE           36671027400000000004529899000040412201346
2667260016670000000DAVAO DOCTORS - RANK AND FILE           36670108460000000004802869000040412201350
2667260016670000000DAVAO DOCTORS - RANK AND FILE           36670636800000000004921059000040412201344
2667260016670000000DAVAO DOCTORS - RANK AND FILE           36671045220000000004903159000040412201344
2667260016670000000DAVAO DOCTORS - RANK AND FILE           36671081290000000005517699000040412201349
2667260016670000000DAVAO DOCTORS - RANK AND FILE           36670105280000000007614999000040412201353
2667260016670000000DAVAO DOCTORS - RANK AND FILE           36671028800000000006239489000040412201350
2667260016670000000DAVAO DOCTORS - RANK AND FILE           36671047510000000004846459000040412201349
2667260016670000000DAVAO DOCTORS - RANK AND FILE           36670156350000000005165879000040412201354
2667260016670000000DAVAO DOCTORS - RANK AND FILE           36671001790000000005405359000040412201348
2667260016670000000DAVAO DOCTORS - RANK AND FILE           36670968130000000005147199000040412201352
2667260016670000000DAVAO DOCTORS - RANK AND FILE           36671024060000000004706799000040412201347
2667260016670000000DAVAO DOCTORS - RANK AND FILE           36671018760000000005104529000040412201352
2667260016670000000DAVAO DOCTORS - RANK AND FILE           36670259400000000002563219000040412201349
2667260016670000000DAVAO DOCTORS - RANK AND FILE           36670388480000000008372379000040412201363
2667260016670000000DAVAO DOCTORS - RANK AND FILE           36670438330000000002633959000040412201348
2667260016670000000DAVAO DOCTORS - RANK AND FILE           36670978950000000005330429000040412201353
2667260016670000000DAVAO DOCTORS - RANK AND FILE           36670675110000000007321799000040412201347
2667260016670000000DAVAO DOCTORS - RANK AND FILE           36670975850000000004289589000040412201354
2667260016670000000DAVAO DOCTORS - RANK AND FILE           36670885600000000005157159000040412201347
2667260016670000000DAVAO DOCTORS - RANK AND FILE           36670966860000000005241499000040412201353
2667260016670000000DAVAO DOCTORS - RANK AND FILE           36670468320000000004438619000040412201349
2667260016670000000DAVAO DOCTORS - RANK AND FILE           36670925240000000004105939000040412201345
2667260016670000000DAVAO DOCTORS - RANK AND FILE           36670943900000000003794709000040412201347
2667260016670000000DAVAO DOCTORS - RANK AND FILE           36670827310000000002618709000040412201343
2667260016670000000DAVAO DOCTORS - RANK AND FILE           36671079200000000003947189000040412201349
2667260016670000000DAVAO DOCTORS - RANK AND FILE           36670907180000000006174469000040412201360
2667260016670000000DAVAO DOCTORS - RANK AND FILE           36670106090000000005289139000040412201360
2667260016670000000DAVAO DOCTORS - RANK AND FILE           36670915790000000006057739000040412201357
2667260016670000000DAVAO DOCTORS - RANK AND FILE           36671079550000000005127429000040412201354
2667260016670000000DAVAO DOCTORS - RANK AND FILE           36670986110000000005180259000040412201352
2667260016670000000DAVAO DOCTORS - RANK AND FILE           36670861500000000006345029000040412201343
2667260016670000000DAVAO DOCTORS - RANK AND FILE           36670102260000000007684709000040412201355
2667260016670000000DAVAO DOCTORS - RANK AND FILE           36670971270000000005983509000040412201353
2667260016670000000DAVAO DOCTORS - RANK AND FILE           36670699210000000007762869000040412201355
2667260016670000000DAVAO DOCTORS - RANK AND FILE           36670982630000000004823369000040412201343
2667260016670000000DAVAO DOCTORS - RANK AND FILE           36671039920000000004784579000040412201356
2667260016670000000DAVAO DOCTORS - RANK AND FILE           36670240060000000004889239000040412201350
2667260016670000000DAVAO DOCTORS - RANK AND FILE           36670247400000000003462259000040412201348
2667260016670000000DAVAO DOCTORS - RANK AND FILE           36671039250000000004590129000040412201360
2667260016670000000DAVAO DOCTORS - RANK AND FILE           36670736430000000006812479000040412201348
2667260016670000000DAVAO DOCTORS - RANK AND FILE           36670921410000000004821989000040412201340
2667260016670000000DAVAO DOCTORS - RANK AND FILE           36670169500000000002204959000040412201343
2667260016670000000DAVAO DOCTORS - RANK AND FILE           36671039330000000004297299000040412201358
2667260016670000000DAVAO DOCTORS - RANK AND FILE           36670524500000000005862809000040412201347
2667260016670000000DAVAO DOCTORS - RANK AND FILE           36670783350000000004186829000040412201352
2667260016670000000DAVAO DOCTORS - RANK AND FILE           36670509610000000006899989000040412201357
2667260016670000000DAVAO DOCTORS - RANK AND FILE           36671002840000000005021129000040412201346
2667260016670000000DAVAO DOCTORS - RANK AND FILE           36670627650000000005338759000040412201352
2667260016670000000DAVAO DOCTORS - RANK AND FILE           36670979170000000005827069000040412201355
2667260016670000000DAVAO DOCTORS - RANK AND FILE           36670319830000000003201599000040412201347
2667260016670000000DAVAO DOCTORS - RANK AND FILE           36670943810000000004295769000040412201349
2667260016670000000DAVAO DOCTORS - RANK AND FILE           36671008100000000005336109000040412201349
2667260016670000000DAVAO DOCTORS - RANK AND FILE           36670634190000000006024609000040412201353
2667260016670000000DAVAO DOCTORS - RANK AND FILE           36670086630000000005878829000040412201353
2667260016670000000DAVAO DOCTORS - RANK AND FILE           36670111500000000007404359000040412201340
2667260016670000000DAVAO DOCTORS - RANK AND FILE           36670632300000000006710819000040412201341
2667260016670000000DAVAO DOCTORS - RANK AND FILE           36670437360000000005476799000040412201357
2667260016670000000DAVAO DOCTORS - RANK AND FILE           36670103660000000004263719000040412201351
2667260016670000000DAVAO DOCTORS - RANK AND FILE           36670839590000000004590519000040412201363
2667260016670000000DAVAO DOCTORS - RANK AND FILE           36670846700000000006495029000040412201353
2667260016670000000DAVAO DOCTORS - RANK AND FILE           36670246500000000008016629000040412201347
2667260016670000000DAVAO DOCTORS - RANK AND FILE           36670668920000000007274509000040412201356
2667260016670000000DAVAO DOCTORS - RANK AND FILE           36670674810000000002805029000040412201339
2667260016670000000DAVAO DOCTORS - RANK AND FILE           36670586440000000006288279000040412201356
2667260016670000000DAVAO DOCTORS - RANK AND FILE           36670248200000000003740169000040412201347
2667260016670000000DAVAO DOCTORS - RANK AND FILE           36671025460000000004971479000040412201355
2667260016670000000DAVAO DOCTORS - RANK AND FILE           36671023330000000005494259000040412201353
2667260016670000000DAVAO DOCTORS - RANK AND FILE           36670736270000000005095459000040412201359
2667260016670000000DAVAO DOCTORS - RANK AND FILE           36670516150000000002737919000040412201348
2667260016670000000DAVAO DOCTORS - RANK AND FILE           36670125800000000005328969000040412201344
2667260016670000000DAVAO DOCTORS - RANK AND FILE           36670844320000000004277339000040412201349
2667260016670000000DAVAO DOCTORS - RANK AND FILE           36671010940000000004505869000040412201341
2667260016670000000DAVAO DOCTORS - RANK AND FILE           36670881600000000004807579000040412201337
2667260016670000000DAVAO DOCTORS - RANK AND FILE           36670105790000000004005139000040412201350
2667260016670000000DAVAO DOCTORS - RANK AND FILE           36670105010000000004223069000040412201344
2667260016670000000DAVAO DOCTORS - RANK AND FILE           36671036820000000004591509000040412201354
2667260016670000000DAVAO DOCTORS - RANK AND FILE           36671037390000000004021679000040412201355
2667260016670000000DAVAO DOCTORS - RANK AND FILE           36670979250000000003417509000040412201350
2667260016670000000DAVAO DOCTORS - RANK AND FILE           36670099700000000004861849000040412201351
2667260016670000000DAVAO DOCTORS - RANK AND FILE           36670219960000000003198469000040412201359
2667260016670000000DAVAO DOCTORS - RANK AND FILE           36670255250000000006486129000040412201356
2667260016670000000DAVAO DOCTORS - RANK AND FILE           36670881790000000006060939000040412201354
2667260016670000000DAVAO DOCTORS - RANK AND FILE           36671070330000000005732719000040412201344
2667260016670000000DAVAO DOCTORS - RANK AND FILE           36670852180000000003196469000040412201354
2667260016670000000DAVAO DOCTORS - RANK AND FILE           36670107650000000003381429000040412201355
2667260016670000000DAVAO DOCTORS - RANK AND FILE           36670393300000000006986049000040412201349
2667260016670000000DAVAO DOCTORS - RANK AND FILE           36670684880000000006194049000040412201359
2667260016670000000DAVAO DOCTORS - RANK AND FILE           36670734570000000005629529000040412201350
2667260016670000000DAVAO DOCTORS - RANK AND FILE           36670972590000000005713059000040412201349
2667260016670000000DAVAO DOCTORS - RANK AND FILE           36670222910000000003639059000040412201341
2667260016670000000DAVAO DOCTORS - RANK AND FILE           36671064100000000005017839000040412201343
2667260016670000000DAVAO DOCTORS - RANK AND FILE           36670090740000000007435039000040412201346
2667260016670000000DAVAO DOCTORS - RANK AND FILE           36670958330000000004455059000040412201352
2667260016670000000DAVAO DOCTORS - RANK AND FILE           36670934070000000005039039000040412201351
2667260016670000000DAVAO DOCTORS - RANK AND FILE           36670096860000000003206269000040412201347
2667260016670000000DAVAO DOCTORS - RANK AND FILE           36670891830000000006069499000040412201348
2667260016670000000DAVAO DOCTORS - RANK AND FILE           36671040690000000004761559000040412201352
2667260016670000000DAVAO DOCTORS - RANK AND FILE           36671038280000000003707099000040412201352
2667260016670000000DAVAO DOCTORS - RANK AND FILE           36671060610000000004762949000040412201344
2667260016670000000DAVAO DOCTORS - RANK AND FILE           36670957100000000006270359000040412201352
2667260016670000000DAVAO DOCTORS - RANK AND FILE           36670883810000000004019299000040412201341
2667260016670000000DAVAO DOCTORS - RANK AND FILE           36670321650000000005109429000040412201343
2667260016670000000DAVAO DOCTORS - RANK AND FILE           36670979840000000005501159000040412201350
2667260016670000000DAVAO DOCTORS - RANK AND FILE           36670967750000000005754869000040412201354
2667260016670000000DAVAO DOCTORS - RANK AND FILE           36670197200000000003861359000040412201348
2667260016670000000DAVAO DOCTORS - RANK AND FILE           36671063710000000004311999000040412201342
2667260016670000000DAVAO DOCTORS - RANK AND FILE           36671064010000000004265369000040412201348
2667260016670000000DAVAO DOCTORS - RANK AND FILE           36671018920000000005703309000040412201348
2667260016670000000DAVAO DOCTORS - RANK AND FILE           36670149140000000007362199000040412201358
2667260016670000000DAVAO DOCTORS - RANK AND FILE           36671025890000000004506939000040412201351
2667260016670000000DAVAO DOCTORS - RANK AND FILE           36670945940000000005915899000040412201347
2667260016670000000DAVAO DOCTORS - RANK AND FILE           36670807470000000005722759000040412201353
2667260016670000000DAVAO DOCTORS - RANK AND FILE           36671008450000000005392129000040412201360
2667260016670000000DAVAO DOCTORS - RANK AND FILE           36671010350000000005523619000040412201345
2667260016670000000DAVAO DOCTORS - RANK AND FILE           36671001600000000004565039000040412201344
2667260016670000000DAVAO DOCTORS - RANK AND FILE           36671001010000000004217069000040412201340
2667260016670000000DAVAO DOCTORS - RANK AND FILE           36670089900000000004775879000040412201352
2667260016670000000DAVAO DOCTORS - RANK AND FILE           36670807040000000006590649000040412201358
2667260016670000000DAVAO DOCTORS - RANK AND FILE           36670861680000000003626699000040412201346
2667260016670000000DAVAO DOCTORS - RANK AND FILE           36670846370000000005162879000040412201356
2667260016670000000DAVAO DOCTORS - RANK AND FILE           36671058800000000005049499000040412201350
2667260016670000000DAVAO DOCTORS - RANK AND FILE           36670848310000000001947549000040412201346
2667260016670000000DAVAO DOCTORS - RANK AND FILE           36670926990000000005271339000040412201359
2667260016670000000DAVAO DOCTORS - RANK AND FILE           36670558660000000004256309000040412201355
2667260016670000000DAVAO DOCTORS - RANK AND FILE           36670975770000000004580499000040412201356
2667260016670000000DAVAO DOCTORS - RANK AND FILE           36670855010000000007023079000040412201347
2667260016670000000DAVAO DOCTORS - RANK AND FILE           36670240730000000004058039000040412201344
2667260016670000000DAVAO DOCTORS - RANK AND FILE           36670900920000000006463959000040412201346
2667260016670000000DAVAO DOCTORS - RANK AND FILE           36670955900000000006050619000040412201348
2667260016670000000DAVAO DOCTORS - RANK AND FILE           36670249010000000006370649000040412201355
2667260016670000000DAVAO DOCTORS - RANK AND FILE           36670566500000000002765489000040412201346
2667260016670000000DAVAO DOCTORS - RANK AND FILE           36670670900000000004299939000040412201345
2667260016670000000DAVAO DOCTORS - RANK AND FILE           36670116300000000006440319000040412201348
2667260016670000000DAVAO DOCTORS - RANK AND FILE           36671070170000000005518079000040412201346
2667260016670000000DAVAO DOCTORS - RANK AND FILE           36670293690000000002907889000040412201346
2667260016670000000DAVAO DOCTORS - RANK AND FILE           36671060960000000005058379000040412201349
2667260016670000000DAVAO DOCTORS - RANK AND FILE           36671039410000000004779659000040412201354
2667260016670000000DAVAO DOCTORS - RANK AND FILE           36670110360000000003647799000040412201345
2667260016670000000DAVAO DOCTORS - RANK AND FILE           36670249870000000002958999000040412201355
2667260016670000000DAVAO DOCTORS - RANK AND FILE           36671017010000000004723109000040412201347
2667260016670000000DAVAO DOCTORS - RANK AND FILE           36671069670000000003168299000040412201358
2667260016670000000DAVAO DOCTORS - RANK AND FILE           36670845050000000005267929000040412201353
2667260016670000000DAVAO DOCTORS - RANK AND FILE           36671047270000000005830619000040412201355
2667260016670000000DAVAO DOCTORS - RANK AND FILE           36670943570000000004447749000040412201350
2667260016670000000DAVAO DOCTORS - RANK AND FILE           36670776300000000006071419000040412201351
2667260016670000000DAVAO DOCTORS - RANK AND FILE           36670111760000000005804939000040412201344
2667260016670000000DAVAO DOCTORS - RANK AND FILE           36670093170000000003398899000040412201354
2667260016670000000DAVAO DOCTORS - RANK AND FILE           36670408690000000003846589000040412201356
2667260016670000000DAVAO DOCTORS - RANK AND FILE           36670984250000000005475489000040412201353
2667260016670000000DAVAO DOCTORS - RANK AND FILE           36670893960000000001509489000040412201342
2667260016670000000DAVAO DOCTORS - RANK AND FILE           36671048830000000004871699000040412201355
2667260016670000000DAVAO DOCTORS - RANK AND FILE           36670917810000000005687629000040412201353
2667260016670000000DAVAO DOCTORS - RANK AND FILE           36670617340000000004505039000040412201347
2667260016670000000DAVAO DOCTORS - RANK AND FILE           36670950350000000004982299000040412201349
2667260016670000000DAVAO DOCTORS - RANK AND FILE           36670854200000000002626719000040412201340
2667260016670000000DAVAO DOCTORS - RANK AND FILE           36671009260000000005784749000040412201361
2667260016670000000DAVAO DOCTORS - RANK AND FILE           36670239480000000004914099000040412201354
2667260016670000000DAVAO DOCTORS - RANK AND FILE           36670959300000000004958609000040412201350
2667260016670000000DAVAO DOCTORS - RANK AND FILE           36671063980000000004929989000040412201350
2667260016670000000DAVAO DOCTORS - RANK AND FILE           36670879970000000005635839000040412201356
2667260016670000000DAVAO DOCTORS - RANK AND FILE           36670590710000000002866879000040412201341
2667260016670000000DAVAO DOCTORS - RANK AND FILE           36671029610000000004466629000040412201353
2667260016670000000DAVAO DOCTORS - RANK AND FILE           36670145580000000004243349000040412201353
2667260016670000000DAVAO DOCTORS - RANK AND FILE           36671037040000000004600089000040412201348
2667260016670000000DAVAO DOCTORS - RANK AND FILE           36671058550000000005041259000040412201355
2667260016670000000DAVAO DOCTORS - RANK AND FILE           36670640670000000002707569000040412201341
2667260016670000000DAVAO DOCTORS - RANK AND FILE           36671043870000000004192219000040412201356
2667260016670000000DAVAO DOCTORS - RANK AND FILE           36670943650000000005522219000040412201347
2667260016670000000DAVAO DOCTORS - RANK AND FILE           36670120080000000008694379000040412201357
2667260016670000000DAVAO DOCTORS - RANK AND FILE           36670822780000000003879859000040412201352
2667260016670000000DAVAO DOCTORS - RANK AND FILE           36670103820000000007840179000040412201348
2667260016670000000DAVAO DOCTORS - RANK AND FILE           36670619800000000006888669000040412201355
2667260016670000000DAVAO DOCTORS - RANK AND FILE           36670904910000000004872329000040412201348
2667260016670000000DAVAO DOCTORS - RANK AND FILE           36670981310000000004917049000040412201339
2667260016670000000DAVAO DOCTORS - RANK AND FILE           36670402220000000006135149000040412201345
2667260016670000000DAVAO DOCTORS - RANK AND FILE           36670283380000000002512779000040412201346
2667260016670000000DAVAO DOCTORS - RANK AND FILE           36670929740000000003633549000040412201351
2667260016670000000DAVAO DOCTORS - RANK AND FILE           36671040850000000004846459000040412201346
2667260016670000000DAVAO DOCTORS - RANK AND FILE           36670902700000000005545179000040412201343
2667260016670000000DAVAO DOCTORS - RANK AND FILE           36670940800000000005406429000040412201337
2667260016670000000DAVAO DOCTORS - RANK AND FILE           36670535960000000006158529000040412201354
2667260016670000000DAVAO DOCTORS - RANK AND FILE           36670880040000000006736059000040412201345
2667260016670000000DAVAO DOCTORS - RANK AND FILE           36670519680000000006195329000040412201364
2667260016670000000DAVAO DOCTORS - RANK AND FILE           36670987000000000004152879000040412201348
2667260016670000000DAVAO DOCTORS - RANK AND FILE           36671001520000000005028309000040412201343
2667260016670000000DAVAO DOCTORS - RANK AND FILE           36670945860000000006092419000040412201358
2667260016670000000DAVAO DOCTORS - RANK AND FILE           36670775090000000005956869000040412201356
2667260016670000000DAVAO DOCTORS - RANK AND FILE           36671047350000000005120179000040412201352
2667260016670000000DAVAO DOCTORS - RANK AND FILE           36670783270000000003548179000040412201349
2667260016670000000DAVAO DOCTORS - RANK AND FILE           36670845130000000006582379000040412201354
2667260016670000000DAVAO DOCTORS - RANK AND FILE           36670239560000000006169739000040412201359
2667260016670000000DAVAO DOCTORS - RANK AND FILE           36670967590000000005253379000040412201358
2667260016670000000DAVAO DOCTORS - RANK AND FILE           36670105100000000003068309000040412201346
2667260016670000000DAVAO DOCTORS - RANK AND FILE           36671026000000000005648759000040412201348
2667260016670000000DAVAO DOCTORS - RANK AND FILE           36670524680000000002251869000040412201351
2667260016670000000DAVAO DOCTORS - RANK AND FILE           36670106330000000006814919000040412201348
2667260016670000000DAVAO DOCTORS - RANK AND FILE           36670955230000000005632909000040412201348
2667260016670000000DAVAO DOCTORS - RANK AND FILE           36671044410000000004869499000040412201348
2667260016670000000DAVAO DOCTORS - RANK AND FILE           36670979090000000005406229000040412201355
2667260016670000000DAVAO DOCTORS - RANK AND FILE           36670866130000000005669569000040412201352
2667260016670000000DAVAO DOCTORS - RANK AND FILE           36671042040000000003829449000040412201344
2667260016670000000DAVAO DOCTORS - RANK AND FILE           36670944200000000005054959000040412201346
2667260016670000000DAVAO DOCTORS - RANK AND FILE           36670852000000000004354359000040412201343
2667260016670000000DAVAO DOCTORS - RANK AND FILE           36671011830000000006003099000040412201343
2667260016670000000DAVAO DOCTORS - RANK AND FILE           36671058630000000005464459000040412201355
2667260016670000000DAVAO DOCTORS - RANK AND FILE           36671063800000000004947269000040412201344
2667260016670000000DAVAO DOCTORS - RANK AND FILE           36670986460000000005250869000040412201354
2667260016670000000DAVAO DOCTORS - RANK AND FILE           36671047780000000004482719000040412201360
2667260016670000000DAVAO DOCTORS - RANK AND FILE           36670983360000000005367119000040412201352
2667260016670000000DAVAO DOCTORS - RANK AND FILE           36670338890000000006435839000040412201358
2667260016670000000DAVAO DOCTORS - RANK AND FILE           36671060530000000005174799000040412201348
2667260016670000000DAVAO DOCTORS - RANK AND FILE           36670931210000000005222539000040412201341
2667260016670000000DAVAO DOCTORS - RANK AND FILE           36671000980000000004911859000040412201346
2667260016670000000DAVAO DOCTORS - RANK AND FILE           36670471970000000007597359000040412201356
2667260016670000000DAVAO DOCTORS - RANK AND FILE           36670907340000000005132539000040412201351
2667260016670000000DAVAO DOCTORS - RANK AND FILE           36670292100000000003035929000040412201340
2667260016670000000DAVAO DOCTORS - RANK AND FILE           36670793310000000006091229000040412201351
2667260016670000000DAVAO DOCTORS - RANK AND FILE           36670981900000000005041129000040412201342
2667260016670000000DAVAO DOCTORS - RANK AND FILE           36670865910000000005786389000040412201351
2667260016670000000DAVAO DOCTORS - RANK AND FILE           36670846450000000003755719000040412201351
2667260016670000000DAVAO DOCTORS - RANK AND FILE           36670921330000000005183869000040412201349
2667260016670000000DAVAO DOCTORS - RANK AND FILE           36671047860000000005030789000040412201354
2667260016670000000DAVAO DOCTORS - RANK AND FILE           36671001440000000006770509000040412201351
2667260016670000000DAVAO DOCTORS - RANK AND FILE           36671008020000000005152729000040412201353
2667260016670000000DAVAO DOCTORS - RANK AND FILE           36670845990000000003924689000040412201351
2667260016670000000DAVAO DOCTORS - RANK AND FILE           36671022520000000005325709000040412201344
2667260016670000000DAVAO DOCTORS - RANK AND FILE           36671025970000000004206079000040412201349
2667260016670000000DAVAO DOCTORS - RANK AND FILE           36670927290000000007243129000040412201359
2667260016670000000DAVAO DOCTORS - RANK AND FILE           36671036900000000004613169000040412201344
2667260016670000000DAVAO DOCTORS - RANK AND FILE           36670973300000000003112879000040412201339
2667260016670000000DAVAO DOCTORS - RANK AND FILE           36671009340000000005123489000040412201353
2667260016670000000DAVAO DOCTORS - RANK AND FILE           36670956980000000004152839000040412201355
2667260016670000000DAVAO DOCTORS - RANK AND FILE           36670107810000000003286119000040412201351
2667260016670000000DAVAO DOCTORS - RANK AND FILE           36670733170000000005756539000040412201352
2667260016670000000DAVAO DOCTORS - RANK AND FILE           36671038440000000004549689000040412201353
2667260016670000000DAVAO DOCTORS - RANK AND FILE           36671040180000000004351789000040412201350
2667260016670000000DAVAO DOCTORS - RANK AND FILE           36671020230000000005403879000040412201341
2667260016670000000DAVAO DOCTORS - RANK AND FILE           36670877410000000002988139000040412201350
2667260016670000000DAVAO DOCTORS - RANK AND FILE           36670823160000000006033359000040412201350
2667260016670000000DAVAO DOCTORS - RANK AND FILE           36670557260000000003541399000040412201352
2667260016670000000DAVAO DOCTORS - RANK AND FILE           36670250370000000006454959000040412201350
2667260016670000000DAVAO DOCTORS - RANK AND FILE           36670710200000000004661979000040412201342
2667260016670000000DAVAO DOCTORS - RANK AND FILE           36670109600000000004269229000040412201351
2667260016670000000DAVAO DOCTORS - RANK AND FILE           36670913230000000005146619000040412201347
2667260016670000000DAVAO DOCTORS - RANK AND FILE           36671043950000000004024439000040412201347
2667260016670000000DAVAO DOCTORS - RANK AND FILE           36671041660000000004541169000040412201348
2667260016670000000DAVAO DOCTORS - RANK AND FILE           36670673170000000004951369000040412201351
2667260016670000000DAVAO DOCTORS - RANK AND FILE           36670906370000000005243219000040412201354
2667260016670000000DAVAO DOCTORS - RANK AND FILE           36671005350000000004394429000040412201356
2667260016670000000DAVAO DOCTORS - RANK AND FILE           36670946240000000002567749000040412201350
2667260016670000000DAVAO DOCTORS - RANK AND FILE           36670894000000000005652499000040412201346
2667260016670000000DAVAO DOCTORS - RANK AND FILE           36670087950000000005881649000040412201357
2667260016670000000DAVAO DOCTORS - RANK AND FILE           36670092600000000003367269000040412201343
2667260016670000000DAVAO DOCTORS - RANK AND FILE           36670945510000000006178189000040412201351
2667260016670000000DAVAO DOCTORS - RANK AND FILE           36670686150000000008209099000040412201351
2667260016670000000DAVAO DOCTORS - RANK AND FILE           36670958410000000005310499000040412201347
2667260016670000000DAVAO DOCTORS - RANK AND FILE           36670905050000000005628209000040412201349
2667260016670000000DAVAO DOCTORS - RANK AND FILE           36670776140000000004986759000040412201354
2667260016670000000DAVAO DOCTORS - RANK AND FILE           36670468080000000008598069000040412201365
2667260016670000000DAVAO DOCTORS - RANK AND FILE           36670983100000000005316639000040412201341
2667260016670000000DAVAO DOCTORS - RANK AND FILE           36670676780000000003958679000040412201354
2667260016670000000DAVAO DOCTORS - RANK AND FILE           36670109940000000009626259000040412201356
2667260016670000000DAVAO DOCTORS - RANK AND FILE           36670928000000000006481839000040412201354
2667260016670000000DAVAO DOCTORS - RANK AND FILE           36670848400000000004941869000040412201348
2667260016670000000DAVAO DOCTORS - RANK AND FILE           36671040000000000004096549000040412201346
2667260016670000000DAVAO DOCTORS - RANK AND FILE           36670113110000000005560969000040412201347
2667260016670000000DAVAO DOCTORS - RANK AND FILE           36671073270000000005006459000040412201348
2667260016670000000DAVAO DOCTORS - RANK AND FILE           36670871050000000006089869000040412201352
000513000000260208086
