2667260016670000000DAVAO DOCTORS - CONTRACTUAL             366717364800000000050632890000512292020
2667260016670000000DAVAO DOCTORS - CONTRACTUAL             366717397400000000058966190000512292020
2667260016670000000DAVAO DOCTORS - CONTRACTUAL             366717350800000000063219390000512292020
2667260016670000000DAVAO DOCTORS - CONTRACTUAL             366717353200000000064803890000512292020
2667260016670000000DAVAO DOCTORS - CONTRACTUAL             366717352400000000058487990000512292020
2667260016670000000DAVAO DOCTORS - CONTRACTUAL             366717351600000000060855690000512292020
