2667260016670000000DAVAO DOCTORS - RESIDENT                36670925320000000004650009000020429201348
2667260016670000000DAVAO DOCTORS - RESIDENT                36670991540000000007425629000020429201346
2667260016670000000DAVAO DOCTORS - RESIDENT                36670822860000000009900009000020429201349
2667260016670000000DAVAO DOCTORS - RESIDENT                36670903190000000008550009000020429201357
2667260016670000000DAVAO DOCTORS - RESIDENT                36670931990000000013950009000020429201351
2667260016670000000DAVAO DOCTORS - RESIDENT                36670997310000000008550009000020429201353
2667260016670000000DAVAO DOCTORS - RESIDENT                36670962870000000004950009000020429201350
2667260016670000000DAVAO DOCTORS - RESIDENT                36670867100000000018530009000020429201351
2667260016670000000DAVAO DOCTORS - RESIDENT                36670907850000000013500009000020429201348
2667260016670000000DAVAO DOCTORS - RESIDENT                36670972080000000008550009000020429201355
2667260016670000000DAVAO DOCTORS - RESIDENT                36670887050000000009000009000020429201353
2667260016670000000DAVAO DOCTORS - RESIDENT                36670921090000000007200009000020429201349
2667260016670000000DAVAO DOCTORS - RESIDENT                36671067200000000006540009000020429201350
2667260016670000000DAVAO DOCTORS - RESIDENT                36671022440000000005400009000020429201344
2667260016670000000DAVAO DOCTORS - RESIDENT                36670996180000000004700009000020429201350
2667260016670000000DAVAO DOCTORS - RESIDENT                36671049480000000008100009000020429201358
2667260016670000000DAVAO DOCTORS - RESIDENT                36671079630000000018000009000020429201354
2667260016670000000DAVAO DOCTORS - RESIDENT                36670848580000000009900009000020429201357
2667260016670000000DAVAO DOCTORS - RESIDENT                36671009420000000005000009000020429201349
2667260016670000000DAVAO DOCTORS - RESIDENT                36670959490000000004567409000020429201360
2667260016670000000DAVAO DOCTORS - RESIDENT                36670877500000000009900009000020429201348
2667260016670000000DAVAO DOCTORS - RESIDENT                36670879890000000009450009000020429201364
2667260016670000000DAVAO DOCTORS - RESIDENT                36670902110000000009450009000020429201349
2667260016670000000DAVAO DOCTORS - RESIDENT                36671059950000000008100009000020429201355
2667260016670000000DAVAO DOCTORS - RESIDENT                36670975340000000012600009000020429201344
2667260016670000000DAVAO DOCTORS - RESIDENT                36670993590000000007987819000020429201359
2667260016670000000DAVAO DOCTORS - RESIDENT                36670746740000000015500009000020429201348
2667260016670000000DAVAO DOCTORS - RESIDENT                36670924000000000015150009000020429201347
2667260016670000000DAVAO DOCTORS - RESIDENT                36671044250000000008100009000020429201350
2667260016670000000DAVAO DOCTORS - RESIDENT                36671044330000000008100009000020429201348
2667260016670000000DAVAO DOCTORS - RESIDENT                36671066220000000008100009000020429201349
2667260016670000000DAVAO DOCTORS - RESIDENT                36670956390000000005116679000020429201353
2667260016670000000DAVAO DOCTORS - RESIDENT                36670993670000000008550009000020429201355
2667260016670000000DAVAO DOCTORS - RESIDENT                36670993320000000008550009000020429201350
2667260016670000000DAVAO DOCTORS - RESIDENT                36670995290000000012600009000020429201349
2667260016670000000DAVAO DOCTORS - RESIDENT                36670892300000000009000009000020429201343
2667260016670000000DAVAO DOCTORS - RESIDENT                36671066300000000008100009000020429201347
2667260016670000000DAVAO DOCTORS - RESIDENT                36670932370000000013500009000020429201345
2667260016670000000DAVAO DOCTORS - RESIDENT                36671070250000000008000009000020429201346
2667260016670000000DAVAO DOCTORS - RESIDENT                36670886320000000010506849000020429201341
2667260016670000000DAVAO DOCTORS - RESIDENT                36671049560000000008100009000020429201356
2667260016670000000DAVAO DOCTORS - RESIDENT                36670999360000000008550009000020429201360
2667260016670000000DAVAO DOCTORS - RESIDENT                36670896200000000003150009000020429201346
2667260016670000000DAVAO DOCTORS - RESIDENT                36670923620000000003000009000020429201340
2667260016670000000DAVAO DOCTORS - RESIDENT                36671077930000000018000009000020429201352
2667260016670000000DAVAO DOCTORS - RESIDENT                36670867020000000017000009000020429201349
2667260016670000000DAVAO DOCTORS - RESIDENT                36670991970000000010798789000020429201350
2667260016670000000DAVAO DOCTORS - RESIDENT                36671044500000000008100009000020429201345
2667260016670000000DAVAO DOCTORS - RESIDENT                36671023410000000013500009000020429201341
2667260016670000000DAVAO DOCTORS - RESIDENT                36670868500000000025650009000020429201352
2667260016670000000DAVAO DOCTORS - RESIDENT                36670999440000000008550009000020429201358
000051000000049772312
