2667260016670000000DAVAO DOCTORS - CONTRACTUAL             366716887300000000057726890000509292020
2667260016670000000DAVAO DOCTORS - CONTRACTUAL             366716919500000000055706590000509292020
2667260016670000000DAVAO DOCTORS - CONTRACTUAL             366717152100000000056656090000509292020
2667260016670000000DAVAO DOCTORS - CONTRACTUAL             366716910100000000052804790000509292020
2667260016670000000DAVAO DOCTORS - CONTRACTUAL             366717259500000000034779590000509292020
2667260016670000000DAVAO DOCTORS - CONTRACTUAL             366717153000000000048540690000509292020
2667260016670000000DAVAO DOCTORS - CONTRACTUAL             366714675600000000055893490000509292020
2667260016670000000DAVAO DOCTORS - CONTRACTUAL             366716915200000000057175390000509292020
2667260016670000000DAVAO DOCTORS - CONTRACTUAL             366717221800000000056726690000509292020
