2667260016670000000DAVAO DOCTORS - RANK AND FILE           36671026190000000003799689000040429201360
2667260016670000000DAVAO DOCTORS - RANK AND FILE           36671008880000000003966659000040429201358
2667260016670000000DAVAO DOCTORS - RANK AND FILE           36670674570000000005089009000040429201356
2667260016670000000DAVAO DOCTORS - RANK AND FILE           36671046890000000003349419000040429201355
2667260016670000000DAVAO DOCTORS - RANK AND FILE           36670806580000000004676669000040429201357
2667260016670000000DAVAO DOCTORS - RANK AND FILE           36670151630000000006910779000040429201343
2667260016670000000DAVAO DOCTORS - RANK AND FILE           36670866050000000003261739000040429201352
2667260016670000000DAVAO DOCTORS - RANK AND FILE           36670844590000000004660759000040429201355
2667260016670000000DAVAO DOCTORS - RANK AND FILE           36670104550000000008868089000040429201355
2667260016670000000DAVAO DOCTORS - RANK AND FILE           36671008530000000004305609000040429201348
2667260016670000000DAVAO DOCTORS - RANK AND FILE           36670956040000000001738609000040429201346
2667260016670000000DAVAO DOCTORS - RANK AND FILE           36670086980000000003547409000040429201353
2667260016670000000DAVAO DOCTORS - RANK AND FILE           36671000200000000004211219000040429201338
2667260016670000000DAVAO DOCTORS - RANK AND FILE           36670096270000000004163999000040429201355
2667260016670000000DAVAO DOCTORS - RANK AND FILE           36671045060000000004235659000040429201351
2667260016670000000DAVAO DOCTORS - RANK AND FILE           36670892050000000004903629000040429201343
2667260016670000000DAVAO DOCTORS - RANK AND FILE           36671008610000000005292879000040429201356
2667260016670000000DAVAO DOCTORS - RANK AND FILE           36670981660000000004199639000040429201352
2667260016670000000DAVAO DOCTORS - RANK AND FILE           36671008700000000004861659000040429201351
2667260016670000000DAVAO DOCTORS - RANK AND FILE           36670333820000000003983409000040429201348
2667260016670000000DAVAO DOCTORS - RANK AND FILE           36671036740000000003563139000040429201352
2667260016670000000DAVAO DOCTORS - RANK AND FILE           36670613270000000004090469000040429201355
2667260016670000000DAVAO DOCTORS - RANK AND FILE           36671048750000000003560369000040429201355
2667260016670000000DAVAO DOCTORS - RANK AND FILE           36670776730000000004414739000040429201346
2667260016670000000DAVAO DOCTORS - RANK AND FILE           36670090660000000003966979000040429201347
2667260016670000000DAVAO DOCTORS - RANK AND FILE           36671026430000000004435289000040429201349
2667260016670000000DAVAO DOCTORS - RANK AND FILE           36670245610000000002192859000040429201349
2667260016670000000DAVAO DOCTORS - RANK AND FILE           36670328400000000005764299000040429201351
2667260016670000000DAVAO DOCTORS - RANK AND FILE           36670244640000000003334349000040429201346
2667260016670000000DAVAO DOCTORS - RANK AND FILE           36670416010000000001862389000040429201346
2667260016670000000DAVAO DOCTORS - RANK AND FILE           36670205900000000003245559000040429201344
2667260016670000000DAVAO DOCTORS - RANK AND FILE           36670100130000000003894439000040429201347
2667260016670000000DAVAO DOCTORS - RANK AND FILE           36670424970000000004728069000040429201349
2667260016670000000DAVAO DOCTORS - RANK AND FILE           36670902200000000004330779000040429201341
2667260016670000000DAVAO DOCTORS - RANK AND FILE           36670511510000000005783939000040429201347
2667260016670000000DAVAO DOCTORS - RANK AND FILE           36670613000000000003160389000040429201344
2667260016670000000DAVAO DOCTORS - RANK AND FILE           36671066060000000003981579000040429201356
2667260016670000000DAVAO DOCTORS - RANK AND FILE           36670248800000000004698129000040429201353
2667260016670000000DAVAO DOCTORS - RANK AND FILE           36671038360000000004244089000040429201355
2667260016670000000DAVAO DOCTORS - RANK AND FILE           36670883900000000004709489000040429201339
2667260016670000000DAVAO DOCTORS - RANK AND FILE           36670772660000000005450349000040429201350
2667260016670000000DAVAO DOCTORS - RANK AND FILE           36670243320000000002999909000040429201348
2667260016670000000DAVAO DOCTORS - RANK AND FILE           36671037200000000004059799000040429201349
2667260016670000000DAVAO DOCTORS - RANK AND FILE           36670923380000000004682509000040429201355
2667260016670000000DAVAO DOCTORS - RANK AND FILE           36670979760000000004242319000040429201355
2667260016670000000DAVAO DOCTORS - RANK AND FILE           36670542150000000006419759000040429201346
2667260016670000000DAVAO DOCTORS - RANK AND FILE           36670891750000000002562049000040429201346
2667260016670000000DAVAO DOCTORS - RANK AND FILE           36671009500000000004081009000040429201354
2667260016670000000DAVAO DOCTORS - RANK AND FILE           36671084040000000004298939000040429201354
2667260016670000000DAVAO DOCTORS - RANK AND FILE           36670951320000000005198599000040429201349
2667260016670000000DAVAO DOCTORS - RANK AND FILE           36670777460000000005624129000040429201352
2667260016670000000DAVAO DOCTORS - RANK AND FILE           36670929820000000003796479000040429201355
2667260016670000000DAVAO DOCTORS - RANK AND FILE           36670095620000000003472089000040429201349
2667260016670000000DAVAO DOCTORS - RANK AND FILE           36670846290000000004201789000040429201351
2667260016670000000DAVAO DOCTORS - RANK AND FILE           36671041900000000003598739000040429201346
2667260016670000000DAVAO DOCTORS - RANK AND FILE           36670981820000000004141989000040429201343
2667260016670000000DAVAO DOCTORS - RANK AND FILE           36671000630000000004301059000040429201340
2667260016670000000DAVAO DOCTORS - RANK AND FILE           36670778780000000002129719000040429201352
2667260016670000000DAVAO DOCTORS - RANK AND FILE           36671069240000000003907239000040429201349
2667260016670000000DAVAO DOCTORS - RANK AND FILE           36671063040000000004319989000040429201345
2667260016670000000DAVAO DOCTORS - RANK AND FILE           36671027590000000004030869000040429201356
2667260016670000000DAVAO DOCTORS - RANK AND FILE           36670859600000000004282159000040429201353
2667260016670000000DAVAO DOCTORS - RANK AND FILE           36670145820000000002578979000040429201348
2667260016670000000DAVAO DOCTORS - RANK AND FILE           36670103070000000003809589000040429201345
2667260016670000000DAVAO DOCTORS - RANK AND FILE           36671025620000000004381459000040429201352
2667260016670000000DAVAO DOCTORS - RANK AND FILE           36670925400000000005047619000040429201346
2667260016670000000DAVAO DOCTORS - RANK AND FILE           36671005270000000004489849000040429201357
2667260016670000000DAVAO DOCTORS - RANK AND FILE           36670948370000000004888339000040429201359
2667260016670000000DAVAO DOCTORS - RANK AND FILE           36671073350000000003820609000040429201346
2667260016670000000DAVAO DOCTORS - RANK AND FILE           36671085100000000000940869000040429201342
2667260016670000000DAVAO DOCTORS - RANK AND FILE           36670777200000000002626109000040429201343
2667260016670000000DAVAO DOCTORS - RANK AND FILE           36670957010000000004418409000040429201345
2667260016670000000DAVAO DOCTORS - RANK AND FILE           36670958840000000004276879000040429201355
2667260016670000000DAVAO DOCTORS - RANK AND FILE           36670102180000000005950659000040429201352
2667260016670000000DAVAO DOCTORS - RANK AND FILE           36670703420000000003389219000040429201348
2667260016670000000DAVAO DOCTORS - RANK AND FILE           36671043790000000003714289000040429201349
2667260016670000000DAVAO DOCTORS - RANK AND FILE           36670109860000000005075169000040429201359
2667260016670000000DAVAO DOCTORS - RANK AND FILE           36670900760000000004496609000040429201351
2667260016670000000DAVAO DOCTORS - RANK AND FILE           36670891400000000004041349000040429201341
2667260016670000000DAVAO DOCTORS - RANK AND FILE           36670104200000000003015859000040429201340
2667260016670000000DAVAO DOCTORS - RANK AND FILE           36670961980000000004596999000040429201354
2667260016670000000DAVAO DOCTORS - RANK AND FILE           36670488270000000006780209000040429201361
2667260016670000000DAVAO DOCTORS - RANK AND FILE           36670931720000000003452229000040429201343
2667260016670000000DAVAO DOCTORS - RANK AND FILE           36670846530000000004301999000040429201345
2667260016670000000DAVAO DOCTORS - RANK AND FILE           36670970970000000004417009000040429201344
2667260016670000000DAVAO DOCTORS - RANK AND FILE           36670826690000000005231419000040429201355
2667260016670000000DAVAO DOCTORS - RANK AND FILE           36670958250000000004535829000040429201352
2667260016670000000DAVAO DOCTORS - RANK AND FILE           36670945780000000004799269000040429201358
2667260016670000000DAVAO DOCTORS - RANK AND FILE           36670804100000000003438069000040429201342
2667260016670000000DAVAO DOCTORS - RANK AND FILE           36670487620000000007018189000040429201349
2667260016670000000DAVAO DOCTORS - RANK AND FILE           36670742590000000004344569000040429201351
2667260016670000000DAVAO DOCTORS - RANK AND FILE           36670971350000000003935119000040429201344
2667260016670000000DAVAO DOCTORS - RANK AND FILE           36671031000000000004586509000040429201346
2667260016670000000DAVAO DOCTORS - RANK AND FILE           36670944110000000002481219000040429201347
2667260016670000000DAVAO DOCTORS - RANK AND FILE           36671018840000000004028009000040429201351
2667260016670000000DAVAO DOCTORS - RANK AND FILE           36671085280000000001198599000040429201356
2667260016670000000DAVAO DOCTORS - RANK AND FILE           36670872530000000004441499000040429201345
2667260016670000000DAVAO DOCTORS - RANK AND FILE           36671046970000000003276819000040429201356
2667260016670000000DAVAO DOCTORS - RANK AND FILE           36670153410000000002630779000040429201341
2667260016670000000DAVAO DOCTORS - RANK AND FILE           36670856250000000005091489000040429201357
2667260016670000000DAVAO DOCTORS - RANK AND FILE           36670678800000000002857379000040429201347
2667260016670000000DAVAO DOCTORS - RANK AND FILE           36670949930000000004769609000040429201354
2667260016670000000DAVAO DOCTORS - RANK AND FILE           36670206390000000002353869000040429201354
2667260016670000000DAVAO DOCTORS - RANK AND FILE           36671047000000000003519619000040429201344
2667260016670000000DAVAO DOCTORS - RANK AND FILE           36670736000000000004854789000040429201347
2667260016670000000DAVAO DOCTORS - RANK AND FILE           36670242940000000002919509000040429201341
2667260016670000000DAVAO DOCTORS - RANK AND FILE           36670859780000000004996449000040429201362
2667260016670000000DAVAO DOCTORS - RANK AND FILE           36670667790000000004308299000040429201352
2667260016670000000DAVAO DOCTORS - RANK AND FILE           36670989480000000004340389000040429201357
2667260016670000000DAVAO DOCTORS - RANK AND FILE           36670685850000000006086519000040429201356
2667260016670000000DAVAO DOCTORS - RANK AND FILE           36670272930000000004730149000040429201344
2667260016670000000DAVAO DOCTORS - RANK AND FILE           36670122100000000003766469000040429201343
2667260016670000000DAVAO DOCTORS - RANK AND FILE           36670264320000000003418339000040429201342
2667260016670000000DAVAO DOCTORS - RANK AND FILE           36670105520000000005110769000040429201345
2667260016670000000DAVAO DOCTORS - RANK AND FILE           36671000550000000004000179000040429201342
2667260016670000000DAVAO DOCTORS - RANK AND FILE           36670103580000000003345319000040429201350
2667260016670000000DAVAO DOCTORS - RANK AND FILE           36670858700000000005049399000040429201349
2667260016670000000DAVAO DOCTORS - RANK AND FILE           36670960400000000002103239000040429201334
2667260016670000000DAVAO DOCTORS - RANK AND FILE           36670720270000000001972529000040429201347
2667260016670000000DAVAO DOCTORS - RANK AND FILE           36671039170000000004046319000040429201357
2667260016670000000DAVAO DOCTORS - RANK AND FILE           36670121720000000003285169000040429201346
2667260016670000000DAVAO DOCTORS - RANK AND FILE           36670242860000000003954299000040429201348
2667260016670000000DAVAO DOCTORS - RANK AND FILE           36670923890000000006572039000040429201357
2667260016670000000DAVAO DOCTORS - RANK AND FILE           36670840170000000005384369000040429201352
2667260016670000000DAVAO DOCTORS - RANK AND FILE           36670718290000000005455449000040429201359
2667260016670000000DAVAO DOCTORS - RANK AND FILE           36670995370000000004353749000040429201353
2667260016670000000DAVAO DOCTORS - RANK AND FILE           36671011750000000005002409000040429201344
2667260016670000000DAVAO DOCTORS - RANK AND FILE           36671039680000000003758169000040429201358
2667260016670000000DAVAO DOCTORS - RANK AND FILE           36670927020000000004567129000040429201351
2667260016670000000DAVAO DOCTORS - RANK AND FILE           36670845210000000005389939000040429201351
2667260016670000000DAVAO DOCTORS - RANK AND FILE           36671079390000000003488139000040429201362
2667260016670000000DAVAO DOCTORS - RANK AND FILE           36670094730000000004115769000040429201344
2667260016670000000DAVAO DOCTORS - RANK AND FILE           36670206040000000006754539000040429201353
2667260016670000000DAVAO DOCTORS - RANK AND FILE           36670896040000000003229049000040429201347
2667260016670000000DAVAO DOCTORS - RANK AND FILE           36671001100000000003955269000040429201342
2667260016670000000DAVAO DOCTORS - RANK AND FILE           36671000470000000002750439000040429201347
2667260016670000000DAVAO DOCTORS - RANK AND FILE           36670248550000000003664589000040429201354
2667260016670000000DAVAO DOCTORS - RANK AND FILE           36671082930000000003829739000040429201343
2667260016670000000DAVAO DOCTORS - RANK AND FILE           36671020310000000004355909000040429201343
2667260016670000000DAVAO DOCTORS - RANK AND FILE           36670944380000000004127029000040429201350
2667260016670000000DAVAO DOCTORS - RANK AND FILE           36670796920000000004547209000040429201348
2667260016670000000DAVAO DOCTORS - RANK AND FILE           36670103310000000003350729000040429201344
2667260016670000000DAVAO DOCTORS - RANK AND FILE           36671007990000000004897629000040429201362
2667260016670000000DAVAO DOCTORS - RANK AND FILE           36671028480000000003364789000040429201358
2667260016670000000DAVAO DOCTORS - RANK AND FILE           36671042120000000004334289000040429201344
2667260016670000000DAVAO DOCTORS - RANK AND FILE           36671028990000000004374749000040429201361
2667260016670000000DAVAO DOCTORS - RANK AND FILE           36670447400000000005679939000040429201351
2667260016670000000DAVAO DOCTORS - RANK AND FILE           36670107060000000003325339000040429201350
2667260016670000000DAVAO DOCTORS - RANK AND FILE           36671025540000000004042199000040429201350
2667260016670000000DAVAO DOCTORS - RANK AND FILE           36670112810000000008973979000040429201350
2667260016670000000DAVAO DOCTORS - RANK AND FILE           36670931300000000003990779000040429201345
2667260016670000000DAVAO DOCTORS - RANK AND FILE           36670855520000000004574729000040429201350
2667260016670000000DAVAO DOCTORS - RANK AND FILE           36670835840000000001989649000040429201350
2667260016670000000DAVAO DOCTORS - RANK AND FILE           36670606650000000003848059000040429201350
2667260016670000000DAVAO DOCTORS - RANK AND FILE           36670743640000000005478889000040429201351
2667260016670000000DAVAO DOCTORS - RANK AND FILE           36671079980000000004905979000040429201354
2667260016670000000DAVAO DOCTORS - RANK AND FILE           36671005190000000004308509000040429201351
2667260016670000000DAVAO DOCTORS - RANK AND FILE           36670987860000000004225859000040429201351
2667260016670000000DAVAO DOCTORS - RANK AND FILE           36670109270000000004009669000040429201352
2667260016670000000DAVAO DOCTORS - RANK AND FILE           36670930240000000002917429000040429201339
2667260016670000000DAVAO DOCTORS - RANK AND FILE           36670703340000000002342439000040429201345
2667260016670000000DAVAO DOCTORS - RANK AND FILE           36670724770000000005371599000040429201355
2667260016670000000DAVAO DOCTORS - RANK AND FILE           36670779830000000004977019000040429201355
2667260016670000000DAVAO DOCTORS - RANK AND FILE           36670866800000000004824689000040429201344
2667260016670000000DAVAO DOCTORS - RANK AND FILE           36670955820000000004862589000040429201349
2667260016670000000DAVAO DOCTORS - RANK AND FILE           36671029450000000004329569000040429201353
2667260016670000000DAVAO DOCTORS - RANK AND FILE           36670899060000000004246649000040429201355
2667260016670000000DAVAO DOCTORS - RANK AND FILE           36670146630000000003390889000040429201353
2667260016670000000DAVAO DOCTORS - RANK AND FILE           36670923970000000007231969000040429201352
2667260016670000000DAVAO DOCTORS - RANK AND FILE           36671060700000000003625699000040429201338
2667260016670000000DAVAO DOCTORS - RANK AND FILE           36670892560000000004795189000040429201353
2667260016670000000DAVAO DOCTORS - RANK AND FILE           36670717130000000004876289000040429201353
2667260016670000000DAVAO DOCTORS - RANK AND FILE           36670828710000000005442919000040429201350
2667260016670000000DAVAO DOCTORS - RANK AND FILE           36671020070000000003822179000040429201345
2667260016670000000DAVAO DOCTORS - RANK AND FILE           36670206470000000002476769000040429201354
2667260016670000000DAVAO DOCTORS - RANK AND FILE           36670206200000000003064139000040429201347
2667260016670000000DAVAO DOCTORS - RANK AND FILE           36670946670000000002132279000040429201350
2667260016670000000DAVAO DOCTORS - RANK AND FILE           36670962440000000002899989000040429201349
2667260016670000000DAVAO DOCTORS - RANK AND FILE           36670264080000000007865499000040429201357
2667260016670000000DAVAO DOCTORS - RANK AND FILE           36670110790000000002953549000040429201348
2667260016670000000DAVAO DOCTORS - RANK AND FILE           36671038100000000004269819000040429201351
2667260016670000000DAVAO DOCTORS - RANK AND FILE           36670978010000000004045219000040429201349
2667260016670000000DAVAO DOCTORS - RANK AND FILE           36670976660000000004135399000040429201351
2667260016670000000DAVAO DOCTORS - RANK AND FILE           36671073510000000003900279000040429201340
2667260016670000000DAVAO DOCTORS - RANK AND FILE           36670388640000000001596469000040429201354
2667260016670000000DAVAO DOCTORS - RANK AND FILE           36670105870000000003646739000040429201351
2667260016670000000DAVAO DOCTORS - RANK AND FILE           36671073860000000004787019000040429201354
2667260016670000000DAVAO DOCTORS - RANK AND FILE           36671009000000000004550169000040429201351
2667260016670000000DAVAO DOCTORS - RANK AND FILE           36671038600000000004198419000040429201354
2667260016670000000DAVAO DOCTORS - RANK AND FILE           36671020150000000004047219000040429201346
2667260016670000000DAVAO DOCTORS - RANK AND FILE           36671016980000000005319289000040429201353
2667260016670000000DAVAO DOCTORS - RANK AND FILE           36670778940000000004887489000040429201356
2667260016670000000DAVAO DOCTORS - RANK AND FILE           36670089140000000004921919000040429201351
2667260016670000000DAVAO DOCTORS - RANK AND FILE           36670902540000000006255169000040429201349
2667260016670000000DAVAO DOCTORS - RANK AND FILE           36670991620000000004396729000040429201348
2667260016670000000DAVAO DOCTORS - RANK AND FILE           36670094650000000005698449000040429201355
2667260016670000000DAVAO DOCTORS - RANK AND FILE           36670993830000000004310539000040429201343
2667260016670000000DAVAO DOCTORS - RANK AND FILE           36671076880000000004133039000040429201354
2667260016670000000DAVAO DOCTORS - RANK AND FILE           36670259320000000001498039000040429201353
2667260016670000000DAVAO DOCTORS - RANK AND FILE           36670807120000000004885299000040429201353
2667260016670000000DAVAO DOCTORS - RANK AND FILE           36670207440000000003758929000040429201351
2667260016670000000DAVAO DOCTORS - RANK AND FILE           36671073600000000002994299000040429201347
2667260016670000000DAVAO DOCTORS - RANK AND FILE           36670097830000000006300579000040429201348
2667260016670000000DAVAO DOCTORS - RANK AND FILE           36670986540000000003982549000040429201353
2667260016670000000DAVAO DOCTORS - RANK AND FILE           36670525220000000005597269000040429201353
2667260016670000000DAVAO DOCTORS - RANK AND FILE           36670867530000000004957809000040429201351
2667260016670000000DAVAO DOCTORS - RANK AND FILE           36670097910000000003358639000040429201348
2667260016670000000DAVAO DOCTORS - RANK AND FILE           36670828470000000004953639000040429201356
2667260016670000000DAVAO DOCTORS - RANK AND FILE           36671083230000000003872889000040429201349
2667260016670000000DAVAO DOCTORS - RANK AND FILE           36670088680000000007857979000040429201360
2667260016670000000DAVAO DOCTORS - RANK AND FILE           36670257110000000002360629000040429201348
2667260016670000000DAVAO DOCTORS - RANK AND FILE           36670976400000000003803249000040429201341
2667260016670000000DAVAO DOCTORS - RANK AND FILE           36671028720000000004937739000040429201350
2667260016670000000DAVAO DOCTORS - RANK AND FILE           36671085360000000000708549000040429201344
2667260016670000000DAVAO DOCTORS - RANK AND FILE           36670724930000000002546619000040429201345
2667260016670000000DAVAO DOCTORS - RANK AND FILE           36670923540000000004170859000040429201350
2667260016670000000DAVAO DOCTORS - RANK AND FILE           36670247230000000003016569000040429201346
2667260016670000000DAVAO DOCTORS - RANK AND FILE           36670875390000000005870239000040429201358
2667260016670000000DAVAO DOCTORS - RANK AND FILE           36670703180000000003386979000040429201354
2667260016670000000DAVAO DOCTORS - RANK AND FILE           36670492700000000006298489000040429201349
2667260016670000000DAVAO DOCTORS - RANK AND FILE           36670701990000000006128539000040429201350
2667260016670000000DAVAO DOCTORS - RANK AND FILE           36670247310000000003496379000040429201352
2667260016670000000DAVAO DOCTORS - RANK AND FILE           36670853740000000004357579000040429201348
2667260016670000000DAVAO DOCTORS - RANK AND FILE           36670975180000000004647399000040429201353
2667260016670000000DAVAO DOCTORS - RANK AND FILE           36671000390000000004227259000040429201348
2667260016670000000DAVAO DOCTORS - RANK AND FILE           36670393560000000007924689000040429201350
2667260016670000000DAVAO DOCTORS - RANK AND FILE           36670893700000000004262129000040429201345
2667260016670000000DAVAO DOCTORS - RANK AND FILE           36670125200000000003244299000040429201344
2667260016670000000DAVAO DOCTORS - RANK AND FILE           36670650980000000005360159000040429201351
2667260016670000000DAVAO DOCTORS - RANK AND FILE           36671079470000000003777699000040429201359
2667260016670000000DAVAO DOCTORS - RANK AND FILE           36670401090000000001964429000040429201349
2667260016670000000DAVAO DOCTORS - RANK AND FILE           36670107490000000003884029000040429201359
2667260016670000000DAVAO DOCTORS - RANK AND FILE           36670173790000000002559319000040429201351
2667260016670000000DAVAO DOCTORS - RANK AND FILE           36670944030000000004690249000040429201352
2667260016670000000DAVAO DOCTORS - RANK AND FILE           36670102340000000004777829000040429201349
2667260016670000000DAVAO DOCTORS - RANK AND FILE           36671073430000000005883479000040429201352
2667260016670000000DAVAO DOCTORS - RANK AND FILE           36670974290000000004286729000040429201357
2667260016670000000DAVAO DOCTORS - RANK AND FILE           36670240140000000002403209000040429201338
2667260016670000000DAVAO DOCTORS - RANK AND FILE           36670985730000000003838729000040429201346
2667260016670000000DAVAO DOCTORS - RANK AND FILE           36671025380000000004256729000040429201355
2667260016670000000DAVAO DOCTORS - RANK AND FILE           36670844400000000003479829000040429201346
2667260016670000000DAVAO DOCTORS - RANK AND FILE           36670102690000000004475829000040429201354
2667260016670000000DAVAO DOCTORS - RANK AND FILE           36671045140000000003539899000040429201348
2667260016670000000DAVAO DOCTORS - RANK AND FILE           36670900840000000004418179000040429201341
2667260016670000000DAVAO DOCTORS - RANK AND FILE           36670155540000000006584949000040429201355
2667260016670000000DAVAO DOCTORS - RANK AND FILE           36671038790000000003611669000040429201354
2667260016670000000DAVAO DOCTORS - RANK AND FILE           36670779080000000002698279000040429201360
2667260016670000000DAVAO DOCTORS - RANK AND FILE           36670219700000000003595939000040429201353
2667260016670000000DAVAO DOCTORS - RANK AND FILE           36670979680000000004126459000040429201355
2667260016670000000DAVAO DOCTORS - RANK AND FILE           36670116210000000008065929000040429201353
2667260016670000000DAVAO DOCTORS - RANK AND FILE           36670976740000000002900449000040429201344
2667260016670000000DAVAO DOCTORS - RANK AND FILE           36670114600000000005214659000040429201342
2667260016670000000DAVAO DOCTORS - RANK AND FILE           36670917730000000004645579000040429201350
2667260016670000000DAVAO DOCTORS - RANK AND FILE           36671063630000000003252759000040429201347
2667260016670000000DAVAO DOCTORS - RANK AND FILE           36671027400000000004560089000040429201350
2667260016670000000DAVAO DOCTORS - RANK AND FILE           36670108460000000004171859000040429201357
2667260016670000000DAVAO DOCTORS - RANK AND FILE           36670636800000000004390839000040429201351
2667260016670000000DAVAO DOCTORS - RANK AND FILE           36671045220000000003637859000040429201346
2667260016670000000DAVAO DOCTORS - RANK AND FILE           36671081290000000004600679000040429201347
2667260016670000000DAVAO DOCTORS - RANK AND FILE           36670105280000000007803979000040429201352
2667260016670000000DAVAO DOCTORS - RANK AND FILE           36671028800000000005174799000040429201353
2667260016670000000DAVAO DOCTORS - RANK AND FILE           36671047510000000003537839000040429201347
2667260016670000000DAVAO DOCTORS - RANK AND FILE           36670156350000000005168629000040429201354
2667260016670000000DAVAO DOCTORS - RANK AND FILE           36671001790000000004385369000040429201355
2667260016670000000DAVAO DOCTORS - RANK AND FILE           36670968130000000004026559000040429201349
2667260016670000000DAVAO DOCTORS - RANK AND FILE           36671024060000000004239709000040429201350
2667260016670000000DAVAO DOCTORS - RANK AND FILE           36671018760000000003680259000040429201358
2667260016670000000DAVAO DOCTORS - RANK AND FILE           36670259400000000003429809000040429201346
2667260016670000000DAVAO DOCTORS - RANK AND FILE           36670388480000000005671209000040429201360
2667260016670000000DAVAO DOCTORS - RANK AND FILE           36670438330000000003551569000040429201351
2667260016670000000DAVAO DOCTORS - RANK AND FILE           36670978950000000004410789000040429201350
2667260016670000000DAVAO DOCTORS - RANK AND FILE           36670675110000000005898959000040429201352
2667260016670000000DAVAO DOCTORS - RANK AND FILE           36670975850000000004385599000040429201354
2667260016670000000DAVAO DOCTORS - RANK AND FILE           36670885600000000003568799000040429201346
2667260016670000000DAVAO DOCTORS - RANK AND FILE           36670966860000000004944029000040429201352
2667260016670000000DAVAO DOCTORS - RANK AND FILE           36670468320000000003438189000040429201348
2667260016670000000DAVAO DOCTORS - RANK AND FILE           36670925240000000003630979000040429201347
2667260016670000000DAVAO DOCTORS - RANK AND FILE           36670943900000000002789119000040429201345
2667260016670000000DAVAO DOCTORS - RANK AND FILE           36670827310000000001477199000040429201348
2667260016670000000DAVAO DOCTORS - RANK AND FILE           36671079200000000004979589000040429201353
2667260016670000000DAVAO DOCTORS - RANK AND FILE           36670907180000000004529879000040429201353
2667260016670000000DAVAO DOCTORS - RANK AND FILE           36670106090000000003605859000040429201350
2667260016670000000DAVAO DOCTORS - RANK AND FILE           36670915790000000005641119000040429201355
2667260016670000000DAVAO DOCTORS - RANK AND FILE           36671079550000000003489509000040429201358
2667260016670000000DAVAO DOCTORS - RANK AND FILE           36670986110000000002871999000040429201348
2667260016670000000DAVAO DOCTORS - RANK AND FILE           36671084120000000004339629000040429201346
2667260016670000000DAVAO DOCTORS - RANK AND FILE           36670861500000000004029929000040429201339
2667260016670000000DAVAO DOCTORS - RANK AND FILE           36670102260000000003677889000040429201350
2667260016670000000DAVAO DOCTORS - RANK AND FILE           36670971270000000004467249000040429201350
2667260016670000000DAVAO DOCTORS - RANK AND FILE           36670699210000000006899159000040429201357
2667260016670000000DAVAO DOCTORS - RANK AND FILE           36670982630000000003507689000040429201340
2667260016670000000DAVAO DOCTORS - RANK AND FILE           36671039920000000004498349000040429201357
2667260016670000000DAVAO DOCTORS - RANK AND FILE           36670240060000000004132259000040429201345
2667260016670000000DAVAO DOCTORS - RANK AND FILE           36670247400000000002444379000040429201345
2667260016670000000DAVAO DOCTORS - RANK AND FILE           36671039250000000003145259000040429201354
2667260016670000000DAVAO DOCTORS - RANK AND FILE           36670736430000000005387349000040429201354
2667260016670000000DAVAO DOCTORS - RANK AND FILE           36670921410000000004181949000040429201346
2667260016670000000DAVAO DOCTORS - RANK AND FILE           36670169500000000002718059000040429201344
2667260016670000000DAVAO DOCTORS - RANK AND FILE           36671039330000000003945099000040429201352
2667260016670000000DAVAO DOCTORS - RANK AND FILE           36670524500000000005999809000040429201350
2667260016670000000DAVAO DOCTORS - RANK AND FILE           36670783350000000004098299000040429201353
2667260016670000000DAVAO DOCTORS - RANK AND FILE           36670509610000000004895339000040429201355
2667260016670000000DAVAO DOCTORS - RANK AND FILE           36671002840000000003977919000040429201349
2667260016670000000DAVAO DOCTORS - RANK AND FILE           36670627650000000004359989000040429201353
2667260016670000000DAVAO DOCTORS - RANK AND FILE           36670979170000000005274739000040429201360
2667260016670000000DAVAO DOCTORS - RANK AND FILE           36670319830000000003304569000040429201347
2667260016670000000DAVAO DOCTORS - RANK AND FILE           36670943810000000005643319000040429201345
2667260016670000000DAVAO DOCTORS - RANK AND FILE           36671008100000000005232469000040429201349
2667260016670000000DAVAO DOCTORS - RANK AND FILE           36670634190000000004929969000040429201351
2667260016670000000DAVAO DOCTORS - RANK AND FILE           36670086630000000006188799000040429201355
2667260016670000000DAVAO DOCTORS - RANK AND FILE           36670111500000000007981759000040429201348
2667260016670000000DAVAO DOCTORS - RANK AND FILE           36670632300000000005952889000040429201344
2667260016670000000DAVAO DOCTORS - RANK AND FILE           36670437360000000004652829000040429201354
2667260016670000000DAVAO DOCTORS - RANK AND FILE           36670103660000000003384759000040429201352
2667260016670000000DAVAO DOCTORS - RANK AND FILE           36670839590000000002806279000040429201352
2667260016670000000DAVAO DOCTORS - RANK AND FILE           36670846700000000004676769000040429201349
2667260016670000000DAVAO DOCTORS - RANK AND FILE           36670246500000000006627229000040429201346
2667260016670000000DAVAO DOCTORS - RANK AND FILE           36670668920000000007422159000040429201351
2667260016670000000DAVAO DOCTORS - RANK AND FILE           36670674810000000002561719000040429201345
2667260016670000000DAVAO DOCTORS - RANK AND FILE           36670586440000000005376049000040429201354
2667260016670000000DAVAO DOCTORS - RANK AND FILE           36670248200000000002350849000040429201347
2667260016670000000DAVAO DOCTORS - RANK AND FILE           36671025460000000004171589000040429201355
2667260016670000000DAVAO DOCTORS - RANK AND FILE           36671023330000000004155759000040429201348
2667260016670000000DAVAO DOCTORS - RANK AND FILE           36670736270000000003371109000040429201355
2667260016670000000DAVAO DOCTORS - RANK AND FILE           36670516150000000002423509000040429201347
2667260016670000000DAVAO DOCTORS - RANK AND FILE           36670125800000000006125899000040429201345
2667260016670000000DAVAO DOCTORS - RANK AND FILE           36671083150000000003739099000040429201347
2667260016670000000DAVAO DOCTORS - RANK AND FILE           36670844320000000003507829000040429201341
2667260016670000000DAVAO DOCTORS - RANK AND FILE           36671010940000000003183829000040429201348
2667260016670000000DAVAO DOCTORS - RANK AND FILE           36670881600000000004250979000040429201342
2667260016670000000DAVAO DOCTORS - RANK AND FILE           36670105790000000003598699000040429201358
2667260016670000000DAVAO DOCTORS - RANK AND FILE           36670105010000000003349189000040429201345
2667260016670000000DAVAO DOCTORS - RANK AND FILE           36671036820000000004123829000040429201347
2667260016670000000DAVAO DOCTORS - RANK AND FILE           36671037390000000002872549000040429201358
2667260016670000000DAVAO DOCTORS - RANK AND FILE           36670979250000000003362489000040429201355
2667260016670000000DAVAO DOCTORS - RANK AND FILE           36670099700000000004192259000040429201354
2667260016670000000DAVAO DOCTORS - RANK AND FILE           36670219960000000002956509000040429201354
2667260016670000000DAVAO DOCTORS - RANK AND FILE           36670255250000000005109089000040429201347
2667260016670000000DAVAO DOCTORS - RANK AND FILE           36670881790000000005338019000040429201350
2667260016670000000DAVAO DOCTORS - RANK AND FILE           36671070330000000005082069000040429201349
2667260016670000000DAVAO DOCTORS - RANK AND FILE           36670852180000000001948049000040429201347
2667260016670000000DAVAO DOCTORS - RANK AND FILE           36670107650000000001290139000040429201354
2667260016670000000DAVAO DOCTORS - RANK AND FILE           36670393300000000007552229000040429201347
2667260016670000000DAVAO DOCTORS - RANK AND FILE           36670684880000000006282899000040429201358
2667260016670000000DAVAO DOCTORS - RANK AND FILE           36670734570000000004144889000040429201351
2667260016670000000DAVAO DOCTORS - RANK AND FILE           36670972590000000004549749000040429201351
2667260016670000000DAVAO DOCTORS - RANK AND FILE           36670222910000000003292029000040429201347
2667260016670000000DAVAO DOCTORS - RANK AND FILE           36671064100000000004828579000040429201343
2667260016670000000DAVAO DOCTORS - RANK AND FILE           36670090740000000004182869000040429201348
2667260016670000000DAVAO DOCTORS - RANK AND FILE           36670958330000000005020399000040429201350
2667260016670000000DAVAO DOCTORS - RANK AND FILE           36670934070000000004666639000040429201353
2667260016670000000DAVAO DOCTORS - RANK AND FILE           36670096860000000002854179000040429201351
2667260016670000000DAVAO DOCTORS - RANK AND FILE           36670891830000000004381579000040429201348
2667260016670000000DAVAO DOCTORS - RANK AND FILE           36671040690000000003905589000040429201345
2667260016670000000DAVAO DOCTORS - RANK AND FILE           36671038280000000004145929000040429201357
2667260016670000000DAVAO DOCTORS - RANK AND FILE           36671060610000000003513359000040429201338
2667260016670000000DAVAO DOCTORS - RANK AND FILE           36670957100000000005049749000040429201348
2667260016670000000DAVAO DOCTORS - RANK AND FILE           36670883810000000003878119000040429201346
2667260016670000000DAVAO DOCTORS - RANK AND FILE           36670321650000000005891939000040429201352
2667260016670000000DAVAO DOCTORS - RANK AND FILE           36670979840000000004029719000040429201351
2667260016670000000DAVAO DOCTORS - RANK AND FILE           36670967750000000005376729000040429201356
2667260016670000000DAVAO DOCTORS - RANK AND FILE           36670197200000000002912159000040429201342
2667260016670000000DAVAO DOCTORS - RANK AND FILE           36671063710000000003733689000040429201343
2667260016670000000DAVAO DOCTORS - RANK AND FILE           36671064010000000003428299000040429201343
2667260016670000000DAVAO DOCTORS - RANK AND FILE           36671018920000000004060959000040429201353
2667260016670000000DAVAO DOCTORS - RANK AND FILE           36670149140000000006807369000040429201351
2667260016670000000DAVAO DOCTORS - RANK AND FILE           36671025890000000003746629000040429201354
2667260016670000000DAVAO DOCTORS - RANK AND FILE           36670945940000000005525719000040429201348
2667260016670000000DAVAO DOCTORS - RANK AND FILE           36670807470000000004344459000040429201354
2667260016670000000DAVAO DOCTORS - RANK AND FILE           36671008450000000004326469000040429201352
2667260016670000000DAVAO DOCTORS - RANK AND FILE           36671010350000000004324869000040429201344
2667260016670000000DAVAO DOCTORS - RANK AND FILE           36671001600000000003613369000040429201338
2667260016670000000DAVAO DOCTORS - RANK AND FILE           36671082260000000004095159000040429201354
2667260016670000000DAVAO DOCTORS - RANK AND FILE           36671001010000000003634869000040429201341
2667260016670000000DAVAO DOCTORS - RANK AND FILE           36670089900000000003983729000040429201352
2667260016670000000DAVAO DOCTORS - RANK AND FILE           36670807040000000004255709000040429201352
2667260016670000000DAVAO DOCTORS - RANK AND FILE           36670861680000000002286069000040429201351
2667260016670000000DAVAO DOCTORS - RANK AND FILE           36670846370000000004071259000040429201356
2667260016670000000DAVAO DOCTORS - RANK AND FILE           36671058800000000003766499000040429201350
2667260016670000000DAVAO DOCTORS - RANK AND FILE           36670848310000000002099809000040429201352
2667260016670000000DAVAO DOCTORS - RANK AND FILE           36670926990000000003420359000040429201352
2667260016670000000DAVAO DOCTORS - RANK AND FILE           36670558660000000004128709000040429201352
2667260016670000000DAVAO DOCTORS - RANK AND FILE           36670975770000000003927779000040429201349
2667260016670000000DAVAO DOCTORS - RANK AND FILE           36670855010000000005560199000040429201349
2667260016670000000DAVAO DOCTORS - RANK AND FILE           36670240730000000002406369000040429201337
2667260016670000000DAVAO DOCTORS - RANK AND FILE           36670900920000000004262019000040429201344
2667260016670000000DAVAO DOCTORS - RANK AND FILE           36670955900000000004615059000040429201342
2667260016670000000DAVAO DOCTORS - RANK AND FILE           36670249010000000006927289000040429201350
2667260016670000000DAVAO DOCTORS - RANK AND FILE           36670566500000000003674599000040429201348
2667260016670000000DAVAO DOCTORS - RANK AND FILE           36671084470000000004980779000040429201356
2667260016670000000DAVAO DOCTORS - RANK AND FILE           36670670900000000005023479000040429201339
2667260016670000000DAVAO DOCTORS - RANK AND FILE           36670116300000000003918949000040429201342
2667260016670000000DAVAO DOCTORS - RANK AND FILE           36671070170000000004802109000040429201344
2667260016670000000DAVAO DOCTORS - RANK AND FILE           36670293690000000002502309000040429201346
2667260016670000000DAVAO DOCTORS - RANK AND FILE           36671060960000000003853119000040429201347
2667260016670000000DAVAO DOCTORS - RANK AND FILE           36671039410000000003349439000040429201350
2667260016670000000DAVAO DOCTORS - RANK AND FILE           36670110360000000003554559000040429201346
2667260016670000000DAVAO DOCTORS - RANK AND FILE           36670249870000000003319889000040429201352
2667260016670000000DAVAO DOCTORS - RANK AND FILE           36671017010000000004160989000040429201351
2667260016670000000DAVAO DOCTORS - RANK AND FILE           36671069670000000003880369000040429201360
2667260016670000000DAVAO DOCTORS - RANK AND FILE           36670845050000000006049869000040429201352
2667260016670000000DAVAO DOCTORS - RANK AND FILE           36671047270000000004615789000040429201352
2667260016670000000DAVAO DOCTORS - RANK AND FILE           36670943570000000004209109000040429201346
2667260016670000000DAVAO DOCTORS - RANK AND FILE           36670776300000000005734689000040429201346
2667260016670000000DAVAO DOCTORS - RANK AND FILE           36670111760000000004918759000040429201344
2667260016670000000DAVAO DOCTORS - RANK AND FILE           36670093170000000003216379000040429201346
2667260016670000000DAVAO DOCTORS - RANK AND FILE           36670408690000000002514739000040429201352
2667260016670000000DAVAO DOCTORS - RANK AND FILE           36670984250000000004237699000040429201348
2667260016670000000DAVAO DOCTORS - RANK AND FILE           36671048830000000003513359000040429201348
2667260016670000000DAVAO DOCTORS - RANK AND FILE           36670917810000000005503639000040429201345
2667260016670000000DAVAO DOCTORS - RANK AND FILE           36670617340000000003864159000040429201352
2667260016670000000DAVAO DOCTORS - RANK AND FILE           36670950350000000003936879000040429201343
2667260016670000000DAVAO DOCTORS - RANK AND FILE           36670854200000000002039469000040429201341
2667260016670000000DAVAO DOCTORS - RANK AND FILE           36671009260000000004427129000040429201354
2667260016670000000DAVAO DOCTORS - RANK AND FILE           36670239480000000002845049000040429201355
2667260016670000000DAVAO DOCTORS - RANK AND FILE           36670959300000000004704219000040429201345
2667260016670000000DAVAO DOCTORS - RANK AND FILE           36671063980000000004128679000040429201350
2667260016670000000DAVAO DOCTORS - RANK AND FILE           36670879970000000004553589000040429201357
2667260016670000000DAVAO DOCTORS - RANK AND FILE           36670590710000000003663159000040429201342
2667260016670000000DAVAO DOCTORS - RANK AND FILE           36671029610000000004061049000040429201353
2667260016670000000DAVAO DOCTORS - RANK AND FILE           36670145580000000003478649000040429201355
2667260016670000000DAVAO DOCTORS - RANK AND FILE           36671037040000000004045579000040429201352
2667260016670000000DAVAO DOCTORS - RANK AND FILE           36671058550000000004898309000040429201359
2667260016670000000DAVAO DOCTORS - RANK AND FILE           36670640670000000002510849000040429201342
2667260016670000000DAVAO DOCTORS - RANK AND FILE           36671043870000000002997309000040429201354
2667260016670000000DAVAO DOCTORS - RANK AND FILE           36670943650000000005029779000040429201347
2667260016670000000DAVAO DOCTORS - RANK AND FILE           36670120080000000007172849000040429201354
2667260016670000000DAVAO DOCTORS - RANK AND FILE           36670822780000000001965569000040429201349
2667260016670000000DAVAO DOCTORS - RANK AND FILE           36670103820000000008079789000040429201352
2667260016670000000DAVAO DOCTORS - RANK AND FILE           36670619800000000005240769000040429201350
2667260016670000000DAVAO DOCTORS - RANK AND FILE           36670904910000000005391929000040429201351
2667260016670000000DAVAO DOCTORS - RANK AND FILE           36670981310000000004708369000040429201338
2667260016670000000DAVAO DOCTORS - RANK AND FILE           36670402220000000005350309000040429201346
2667260016670000000DAVAO DOCTORS - RANK AND FILE           36670283380000000003307389000040429201346
2667260016670000000DAVAO DOCTORS - RANK AND FILE           36670929740000000002174789000040429201354
2667260016670000000DAVAO DOCTORS - RANK AND FILE           36671040850000000003978999000040429201348
2667260016670000000DAVAO DOCTORS - RANK AND FILE           36670902700000000004939689000040429201341
2667260016670000000DAVAO DOCTORS - RANK AND FILE           36670940800000000004485909000040429201344
2667260016670000000DAVAO DOCTORS - RANK AND FILE           36670535960000000004289799000040429201355
2667260016670000000DAVAO DOCTORS - RANK AND FILE           36670880040000000003871099000040429201346
2667260016670000000DAVAO DOCTORS - RANK AND FILE           36670519680000000004612999000040429201354
2667260016670000000DAVAO DOCTORS - RANK AND FILE           36670987000000000003816199000040429201343
2667260016670000000DAVAO DOCTORS - RANK AND FILE           36671001520000000004317109000040429201341
2667260016670000000DAVAO DOCTORS - RANK AND FILE           36670945860000000004669769000040429201353
2667260016670000000DAVAO DOCTORS - RANK AND FILE           36670775090000000005710979000040429201352
2667260016670000000DAVAO DOCTORS - RANK AND FILE           36671083070000000003765059000040429201352
2667260016670000000DAVAO DOCTORS - RANK AND FILE           36671047350000000005195659000040429201359
2667260016670000000DAVAO DOCTORS - RANK AND FILE           36670783270000000003033919000040429201348
2667260016670000000DAVAO DOCTORS - RANK AND FILE           36671084200000000004852169000040429201346
2667260016670000000DAVAO DOCTORS - RANK AND FILE           36670845130000000007517459000040429201348
2667260016670000000DAVAO DOCTORS - RANK AND FILE           36670239560000000004464959000040429201357
2667260016670000000DAVAO DOCTORS - RANK AND FILE           36670967590000000004925579000040429201354
2667260016670000000DAVAO DOCTORS - RANK AND FILE           36670105100000000002958669000040429201344
2667260016670000000DAVAO DOCTORS - RANK AND FILE           36671026000000000002117339000040429201342
2667260016670000000DAVAO DOCTORS - RANK AND FILE           36670524680000000002191919000040429201355
2667260016670000000DAVAO DOCTORS - RANK AND FILE           36670106330000000006513199000040429201348
2667260016670000000DAVAO DOCTORS - RANK AND FILE           36670955230000000005038899000040429201348
2667260016670000000DAVAO DOCTORS - RANK AND FILE           36671044410000000003711669000040429201342
2667260016670000000DAVAO DOCTORS - RANK AND FILE           36670979090000000004269049000040429201360
2667260016670000000DAVAO DOCTORS - RANK AND FILE           36670866130000000005528129000040429201348
2667260016670000000DAVAO DOCTORS - RANK AND FILE           36671042040000000003757669000040429201347
2667260016670000000DAVAO DOCTORS - RANK AND FILE           36670944200000000003620589000040429201341
2667260016670000000DAVAO DOCTORS - RANK AND FILE           36670852000000000003094479000040429201346
2667260016670000000DAVAO DOCTORS - RANK AND FILE           36671011830000000004388289000040429201349
2667260016670000000DAVAO DOCTORS - RANK AND FILE           36671058630000000004532969000040429201351
2667260016670000000DAVAO DOCTORS - RANK AND FILE           36671063800000000003370079000040429201346
2667260016670000000DAVAO DOCTORS - RANK AND FILE           36670986460000000004347329000040429201352
2667260016670000000DAVAO DOCTORS - RANK AND FILE           36671047780000000003998579000040429201360
2667260016670000000DAVAO DOCTORS - RANK AND FILE           36670983360000000004573869000040429201352
2667260016670000000DAVAO DOCTORS - RANK AND FILE           36670338890000000005428079000040429201356
2667260016670000000DAVAO DOCTORS - RANK AND FILE           36671060530000000003636259000040429201342
2667260016670000000DAVAO DOCTORS - RANK AND FILE           36670931210000000003667129000040429201343
2667260016670000000DAVAO DOCTORS - RANK AND FILE           36671000980000000004323669000040429201347
2667260016670000000DAVAO DOCTORS - RANK AND FILE           36670471970000000006383779000040429201354
2667260016670000000DAVAO DOCTORS - RANK AND FILE           36671085440000000000705849000040429201342
2667260016670000000DAVAO DOCTORS - RANK AND FILE           36670907340000000004367069000040429201353
2667260016670000000DAVAO DOCTORS - RANK AND FILE           36670292100000000002738329000040429201339
2667260016670000000DAVAO DOCTORS - RANK AND FILE           36670793310000000006329049000040429201344
2667260016670000000DAVAO DOCTORS - RANK AND FILE           36670981900000000004373519000040429201344
2667260016670000000DAVAO DOCTORS - RANK AND FILE           36670865910000000004631409000040429201345
2667260016670000000DAVAO DOCTORS - RANK AND FILE           36670846450000000003485089000040429201354
2667260016670000000DAVAO DOCTORS - RANK AND FILE           36670921330000000004772469000040429201347
2667260016670000000DAVAO DOCTORS - RANK AND FILE           36671047860000000003233369000040429201352
2667260016670000000DAVAO DOCTORS - RANK AND FILE           36671001440000000005110189000040429201344
2667260016670000000DAVAO DOCTORS - RANK AND FILE           36671008020000000004404709000040429201347
2667260016670000000DAVAO DOCTORS - RANK AND FILE           36670845990000000003450859000040429201354
2667260016670000000DAVAO DOCTORS - RANK AND FILE           36671022520000000003675619000040429201347
2667260016670000000DAVAO DOCTORS - RANK AND FILE           36671025970000000003370449000040429201355
2667260016670000000DAVAO DOCTORS - RANK AND FILE           36670927290000000005649969000040429201357
2667260016670000000DAVAO DOCTORS - RANK AND FILE           36671036900000000003873209000040429201349
2667260016670000000DAVAO DOCTORS - RANK AND FILE           36670973300000000002969999000040429201343
2667260016670000000DAVAO DOCTORS - RANK AND FILE           36671009340000000002293709000040429201357
2667260016670000000DAVAO DOCTORS - RANK AND FILE           36670956980000000003735149000040429201352
2667260016670000000DAVAO DOCTORS - RANK AND FILE           36670107810000000003041489000040429201347
2667260016670000000DAVAO DOCTORS - RANK AND FILE           36670733170000000004635789000040429201349
2667260016670000000DAVAO DOCTORS - RANK AND FILE           36671038440000000003887599000040429201356
2667260016670000000DAVAO DOCTORS - RANK AND FILE           36671040180000000003979849000040429201351
2667260016670000000DAVAO DOCTORS - RANK AND FILE           36671020230000000004080869000040429201348
2667260016670000000DAVAO DOCTORS - RANK AND FILE           36670877410000000001831289000040429201344
2667260016670000000DAVAO DOCTORS - RANK AND FILE           36670823160000000005541069000040429201350
2667260016670000000DAVAO DOCTORS - RANK AND FILE           36670557260000000002379969000040429201354
2667260016670000000DAVAO DOCTORS - RANK AND FILE           36670250370000000005484219000040429201352
2667260016670000000DAVAO DOCTORS - RANK AND FILE           36670710200000000004229729000040429201338
2667260016670000000DAVAO DOCTORS - RANK AND FILE           36670109600000000003443899000040429201348
2667260016670000000DAVAO DOCTORS - RANK AND FILE           36670913230000000004906909000040429201342
2667260016670000000DAVAO DOCTORS - RANK AND FILE           36671043950000000003322319000040429201346
2667260016670000000DAVAO DOCTORS - RANK AND FILE           36671041660000000002742269000040429201346
2667260016670000000DAVAO DOCTORS - RANK AND FILE           36670673170000000003909529000040429201345
2667260016670000000DAVAO DOCTORS - RANK AND FILE           36670906370000000004275129000040429201356
2667260016670000000DAVAO DOCTORS - RANK AND FILE           36671005350000000002800569000040429201345
2667260016670000000DAVAO DOCTORS - RANK AND FILE           36670946240000000004345489000040429201350
2667260016670000000DAVAO DOCTORS - RANK AND FILE           36670894000000000006080929000040429201350
2667260016670000000DAVAO DOCTORS - RANK AND FILE           36670087950000000003606539000040429201347
2667260016670000000DAVAO DOCTORS - RANK AND FILE           36670092600000000003366769000040429201343
2667260016670000000DAVAO DOCTORS - RANK AND FILE           36670945510000000005319109000040429201344
2667260016670000000DAVAO DOCTORS - RANK AND FILE           36670686150000000006410529000040429201350
2667260016670000000DAVAO DOCTORS - RANK AND FILE           36670958410000000004164349000040429201351
2667260016670000000DAVAO DOCTORS - RANK AND FILE           36670905050000000004822729000040429201348
2667260016670000000DAVAO DOCTORS - RANK AND FILE           36670776140000000003137439000040429201348
2667260016670000000DAVAO DOCTORS - RANK AND FILE           36670468080000000007070629000040429201362
2667260016670000000DAVAO DOCTORS - RANK AND FILE           36670983100000000004596859000040429201348
2667260016670000000DAVAO DOCTORS - RANK AND FILE           36670676780000000002736319000040429201351
2667260016670000000DAVAO DOCTORS - RANK AND FILE           36670109940000000007865249000040429201358
2667260016670000000DAVAO DOCTORS - RANK AND FILE           36670928000000000006182179000040429201354
2667260016670000000DAVAO DOCTORS - RANK AND FILE           36670848400000000002781309000040429201350
2667260016670000000DAVAO DOCTORS - RANK AND FILE           36671040000000000003472299000040429201343
2667260016670000000DAVAO DOCTORS - RANK AND FILE           36670113110000000003809669000040429201339
2667260016670000000DAVAO DOCTORS - RANK AND FILE           36671073270000000004204529000040429201347
2667260016670000000DAVAO DOCTORS - RANK AND FILE           36670871050000000006256219000040429201349
000529000000223997623
