2667260016670000000DAVAO DOCTORS - RANK AND FILE           36671026190000000004443269000040314201356
2667260016670000000DAVAO DOCTORS - RANK AND FILE           36671008880000000004926539000040314201355
2667260016670000000DAVAO DOCTORS - RANK AND FILE           36670674570000000005933429000040314201351
2667260016670000000DAVAO DOCTORS - RANK AND FILE           36671046890000000004329169000040314201354
2667260016670000000DAVAO DOCTORS - RANK AND FILE           36670806580000000005408679000040314201351
2667260016670000000DAVAO DOCTORS - RANK AND FILE           36670151630000000007440899000040314201347
2667260016670000000DAVAO DOCTORS - RANK AND FILE           36670866050000000006934499000040314201352
2667260016670000000DAVAO DOCTORS - RANK AND FILE           36670844590000000006337549000040314201354
2667260016670000000DAVAO DOCTORS - RANK AND FILE           36670104550000000007919469000040314201349
2667260016670000000DAVAO DOCTORS - RANK AND FILE           36671008530000000005145119000040314201353
2667260016670000000DAVAO DOCTORS - RANK AND FILE           36670956040000000003777259000040314201352
2667260016670000000DAVAO DOCTORS - RANK AND FILE           36670086980000000003413409000040314201350
2667260016670000000DAVAO DOCTORS - RANK AND FILE           36671000200000000004626899000040314201339
2667260016670000000DAVAO DOCTORS - RANK AND FILE           36670096270000000004326169000040314201351
2667260016670000000DAVAO DOCTORS - RANK AND FILE           36671045060000000003877309000040314201354
2667260016670000000DAVAO DOCTORS - RANK AND FILE           36670892050000000005277589000040314201351
2667260016670000000DAVAO DOCTORS - RANK AND FILE           36671008610000000004955289000040314201351
2667260016670000000DAVAO DOCTORS - RANK AND FILE           36670981660000000004971459000040314201350
2667260016670000000DAVAO DOCTORS - RANK AND FILE           36671008700000000004927059000040314201347
2667260016670000000DAVAO DOCTORS - RANK AND FILE           36670333820000000004197889000040314201350
2667260016670000000DAVAO DOCTORS - RANK AND FILE           36671036740000000004401629000040314201347
2667260016670000000DAVAO DOCTORS - RANK AND FILE           36670613270000000003950249000040314201350
2667260016670000000DAVAO DOCTORS - RANK AND FILE           36671048750000000004313339000040314201351
2667260016670000000DAVAO DOCTORS - RANK AND FILE           36670776730000000004763219000040314201351
2667260016670000000DAVAO DOCTORS - RANK AND FILE           36670090660000000003508579000040314201341
2667260016670000000DAVAO DOCTORS - RANK AND FILE           36671026430000000005139419000040314201350
2667260016670000000DAVAO DOCTORS - RANK AND FILE           36670245610000000002367529000040314201346
2667260016670000000DAVAO DOCTORS - RANK AND FILE           36670328400000000003215839000040314201344
2667260016670000000DAVAO DOCTORS - RANK AND FILE           36670244640000000002702629000040314201342
2667260016670000000DAVAO DOCTORS - RANK AND FILE           36670416010000000001935739000040314201343
2667260016670000000DAVAO DOCTORS - RANK AND FILE           36670205900000000002860769000040314201345
2667260016670000000DAVAO DOCTORS - RANK AND FILE           36670100130000000007046709000040314201346
2667260016670000000DAVAO DOCTORS - RANK AND FILE           36670424970000000007463149000040314201356
2667260016670000000DAVAO DOCTORS - RANK AND FILE           36670902200000000004942589000040314201342
2667260016670000000DAVAO DOCTORS - RANK AND FILE           36670511510000000006595849000040314201349
2667260016670000000DAVAO DOCTORS - RANK AND FILE           36670613000000000003522429000040314201340
2667260016670000000DAVAO DOCTORS - RANK AND FILE           36671066060000000005420229000040314201352
2667260016670000000DAVAO DOCTORS - RANK AND FILE           36670248800000000004041329000040314201348
2667260016670000000DAVAO DOCTORS - RANK AND FILE           36670875200000000005605559000040314201342
2667260016670000000DAVAO DOCTORS - RANK AND FILE           36670883900000000005759999000040314201345
2667260016670000000DAVAO DOCTORS - RANK AND FILE           36670772660000000005902929000040314201345
2667260016670000000DAVAO DOCTORS - RANK AND FILE           36670243320000000003170349000040314201347
2667260016670000000DAVAO DOCTORS - RANK AND FILE           36671037200000000004456709000040314201349
2667260016670000000DAVAO DOCTORS - RANK AND FILE           36670923380000000004507409000040314201347
2667260016670000000DAVAO DOCTORS - RANK AND FILE           36670979760000000005348529000040314201356
2667260016670000000DAVAO DOCTORS - RANK AND FILE           36670542150000000007742399000040314201350
2667260016670000000DAVAO DOCTORS - RANK AND FILE           36670891750000000002685669000040314201348
2667260016670000000DAVAO DOCTORS - RANK AND FILE           36671009500000000004644549000040314201350
2667260016670000000DAVAO DOCTORS - RANK AND FILE           36670951320000000005167879000040314201346
2667260016670000000DAVAO DOCTORS - RANK AND FILE           36670929820000000004886369000040314201355
2667260016670000000DAVAO DOCTORS - RANK AND FILE           36670095620000000003992319000040314201351
2667260016670000000DAVAO DOCTORS - RANK AND FILE           36670846290000000003324069000040314201352
2667260016670000000DAVAO DOCTORS - RANK AND FILE           36671041900000000004186909000040314201346
2667260016670000000DAVAO DOCTORS - RANK AND FILE           36670981820000000005100569000040314201340
2667260016670000000DAVAO DOCTORS - RANK AND FILE           36671000630000000004627509000040314201342
2667260016670000000DAVAO DOCTORS - RANK AND FILE           36670778780000000002848349000040314201354
2667260016670000000DAVAO DOCTORS - RANK AND FILE           36671063040000000004447909000040314201348
2667260016670000000DAVAO DOCTORS - RANK AND FILE           36671027590000000004904079000040314201353
2667260016670000000DAVAO DOCTORS - RANK AND FILE           36670859600000000004724339000040314201347
2667260016670000000DAVAO DOCTORS - RANK AND FILE           36670145820000000002576429000040314201348
2667260016670000000DAVAO DOCTORS - RANK AND FILE           36670103070000000003667249000040314201351
2667260016670000000DAVAO DOCTORS - RANK AND FILE           36671025620000000004627509000040314201346
2667260016670000000DAVAO DOCTORS - RANK AND FILE           36670925400000000005710239000040314201343
2667260016670000000DAVAO DOCTORS - RANK AND FILE           36671005270000000005419979000040314201351
2667260016670000000DAVAO DOCTORS - RANK AND FILE           36670948370000000004514319000040314201352
2667260016670000000DAVAO DOCTORS - RANK AND FILE           36671073350000000004573229000040314201352
2667260016670000000DAVAO DOCTORS - RANK AND FILE           36670777200000000003478309000040314201349
2667260016670000000DAVAO DOCTORS - RANK AND FILE           36670957010000000005417539000040314201346
2667260016670000000DAVAO DOCTORS - RANK AND FILE           36670958840000000005195899000040314201358
2667260016670000000DAVAO DOCTORS - RANK AND FILE           36670102180000000006441279000040314201352
2667260016670000000DAVAO DOCTORS - RANK AND FILE           36670703420000000003930129000040314201343
2667260016670000000DAVAO DOCTORS - RANK AND FILE           36671043790000000004481189000040314201357
2667260016670000000DAVAO DOCTORS - RANK AND FILE           36670109860000000003517009000040314201351
2667260016670000000DAVAO DOCTORS - RANK AND FILE           36670900760000000005539219000040314201346
2667260016670000000DAVAO DOCTORS - RANK AND FILE           36670891400000000004261449000040314201343
2667260016670000000DAVAO DOCTORS - RANK AND FILE           36670104200000000003070189000040314201346
2667260016670000000DAVAO DOCTORS - RANK AND FILE           36670961980000000004970009000040314201352
2667260016670000000DAVAO DOCTORS - RANK AND FILE           36670488270000000007967339000040314201360
2667260016670000000DAVAO DOCTORS - RANK AND FILE           36670931720000000000831769000040314201338
2667260016670000000DAVAO DOCTORS - RANK AND FILE           36671026350000000004644549000040314201352
2667260016670000000DAVAO DOCTORS - RANK AND FILE           36670846610000000004852989000040314201348
2667260016670000000DAVAO DOCTORS - RANK AND FILE           36670846530000000005150089000040314201351
2667260016670000000DAVAO DOCTORS - RANK AND FILE           36670970970000000004535979000040314201346
2667260016670000000DAVAO DOCTORS - RANK AND FILE           36670826690000000005891749000040314201361
2667260016670000000DAVAO DOCTORS - RANK AND FILE           36670958250000000005155179000040314201355
2667260016670000000DAVAO DOCTORS - RANK AND FILE           36670945780000000005312929000040314201351
2667260016670000000DAVAO DOCTORS - RANK AND FILE           36670804100000000003736619000040314201342
2667260016670000000DAVAO DOCTORS - RANK AND FILE           36670487620000000005803679000040314201346
2667260016670000000DAVAO DOCTORS - RANK AND FILE           36670742590000000004213339000040314201348
2667260016670000000DAVAO DOCTORS - RANK AND FILE           36670971350000000004496489000040314201351
2667260016670000000DAVAO DOCTORS - RANK AND FILE           36671031000000000004209689000040314201338
2667260016670000000DAVAO DOCTORS - RANK AND FILE           36670944110000000002386509000040314201347
2667260016670000000DAVAO DOCTORS - RANK AND FILE           36671018840000000004637729000040314201352
2667260016670000000DAVAO DOCTORS - RANK AND FILE           36670872530000000004193099000040314201350
2667260016670000000DAVAO DOCTORS - RANK AND FILE           36671046970000000004429169000040314201352
2667260016670000000DAVAO DOCTORS - RANK AND FILE           36670153410000000003340349000040314201343
2667260016670000000DAVAO DOCTORS - RANK AND FILE           36670856250000000005133509000040314201351
2667260016670000000DAVAO DOCTORS - RANK AND FILE           36670678800000000004198199000040314201353
2667260016670000000DAVAO DOCTORS - RANK AND FILE           36670949930000000005722719000040314201351
2667260016670000000DAVAO DOCTORS - RANK AND FILE           36670206390000000002355409000040314201354
2667260016670000000DAVAO DOCTORS - RANK AND FILE           36671047000000000004453649000040314201349
2667260016670000000DAVAO DOCTORS - RANK AND FILE           36670736000000000005975009000040314201350
2667260016670000000DAVAO DOCTORS - RANK AND FILE           36670242940000000002939139000040314201343
2667260016670000000DAVAO DOCTORS - RANK AND FILE           36670736190000000004928339000040314201353
2667260016670000000DAVAO DOCTORS - RANK AND FILE           36670859780000000005084269000040314201362
2667260016670000000DAVAO DOCTORS - RANK AND FILE           36670667790000000005114129000040314201354
2667260016670000000DAVAO DOCTORS - RANK AND FILE           36670913070000000003772909000040314201352
2667260016670000000DAVAO DOCTORS - RANK AND FILE           36670989480000000004913709000040314201354
2667260016670000000DAVAO DOCTORS - RANK AND FILE           36670685850000000006730339000040314201351
2667260016670000000DAVAO DOCTORS - RANK AND FILE           36670272930000000002618159000040314201340
2667260016670000000DAVAO DOCTORS - RANK AND FILE           36670122100000000003431139000040314201340
2667260016670000000DAVAO DOCTORS - RANK AND FILE           36670264320000000002210289000040314201341
2667260016670000000DAVAO DOCTORS - RANK AND FILE           36670105520000000004266809000040314201349
2667260016670000000DAVAO DOCTORS - RANK AND FILE           36671000550000000004904079000040314201342
2667260016670000000DAVAO DOCTORS - RANK AND FILE           36670103580000000004523809000040314201349
2667260016670000000DAVAO DOCTORS - RANK AND FILE           36670858700000000006200279000040314201346
2667260016670000000DAVAO DOCTORS - RANK AND FILE           36670720270000000001969899000040314201346
2667260016670000000DAVAO DOCTORS - RANK AND FILE           36671039170000000004723779000040314201355
2667260016670000000DAVAO DOCTORS - RANK AND FILE           36670121720000000006515429000040314201342
2667260016670000000DAVAO DOCTORS - RANK AND FILE           36670242860000000004447169000040314201348
2667260016670000000DAVAO DOCTORS - RANK AND FILE           36670732440000000005075029000040314201350
2667260016670000000DAVAO DOCTORS - RANK AND FILE           36670923890000000006272949000040314201357
2667260016670000000DAVAO DOCTORS - RANK AND FILE           36670840170000000005179139000040314201351
2667260016670000000DAVAO DOCTORS - RANK AND FILE           36670718290000000004296389000040314201362
2667260016670000000DAVAO DOCTORS - RANK AND FILE           36670995370000000004871989000040314201355
2667260016670000000DAVAO DOCTORS - RANK AND FILE           36671011750000000006162639000040314201351
2667260016670000000DAVAO DOCTORS - RANK AND FILE           36671039680000000004678609000040314201361
2667260016670000000DAVAO DOCTORS - RANK AND FILE           36670927020000000005797769000040314201355
2667260016670000000DAVAO DOCTORS - RANK AND FILE           36670845210000000005776879000040314201350
2667260016670000000DAVAO DOCTORS - RANK AND FILE           36670094730000000006829289000040314201347
2667260016670000000DAVAO DOCTORS - RANK AND FILE           36670206040000000004785069000040314201354
2667260016670000000DAVAO DOCTORS - RANK AND FILE           36670896040000000005531539000040314201350
2667260016670000000DAVAO DOCTORS - RANK AND FILE           36671001100000000002073009000040314201343
2667260016670000000DAVAO DOCTORS - RANK AND FILE           36671000470000000004865229000040314201350
2667260016670000000DAVAO DOCTORS - RANK AND FILE           36670248550000000002358309000040314201352
2667260016670000000DAVAO DOCTORS - RANK AND FILE           36671020310000000004617279000040314201339
2667260016670000000DAVAO DOCTORS - RANK AND FILE           36670944380000000004259109000040314201353
2667260016670000000DAVAO DOCTORS - RANK AND FILE           36670796920000000004521889000040314201346
2667260016670000000DAVAO DOCTORS - RANK AND FILE           36670103310000000003725659000040314201341
2667260016670000000DAVAO DOCTORS - RANK AND FILE           36671007990000000005106239000040314201354
2667260016670000000DAVAO DOCTORS - RANK AND FILE           36671028480000000003228809000040314201354
2667260016670000000DAVAO DOCTORS - RANK AND FILE           36671042120000000004505669000040314201341
2667260016670000000DAVAO DOCTORS - RANK AND FILE           36671028990000000005920359000040314201357
2667260016670000000DAVAO DOCTORS - RANK AND FILE           36670447400000000006730619000040314201348
2667260016670000000DAVAO DOCTORS - RANK AND FILE           36670107060000000005377079000040314201357
2667260016670000000DAVAO DOCTORS - RANK AND FILE           36671025540000000004969869000040314201352
2667260016670000000DAVAO DOCTORS - RANK AND FILE           36670112810000000010060929000040314201342
2667260016670000000DAVAO DOCTORS - RANK AND FILE           36670931300000000005054319000040314201343
2667260016670000000DAVAO DOCTORS - RANK AND FILE           36670855520000000003255509000040314201347
2667260016670000000DAVAO DOCTORS - RANK AND FILE           36670835840000000004868489000040314201351
2667260016670000000DAVAO DOCTORS - RANK AND FILE           36670606650000000003551549000040314201351
2667260016670000000DAVAO DOCTORS - RANK AND FILE           36670743640000000005499809000040314201353
2667260016670000000DAVAO DOCTORS - RANK AND FILE           36671005190000000005016239000040314201353
2667260016670000000DAVAO DOCTORS - RANK AND FILE           36670987860000000004904079000040314201349
2667260016670000000DAVAO DOCTORS - RANK AND FILE           36670109270000000003178789000040314201358
2667260016670000000DAVAO DOCTORS - RANK AND FILE           36670930240000000003639739000040314201342
2667260016670000000DAVAO DOCTORS - RANK AND FILE           36670703340000000003605219000040314201342
2667260016670000000DAVAO DOCTORS - RANK AND FILE           36670724770000000005684919000040314201356
2667260016670000000DAVAO DOCTORS - RANK AND FILE           36670779830000000005261099000040314201355
2667260016670000000DAVAO DOCTORS - RANK AND FILE           36670866800000000005543909000040314201347
2667260016670000000DAVAO DOCTORS - RANK AND FILE           36670955820000000005019069000040314201345
2667260016670000000DAVAO DOCTORS - RANK AND FILE           36671029450000000004165519000040314201357
2667260016670000000DAVAO DOCTORS - RANK AND FILE           36670899060000000005464049000040314201358
2667260016670000000DAVAO DOCTORS - RANK AND FILE           36670146630000000003884879000040314201352
2667260016670000000DAVAO DOCTORS - RANK AND FILE           36670923970000000006653529000040314201353
2667260016670000000DAVAO DOCTORS - RANK AND FILE           36671060700000000004426189000040314201339
2667260016670000000DAVAO DOCTORS - RANK AND FILE           36670892560000000005877379000040314201352
2667260016670000000DAVAO DOCTORS - RANK AND FILE           36670717130000000005801649000040314201347
2667260016670000000DAVAO DOCTORS - RANK AND FILE           36670828710000000007846799000040314201352
2667260016670000000DAVAO DOCTORS - RANK AND FILE           36671020070000000004420119000040314201346
2667260016670000000DAVAO DOCTORS - RANK AND FILE           36670206470000000002672849000040314201354
2667260016670000000DAVAO DOCTORS - RANK AND FILE           36670206200000000002476649000040314201347
2667260016670000000DAVAO DOCTORS - RANK AND FILE           36670946670000000004972409000040314201356
2667260016670000000DAVAO DOCTORS - RANK AND FILE           36670962440000000004187789000040314201350
2667260016670000000DAVAO DOCTORS - RANK AND FILE           36670264080000000009237829000040314201356
2667260016670000000DAVAO DOCTORS - RANK AND FILE           36670110790000000002800429000040314201343
2667260016670000000DAVAO DOCTORS - RANK AND FILE           36671038100000000004290949000040314201354
2667260016670000000DAVAO DOCTORS - RANK AND FILE           36670978010000000004998629000040314201354
2667260016670000000DAVAO DOCTORS - RANK AND FILE           36670976660000000005197989000040314201358
2667260016670000000DAVAO DOCTORS - RANK AND FILE           36671073510000000004364629000040314201347
2667260016670000000DAVAO DOCTORS - RANK AND FILE           36670105870000000003911659000040314201348
2667260016670000000DAVAO DOCTORS - RANK AND FILE           36671073860000000005179649000040314201354
2667260016670000000DAVAO DOCTORS - RANK AND FILE           36671009000000000004765809000040314201352
2667260016670000000DAVAO DOCTORS - RANK AND FILE           36671038600000000004468949000040314201351
2667260016670000000DAVAO DOCTORS - RANK AND FILE           36671020150000000004998629000040314201351
2667260016670000000DAVAO DOCTORS - RANK AND FILE           36671016980000000005642879000040314201356
2667260016670000000DAVAO DOCTORS - RANK AND FILE           36670778940000000005328149000040314201351
2667260016670000000DAVAO DOCTORS - RANK AND FILE           36670089140000000005386619000040314201358
2667260016670000000DAVAO DOCTORS - RANK AND FILE           36670902540000000006071529000040314201351
2667260016670000000DAVAO DOCTORS - RANK AND FILE           36670991620000000005066319000040314201346
2667260016670000000DAVAO DOCTORS - RANK AND FILE           36670094650000000005068349000040314201352
2667260016670000000DAVAO DOCTORS - RANK AND FILE           36670993830000000004481279000040314201350
2667260016670000000DAVAO DOCTORS - RANK AND FILE           36671076880000000001567719000040314201354
2667260016670000000DAVAO DOCTORS - RANK AND FILE           36670259320000000002363949000040314201351
2667260016670000000DAVAO DOCTORS - RANK AND FILE           36670807120000000005600629000040314201346
2667260016670000000DAVAO DOCTORS - RANK AND FILE           36670776570000000006268299000040314201357
2667260016670000000DAVAO DOCTORS - RANK AND FILE           36670207440000000004156499000040314201352
2667260016670000000DAVAO DOCTORS - RANK AND FILE           36671073600000000004453649000040314201345
2667260016670000000DAVAO DOCTORS - RANK AND FILE           36670097830000000006435149000040314201351
2667260016670000000DAVAO DOCTORS - RANK AND FILE           36670986540000000004433859000040314201349
2667260016670000000DAVAO DOCTORS - RANK AND FILE           36670525220000000007683119000040314201354
2667260016670000000DAVAO DOCTORS - RANK AND FILE           36670867530000000005637629000040314201350
2667260016670000000DAVAO DOCTORS - RANK AND FILE           36670097910000000005395059000040314201354
2667260016670000000DAVAO DOCTORS - RANK AND FILE           36670828470000000006429609000040314201355
2667260016670000000DAVAO DOCTORS - RANK AND FILE           36670088680000000008168659000040314201362
2667260016670000000DAVAO DOCTORS - RANK AND FILE           36670257110000000002500609000040314201342
2667260016670000000DAVAO DOCTORS - RANK AND FILE           36670976400000000004870209000040314201349
2667260016670000000DAVAO DOCTORS - RANK AND FILE           36671028720000000006225789000040314201351
2667260016670000000DAVAO DOCTORS - RANK AND FILE           36670724930000000004670259000040314201350
2667260016670000000DAVAO DOCTORS - RANK AND FILE           36670923540000000004379209000040314201350
2667260016670000000DAVAO DOCTORS - RANK AND FILE           36670247230000000002570599000040314201351
2667260016670000000DAVAO DOCTORS - RANK AND FILE           36670875390000000005450669000040314201356
2667260016670000000DAVAO DOCTORS - RANK AND FILE           36670703180000000004572999000040314201354
2667260016670000000DAVAO DOCTORS - RANK AND FILE           36670492700000000005976869000040314201346
2667260016670000000DAVAO DOCTORS - RANK AND FILE           36670701990000000006442329000040314201352
2667260016670000000DAVAO DOCTORS - RANK AND FILE           36670247310000000003229849000040314201345
2667260016670000000DAVAO DOCTORS - RANK AND FILE           36670853740000000005280119000040314201352
2667260016670000000DAVAO DOCTORS - RANK AND FILE           36670975180000000005280249000040314201358
2667260016670000000DAVAO DOCTORS - RANK AND FILE           36671000390000000004896849000040314201355
2667260016670000000DAVAO DOCTORS - RANK AND FILE           36670393560000000006966979000040314201353
2667260016670000000DAVAO DOCTORS - RANK AND FILE           36670893700000000005370189000040314201347
2667260016670000000DAVAO DOCTORS - RANK AND FILE           36670650980000000005519239000040314201346
2667260016670000000DAVAO DOCTORS - RANK AND FILE           36670401090000000002259459000040314201349
2667260016670000000DAVAO DOCTORS - RANK AND FILE           36670107490000000003533379000040314201354
2667260016670000000DAVAO DOCTORS - RANK AND FILE           36670173790000000002596429000040314201355
2667260016670000000DAVAO DOCTORS - RANK AND FILE           36670944030000000005085489000040314201352
2667260016670000000DAVAO DOCTORS - RANK AND FILE           36670102340000000074470139000040314201356
2667260016670000000DAVAO DOCTORS - RANK AND FILE           36671073430000000004863029000040314201349
2667260016670000000DAVAO DOCTORS - RANK AND FILE           36670974290000000005034279000040314201353
2667260016670000000DAVAO DOCTORS - RANK AND FILE           36670240140000000002264169000040314201344
2667260016670000000DAVAO DOCTORS - RANK AND FILE           36670985730000000005242419000040314201349
2667260016670000000DAVAO DOCTORS - RANK AND FILE           36671025380000000003898999000040314201358
2667260016670000000DAVAO DOCTORS - RANK AND FILE           36670844400000000005475039000040314201348
2667260016670000000DAVAO DOCTORS - RANK AND FILE           36670102690000000003442549000040314201350
2667260016670000000DAVAO DOCTORS - RANK AND FILE           36671045140000000004832669000040314201349
2667260016670000000DAVAO DOCTORS - RANK AND FILE           36670900840000000008600929000040314201344
2667260016670000000DAVAO DOCTORS - RANK AND FILE           36670155540000000008712869000040314201350
2667260016670000000DAVAO DOCTORS - RANK AND FILE           36671038790000000004298129000040314201363
2667260016670000000DAVAO DOCTORS - RANK AND FILE           36670219700000000002462629000040314201349
2667260016670000000DAVAO DOCTORS - RANK AND FILE           36670979680000000005462679000040314201360
2667260016670000000DAVAO DOCTORS - RANK AND FILE           36670116210000000008207889000040314201347
2667260016670000000DAVAO DOCTORS - RANK AND FILE           36670114600000000004406989000040314201340
2667260016670000000DAVAO DOCTORS - RANK AND FILE           36670917730000000005325459000040314201349
2667260016670000000DAVAO DOCTORS - RANK AND FILE           36671063630000000003544999000040314201346
2667260016670000000DAVAO DOCTORS - RANK AND FILE           36671027400000000005008369000040314201345
2667260016670000000DAVAO DOCTORS - RANK AND FILE           36670108460000000004536479000040314201353
2667260016670000000DAVAO DOCTORS - RANK AND FILE           36670636800000000004082459000040314201350
2667260016670000000DAVAO DOCTORS - RANK AND FILE           36671045220000000004615189000040314201345
2667260016670000000DAVAO DOCTORS - RANK AND FILE           36670105280000000008661519000040314201359
2667260016670000000DAVAO DOCTORS - RANK AND FILE           36671028800000000005122819000040314201348
2667260016670000000DAVAO DOCTORS - RANK AND FILE           36670251000000000004404899000040314201337
2667260016670000000DAVAO DOCTORS - RANK AND FILE           36671047510000000004563819000040314201351
2667260016670000000DAVAO DOCTORS - RANK AND FILE           36670156350000000006261529000040314201355
2667260016670000000DAVAO DOCTORS - RANK AND FILE           36671039840000000004565759000040314201356
2667260016670000000DAVAO DOCTORS - RANK AND FILE           36671001790000000004965049000040314201353
2667260016670000000DAVAO DOCTORS - RANK AND FILE           36670968130000000006036289000040314201352
2667260016670000000DAVAO DOCTORS - RANK AND FILE           36671024060000000004860399000040314201353
2667260016670000000DAVAO DOCTORS - RANK AND FILE           36671018760000000004652649000040314201356
2667260016670000000DAVAO DOCTORS - RANK AND FILE           36670259400000000001246499000040314201346
2667260016670000000DAVAO DOCTORS - RANK AND FILE           36670388480000000008637109000040314201359
2667260016670000000DAVAO DOCTORS - RANK AND FILE           36670438330000000002655429000040314201350
2667260016670000000DAVAO DOCTORS - RANK AND FILE           36670978950000000004912339000040314201350
2667260016670000000DAVAO DOCTORS - RANK AND FILE           36670675110000000003448219000040314201345
2667260016670000000DAVAO DOCTORS - RANK AND FILE           36670975850000000004447629000040314201350
2667260016670000000DAVAO DOCTORS - RANK AND FILE           36670885600000000004755609000040314201346
2667260016670000000DAVAO DOCTORS - RANK AND FILE           36670966860000000005231269000040314201352
2667260016670000000DAVAO DOCTORS - RANK AND FILE           36670468320000000004517519000040314201347
2667260016670000000DAVAO DOCTORS - RANK AND FILE           36670925240000000003955009000040314201349
2667260016670000000DAVAO DOCTORS - RANK AND FILE           36670943900000000003887539000040314201346
2667260016670000000DAVAO DOCTORS - RANK AND FILE           36670827310000000002870439000040314201349
2667260016670000000DAVAO DOCTORS - RANK AND FILE           36670907180000000005593579000040314201361
2667260016670000000DAVAO DOCTORS - RANK AND FILE           36670106090000000005108109000040314201352
2667260016670000000DAVAO DOCTORS - RANK AND FILE           36670915790000000003983259000040314201357
2667260016670000000DAVAO DOCTORS - RANK AND FILE           36670986110000000004966579000040314201349
2667260016670000000DAVAO DOCTORS - RANK AND FILE           36670861500000000004616909000040314201338
2667260016670000000DAVAO DOCTORS - RANK AND FILE           36670102260000000008250849000040314201353
2667260016670000000DAVAO DOCTORS - RANK AND FILE           36670971270000000004949779000040314201348
2667260016670000000DAVAO DOCTORS - RANK AND FILE           36670699210000000007487909000040314201357
2667260016670000000DAVAO DOCTORS - RANK AND FILE           36670982630000000004670349000040314201348
2667260016670000000DAVAO DOCTORS - RANK AND FILE           36670961710000000003874839000040314201344
2667260016670000000DAVAO DOCTORS - RANK AND FILE           36671039920000000004232809000040314201351
2667260016670000000DAVAO DOCTORS - RANK AND FILE           36670240060000000004187529000040314201350
2667260016670000000DAVAO DOCTORS - RANK AND FILE           36670247400000000003699909000040314201351
2667260016670000000DAVAO DOCTORS - RANK AND FILE           36671039250000000004204109000040314201351
2667260016670000000DAVAO DOCTORS - RANK AND FILE           36670736430000000006066829000040314201353
2667260016670000000DAVAO DOCTORS - RANK AND FILE           36670921410000000005124909000040314201341
2667260016670000000DAVAO DOCTORS - RANK AND FILE           36670169500000000004823589000040314201347
2667260016670000000DAVAO DOCTORS - RANK AND FILE           36670571920000000003591639000040314201347
2667260016670000000DAVAO DOCTORS - RANK AND FILE           36671039330000000004490369000040314201358
2667260016670000000DAVAO DOCTORS - RANK AND FILE           36670097160000000003097229000040314201357
2667260016670000000DAVAO DOCTORS - RANK AND FILE           36670804880000000002413269000040314201347
2667260016670000000DAVAO DOCTORS - RANK AND FILE           36670783350000000005686579000040314201353
2667260016670000000DAVAO DOCTORS - RANK AND FILE           36670509610000000006609279000040314201348
2667260016670000000DAVAO DOCTORS - RANK AND FILE           36671002840000000004577729000040314201350
2667260016670000000DAVAO DOCTORS - RANK AND FILE           36670627650000000005059099000040314201354
2667260016670000000DAVAO DOCTORS - RANK AND FILE           36670979170000000005613289000040314201354
2667260016670000000DAVAO DOCTORS - RANK AND FILE           36670319830000000002998389000040314201355
2667260016670000000DAVAO DOCTORS - RANK AND FILE           36670943810000000003471769000040314201346
2667260016670000000DAVAO DOCTORS - RANK AND FILE           36671008100000000004317149000040314201346
2667260016670000000DAVAO DOCTORS - RANK AND FILE           36670634190000000005764029000040314201356
2667260016670000000DAVAO DOCTORS - RANK AND FILE           36670086630000000004886689000040314201353
2667260016670000000DAVAO DOCTORS - RANK AND FILE           36670111500000000007006309000040314201340
2667260016670000000DAVAO DOCTORS - RANK AND FILE           36670632300000000007309909000040314201341
2667260016670000000DAVAO DOCTORS - RANK AND FILE           36670437360000000005102229000040314201350
2667260016670000000DAVAO DOCTORS - RANK AND FILE           36670103660000000004749419000040314201349
2667260016670000000DAVAO DOCTORS - RANK AND FILE           36670839590000000003927979000040314201355
2667260016670000000DAVAO DOCTORS - RANK AND FILE           36670846700000000005879399000040314201350
2667260016670000000DAVAO DOCTORS - RANK AND FILE           36670246500000000005675009000040314201350
2667260016670000000DAVAO DOCTORS - RANK AND FILE           36670668920000000006540999000040314201352
2667260016670000000DAVAO DOCTORS - RANK AND FILE           36670674810000000002428289000040314201341
2667260016670000000DAVAO DOCTORS - RANK AND FILE           36670586440000000005257519000040314201352
2667260016670000000DAVAO DOCTORS - RANK AND FILE           36670248200000000003307159000040314201343
2667260016670000000DAVAO DOCTORS - RANK AND FILE           36671025460000000004854899000040314201353
2667260016670000000DAVAO DOCTORS - RANK AND FILE           36671023330000000004634319000040314201346
2667260016670000000DAVAO DOCTORS - RANK AND FILE           36670736270000000004819219000040314201350
2667260016670000000DAVAO DOCTORS - RANK AND FILE           36670516150000000002374619000040314201352
2667260016670000000DAVAO DOCTORS - RANK AND FILE           36670125800000000005125659000040314201344
2667260016670000000DAVAO DOCTORS - RANK AND FILE           36670844320000000003216619000040314201342
2667260016670000000DAVAO DOCTORS - RANK AND FILE           36671010940000000003514179000040314201341
2667260016670000000DAVAO DOCTORS - RANK AND FILE           36670881600000000005407299000040314201338
2667260016670000000DAVAO DOCTORS - RANK AND FILE           36670105790000000003388379000040314201357
2667260016670000000DAVAO DOCTORS - RANK AND FILE           36670105010000000003953209000040314201346
2667260016670000000DAVAO DOCTORS - RANK AND FILE           36671036820000000004621959000040314201347
2667260016670000000DAVAO DOCTORS - RANK AND FILE           36671037390000000004737009000040314201356
2667260016670000000DAVAO DOCTORS - RANK AND FILE           36670979250000000003561949000040314201355
2667260016670000000DAVAO DOCTORS - RANK AND FILE           36670099700000000006455329000040314201352
2667260016670000000DAVAO DOCTORS - RANK AND FILE           36670219960000000003705629000040314201350
2667260016670000000DAVAO DOCTORS - RANK AND FILE           36670255250000000006346129000040314201352
2667260016670000000DAVAO DOCTORS - RANK AND FILE           36670881790000000005774029000040314201354
2667260016670000000DAVAO DOCTORS - RANK AND FILE           36671070330000000005121779000040314201343
2667260016670000000DAVAO DOCTORS - RANK AND FILE           36670852180000000002825749000040314201346
2667260016670000000DAVAO DOCTORS - RANK AND FILE           36670107650000000003378089000040314201354
2667260016670000000DAVAO DOCTORS - RANK AND FILE           36670393300000000007957479000040314201347
2667260016670000000DAVAO DOCTORS - RANK AND FILE           36670684880000000006006219000040314201350
2667260016670000000DAVAO DOCTORS - RANK AND FILE           36670734570000000005642799000040314201352
2667260016670000000DAVAO DOCTORS - RANK AND FILE           36670972590000000005153209000040314201353
2667260016670000000DAVAO DOCTORS - RANK AND FILE           36670222910000000004179839000040314201346
2667260016670000000DAVAO DOCTORS - RANK AND FILE           36671064100000000005226659000040314201344
2667260016670000000DAVAO DOCTORS - RANK AND FILE           36670090740000000005087689000040314201349
2667260016670000000DAVAO DOCTORS - RANK AND FILE           36670958330000000004491489000040314201356
2667260016670000000DAVAO DOCTORS - RANK AND FILE           36670934070000000005460519000040314201354
2667260016670000000DAVAO DOCTORS - RANK AND FILE           36670096860000000002710659000040314201347
2667260016670000000DAVAO DOCTORS - RANK AND FILE           36670891830000000005397309000040314201350
2667260016670000000DAVAO DOCTORS - RANK AND FILE           36671040690000000005124029000040314201349
2667260016670000000DAVAO DOCTORS - RANK AND FILE           36671038280000000004603599000040314201353
2667260016670000000DAVAO DOCTORS - RANK AND FILE           36671060610000000004174799000040314201345
2667260016670000000DAVAO DOCTORS - RANK AND FILE           36670957100000000005160679000040314201350
2667260016670000000DAVAO DOCTORS - RANK AND FILE           36670883810000000004710429000040314201341
2667260016670000000DAVAO DOCTORS - RANK AND FILE           36670321650000000007653809000040314201350
2667260016670000000DAVAO DOCTORS - RANK AND FILE           36670979840000000004843099000040314201353
2667260016670000000DAVAO DOCTORS - RANK AND FILE           36670967750000000005888619000040314201357
2667260016670000000DAVAO DOCTORS - RANK AND FILE           36670197200000000004090089000040314201352
2667260016670000000DAVAO DOCTORS - RANK AND FILE           36671063710000000004398559000040314201350
2667260016670000000DAVAO DOCTORS - RANK AND FILE           36671064010000000004379469000040314201349
2667260016670000000DAVAO DOCTORS - RANK AND FILE           36671018920000000005072899000040314201355
2667260016670000000DAVAO DOCTORS - RANK AND FILE           36670149140000000008703819000040314201353
2667260016670000000DAVAO DOCTORS - RANK AND FILE           36671025890000000004865079000040314201357
2667260016670000000DAVAO DOCTORS - RANK AND FILE           36670945940000000005892659000040314201355
2667260016670000000DAVAO DOCTORS - RANK AND FILE           36670807470000000005029119000040314201353
2667260016670000000DAVAO DOCTORS - RANK AND FILE           36671008450000000003773989000040314201356
2667260016670000000DAVAO DOCTORS - RANK AND FILE           36671010350000000004968259000040314201348
2667260016670000000DAVAO DOCTORS - RANK AND FILE           36671001600000000004574999000040314201345
2667260016670000000DAVAO DOCTORS - RANK AND FILE           36671001010000000004648709000040314201343
2667260016670000000DAVAO DOCTORS - RANK AND FILE           36670089900000000005808859000040314201346
2667260016670000000DAVAO DOCTORS - RANK AND FILE           36670807040000000005697999000040314201357
2667260016670000000DAVAO DOCTORS - RANK AND FILE           36670861680000000003003469000040314201344
2667260016670000000DAVAO DOCTORS - RANK AND FILE           36670846370000000004652389000040314201354
2667260016670000000DAVAO DOCTORS - RANK AND FILE           36671058800000000004438349000040314201348
2667260016670000000DAVAO DOCTORS - RANK AND FILE           36670848310000000002953979000040314201348
2667260016670000000DAVAO DOCTORS - RANK AND FILE           36670926990000000006849239000040314201357
2667260016670000000DAVAO DOCTORS - RANK AND FILE           36670558660000000004386529000040314201358
2667260016670000000DAVAO DOCTORS - RANK AND FILE           36670975770000000004594449000040314201357
2667260016670000000DAVAO DOCTORS - RANK AND FILE           36670855010000000005716599000040314201344
2667260016670000000DAVAO DOCTORS - RANK AND FILE           36670240730000000003507039000040314201338
2667260016670000000DAVAO DOCTORS - RANK AND FILE           36670900920000000005625799000040314201341
2667260016670000000DAVAO DOCTORS - RANK AND FILE           36670955900000000005205959000040314201342
2667260016670000000DAVAO DOCTORS - RANK AND FILE           36670249010000000006613039000040314201349
2667260016670000000DAVAO DOCTORS - RANK AND FILE           36670566500000000002030909000040314201343
2667260016670000000DAVAO DOCTORS - RANK AND FILE           36670670900000000005560879000040314201343
2667260016670000000DAVAO DOCTORS - RANK AND FILE           36670116300000000005481329000040314201351
2667260016670000000DAVAO DOCTORS - RANK AND FILE           36671070170000000005516689000040314201346
2667260016670000000DAVAO DOCTORS - RANK AND FILE           36670293690000000002341149000040314201350
2667260016670000000DAVAO DOCTORS - RANK AND FILE           36671060960000000002464519000040314201347
2667260016670000000DAVAO DOCTORS - RANK AND FILE           36671039410000000004269219000040314201353
2667260016670000000DAVAO DOCTORS - RANK AND FILE           36670110360000000003149029000040314201345
2667260016670000000DAVAO DOCTORS - RANK AND FILE           36670249870000000004304729000040314201352
2667260016670000000DAVAO DOCTORS - RANK AND FILE           36671017010000000004420689000040314201347
2667260016670000000DAVAO DOCTORS - RANK AND FILE           36671069670000000005011989000040314201355
2667260016670000000DAVAO DOCTORS - RANK AND FILE           36670845050000000005697759000040314201356
2667260016670000000DAVAO DOCTORS - RANK AND FILE           36671047270000000005045839000040314201356
2667260016670000000DAVAO DOCTORS - RANK AND FILE           36670943570000000004810369000040314201347
2667260016670000000DAVAO DOCTORS - RANK AND FILE           36670776300000000005733439000040314201346
2667260016670000000DAVAO DOCTORS - RANK AND FILE           36670111760000000005889939000040314201352
2667260016670000000DAVAO DOCTORS - RANK AND FILE           36670093170000000003651849000040314201350
2667260016670000000DAVAO DOCTORS - RANK AND FILE           36671008960000000004211659000040314201352
2667260016670000000DAVAO DOCTORS - RANK AND FILE           36670408690000000003334249000040314201355
2667260016670000000DAVAO DOCTORS - RANK AND FILE           36670984250000000004910499000040314201346
2667260016670000000DAVAO DOCTORS - RANK AND FILE           36670893960000000004705589000040314201345
2667260016670000000DAVAO DOCTORS - RANK AND FILE           36671048830000000004203479000040314201348
2667260016670000000DAVAO DOCTORS - RANK AND FILE           36670917810000000007290909000040314201356
2667260016670000000DAVAO DOCTORS - RANK AND FILE           36670617340000000004452579000040314201352
2667260016670000000DAVAO DOCTORS - RANK AND FILE           36670950350000000005854599000040314201347
2667260016670000000DAVAO DOCTORS - RANK AND FILE           36670854200000000003331229000040314201342
2667260016670000000DAVAO DOCTORS - RANK AND FILE           36671009260000000004623439000040314201354
2667260016670000000DAVAO DOCTORS - RANK AND FILE           36670239480000000004885899000040314201361
2667260016670000000DAVAO DOCTORS - RANK AND FILE           36670959300000000005038609000040314201349
2667260016670000000DAVAO DOCTORS - RANK AND FILE           36671063980000000004444469000040314201352
2667260016670000000DAVAO DOCTORS - RANK AND FILE           36670879970000000005395009000040314201362
2667260016670000000DAVAO DOCTORS - RANK AND FILE           36670590710000000003020829000040314201338
2667260016670000000DAVAO DOCTORS - RANK AND FILE           36671029610000000004076839000040314201354
2667260016670000000DAVAO DOCTORS - RANK AND FILE           36670145580000000005363919000040314201356
2667260016670000000DAVAO DOCTORS - RANK AND FILE           36671037040000000004400989000040314201348
2667260016670000000DAVAO DOCTORS - RANK AND FILE           36671058550000000005719399000040314201352
2667260016670000000DAVAO DOCTORS - RANK AND FILE           36670640670000000004074589000040314201350
2667260016670000000DAVAO DOCTORS - RANK AND FILE           36671043870000000003990769000040314201355
2667260016670000000DAVAO DOCTORS - RANK AND FILE           36670943650000000004977169000040314201351
2667260016670000000DAVAO DOCTORS - RANK AND FILE           36670120080000000007368909000040314201353
2667260016670000000DAVAO DOCTORS - RANK AND FILE           36670822780000000003663349000040314201351
2667260016670000000DAVAO DOCTORS - RANK AND FILE           36670103820000000005981959000040314201350
2667260016670000000DAVAO DOCTORS - RANK AND FILE           36670619800000000005196739000040314201355
2667260016670000000DAVAO DOCTORS - RANK AND FILE           36670904910000000005807749000040314201342
2667260016670000000DAVAO DOCTORS - RANK AND FILE           36670981310000000003603759000040314201337
2667260016670000000DAVAO DOCTORS - RANK AND FILE           36670402220000000004802679000040314201340
2667260016670000000DAVAO DOCTORS - RANK AND FILE           36670283380000000002297329000040314201354
2667260016670000000DAVAO DOCTORS - RANK AND FILE           36670929740000000003599869000040314201357
2667260016670000000DAVAO DOCTORS - RANK AND FILE           36671040850000000004194469000040314201351
2667260016670000000DAVAO DOCTORS - RANK AND FILE           36670902700000000005355009000040314201344
2667260016670000000DAVAO DOCTORS - RANK AND FILE           36670940800000000005210039000040314201338
2667260016670000000DAVAO DOCTORS - RANK AND FILE           36670535960000000004101479000040314201347
2667260016670000000DAVAO DOCTORS - RANK AND FILE           36670880040000000004218789000040314201341
2667260016670000000DAVAO DOCTORS - RANK AND FILE           36670519680000000005146379000040314201358
2667260016670000000DAVAO DOCTORS - RANK AND FILE           36670987000000000004570439000040314201350
2667260016670000000DAVAO DOCTORS - RANK AND FILE           36671001520000000004926539000040314201342
2667260016670000000DAVAO DOCTORS - RANK AND FILE           36670945860000000008037149000040314201354
2667260016670000000DAVAO DOCTORS - RANK AND FILE           36670775090000000006159769000040314201357
2667260016670000000DAVAO DOCTORS - RANK AND FILE           36671047350000000005259219000040314201355
2667260016670000000DAVAO DOCTORS - RANK AND FILE           36670783270000000002008809000040314201344
2667260016670000000DAVAO DOCTORS - RANK AND FILE           36670845130000000006204059000040314201346
2667260016670000000DAVAO DOCTORS - RANK AND FILE           36670239560000000004342669000040314201355
2667260016670000000DAVAO DOCTORS - RANK AND FILE           36670967590000000005211129000040314201354
2667260016670000000DAVAO DOCTORS - RANK AND FILE           36670105100000000002958669000040314201344
2667260016670000000DAVAO DOCTORS - RANK AND FILE           36671026000000000003849229000040314201346
2667260016670000000DAVAO DOCTORS - RANK AND FILE           36670524680000000002402279000040314201346
2667260016670000000DAVAO DOCTORS - RANK AND FILE           36670106330000000006884679000040314201355
2667260016670000000DAVAO DOCTORS - RANK AND FILE           36670955230000000006612509000040314201347
2667260016670000000DAVAO DOCTORS - RANK AND FILE           36671044410000000004854449000040314201347
2667260016670000000DAVAO DOCTORS - RANK AND FILE           36670979090000000004852109000040314201359
2667260016670000000DAVAO DOCTORS - RANK AND FILE           36670866130000000005193909000040314201355
2667260016670000000DAVAO DOCTORS - RANK AND FILE           36671042040000000004152049000040314201348
2667260016670000000DAVAO DOCTORS - RANK AND FILE           36670944200000000004270919000040314201347
2667260016670000000DAVAO DOCTORS - RANK AND FILE           36670852000000000003587189000040314201345
2667260016670000000DAVAO DOCTORS - RANK AND FILE           36671011830000000005098639000040314201351
2667260016670000000DAVAO DOCTORS - RANK AND FILE           36671058630000000005019429000040314201350
2667260016670000000DAVAO DOCTORS - RANK AND FILE           36671063800000000004401629000040314201340
2667260016670000000DAVAO DOCTORS - RANK AND FILE           36670986460000000004926539000040314201350
2667260016670000000DAVAO DOCTORS - RANK AND FILE           36671047780000000005202299000040314201353
2667260016670000000DAVAO DOCTORS - RANK AND FILE           36670983360000000005280799000040314201354
2667260016670000000DAVAO DOCTORS - RANK AND FILE           36670338890000000006055359000040314201360
2667260016670000000DAVAO DOCTORS - RANK AND FILE           36671060530000000004643379000040314201344
2667260016670000000DAVAO DOCTORS - RANK AND FILE           36670931210000000005332689000040314201342
2667260016670000000DAVAO DOCTORS - RANK AND FILE           36671000980000000005152039000040314201351
2667260016670000000DAVAO DOCTORS - RANK AND FILE           36670471970000000007668439000040314201353
2667260016670000000DAVAO DOCTORS - RANK AND FILE           36670907340000000003891479000040314201355
2667260016670000000DAVAO DOCTORS - RANK AND FILE           36670292100000000003381189000040314201345
2667260016670000000DAVAO DOCTORS - RANK AND FILE           36670793310000000003823469000040314201341
2667260016670000000DAVAO DOCTORS - RANK AND FILE           36670981900000000004610459000040314201338
2667260016670000000DAVAO DOCTORS - RANK AND FILE           36670865910000000004771159000040314201349
2667260016670000000DAVAO DOCTORS - RANK AND FILE           36670846450000000003850969000040314201351
2667260016670000000DAVAO DOCTORS - RANK AND FILE           36670921330000000005392049000040314201350
2667260016670000000DAVAO DOCTORS - RANK AND FILE           36671047860000000004453649000040314201355
2667260016670000000DAVAO DOCTORS - RANK AND FILE           36671001440000000006149789000040314201348
2667260016670000000DAVAO DOCTORS - RANK AND FILE           36671008020000000004293929000040314201356
2667260016670000000DAVAO DOCTORS - RANK AND FILE           36670845990000000003150169000040314201354
2667260016670000000DAVAO DOCTORS - RANK AND FILE           36671022520000000005021799000040314201344
2667260016670000000DAVAO DOCTORS - RANK AND FILE           36671025970000000003416999000040314201349
2667260016670000000DAVAO DOCTORS - RANK AND FILE           36670866210000000001894269000040314201349
2667260016670000000DAVAO DOCTORS - RANK AND FILE           36670927290000000005526819000040314201355
2667260016670000000DAVAO DOCTORS - RANK AND FILE           36671036900000000004416929000040314201344
2667260016670000000DAVAO DOCTORS - RANK AND FILE           36670973300000000001662059000040314201342
2667260016670000000DAVAO DOCTORS - RANK AND FILE           36671009340000000004937659000040314201353
2667260016670000000DAVAO DOCTORS - RANK AND FILE           36670956980000000004523189000040314201352
2667260016670000000DAVAO DOCTORS - RANK AND FILE           36670107810000000005987409000040314201353
2667260016670000000DAVAO DOCTORS - RANK AND FILE           36670733170000000005611809000040314201348
2667260016670000000DAVAO DOCTORS - RANK AND FILE           36671038440000000004305739000040314201349
2667260016670000000DAVAO DOCTORS - RANK AND FILE           36671040180000000004429169000040314201347
2667260016670000000DAVAO DOCTORS - RANK AND FILE           36671020230000000005107099000040314201341
2667260016670000000DAVAO DOCTORS - RANK AND FILE           36670877410000000003558509000040314201348
2667260016670000000DAVAO DOCTORS - RANK AND FILE           36670823160000000005863949000040314201352
2667260016670000000DAVAO DOCTORS - RANK AND FILE           36670557260000000004095449000040314201358
2667260016670000000DAVAO DOCTORS - RANK AND FILE           36670250370000000006630319000040314201348
2667260016670000000DAVAO DOCTORS - RANK AND FILE           36670710200000000005025959000040314201339
2667260016670000000DAVAO DOCTORS - RANK AND FILE           36670109600000000003637169000040314201347
2667260016670000000DAVAO DOCTORS - RANK AND FILE           36670913230000000005466299000040314201349
2667260016670000000DAVAO DOCTORS - RANK AND FILE           36671043950000000017117379000040314201350
2667260016670000000DAVAO DOCTORS - RANK AND FILE           36671041660000000004183689000040314201352
2667260016670000000DAVAO DOCTORS - RANK AND FILE           36670673170000000003769359000040314201351
2667260016670000000DAVAO DOCTORS - RANK AND FILE           36670906370000000005304019000040314201350
2667260016670000000DAVAO DOCTORS - RANK AND FILE           36671005350000000004266419000040314201353
2667260016670000000DAVAO DOCTORS - RANK AND FILE           36670946240000000001777809000040314201350
2667260016670000000DAVAO DOCTORS - RANK AND FILE           36670894000000000006204879000040314201342
2667260016670000000DAVAO DOCTORS - RANK AND FILE           36670087950000000004784179000040314201356
2667260016670000000DAVAO DOCTORS - RANK AND FILE           36670092600000000006307579000040314201340
2667260016670000000DAVAO DOCTORS - RANK AND FILE           36670945510000000006285839000040314201352
2667260016670000000DAVAO DOCTORS - RANK AND FILE           36670686150000000007182559000040314201358
2667260016670000000DAVAO DOCTORS - RANK AND FILE           36670958410000000005225969000040314201348
2667260016670000000DAVAO DOCTORS - RANK AND FILE           36670905050000000005700839000040314201347
2667260016670000000DAVAO DOCTORS - RANK AND FILE           36670776140000000004018869000040314201347
2667260016670000000DAVAO DOCTORS - RANK AND FILE           36670468080000000008177219000040314201363
2667260016670000000DAVAO DOCTORS - RANK AND FILE           36670983100000000005181759000040314201348
2667260016670000000DAVAO DOCTORS - RANK AND FILE           36670676780000000004585129000040314201358
2667260016670000000DAVAO DOCTORS - RANK AND FILE           36670109940000000008739299000040314201356
2667260016670000000DAVAO DOCTORS - RANK AND FILE           36670928000000000007250449000040314201352
2667260016670000000DAVAO DOCTORS - RANK AND FILE           36670848400000000003625529000040314201345
2667260016670000000DAVAO DOCTORS - RANK AND FILE           36671040000000000004340589000040314201341
2667260016670000000DAVAO DOCTORS - RANK AND FILE           36670113110000000005989479000040314201349
2667260016670000000DAVAO DOCTORS - RANK AND FILE           36671073270000000004758779000040314201352
2667260016670000000DAVAO DOCTORS - RANK AND FILE           36670871050000000005155189000040314201348
000517000000256370911
