2667260016670000000DAVAO DOCTORS - CONTRACTUAL             36671033640000000002087119000050312201350
2667260016670000000DAVAO DOCTORS - CONTRACTUAL             36671038360000000003850909000050312201355
2667260016670000000DAVAO DOCTORS - CONTRACTUAL             36671039500000000004214479000050312201347
2667260016670000000DAVAO DOCTORS - CONTRACTUAL             36671069320000000001783119000050312201353
2667260016670000000DAVAO DOCTORS - CONTRACTUAL             36671066140000000002087089000050312201353
2667260016670000000DAVAO DOCTORS - CONTRACTUAL             36671067110000000002376189000050312201350
2667260016670000000DAVAO DOCTORS - CONTRACTUAL             36671035690000000002230419000050312201352
2667260016670000000DAVAO DOCTORS - CONTRACTUAL             36671061000000000001981529000050312201343
2667260016670000000DAVAO DOCTORS - CONTRACTUAL             36671063120000000002000109000050312201340
2667260016670000000DAVAO DOCTORS - CONTRACTUAL             36671041150000000003459539000050312201347
2667260016670000000DAVAO DOCTORS - CONTRACTUAL             36671063550000000001820029000050312201344
2667260016670000000DAVAO DOCTORS - CONTRACTUAL             36671067380000000002411939000050312201351
2667260016670000000DAVAO DOCTORS - CONTRACTUAL             36671071220000000006345419000050312201346
2667260016670000000DAVAO DOCTORS - CONTRACTUAL             36671042200000000001949679000050312201340
2667260016670000000DAVAO DOCTORS - CONTRACTUAL             36671041820000000002093059000050312201347
2667260016670000000DAVAO DOCTORS - CONTRACTUAL             36671058710000000002165739000050312201350
2667260016670000000DAVAO DOCTORS - CONTRACTUAL             36671073940000000004758659000050312201349
2667260016670000000DAVAO DOCTORS - CONTRACTUAL             36671041740000000004149519000050312201346
2667260016670000000DAVAO DOCTORS - CONTRACTUAL             36671073780000000004765229000050312201354
2667260016670000000DAVAO DOCTORS - CONTRACTUAL             36671067460000000001443639000050312201351
2667260016670000000DAVAO DOCTORS - CONTRACTUAL             36671041070000000002431089000050312201346
2667260016670000000DAVAO DOCTORS - CONTRACTUAL             36671067540000000002228919000050312201348
2667260016670000000DAVAO DOCTORS - CONTRACTUAL             36671040930000000002079469000050312201345
2667260016670000000DAVAO DOCTORS - CONTRACTUAL             36671038520000000002416829000050312201346
2667260016670000000DAVAO DOCTORS - CONTRACTUAL             36671061180000000002278389000050312201351
2667260016670000000DAVAO DOCTORS - CONTRACTUAL             36671059870000000001340489000050312201354
000026000000007074836
