2667260016670000000DAVAO DOCTORS - CONTRACTUAL             366717448200000000144154690000502182021
2667260016670000000DAVAO DOCTORS - CONTRACTUAL             366717364800000000062703890000502182021
2667260016670000000DAVAO DOCTORS - CONTRACTUAL             366717397400000000067763290000502182021
2667260016670000000DAVAO DOCTORS - CONTRACTUAL             366717350800000000068571390000502182021
2667260016670000000DAVAO DOCTORS - CONTRACTUAL             366717479200000000060225090000502182021
2667260016670000000DAVAO DOCTORS - CONTRACTUAL             366717353200000000067333890000502182021
2667260016670000000DAVAO DOCTORS - CONTRACTUAL             366717352400000000073205890000502182021
2667260016670000000DAVAO DOCTORS - CONTRACTUAL             366717351600000000059161990000502182021
