2667260016670000000DAVAO DOCTORS - CONTRACTUAL             366701030700000000046094090000505292019
2667260016670000000DAVAO DOCTORS - CONTRACTUAL             366715827400000000049986290000505292019
2667260016670000000DAVAO DOCTORS - CONTRACTUAL             366715826600000000056359390000505292019
2667260016670000000DAVAO DOCTORS - CONTRACTUAL             366716059700000000025136890000505292019
2667260016670000000DAVAO DOCTORS - CONTRACTUAL             366716061900000000053829590000505292019
2667260016670000000DAVAO DOCTORS - CONTRACTUAL             366716018000000000028145190000505292019
2667260016670000000DAVAO DOCTORS - CONTRACTUAL             366716060000000000058398290000505292019
2667260016670000000DAVAO DOCTORS - CONTRACTUAL             366715473200000000034813090000505292019
