2667260016670000000DAVAO DOCTORS - OFFICERS                36670511430000000005962009000030412201347
2667260016670000000DAVAO DOCTORS - OFFICERS                36670995450000000004596719000030412201355
2667260016670000000DAVAO DOCTORS - OFFICERS                36670455500000000005776599000030412201349
2667260016670000000DAVAO DOCTORS - OFFICERS                36670959730000000004714069000030412201349
2667260016670000000DAVAO DOCTORS - OFFICERS                36671038360000000005304209000030412201352
2667260016670000000DAVAO DOCTORS - OFFICERS                36670875200000000006972199000030412201350
2667260016670000000DAVAO DOCTORS - OFFICERS                36670232800000000011016779000030412201337
2667260016670000000DAVAO DOCTORS - OFFICERS                36670660940000000008699969000030412201353
2667260016670000000DAVAO DOCTORS - OFFICERS                36670090070000000005751149000030412201349
2667260016670000000DAVAO DOCTORS - OFFICERS                36670820140000000010337909000030412201340
2667260016670000000DAVAO DOCTORS - OFFICERS                36670246260000000007684169000030412201359
2667260016670000000DAVAO DOCTORS - OFFICERS                36670146710000000004720679000030412201345
2667260016670000000DAVAO DOCTORS - OFFICERS                36670487200000000006069939000030412201351
2667260016670000000DAVAO DOCTORS - OFFICERS                36670238590000000011825129000030412201353
2667260016670000000DAVAO DOCTORS - OFFICERS                36670206120000000005333599000030412201348
2667260016670000000DAVAO DOCTORS - OFFICERS                36671002760000000005639549000030412201349
2667260016670000000DAVAO DOCTORS - OFFICERS                36671013960000000004774189000030412201353
2667260016670000000DAVAO DOCTORS - OFFICERS                36670111410000000004773349000030412201345
2667260016670000000DAVAO DOCTORS - OFFICERS                36671030620000000005233119000030412201343
2667260016670000000DAVAO DOCTORS - OFFICERS                36670995610000000008990499000030412201355
2667260016670000000DAVAO DOCTORS - OFFICERS                36670891590000000005892419000030412201356
2667260016670000000DAVAO DOCTORS - OFFICERS                36671019060000000017179179000030412201363
2667260016670000000DAVAO DOCTORS - OFFICERS                36670112730000000004299509000030412201350
2667260016670000000DAVAO DOCTORS - OFFICERS                36670959650000000005320729000030412201353
2667260016670000000DAVAO DOCTORS - OFFICERS                36670776650000000004862439000030412201353
2667260016670000000DAVAO DOCTORS - OFFICERS                36670234410000000009009129000030412201346
2667260016670000000DAVAO DOCTORS - OFFICERS                36671077180000000004223009000030412201354
2667260016670000000DAVAO DOCTORS - OFFICERS                36670633970000000006255049000030412201353
2667260016670000000DAVAO DOCTORS - OFFICERS                36670101020000000007424499000030412201344
2667260016670000000DAVAO DOCTORS - OFFICERS                36671013880000000003677619000030412201354
2667260016670000000DAVAO DOCTORS - OFFICERS                36671040770000000004073539000030412201351
2667260016670000000DAVAO DOCTORS - OFFICERS                36671033720000000004652579000030412201347
2667260016670000000DAVAO DOCTORS - OFFICERS                36671030460000000005369249000030412201350
2667260016670000000DAVAO DOCTORS - OFFICERS                36670885510000000006651819000030412201349
2667260016670000000DAVAO DOCTORS - OFFICERS                36671031860000000005693009000030412201354
2667260016670000000DAVAO DOCTORS - OFFICERS                36670105950000000010542399000030412201347
2667260016670000000DAVAO DOCTORS - OFFICERS                36670776570000000008019869000030412201354
2667260016670000000DAVAO DOCTORS - OFFICERS                36671016630000000005131589000030412201350
2667260016670000000DAVAO DOCTORS - OFFICERS                36670238320000000004584329000030412201354
2667260016670000000DAVAO DOCTORS - OFFICERS                36670237350000000012770879000030412201354
2667260016670000000DAVAO DOCTORS - OFFICERS                36671022870000000005724939000030412201349
2667260016670000000DAVAO DOCTORS - OFFICERS                36670519410000000009089759000030412201359
2667260016670000000DAVAO DOCTORS - OFFICERS                36670872450000000015156679000030412201350
2667260016670000000DAVAO DOCTORS - OFFICERS                36671044090000000004474969000030412201357
2667260016670000000DAVAO DOCTORS - OFFICERS                36670773980000000007646569000030412201354
2667260016670000000DAVAO DOCTORS - OFFICERS                36670085740000000010388209000030412201350
2667260016670000000DAVAO DOCTORS - OFFICERS                36671030540000000003951829000030412201345
2667260016670000000DAVAO DOCTORS - OFFICERS                36670875470000000003760389000030412201353
2667260016670000000DAVAO DOCTORS - OFFICERS                36670456070000000009656079000030412201359
2667260016670000000DAVAO DOCTORS - OFFICERS                36671033800000000005667069000030412201347
2667260016670000000DAVAO DOCTORS - OFFICERS                36671047190000000004583969000030412201361
2667260016670000000DAVAO DOCTORS - OFFICERS                36670251000000000003633229000030412201339
2667260016670000000DAVAO DOCTORS - OFFICERS                36670148760000000008172839000030412201361
2667260016670000000DAVAO DOCTORS - OFFICERS                36670093410000000006273879000030412201349
2667260016670000000DAVAO DOCTORS - OFFICERS                36670454100000000006813059000030412201343
2667260016670000000DAVAO DOCTORS - OFFICERS                36670868420000000010261209000030412201349
2667260016670000000DAVAO DOCTORS - OFFICERS                36670110100000000003903409000030412201335
2667260016670000000DAVAO DOCTORS - OFFICERS                36671021980000000009075509000030412201358
2667260016670000000DAVAO DOCTORS - OFFICERS                36670101880000000005475879000030412201353
2667260016670000000DAVAO DOCTORS - OFFICERS                36670110600000000009637449000030412201344
2667260016670000000DAVAO DOCTORS - OFFICERS                36670234250000000014589929000030412201354
2667260016670000000DAVAO DOCTORS - OFFICERS                36670242270000000006070659000030412201354
2667260016670000000DAVAO DOCTORS - OFFICERS                36670907260000000008843409000030412201357
2667260016670000000DAVAO DOCTORS - OFFICERS                36670504220000000007547909000030412201349
2667260016670000000DAVAO DOCTORS - OFFICERS                36670985650000000006041719000030412201352
2667260016670000000DAVAO DOCTORS - OFFICERS                36670950270000000003220839000030412201344
2667260016670000000DAVAO DOCTORS - OFFICERS                36671058980000000015919279000030412201356
2667260016670000000DAVAO DOCTORS - OFFICERS                36670103900000000004179849000030412201346
2667260016670000000DAVAO DOCTORS - OFFICERS                36671076960000000004226849000030412201351
2667260016670000000DAVAO DOCTORS - OFFICERS                36671004620000000006442099000030412201349
2667260016670000000DAVAO DOCTORS - OFFICERS                36670241700000000004448929000030412201341
2667260016670000000DAVAO DOCTORS - OFFICERS                36670094140000000012109189000030412201343
2667260016670000000DAVAO DOCTORS - OFFICERS                36670946320000000004730989000030412201347
2667260016670000000DAVAO DOCTORS - OFFICERS                36670394700000000007706529000030412201343
2667260016670000000DAVAO DOCTORS - OFFICERS                36670990650000000005685839000030412201350
2667260016670000000DAVAO DOCTORS - OFFICERS                36670769870000000012833429000030412201354
2667260016670000000DAVAO DOCTORS - OFFICERS                36670944460000000007626229000030412201351
2667260016670000000DAVAO DOCTORS - OFFICERS                36670113620000000007867329000030412201350
2667260016670000000DAVAO DOCTORS - OFFICERS                36670833980000000018520969000030412201354
2667260016670000000DAVAO DOCTORS - OFFICERS                36670086470000000005171969000030412201357
2667260016670000000DAVAO DOCTORS - OFFICERS                36671077000000000003674689000030412201350
2667260016670000000DAVAO DOCTORS - OFFICERS                36670996500000000005345569000030412201347
2667260016670000000DAVAO DOCTORS - OFFICERS                36670838600000000004354929000030412201349
2667260016670000000DAVAO DOCTORS - OFFICERS                36670946400000000005470499000030412201350
2667260016670000000DAVAO DOCTORS - OFFICERS                36670092010000000005378659000030412201347
2667260016670000000DAVAO DOCTORS - OFFICERS                36670927450000000005230119000030412201352
2667260016670000000DAVAO DOCTORS - OFFICERS                36670907420000000005347329000030412201350
2667260016670000000DAVAO DOCTORS - OFFICERS                36670022740000000014163829000030412201349
2667260016670000000DAVAO DOCTORS - OFFICERS                36670884030000000011609969000030412201341
2667260016670000000DAVAO DOCTORS - OFFICERS                36670241460000000007462369000030412201352
2667260016670000000DAVAO DOCTORS - OFFICERS                36670232980000000010897909000030412201352
2667260016670000000DAVAO DOCTORS - OFFICERS                36670671630000000004414289000030412201341
2667260016670000000DAVAO DOCTORS - OFFICERS                36670309950000000009632699000030412201358
2667260016670000000DAVAO DOCTORS - OFFICERS                36670981740000000005728349000030412201344
2667260016670000000DAVAO DOCTORS - OFFICERS                36670107140000000004860589000030412201353
2667260016670000000DAVAO DOCTORS - OFFICERS                36670663960000000005578769000030412201353
2667260016670000000DAVAO DOCTORS - OFFICERS                36670861920000000005368119000030412201346
2667260016670000000DAVAO DOCTORS - OFFICERS                36670885780000000006593219000030412201360
2667260016670000000DAVAO DOCTORS - OFFICERS                36670241540000000004677549000030412201348
2667260016670000000DAVAO DOCTORS - OFFICERS                36670502440000000004092399000030412201351
2667260016670000000DAVAO DOCTORS - OFFICERS                36670094900000000004305299000030412201340
2667260016670000000DAVAO DOCTORS - OFFICERS                36671031940000000005501039000030412201343
2667260016670000000DAVAO DOCTORS - OFFICERS                36670172390000000004420519000030412201349
2667260016670000000DAVAO DOCTORS - OFFICERS                36670967400000000006079449000030412201352
2667260016670000000DAVAO DOCTORS - OFFICERS                36670237600000000013783779000030412201351
2667260016670000000DAVAO DOCTORS - OFFICERS                36671006160000000005457219000030412201355
2667260016670000000DAVAO DOCTORS - OFFICERS                36670707920000000007755449000030412201353
2667260016670000000DAVAO DOCTORS - OFFICERS                36670707680000000011026199000030412201351
2667260016670000000DAVAO DOCTORS - OFFICERS                36671013700000000006820089000030412201344
2667260016670000000DAVAO DOCTORS - OFFICERS                36670899810000000005172329000030412201354
2667260016670000000DAVAO DOCTORS - OFFICERS                36670247070000000004316019000030412201351
000111000000078145777
