2667260016670000000DAVAO DOCTORS - CONTRACTUAL             366714887200000000049176490000504272018
2667260016670000000DAVAO DOCTORS - CONTRACTUAL             366714889900000000045473090000504272018
2667260016670000000DAVAO DOCTORS - CONTRACTUAL             366714967400000000054263990000504272018
2667260016670000000DAVAO DOCTORS - CONTRACTUAL             366714963100000000050577790000504272018
2667260016670000000DAVAO DOCTORS - CONTRACTUAL             366715084200000000036718390000504272018
2667260016670000000DAVAO DOCTORS - CONTRACTUAL             366715138500000000052341890000504272018
2667260016670000000DAVAO DOCTORS - CONTRACTUAL             366715074500000000046459190000504272018
