2667260016670000000DAVAO DOCTORS - OFFICERS                36670511430000000004159619000030429201345
2667260016670000000DAVAO DOCTORS - OFFICERS                36670995450000000004704389000030429201346
2667260016670000000DAVAO DOCTORS - OFFICERS                36670455500000000005119539000030429201343
2667260016670000000DAVAO DOCTORS - OFFICERS                36670915600000000002768159000030429201345
2667260016670000000DAVAO DOCTORS - OFFICERS                36670959730000000003595239000030429201356
2667260016670000000DAVAO DOCTORS - OFFICERS                36670875200000000003352679000030429201345
2667260016670000000DAVAO DOCTORS - OFFICERS                36670232800000000009971349000030429201350
2667260016670000000DAVAO DOCTORS - OFFICERS                36670660940000000007926029000030429201345
2667260016670000000DAVAO DOCTORS - OFFICERS                36670090070000000005451499000030429201349
2667260016670000000DAVAO DOCTORS - OFFICERS                36670820140000000009105579000030429201345
2667260016670000000DAVAO DOCTORS - OFFICERS                36670246260000000006718999000030429201351
2667260016670000000DAVAO DOCTORS - OFFICERS                36670146710000000003803019000030429201342
2667260016670000000DAVAO DOCTORS - OFFICERS                36670487200000000004961719000030429201349
2667260016670000000DAVAO DOCTORS - OFFICERS                36670238590000000010821479000030429201352
2667260016670000000DAVAO DOCTORS - OFFICERS                36670206120000000004296549000030429201353
2667260016670000000DAVAO DOCTORS - OFFICERS                36671002760000000004879909000030429201352
2667260016670000000DAVAO DOCTORS - OFFICERS                36671013960000000004266159000030429201352
2667260016670000000DAVAO DOCTORS - OFFICERS                36670111410000000004057329000030429201343
2667260016670000000DAVAO DOCTORS - OFFICERS                36671030620000000004502309000030429201339
2667260016670000000DAVAO DOCTORS - OFFICERS                36670995610000000006665329000030429201350
2667260016670000000DAVAO DOCTORS - OFFICERS                36670891590000000005090869000030429201356
2667260016670000000DAVAO DOCTORS - OFFICERS                36671019060000000014112379000030429201354
2667260016670000000DAVAO DOCTORS - OFFICERS                36670112730000000004013089000030429201342
2667260016670000000DAVAO DOCTORS - OFFICERS                36670959650000000004247469000030429201354
2667260016670000000DAVAO DOCTORS - OFFICERS                36670776650000000004348249000030429201351
2667260016670000000DAVAO DOCTORS - OFFICERS                36670234410000000008730589000030429201348
2667260016670000000DAVAO DOCTORS - OFFICERS                36671077180000000003791209000030429201360
2667260016670000000DAVAO DOCTORS - OFFICERS                36670633970000000006886429000030429201356
2667260016670000000DAVAO DOCTORS - OFFICERS                36670101020000000006260919000030429201347
2667260016670000000DAVAO DOCTORS - OFFICERS                36671013880000000004057359000030429201353
2667260016670000000DAVAO DOCTORS - OFFICERS                36671040770000000003725169000030429201345
2667260016670000000DAVAO DOCTORS - OFFICERS                36671033720000000004516419000030429201343
2667260016670000000DAVAO DOCTORS - OFFICERS                36671030460000000004981579000030429201351
2667260016670000000DAVAO DOCTORS - OFFICERS                36670885510000000006623989000030429201346
2667260016670000000DAVAO DOCTORS - OFFICERS                36671031860000000004294549000030429201353
2667260016670000000DAVAO DOCTORS - OFFICERS                36670105950000000009377689000030429201358
2667260016670000000DAVAO DOCTORS - OFFICERS                36670776570000000005741409000030429201354
2667260016670000000DAVAO DOCTORS - OFFICERS                36671016630000000004439019000030429201349
2667260016670000000DAVAO DOCTORS - OFFICERS                36670238320000000003656579000030429201350
2667260016670000000DAVAO DOCTORS - OFFICERS                36670237350000000009429519000030429201355
2667260016670000000DAVAO DOCTORS - OFFICERS                36671022870000000004107269000030429201346
2667260016670000000DAVAO DOCTORS - OFFICERS                36670519410000000007274739000030429201356
2667260016670000000DAVAO DOCTORS - OFFICERS                36670872450000000014014429000030429201345
2667260016670000000DAVAO DOCTORS - OFFICERS                36671044090000000003936059000030429201352
2667260016670000000DAVAO DOCTORS - OFFICERS                36670773980000000005872489000030429201355
2667260016670000000DAVAO DOCTORS - OFFICERS                36670085740000000009811969000030429201351
2667260016670000000DAVAO DOCTORS - OFFICERS                36671030540000000003468839000030429201346
2667260016670000000DAVAO DOCTORS - OFFICERS                36670875470000000003271079000030429201354
2667260016670000000DAVAO DOCTORS - OFFICERS                36670456070000000007659069000030429201357
2667260016670000000DAVAO DOCTORS - OFFICERS                36671033800000000005006449000030429201341
2667260016670000000DAVAO DOCTORS - OFFICERS                36671047190000000004672719000030429201360
2667260016670000000DAVAO DOCTORS - OFFICERS                36670251000000000002915119000030429201336
2667260016670000000DAVAO DOCTORS - OFFICERS                36670148760000000007744449000030429201357
2667260016670000000DAVAO DOCTORS - OFFICERS                36670093410000000005036569000030429201344
2667260016670000000DAVAO DOCTORS - OFFICERS                36670454100000000005726839000030429201343
2667260016670000000DAVAO DOCTORS - OFFICERS                36670868420000000008952199000030429201355
2667260016670000000DAVAO DOCTORS - OFFICERS                36670110100000000003770479000030429201342
2667260016670000000DAVAO DOCTORS - OFFICERS                36671021980000000008234759000030429201353
2667260016670000000DAVAO DOCTORS - OFFICERS                36670101880000000003209849000030429201344
2667260016670000000DAVAO DOCTORS - OFFICERS                36670110600000000009899059000030429201350
2667260016670000000DAVAO DOCTORS - OFFICERS                36670234250000000013481839000030429201353
2667260016670000000DAVAO DOCTORS - OFFICERS                36670242270000000005232159000030429201349
2667260016670000000DAVAO DOCTORS - OFFICERS                36670907260000000008395559000030429201362
2667260016670000000DAVAO DOCTORS - OFFICERS                36670504220000000006510209000030429201345
2667260016670000000DAVAO DOCTORS - OFFICERS                36670985650000000003945709000030429201349
2667260016670000000DAVAO DOCTORS - OFFICERS                36670950270000000002887909000030429201349
2667260016670000000DAVAO DOCTORS - OFFICERS                36671058980000000013836149000030429201356
2667260016670000000DAVAO DOCTORS - OFFICERS                36670103900000000004179849000030429201346
2667260016670000000DAVAO DOCTORS - OFFICERS                36671076960000000003791209000030429201357
2667260016670000000DAVAO DOCTORS - OFFICERS                36671004620000000005685319000030429201352
2667260016670000000DAVAO DOCTORS - OFFICERS                36670241700000000004490269000030429201346
2667260016670000000DAVAO DOCTORS - OFFICERS                36670094140000000009538459000030429201352
2667260016670000000DAVAO DOCTORS - OFFICERS                36670946320000000004902409000030429201344
2667260016670000000DAVAO DOCTORS - OFFICERS                36670394700000000005886129000030429201349
2667260016670000000DAVAO DOCTORS - OFFICERS                36670990650000000005061199000030429201348
2667260016670000000DAVAO DOCTORS - OFFICERS                36670769870000000011551959000030429201355
2667260016670000000DAVAO DOCTORS - OFFICERS                36670944460000000006996789000030429201357
2667260016670000000DAVAO DOCTORS - OFFICERS                36670113620000000006412709000030429201344
2667260016670000000DAVAO DOCTORS - OFFICERS                36670833980000000015839959000030429201352
2667260016670000000DAVAO DOCTORS - OFFICERS                36670086470000000005464049000030429201356
2667260016670000000DAVAO DOCTORS - OFFICERS                36671077000000000003891439000030429201352
2667260016670000000DAVAO DOCTORS - OFFICERS                36670996500000000004731599000030429201345
2667260016670000000DAVAO DOCTORS - OFFICERS                36670838600000000003755809000030429201348
2667260016670000000DAVAO DOCTORS - OFFICERS                36670946400000000005692009000030429201352
2667260016670000000DAVAO DOCTORS - OFFICERS                36670092010000000004553859000030429201344
2667260016670000000DAVAO DOCTORS - OFFICERS                36671084390000000003268639000030429201355
2667260016670000000DAVAO DOCTORS - OFFICERS                36670927450000000004017859000030429201349
2667260016670000000DAVAO DOCTORS - OFFICERS                36670907420000000004643029000030429201349
2667260016670000000DAVAO DOCTORS - OFFICERS                36670022740000000013097599000030429201351
2667260016670000000DAVAO DOCTORS - OFFICERS                36670884030000000009617079000030429201349
2667260016670000000DAVAO DOCTORS - OFFICERS                36670241460000000006829999000030429201347
2667260016670000000DAVAO DOCTORS - OFFICERS                36670232980000000009305209000030429201351
2667260016670000000DAVAO DOCTORS - OFFICERS                36670671630000000003843989000030429201343
2667260016670000000DAVAO DOCTORS - OFFICERS                36670309950000000008770679000030429201361
2667260016670000000DAVAO DOCTORS - OFFICERS                36670893960000000004136519000030429201348
2667260016670000000DAVAO DOCTORS - OFFICERS                36670981740000000005092919000030429201351
2667260016670000000DAVAO DOCTORS - OFFICERS                36670107140000000003578579000030429201353
2667260016670000000DAVAO DOCTORS - OFFICERS                36670663960000000004722819000030429201347
2667260016670000000DAVAO DOCTORS - OFFICERS                36670861920000000004386089000030429201347
2667260016670000000DAVAO DOCTORS - OFFICERS                36670885780000000005858929000030429201355
2667260016670000000DAVAO DOCTORS - OFFICERS                36670241540000000004000679000030429201341
2667260016670000000DAVAO DOCTORS - OFFICERS                36670502440000000004146639000030429201346
2667260016670000000DAVAO DOCTORS - OFFICERS                36670094900000000005340229000030429201345
2667260016670000000DAVAO DOCTORS - OFFICERS                36671031940000000004438449000030429201345
2667260016670000000DAVAO DOCTORS - OFFICERS                36670172390000000003083019000030429201354
2667260016670000000DAVAO DOCTORS - OFFICERS                36670967400000000005426529000030429201346
2667260016670000000DAVAO DOCTORS - OFFICERS                36670237600000000012745239000030429201346
2667260016670000000DAVAO DOCTORS - OFFICERS                36671006160000000004682629000030429201357
2667260016670000000DAVAO DOCTORS - OFFICERS                36670707920000000005405479000030429201346
2667260016670000000DAVAO DOCTORS - OFFICERS                36670707680000000009560809000030429201362
2667260016670000000DAVAO DOCTORS - OFFICERS                36671013700000000005239399000030429201344
2667260016670000000DAVAO DOCTORS - OFFICERS                36670899810000000004330059000030429201349
2667260016670000000DAVAO DOCTORS - OFFICERS                36670247070000000003337059000030429201352
000113000000068365548
