2667260016670000000DAVAO DOCTORS - OFFICERS                36670511430000000004784299000030327201348
2667260016670000000DAVAO DOCTORS - OFFICERS                36670995450000000005105219000030327201347
2667260016670000000DAVAO DOCTORS - OFFICERS                36670455500000000007393459000030327201353
2667260016670000000DAVAO DOCTORS - OFFICERS                36670915600000000002715039000030327201340
2667260016670000000DAVAO DOCTORS - OFFICERS                36670959730000000003811319000030327201348
2667260016670000000DAVAO DOCTORS - OFFICERS                36671038360000000004211929000030327201352
2667260016670000000DAVAO DOCTORS - OFFICERS                36670232800000000010471349000030327201342
2667260016670000000DAVAO DOCTORS - OFFICERS                36670660940000000007927819000030327201345
2667260016670000000DAVAO DOCTORS - OFFICERS                36670090070000000004909059000030327201343
2667260016670000000DAVAO DOCTORS - OFFICERS                36670820140000000008640279000030327201348
2667260016670000000DAVAO DOCTORS - OFFICERS                36670246260000000006968549000030327201356
2667260016670000000DAVAO DOCTORS - OFFICERS                36670146710000000003815999000030327201343
2667260016670000000DAVAO DOCTORS - OFFICERS                36670487200000000004829809000030327201345
2667260016670000000DAVAO DOCTORS - OFFICERS                36670238590000000012726039000030327201354
2667260016670000000DAVAO DOCTORS - OFFICERS                36670206120000000004396549000030327201353
2667260016670000000DAVAO DOCTORS - OFFICERS                36671002760000000005283999000030327201354
2667260016670000000DAVAO DOCTORS - OFFICERS                36671013960000000003781149000030327201353
2667260016670000000DAVAO DOCTORS - OFFICERS                36670111410000000005097059000030327201348
2667260016670000000DAVAO DOCTORS - OFFICERS                36671030620000000004530609000030327201342
2667260016670000000DAVAO DOCTORS - OFFICERS                36670995610000000009081469000030327201355
2667260016670000000DAVAO DOCTORS - OFFICERS                36670891590000000004718809000030327201347
2667260016670000000DAVAO DOCTORS - OFFICERS                36671019060000000016093529000030327201364
2667260016670000000DAVAO DOCTORS - OFFICERS                36670112730000000004577639000030327201348
2667260016670000000DAVAO DOCTORS - OFFICERS                36670959650000000004363799000030327201356
2667260016670000000DAVAO DOCTORS - OFFICERS                36670776650000000004213819000030327201348
2667260016670000000DAVAO DOCTORS - OFFICERS                36670234410000000007108249000030327201344
2667260016670000000DAVAO DOCTORS - OFFICERS                36671077180000000003876209000030327201358
2667260016670000000DAVAO DOCTORS - OFFICERS                36670633970000000006529929000030327201350
2667260016670000000DAVAO DOCTORS - OFFICERS                36670101020000000006078939000030327201348
2667260016670000000DAVAO DOCTORS - OFFICERS                36671013880000000004210939000030327201349
2667260016670000000DAVAO DOCTORS - OFFICERS                36671040770000000001906669000030327201341
2667260016670000000DAVAO DOCTORS - OFFICERS                36671033720000000004516419000030327201343
2667260016670000000DAVAO DOCTORS - OFFICERS                36671030460000000004691599000030327201352
2667260016670000000DAVAO DOCTORS - OFFICERS                36670885510000000005150449000030327201348
2667260016670000000DAVAO DOCTORS - OFFICERS                36671031860000000004204009000030327201344
2667260016670000000DAVAO DOCTORS - OFFICERS                36670105950000000010264049000030327201349
2667260016670000000DAVAO DOCTORS - OFFICERS                36671016630000000004116759000030327201347
2667260016670000000DAVAO DOCTORS - OFFICERS                36670238320000000004525689000030327201348
2667260016670000000DAVAO DOCTORS - OFFICERS                36670237350000000008899579000030327201361
2667260016670000000DAVAO DOCTORS - OFFICERS                36671022870000000005198739000030327201356
2667260016670000000DAVAO DOCTORS - OFFICERS                36670519410000000008102739000030327201350
2667260016670000000DAVAO DOCTORS - OFFICERS                36670872450000000014114429000030327201345
2667260016670000000DAVAO DOCTORS - OFFICERS                36671044090000000001880199000030327201355
2667260016670000000DAVAO DOCTORS - OFFICERS                36670773980000000006915839000030327201350
2667260016670000000DAVAO DOCTORS - OFFICERS                36670085740000000009225999000030327201352
2667260016670000000DAVAO DOCTORS - OFFICERS                36671030540000000003865519000030327201346
2667260016670000000DAVAO DOCTORS - OFFICERS                36670875470000000002956459000030327201351
2667260016670000000DAVAO DOCTORS - OFFICERS                36670456070000000007640599000030327201356
2667260016670000000DAVAO DOCTORS - OFFICERS                36671033800000000004766329000030327201346
2667260016670000000DAVAO DOCTORS - OFFICERS                36671047190000000003814259000030327201353
2667260016670000000DAVAO DOCTORS - OFFICERS                36670148760000000008072549000030327201361
2667260016670000000DAVAO DOCTORS - OFFICERS                36670093410000000004551469000030327201345
2667260016670000000DAVAO DOCTORS - OFFICERS                36670454100000000005594639000030327201350
2667260016670000000DAVAO DOCTORS - OFFICERS                36670868420000000009189279000030327201359
2667260016670000000DAVAO DOCTORS - OFFICERS                36670110100000000003914039000030327201336
2667260016670000000DAVAO DOCTORS - OFFICERS                36671021980000000008335879000030327201353
2667260016670000000DAVAO DOCTORS - OFFICERS                36670101880000000004649659000030327201349
2667260016670000000DAVAO DOCTORS - OFFICERS                36670110600000000009194449000030327201350
2667260016670000000DAVAO DOCTORS - OFFICERS                36670234250000000013659829000030327201350
2667260016670000000DAVAO DOCTORS - OFFICERS                36670242270000000005252159000030327201351
2667260016670000000DAVAO DOCTORS - OFFICERS                36670907260000000007619779000030327201353
2667260016670000000DAVAO DOCTORS - OFFICERS                36670504220000000006910209000030327201345
2667260016670000000DAVAO DOCTORS - OFFICERS                36670985650000000005402819000030327201347
2667260016670000000DAVAO DOCTORS - OFFICERS                36670950270000000002761439000030327201347
2667260016670000000DAVAO DOCTORS - OFFICERS                36671058980000000014091029000030327201363
2667260016670000000DAVAO DOCTORS - OFFICERS                36670103900000000004179849000030327201346
2667260016670000000DAVAO DOCTORS - OFFICERS                36671076960000000003876209000030327201355
2667260016670000000DAVAO DOCTORS - OFFICERS                36671004620000000005777889000030327201351
2667260016670000000DAVAO DOCTORS - OFFICERS                36670241700000000005344229000030327201342
2667260016670000000DAVAO DOCTORS - OFFICERS                36670094140000000011567649000030327201348
2667260016670000000DAVAO DOCTORS - OFFICERS                36670946320000000004763899000030327201350
2667260016670000000DAVAO DOCTORS - OFFICERS                36670394700000000008468949000030327201350
2667260016670000000DAVAO DOCTORS - OFFICERS                36670990650000000005159919000030327201347
2667260016670000000DAVAO DOCTORS - OFFICERS                36670769870000000013546119000030327201356
2667260016670000000DAVAO DOCTORS - OFFICERS                36670944460000000006996789000030327201357
2667260016670000000DAVAO DOCTORS - OFFICERS                36670113620000000004807619000030327201341
2667260016670000000DAVAO DOCTORS - OFFICERS                36670833980000000016678319000030327201357
2667260016670000000DAVAO DOCTORS - OFFICERS                36670086470000000005631169000030327201353
2667260016670000000DAVAO DOCTORS - OFFICERS                36671077000000000003894439000030327201352
2667260016670000000DAVAO DOCTORS - OFFICERS                36670996500000000004781599000030327201350
2667260016670000000DAVAO DOCTORS - OFFICERS                36670838600000000004162809000030327201350
2667260016670000000DAVAO DOCTORS - OFFICERS                36670946400000000005247539000030327201347
2667260016670000000DAVAO DOCTORS - OFFICERS                36670092010000000004553859000030327201344
2667260016670000000DAVAO DOCTORS - OFFICERS                36670927450000000004780029000030327201356
2667260016670000000DAVAO DOCTORS - OFFICERS                36670907420000000004835139000030327201348
2667260016670000000DAVAO DOCTORS - OFFICERS                36670022740000000013822499000030327201344
2667260016670000000DAVAO DOCTORS - OFFICERS                36670884030000000009855409000030327201353
2667260016670000000DAVAO DOCTORS - OFFICERS                36670241460000000006409409000030327201345
2667260016670000000DAVAO DOCTORS - OFFICERS                36670232980000000010127129000030327201345
2667260016670000000DAVAO DOCTORS - OFFICERS                36670671630000000003702959000030327201339
2667260016670000000DAVAO DOCTORS - OFFICERS                36670309950000000008870679000030327201361
2667260016670000000DAVAO DOCTORS - OFFICERS                36670617180000000003815259000030327201351
2667260016670000000DAVAO DOCTORS - OFFICERS                36670981740000000005184489000030327201350
2667260016670000000DAVAO DOCTORS - OFFICERS                36670107140000000004124669000030327201349
2667260016670000000DAVAO DOCTORS - OFFICERS                36670663960000000005559299000030327201351
2667260016670000000DAVAO DOCTORS - OFFICERS                36670861920000000004586089000030327201347
2667260016670000000DAVAO DOCTORS - OFFICERS                36670885780000000005958929000030327201355
2667260016670000000DAVAO DOCTORS - OFFICERS                36670241540000000003797249000030327201349
2667260016670000000DAVAO DOCTORS - OFFICERS                36670502440000000002526289000030327201342
2667260016670000000DAVAO DOCTORS - OFFICERS                36670094900000000004607289000030327201340
2667260016670000000DAVAO DOCTORS - OFFICERS                36671031940000000004122449000030327201344
2667260016670000000DAVAO DOCTORS - OFFICERS                36670172390000000003669269000030327201352
2667260016670000000DAVAO DOCTORS - OFFICERS                36670967400000000005476529000030327201351
2667260016670000000DAVAO DOCTORS - OFFICERS                36670237600000000012745239000030327201346
2667260016670000000DAVAO DOCTORS - OFFICERS                36671006160000000004717379000030327201350
2667260016670000000DAVAO DOCTORS - OFFICERS                36670707920000000006531999000030327201350
2667260016670000000DAVAO DOCTORS - OFFICERS                36670707680000000008577759000030327201362
2667260016670000000DAVAO DOCTORS - OFFICERS                36671013700000000004484029000030327201348
2667260016670000000DAVAO DOCTORS - OFFICERS                36670899810000000003707269000030327201345
2667260016670000000DAVAO DOCTORS - OFFICERS                36670247070000000002454489000030327201353
000110000000068669550
