2667260016670000000DAVAO DOCTORS - CONTRACTUAL             366716887300000000071460290000509142020
2667260016670000000DAVAO DOCTORS - CONTRACTUAL             366716919500000000069455290000509142020
2667260016670000000DAVAO DOCTORS - CONTRACTUAL             366717152100000000070884690000509142020
2667260016670000000DAVAO DOCTORS - CONTRACTUAL             366716910100000000071576590000509142020
2667260016670000000DAVAO DOCTORS - CONTRACTUAL             366717153000000000071776490000509142020
2667260016670000000DAVAO DOCTORS - CONTRACTUAL             366714675600000000072728090000509142020
2667260016670000000DAVAO DOCTORS - CONTRACTUAL             366716915200000000062598790000509142020
2667260016670000000DAVAO DOCTORS - CONTRACTUAL             366717221800000000067722290000509142020
