2667260016670000000DAVAO DOCTORS - OFFICERS                36670875200000000006870109000030415201350
2667260016670000000DAVAO DOCTORS - OFFICERS                36670707920000000008552009000030415201354
2667260016670000000DAVAO DOCTORS - OFFICERS                36670101020000000012032509000030415201341
2667260016670000000DAVAO DOCTORS - OFFICERS                36670633970000000007794509000030415201358
2667260016670000000DAVAO DOCTORS - OFFICERS                36670454100000000007300009000030415201343
2667260016670000000DAVAO DOCTORS - OFFICERS                36670455500000000008492009000030415201354
2667260016670000000DAVAO DOCTORS - OFFICERS                36670394700000000010857009000030415201342
2667260016670000000DAVAO DOCTORS - OFFICERS                36670206120000000012922509000030415201345
2667260016670000000DAVAO DOCTORS - OFFICERS                36670110100000000010367609000030415201339
2667260016670000000DAVAO DOCTORS - OFFICERS                36670110600000000011125589000030415201336
2667260016670000000DAVAO DOCTORS - OFFICERS                36670232980000000012930129000030415201348
2667260016670000000DAVAO DOCTORS - OFFICERS                36670981740000000006256199000030415201348
2667260016670000000DAVAO DOCTORS - OFFICERS                36670241700000000014050009000030415201343
2667260016670000000DAVAO DOCTORS - OFFICERS                36670828550000000007726009000030415201354
2667260016670000000DAVAO DOCTORS - OFFICERS                36670234410000000017623509000030415201347
2667260016670000000DAVAO DOCTORS - OFFICERS                36670094900000000013846509000030415201344
2667260016670000000DAVAO DOCTORS - OFFICERS                36670146710000000010031509000030415201343
2667260016670000000DAVAO DOCTORS - OFFICERS                36671002760000000006116819000030415201348
2667260016670000000DAVAO DOCTORS - OFFICERS                36670872450000000019500009000030415201349
2667260016670000000DAVAO DOCTORS - OFFICERS                36670985650000000006116819000030415201349
2667260016670000000DAVAO DOCTORS - OFFICERS                36671004620000000007535009000030415201349
2667260016670000000DAVAO DOCTORS - OFFICERS                36670927450000000006102889000030415201350
2667260016670000000DAVAO DOCTORS - OFFICERS                36670502440000000007891029000030415201354
2667260016670000000DAVAO DOCTORS - OFFICERS                36671006160000000005575009000030415201357
2667260016670000000DAVAO DOCTORS - OFFICERS                36670769870000000018873509000030415201364
2667260016670000000DAVAO DOCTORS - OFFICERS                36670884030000000011525849000030415201343
2667260016670000000DAVAO DOCTORS - OFFICERS                36670112730000000013469509000030415201347
2667260016670000000DAVAO DOCTORS - OFFICERS                36670487200000000008758009000030415201352
2667260016670000000DAVAO DOCTORS - OFFICERS                36670959650000000005249689000030415201355
2667260016670000000DAVAO DOCTORS - OFFICERS                36670093410000000010261339000030415201343
2667260016670000000DAVAO DOCTORS - OFFICERS                36670946320000000006348909000030415201350
2667260016670000000DAVAO DOCTORS - OFFICERS                36670092010000000012514609000030415201339
2667260016670000000DAVAO DOCTORS - OFFICERS                36670086470000000016315509000030415201353
2667260016670000000DAVAO DOCTORS - OFFICERS                36670995610000000010850009000030415201344
2667260016670000000DAVAO DOCTORS - OFFICERS                36670891590000000008131509000030415201353
2667260016670000000DAVAO DOCTORS - OFFICERS                36671019060000000021050009000030415201356
2667260016670000000DAVAO DOCTORS - OFFICERS                36670838600000000006211369000030415201347
2667260016670000000DAVAO DOCTORS - OFFICERS                36670107140000000010801509000030415201344
2667260016670000000DAVAO DOCTORS - OFFICERS                36670885510000000007300009000030415201345
2667260016670000000DAVAO DOCTORS - OFFICERS                36670090070000000014720509000030415201346
2667260016670000000DAVAO DOCTORS - OFFICERS                36670238590000000018121509000030415201360
2667260016670000000DAVAO DOCTORS - OFFICERS                36670237350000000017100009000030415201352
2667260016670000000DAVAO DOCTORS - OFFICERS                36670085740000000015246509000030415201351
2667260016670000000DAVAO DOCTORS - OFFICERS                36670094140000000015758509000030415201351
2667260016670000000DAVAO DOCTORS - OFFICERS                36670995450000000006479199000030415201355
2667260016670000000DAVAO DOCTORS - OFFICERS                36670111410000000011329509000030415201338
2667260016670000000DAVAO DOCTORS - OFFICERS                36671030460000000006000009000030415201345
2667260016670000000DAVAO DOCTORS - OFFICERS                36670875470000000007414009000030415201352
2667260016670000000DAVAO DOCTORS - OFFICERS                36670907260000000011225009000030415201349
2667260016670000000DAVAO DOCTORS - OFFICERS                36670950270000000005918759000030415201345
2667260016670000000DAVAO DOCTORS - OFFICERS                36670996500000000006479199000030415201351
2667260016670000000DAVAO DOCTORS - OFFICERS                36670907420000000006423449000030415201349
2667260016670000000DAVAO DOCTORS - OFFICERS                36670504220000000008777509000030415201353
2667260016670000000DAVAO DOCTORS - OFFICERS                36670511430000000008843309000030415201348
2667260016670000000DAVAO DOCTORS - OFFICERS                36670959730000000005983709000030415201357
2667260016670000000DAVAO DOCTORS - OFFICERS                36670101880000000010417989000030415201343
2667260016670000000DAVAO DOCTORS - OFFICERS                36670990650000000006500009000030415201343
2667260016670000000DAVAO DOCTORS - OFFICERS                36670861920000000011713509000030415201338
2667260016670000000DAVAO DOCTORS - OFFICERS                36670885780000000007634229000030415201355
2667260016670000000DAVAO DOCTORS - OFFICERS                36670773980000000009036009000030415201355
2667260016670000000DAVAO DOCTORS - OFFICERS                36670251000000000009205119000030415201342
2667260016670000000DAVAO DOCTORS - OFFICERS                36670944460000000008501889000030415201350
2667260016670000000DAVAO DOCTORS - OFFICERS                36670967400000000008500009000030415201347
2667260016670000000DAVAO DOCTORS - OFFICERS                36670148760000000009923509000030415201357
2667260016670000000DAVAO DOCTORS - OFFICERS                36670868420000000020560009000030415201350
2667260016670000000DAVAO DOCTORS - OFFICERS                36670246260000000009219619000030415201354
2667260016670000000DAVAO DOCTORS - OFFICERS                36670660940000000009637589000030415201348
2667260016670000000DAVAO DOCTORS - OFFICERS                36671013960000000005360449000030415201353
2667260016670000000DAVAO DOCTORS - OFFICERS                36671058980000000019000009000030415201359
2667260016670000000DAVAO DOCTORS - OFFICERS                36670172390000000011000009000030415201345
2667260016670000000DAVAO DOCTORS - OFFICERS                36671013880000000005121209000030415201351
2667260016670000000DAVAO DOCTORS - OFFICERS                36670671630000000010041689000030415201341
2667260016670000000DAVAO DOCTORS - OFFICERS                36670663960000000007727009000030415201350
2667260016670000000DAVAO DOCTORS - OFFICERS                36670232800000000017240009000030415201346
2667260016670000000DAVAO DOCTORS - OFFICERS                36670234250000000016432009000030415201351
2667260016670000000DAVAO DOCTORS - OFFICERS                36671022870000000006548889000030415201352
2667260016670000000DAVAO DOCTORS - OFFICERS                36670519410000000017527509000030415201352
2667260016670000000DAVAO DOCTORS - OFFICERS                36671030540000000004750009000030415201346
2667260016670000000DAVAO DOCTORS - OFFICERS                36670238320000000005909579000030415201347
2667260016670000000DAVAO DOCTORS - OFFICERS                36670022740000000017097509000030415201355
2667260016670000000DAVAO DOCTORS - OFFICERS                36671013700000000007500009000030415201343
2667260016670000000DAVAO DOCTORS - OFFICERS                36670247070000000008529509000030415201356
2667260016670000000DAVAO DOCTORS - OFFICERS                36670820140000000014417529000030415201342
2667260016670000000DAVAO DOCTORS - OFFICERS                36670237600000000019367509000030415201355
2667260016670000000DAVAO DOCTORS - OFFICERS                36670893960000000007420109000030415201350
2667260016670000000DAVAO DOCTORS - OFFICERS                36670456070000000010676009000030415201353
2667260016670000000DAVAO DOCTORS - OFFICERS                36670776570000000007741629000030415201356
2667260016670000000DAVAO DOCTORS - OFFICERS                36670833980000000022685009000030415201355
2667260016670000000DAVAO DOCTORS - OFFICERS                36670707680000000023842509000030415201356
2667260016670000000DAVAO DOCTORS - OFFICERS                36670946400000000007300009000030415201345
2667260016670000000DAVAO DOCTORS - OFFICERS                36670103900000000012639289000030415201341
2667260016670000000DAVAO DOCTORS - OFFICERS                36670105950000000012939009000030415201348
2667260016670000000DAVAO DOCTORS - OFFICERS                36671021980000000010925009000030415201345
2667260016670000000DAVAO DOCTORS - OFFICERS                36670242270000000010887469000030415201350
2667260016670000000DAVAO DOCTORS - OFFICERS                36670241540000000006010989000030415201344
2667260016670000000DAVAO DOCTORS - OFFICERS                36671031860000000005000009000030415201345
2667260016670000000DAVAO DOCTORS - OFFICERS                36671016630000000005487509000030415201355
2667260016670000000DAVAO DOCTORS - OFFICERS                36671031940000000005000009000030415201343
2667260016670000000DAVAO DOCTORS - OFFICERS                36670241460000000014779009000030415201351
2667260016670000000DAVAO DOCTORS - OFFICERS                36670113620000000011342409000030415201343
2667260016670000000DAVAO DOCTORS - OFFICERS                36670309950000000011358759000030415201353
2667260016670000000DAVAO DOCTORS - OFFICERS                36670899810000000007811029000030415201350
2667260016670000000DAVAO DOCTORS - OFFICERS                36670776650000000008183259000030415201359
000103000000108754542
