2667260016670000000DDH-SF COMM                             36670997310000000008390829000310412201357
2667260016670000000DDH-SF COMM                             36670972080000000006987819000310412201356
2667260016670000000DDH-SF COMM                             36670896200000000003150009000310412201346
2667260016670000000DDH-SF COMM                             36671066220000000007100009000310412201348
2667260016670000000DDH-SF COMM                             36670991540000000016100009000310412201344
2667260016670000000DDH-SF COMM                             36670921090000000006200009000310412201348
2667260016670000000DDH-SF COMM                             36671049480000000007100009000310412201357
2667260016670000000DDH-SF COMM                             36670996180000000003700009000310412201349
2667260016670000000DDH-SF COMM                             36670993590000000003052459000310412201352
2667260016670000000DDH-SF COMM                             36671044250000000007100009000310412201349
2667260016670000000DDH-SF COMM                             36671044330000000008100009000310412201348
2667260016670000000DDH-SF COMM                             36670993670000000007550009000310412201354
2667260016670000000DDH-SF COMM                             36670993320000000007550009000310412201349
2667260016670000000DDH-SF COMM                             36671047600000000007100009000310412201347
2667260016670000000DDH-SF COMM                             36671049560000000007100009000310412201355
2667260016670000000DDH-SF COMM                             36671044500000000007100009000310412201344
2667260016670000000DDH-SF COMM                             36670925320000000003650009000310412201347
2667260016670000000DDH-SF COMM                             36670848580000000008300009000310412201356
2667260016670000000DDH-SF COMM                             36670959490000000003500009000310412201353
2667260016670000000DDH-SF COMM                             36670902110000000008450009000310412201348
2667260016670000000DDH-SF COMM                             36670956390000000003216679000310412201351
2667260016670000000DDH-SF COMM                             36670879890000000008450009000310412201363
2667260016670000000DDH-SF COMM                             36670923620000000003000009000310412201340
2667260016670000000DDH-SF COMM                             36671066300000000007100009000310412201346
2667260016670000000DDH-SF COMM                             36670892300000000008000009000310412201342
2667260016670000000DDH-SF COMM                             36670931990000000012950009000310412201350
2667260016670000000DDH-SF COMM                             36670907850000000011900009000310412201346
2667260016670000000DDH-SF COMM                             36670975340000000011600009000310412201343
2667260016670000000DDH-SF COMM                             36670995290000000011600009000310412201348
2667260016670000000DDH-SF COMM                             36670932370000000012500009000310412201344
2667260016670000000DDH-SF COMM                             36670853310000000008450009000310412201349
2667260016670000000DDH-SF COMM                             36670877500000000008900009000310412201347
2667260016670000000DDH-SF COMM                             36670999360000000007550009000310412201359
2667260016670000000DDH-SF COMM                             36670999440000000007550009000310412201357
2667260016670000000DDH-SF COMM                             36671059950000000007400009000310412201354
2667260016670000000DDH-SF COMM                             36670822860000000008900009000310412201348
2667260016670000000DDH-SF COMM                             36670903190000000007550009000310412201356
2667260016670000000DDH-SF COMM                             36670962870000000015966269000310412201353
2667260016670000000DDH-SF COMM                             36670887050000000008000009000310412201352
2667260016670000000DDH-SF COMM                             36670886320000000004293159000310412201353
2667260016670000000DDH-SF COMM                             36670991970000000004701229000310412201344
2667260016670000000DDH-SF COMM                             36671067200000000007040009000310412201351
2667260016670000000DDH-SF COMM                             36671070250000000007000009000310412201345
2667260016670000000DDH-SF COMM                             36671023410000000013500009000310412201341
2667260016670000000DDH-SF COMM                             36671022440000000005400009000310412201344
2667260016670000000DDH-SF COMM                             36670867100000000016700009000310412201346
2667260016670000000DDH-SF COMM                             36671077930000000018000009000310412201352
2667260016670000000DDH-SF COMM                             36671079630000000018000009000310412201354
2667260016670000000DDH-SF COMM                             36670746740000000013440009000310412201350
2667260016670000000DDH-SF COMM                             36670867020000000017000009000310412201349
2667260016670000000DDH-SF COMM                             36670868500000000018000009000310412201349
2667260016670000000DDH-SF COMM                             36671009420000000005000009000310412201349
000052000000045593838
