2667260016670000000DAVAO DOCTORS - CONTRACTUAL             366716887300000000057060190000506292020
2667260016670000000DAVAO DOCTORS - CONTRACTUAL             366716919500000000076715390000506292020
2667260016670000000DAVAO DOCTORS - CONTRACTUAL             366716800800000000054084590000506292020
2667260016670000000DAVAO DOCTORS - CONTRACTUAL             366716910100000000057272290000506292020
2667260016670000000DAVAO DOCTORS - CONTRACTUAL             366716915200000000061615890000506292020
2667260016670000000DAVAO DOCTORS - CONTRACTUAL             366716889000000000056617990000506292020
